:100000000C94F2010C94FC0C0C94060D0C94100D45
:100010000C941A0D0C94240D0C942E0D0C94841732
:100020000C94380D0C9411020C9411020C94EB1EDC
:100030000C9489200C94C60C0C94DC0C0C947F124C
:100040000C94B50C0C94B6220C94630F0C94110212
:100050000C94DF0F0C94420D0C9411020C941102BD
:100060000C94D10C0C9432110C9411110C941C11A1
:100070000C9427110C9445110C94F4100C9411025B
:100080000C9406110C9411020C9411028214871422
:100090007D14821487147D147814821487147D14BF
:1000A0007814821487147D14821487147D147814B4
:1000B000821487147D147814821487147D143615E5
:1000C0003B15311536153B1531152C1536153B15DD
:1000D00031152C1536153B15311536153B153115D7
:1000E0002C1536153B1531152C1536153B153115CC
:1000F000A615AD159F15A615AD159F159815A61536
:10010000AD159F159815A615AD159F15A615AD151E
:100110009F159815A615AD159F159815A615AD1523
:100120009F15131C1E1C081C131C1E1C081CFD1BE9
:10013000131C1E1C081CFD1B131C1E1C081C131C5E
:100140001E1C081CFD1B131C1E1C081CFD1B131C65
:100150001E1C081C071D121DFC1C071D121DFC1C6B
:10016000F11C071D121DFC1CF11C071D121DFC1C9F
:10017000071D121DFC1CF11C071D121DFC1CF11C8F
:10018000071D121DFC1C523F9D3FA03FA33FA63FF1
:10019000463F194027409B40D440224125412B41F6
:1001A00064419F41A241B741BA41CC4139423C42EE
:1001B00044425542654268426B426E42714274420B
:1001C00077427A420F467D4280428342864289428C
:1001D0008C428F4292429542CB424C3FFF450000F9
:1001E0002110422063308440A550C660E77008812A
:1001F00029914AA16BB18CC1ADD1CEE1EFF13112A1
:10020000100273325222B5529442F772D662399379
:1002100018837BB35AA3BDD39CC3FFF3DEE36224F0
:10022000433420040114E664C774A44485546AA5C9
:100230004BB528850995EEE5CFF5ACC58DD5533680
:10024000722611163006D776F6669556B4465BB719
:100250007AA719973887DFF7FEE79DD7BCC7C44850
:10026000E5588668A7784008611802282338CCC969
:10027000EDD98EE9AFF9488969990AA92BB9F55AE0
:10028000D44AB77A966A711A500A333A122AFDDBB9
:10029000DCCBBFFB9EEB799B588B3BBB1AABA66CB0
:1002A000877CE44CC55C222C033C600C411CAEED09
:1002B0008FFDECCDCDDD2AAD0BBD688D499D977EC0
:1002C000B66ED55EF44E133E322E511E700E9FFF59
:1002D000BEEFDDDFFCCF1BBF3AAF599F788F88910F
:1002E000A981CAB1EBA10CD12DC14EF16FE18010F3
:1002F000A100C230E3200450254046706760B983F6
:100300009893FBA3DAB33DC31CD37FE35EF3B10242
:100310009012F322D2323542145277625672EAB505
:10032000CBA5A89589856EF54FE52CD50DC5E23492
:10033000C324A01481046674476424540544DBA7D5
:10034000FAB79987B8975FE77EF71DC73CD7D326E2
:10035000F2369106B01657667676154634564CD965
:100360006DC90EF92FE9C899E9898AB9ABA9445832
:10037000654806782768C018E1088238A3287DCB35
:100380005CDB3FEB1EFBF98BD89BBBAB9ABB754A82
:10039000545A376A167AF10AD01AB32A923A2EFDC5
:1003A0000FED6CDD4DCDAABD8BADE89DC98D267CD2
:1003B000076C645C454CA23C832CE01CC10C1FEF15
:1003C0003EFF5DCF7CDF9BAFBABFD98FF89F176E22
:1003D000367E554E745E932EB23ED10EF01E00084E
:1003E0001C18141011241FBECFEFD0E1DEBFCDBF0B
:1003F00011E0A0E0B1E0EEEDF6E900E00BBF02C0D5
:1004000007900D92A834B107D9F716E0A8E4B1E03F
:1004100001C01D92A53DB107E1F70E943F460C9433
:100420006E4B0C9400008FB7F894992708958FBFF6
:1004300008955698579810926D0510924603539A56
:10044000549A579A8FB7F89499271092760510927C
:1004500043038FBF0895282F9FB7F894E82FFF27F5
:10046000EE5DFD4F80818F3F81F4E091B306E2178E
:1004700071F40BC020932B0604C0FF27EE5DFD4FE7
:1004800020832093B30620E007C025E005C08091BB
:100490002B068F3F91F7EECF892F99278FBF822FA1
:1004A0009927089588E10E942B02992708958CE0EE
:1004B0000E942B02992708958DE00E942B02992714
:1004C000089582E10E942B029927089583E10E94FA
:1004D0002B029927089585E10E942B029927089500
:1004E00087E20E942B029927089584E10E942B0243
:1004F0009927089580E00E942B029927089581E0B2
:100500000E942B02992708951F931FB7F89480919A
:100510007A06882341F484E20E942B02882319F48E
:1005200081E080937A06812F99278FBF1F910895CC
:10053000382FFA01422F2D3118F082E090E0089513
:100540006683872F9927858333872187809173015D
:1005500090917401892B19F085E090E008952FB7F0
:10056000F894332785E08093760110927701F09319
:100570007201E093710182E090E0909374018093A6
:1005800073011092790110927801445F40937501D4
:100590002FBF8FB7F894282F3327809176058A30A4
:1005A00011F42FBF19C02FBF9FB7F8948091A003FB
:1005B000882311F020E006C081E08093A003109210
:1005C000A10321E0892F99278FBF222329F00E94C0
:1005D000840280E090E008951092740110927301FB
:1005E00081E090E0089580911701809387068091C3
:1005F000180180938A068091190190911A018093C5
:100600008906892F99278093880680914A018093D3
:100610008B0680914B0190914C0180938D06892F20
:10062000992780938C0680914D0180938E0680914E
:100630004901882369F428E04BE756E06FEF7FEF2C
:1006400089E80E949802882319F481E08093490187
:1006500008951F93CF93DF93E82FFF27EE0FFF1F1F
:10066000EE50FA4F11821082809145019927019630
:1006700062E070E00E94D04A682F8093450110E04C
:10068000462F5527FA01EE0FFF1FEE50FA4FA081BB
:10069000B181109799F0E62FE695E695E695FF274C
:1006A000E959FC4F808199279A012770307002C068
:1006B000959587952A95E2F780FF0DC0CA010196AE
:1006C00062E070E00E94D04A682F1F5F1230C1F6CE
:1006D000109345011AC0609345016230B0F4FD01EA
:1006E000359624813327ED016D817727762F662794
:1006F00081819927682B792BAD0186810E94980210
:10070000882319F08BE20E942B02DF91CF911F9179
:100710000895CF93DF93982F8FB7F894C82FDD27D4
:100720002C2F80916501882361F481E0809365011D
:10073000909393038EE10E942B02CFBF80E090E064
:1007400021C0E92FFF27EE5DFC4F80818F3F89F4A8
:10075000E0913B01E91789F40CC090933A0104C081
:10076000FF27EE5DFC4F908390933B0180E090E08B
:1007700002C085E090E02FBF05C080913A018F3F15
:1007800079F7EBCFDF91CF9108951F93182F8091C8
:100790006D018823E1F4633041F0643041F0623050
:1007A00011F081E007C080E103C08EE001C08FE05E
:1007B0000E94890390E0882309F491E090936D01F1
:1007C000992329F01093C10580E090E002C081E0F8
:1007D00090E01F910895CF92DF92EF92FF920F93D6
:1007E0001F93CF93DF936C018B017A01E901232BD7
:1007F00019F1FB01B3E0F695E795BA95E1F7EE0D37
:10080000FF1D808199279B012770307002C095954C
:1008100087952A95E2F780FF06C0F6017183608311
:1008200080E090E00BC0CB010196BE010E94BC4A63
:10083000BC0180179107E9F681E090E0DF91CF914C
:100840001F910F91FF90EF90DF90CF900895EF925E
:100850000F931F93AE2D99E0899FF0011124E75962
:10086000FB4F408351836283738304831583268304
:100870003783A17080858E7F8A2B8260808784E099
:100880000E942B021F910F91EF9008957FB7F8946B
:1008900062B72091C7013091C8014091C9015091C0
:1008A000CA0106B601FE0FC081B792B7280F311DED
:1008B000411D511D2F5F3F4F4F4F5F4F290F311D7E
:1008C000411D511D04C0260F311D411D511D872F93
:1008D00099278FBFCA01B9010895AF92BF92CF92F5
:1008E000DF92EF92FF920F931F93F82E5A016B0144
:1008F0000E944604AB01BC0111E0E12E9601850186
:100900008F2D0E9427041F910F91FF90EF90DF9091
:10091000CF90BF90AF9008952F923F924F925F92E9
:100920006F927F928F929F92AF92BF92CF92DF92FF
:10093000EF92FF920F931F93CF93DF93CDB7DEB764
:1009400029970FB6F894DEBF0FBECDBF6FB769838E
:10095000F89420905D0330905E0340905F035090C8
:1009600060036624772488249EE4A92E83E8B82EA9
:10097000CC24DD24EE24FF2400E010E0222D332DD2
:10098000442D552D662D772D882D90E00E9410491D
:100990002A833B834C835D836E837F83888799871B
:1009A000822E932EA42EB52E2401350100E20E9442
:1009B0000E4AA22EB32EC42ED52EA3019201569517
:1009C0004795379527952A0D3B1D4C1D5D1D57FFFB
:1009D00005C05F772F5F3F4F4F4F5F4F20935D0301
:1009E00030935E0340935F0350936003E9818E2F41
:1009F00099278FBFCA01B90129960FB6F894DEBFB7
:100A00000FBECDBFDF91CF911F910F91FF90EF905F
:100A1000DF90CF90BF90AF909F908F907F906F901E
:100A20005F904F903F902F9008950E948C04DC01BE
:100A3000CB010895FC0182819927582F4427818199
:100A40009927482B592BCA01892F99278695869576
:100A5000837090708230910559F08330910559F080
:100A6000892B19F420E030E008C02CE93FEF05C0E5
:100A700022E030E002C028E030E0CA0184E0989F24
:100A8000812D992711248230910559F083309105E9
:100A900059F0892B19F480E090E008C08CE99FEFB1
:100AA00005C082E090E002C088E090E0280F391F86
:100AB0002A5F3F4FCF01820F931F0895282F9FB7C2
:100AC000F894662349F0E82FFF27E957FA4F808111
:100AD000882311F021E006C0E22FFF27E957FA4FE3
:100AE000608320E0892F99278FBF822F992708954F
:100AF0004FB7F8945527FC01A3E0F695E795AA9522
:100B0000E1F7E25BFA4F8770907021E030E002C0BD
:100B1000220F331F8A95E2F78081822B80834FBF9B
:100B20000895FC016683672F772765830895CF9327
:100B3000DF93582FDB01823018F081E090E038C05D
:100B4000C82FDD27CC0FDD1FCE50DA4F8881998169
:100B5000892B19F085E090E02BC0798368839B0195
:100B60002B5F3F4FF901448380914501823018F497
:100B700080E090E01DC0F9018681FB016581772747
:100B8000762F6627F90121813327622B732B50932F
:100B90004501242FAD010E9498029927282F882310
:100BA00029F082E08093450119821882822F9927CB
:100BB000DF91CF9108950F931F9380939E0202E9D6
:100BC00012E06FEF7FEFC8010E94910584E58093EA
:100BD0009D0241E0B80181E00E9497051F910F91AD
:100BE00008959FB7F894292F3327422F90913C0105
:100BF000981741F480916501823021F42FBF81E084
:100C000090E008954FBF80E090E0089582E10E9457
:100C1000F10599270895982F8FB7F894282F332737
:100C200080916501882349F482E080936501909367
:100C30003C012FBF80E090E008952FBF81E090E05D
:100C40000895CF92DF92EF92FF920F931F937A0154
:100C50008B018093E6033AEDC32E33E0D32E6FEF82
:100C60007FEFC6010E94910583E58093E5034E2D39
:100C7000B60180E00E9497051F910F91FF90EF90C1
:100C8000DF90CF9008958FB7F89499272BB334E075
:100C900023272BBB8FBF0895882311F06E9A0895E8
:100CA0006E980895882311F06F9A08956F980895AB
:100CB00080E00E944C06BA9ABB98B99AB89A6C9A8E
:100CC00080E00E9452066B986A9881E00E944C0670
:100CD000709A8DB18C7F8DB90895809176058A3098
:100CE00021F480914303843021F081E080936E01F0
:100CF000089586E20E942B0210926E0108952FB78C
:100D0000F89433278CB95E9A2FBF0895FC016115C2
:100D1000710519F481E090E0089580919803909115
:100D20009903892B19F085E090E008957093C00530
:100D30006093BF05F0939903E093980310924503E5
:100D40001092440381E0809346035E9A569A808114
:100D500021E030E030934503209344030E947F0656
:100D600080E090E008958FB7F894992720917F0153
:100D70002E7F20937F012EE7209352028FBF61E0E8
:100D800070E082E592E00E948606992708951F93FD
:100D9000CF93DF938FB7F89410927A06209176055F
:100DA00040E0283009F441E030E0293009F431E036
:100DB000442311F4332351F010927605E09164043A
:100DC000FF27EE0FFF1FE256FC4F108299278FBFBF
:100DD000442311F4332331F19FB7F89480912E0608
:100DE0008F5F80932E0680918E03833479F4209157
:100DF000100480910F04821779F0822F8F5F809307
:100E00001004863048F01092100406C0A0E044237D
:100E100009F4A1E071E002C0A0E070E0892F9927F9
:100E20008FBF06C0222311F010E06CC0A0E070E07C
:100E30008FB7F894992720916E018FBF222341F03C
:100E40008FB7F89499272AE0209376058FBF42C088
:100E50008FB7F894992760919E034091A0038FBFAC
:100E60008FB7F894282F332750E090910F0480918A
:100E70001004981709F451E02FBF552341F566235C
:100E800031F55FB7F89482E080939E038FB7F894B2
:100E9000282F332740E090910F0480911004981779
:100EA00009F441E02FBF442311F080E006C0E09137
:100EB0001004FF27E15FFB4F828180939F0383E44F
:100EC00080938E0310926404852F99270EC04150A1
:100ED000423010F010E00BC08FB7F894992725E44A
:100EE00020938E0321E0209364048FBF11E07723C9
:100EF00049F08FB7F8949927A09377018FBF88E2C4
:100F00000E942B028FB7F894C82FDD2780917605B9
:100F10008A3021F40E946D06CFBF1DC0CFBF1123C0
:100F2000D1F02FB7F89433271092D2061092D10641
:100F30001092680381E0809376052FBF0E94B3066C
:100F4000882349F08FB7F894992729E020937605F4
:100F50008FBF0E948402DF91CF911F910895EEED23
:100F6000F1E06927660FF11DE60FF11DC895982F76
:100F7000802D3196C895902508951F93CF93DF93C8
:100F8000142FEB0104C069910E94AF071150112387
:100F9000D1F7DF91CF911F910895982F969596954F
:100FA0009695E8E6F4E0E90FF11D877021E030E066
:100FB00002C0220F331F8A95E2F78081822399278E
:100FC000089580912F06882319F02FE170E002C068
:100FD00078E02EE1622FEFB7F8948091C7028E7F00
:100FE0008093C70287B1982F9F71829586958695C9
:100FF000837019F080E090E012C0822F8850863113
:1010000018F081E090E00BC040E050E03327892FDA
:1010100099272817390711F441E050E0CA01982FA9
:101020009170990F8091C7028178262F2F71422FDE
:10103000440F440F892B842B8093C702332727B991
:10104000783059F580912C0690912D0621E0863854
:10105000920718F087E090E01FC0833C910518F0DC
:1010600086E090E019C08136910518F085E090E0A7
:1010700013C08033910518F084E090E00DC08831F2
:10108000910518F083E090E007C00C9718F082E01B
:1010900090E002C080E090E0782F7770887D872B09
:1010A000886D992786B98E2F99278FBF08952FB7FE
:1010B000F894332780914D0380933D0183E0809322
:1010C0006B012FBF80913D01882339F481E080932B
:1010D000A20310922F060E94E1070895CF92DF929B
:1010E000EF92FF920F931F93809363016093C40567
:1010F000C901880F892F881F990B91958093C50589
:10110000220F812F9927282B2093C6050093C7050E
:10111000D0924D05C0924C05F0926F03E0926E03A1
:10112000409366038CE10E942B021F910F91FF9068
:10113000EF90DF90CF9008951F93982F8FB7F8947A
:10114000182F809164018330B1F58091390189179E
:1011500091F58091370120E030E08F3F11F421E0DC
:1011600030E0232BF9F48F3F19F42FEF30E00EC05D
:10117000282F3327F901ED5CF94F808180933701E7
:101180008F3F11F4809338018FEF80832093B40553
:101190008FEF8093390181E0809364018DE10E949B
:1011A0002B0205C084E080933901109264011FBFB7
:1011B00080E090E003C01FBF81E090E01F910895A0
:1011C000CF92EF92FF920F931F9380918001833013
:1011D00079F4275E334061F4109280010894E11C99
:1011E000F11C011D111DB801A7018C2D0E942106C3
:1011F0001F910F91FF90EF90CF900895823089F06A
:10120000833028F48823A9F0813029F407C0833083
:1012100059F0843061F060E078E00BC060507F4F9F
:1012200008C0685D7E4F05C0685D7D4F02C0685D87
:101230007C4FCB010895EF92FF920F931F937A0199
:101240008B01252F362F472F5527B9010E94FE0805
:10125000AA27BB27BA2FA92F982F88272FEFE22282
:10126000FF24970144275527820F931FA41FB51F02
:10127000BC01CD011F910F91FF90EF90089581E186
:101280000E94F105882321F083E20E942B02089539
:1012900081E10E9489030895E82F8FB7F894282FE1
:1012A000332790E0FF27E957FA4F8081861709F42A
:1012B00091E02FBF892F99270895682F81E00E9420
:1012C0004C099927089560E080E00E944C09992715
:1012D0000895CF92EF92FF9280918001843089F43B
:1012E00010928001CC2031F4E092E8038F2D9927F1
:1012F0008093E70343E050E060E070E08C2D0E94B3
:101300002106FF90EF90CF900895862F9091800155
:10131000913011F0963041F41092800141E050E09C
:1013200060E070E00E9421060895813059F081301C
:1013300038F0823049F0833059F080E090E0089531
:1013400080E003C083E001C084E00E94FE080895AD
:1013500082E00E94FE080895982F4FB7F894552711
:1013600022B3277D22BB80E097FD939A959A8299BC
:10137000806822BB96FD939A959A8299806422BBDD
:1013800095FD939A959A8299806222BB94FD939AD7
:10139000959A8299806122BB93FD939A959A82993E
:1013A000886022BB92FD939A959A8299846022BBB1
:1013B00091FD939A959A8299826022BB90FD939AAF
:1013C000959A829981604FBF992708958FB7F894B5
:1013D00060915A0470915B042CB53DB506B602FECF
:1013E00004C06F5F7F4F2CB53DB599278FBF88270D
:1013F0009927CB017727662744275527622B732B24
:10140000842B952B0895EF92FF920F931F930E94C8
:10141000E6097B018C0120918F033091900340916C
:101420009103509192038091690390916A03A09176
:101430006B03B0916C03820F931FA41FB51FE216BC
:10144000F3060407150730F082179307A407B507C2
:1014500058F005C082179307A407B507E0F5E81612
:10146000F9060A071B07B8F59C01AD012E193F09C3
:10147000400B510B213060E8360760E0460760E022
:10148000560768F180E090E8A0E0B0E0E80EF91EB1
:101490000A1F1B1FE0928F03F092900300939103A9
:1014A0001093920380E090E8AFEFBFEFE80EF91ED3
:1014B0000A1F1B1F205030484040504020936903B2
:1014C00030936A0340936B0350936C0320E030E841
:1014D00040E050E014C020E030E040E050E0809375
:1014E0008F0390939003A0939103B0939203109273
:1014F000690310926A0310926B0310926C03A901A6
:10150000B7012CB53DB5C9018E199F090396841703
:10151000950720F0B9016D5F7F4F02C0640F751F02
:101520006115710511F461E070E0615070407BBDA0
:101530006ABD80E186BF87B7806187BF1F910F9129
:10154000FF90EF9008950F931F930FB7F894112712
:1015500060938F0370939003809391039093920311
:101560002093690330936A0340936B0350936C0399
:101570000E94030A0FBF1F910F9108958FB7F8942F
:101580009927109287058FBF089580E88093E9011D
:10159000109242031092300610922A0610921E03F7
:1015A00008951092560110925501DE98DD98DE9A4A
:1015B00080E090E008950F931F93CF93DF93182F4F
:1015C0008FB7F894C82FDD270C2F61E080E00E94D0
:1015D0005E05882321F0CFBF85E090E020C0809198
:1015E0002B018823A1F480915901823081F409C034
:1015F00082E08093590110922B010E945806B89AFC
:10160000C0981093280180E00FBF992708C08091EF
:101610005901882369F30E94BE0A81E0F5CFDF916A
:10162000CF911F910F9108951F93182F81E00E9471
:101630004C061FB9779BFECF8FB199271F91089554
:101640008F929F92AF92BF92CF92DF92EF92FF92D2
:101650000F931F93CF93DF938FB7F8949927C09080
:101660007406D090750680904A0590904B05C09105
:101670001804D091190420918E0130918F011AE045
:10168000A12EB12CAC0EBD1E2A153B0508F4590144
:101690008FBF7401EC0EFD1E86010C0F1D1F14C0C0
:1016A000C114D10419F0F801808101C080E00E94CA
:1016B000140B8114910411F0F70180832196089492
:1016C000E11CF11C0F5F1F4FC5010197C817D90717
:1016D00038F381E00E9452069FB7F894C114D104F8
:1016E00031F0CC0EDD1EF60180818FB901C01FB82C
:1016F000D0931904C0931804892F99278FBF80E0D5
:1017000090E0DF91CF911F910F91FF90EF90DF90CC
:10171000CF90BF90AF909F908F9008952FB7F8947F
:10172000332750938F0140938E01909375068093D9
:10173000740670934B0560934A0510921904109239
:1017400018042FBF452B29F08FB10E94200B992739
:1017500008958EE00E942B0280E090E008958FB7FC
:10176000F89499272BB331E023272BBB8FBF089523
:101770008FB7F89499272BB332E023272BBB8FBF69
:101780000895CF93DF93FC0115A6DC019E96ED0131
:101790001B821A82198280E886A7DF91CF91089573
:1017A00097B79F7D97BF90E296BF882319F08EB5BB
:1017B000806402C08EB58F7B8EBD87B7806287BF85
:1017C00080E090E0089581E00E94D00B9927089571
:1017D000DF92EF92FF920F931F938FB7F894282F09
:1017E0003327D22E91B782B746B7981711F041FF31
:1017F00002C02FBF6AC080910E048823E1F10E94CD
:101800004604E0908305F0908405009185051091D1
:1018100086052091E5013091E6014091E701509164
:10182000E8016E197F09800B910B6217730784071B
:10183000950720F010920E0471E01EC02E0D3F1D82
:10184000401F511F8091C7019091C801A091C9010B
:10185000B091CA01281B390B4A0B5B0B273E31059F
:101860004105510540F4822F223010F070E005C090
:1018700070E082E002C070E086EE682F615000B632
:1018800001FCFDCF82B7681709F46F5F2091C70193
:101890003091C8014091C9015091CA01DA01C901D2
:1018A0000196A11DB11D860F911DA11DB11D8217AD
:1018B0009307A407B50710F4622F609561BFDFBEE0
:1018C000772319F083E00E942B021F910F91FF9064
:1018D000EF90DF900895AFB7F894BB27E1E0E09375
:1018E0000E0460938305709384058093850590931F
:1018F00086052093E5013093E6014093E70150937C
:10190000E801AFBF0E94E80B0895AF92BF92CF925B
:10191000DF92EF92FF920F931F93CF93DF93CDB798
:10192000DEB728970FB6F894DEBF0FBECDBF20E01C
:1019300070E0E0910F01F091100132E14DE65CE4BE
:101940006FE4809110019E2F28960FB6F894DEBFA9
:101950000FBECDBFDF91CF911F910F91FF90EF9000
:10196000DF90CF90BF90AF9008951F920F920FB667
:101970000F9211248F9383B783BF00B600FCFDCF75
:101980008F910F900FBE0F901F90189578941F9213
:101990000F920FB60F9211240F900FBE0F901F9051
:1019A000189578941F920F920FB60F9211240F90F2
:1019B0000FBE0F901F90189578941F920F920FB63C
:1019C0000F9211242F933F938F939F932FB7F894E7
:1019D000332780915A0490915B04019690935B04A5
:1019E00080935A042FBF9F918F913F912F910F9019
:1019F0000FBE0F901F9018951F920F920FB60F9267
:101A000011240F900FBE0F901F9018951F920F92E8
:101A10000FB60F9211240F900FBE0F901F901895C4
:101A20001F920F920FB60F9211240F900FBE0F90BE
:101A30001F9018951F920F920FB60F9211240F90BE
:101A40000FBE0F901F9018951F920F920FB60F9216
:101A500011240F900FBE0F901F9018951F920F9298
:101A60000FB60F9211240F900FBE0F901F90189574
:101A70001F920F920FB60F9211240F900FBE0F906E
:101A80001F9018951F920F920FB60F9211242F934B
:101A90003F934F935F936F937F938F939F93AF93F6
:101AA000BF93EF93FF9344B155B178948FB7F894F7
:101AB00099272091C702322F3695317021708FBF40
:101AC0002223D9F433988091A203813021F082300F
:101AD00009F039C00AC0332351F050937505409383
:101AE000740582E20E942B022EC0332319F40E9457
:101AF000E10729C01092A20326C08FB7F894992756
:101B00008FBF2FB7F894332786B1582F5770482FBF
:101B10004072987D942B952B8074977B982B9061C5
:101B20009F77892F992786B9887D842B852B87738A
:101B30008061992786B9887D842B852B877B806976
:101B4000992786B92FBFFF91EF91BF91AF919F91D8
:101B50008F917F916F915F914F913F912F910F9056
:101B60000FBE0F901F901895982F80917A018823AF
:101B700089F5992379F531E030937A0180913E011E
:101B800080937B0120916F01822F81708093EA0105
:101B9000809143019091440190937D0180937C0159
:101BA0008091700180937E0132273170267EE32F71
:101BB000FF27EE0FFF1FE15CFE4F80819181909324
:101BC000440180934301232B20936F0189E20E94FB
:101BD0002B02089580916F0180FF02C08B7F01C0AE
:101BE0008D7F80936F0108950F931F93082F162FF9
:101BF000809143038130D9F0813038F0823009F48C
:101C00004AC0833009F028C159C0002309F458C1E3
:101C10001092B9051092B80510927F051092CD056B
:101C20001092480310925F0410925E0439C10023A1
:101C300009F046C180915E0490915F040E94AF0755
:101C400090935F0480935E0482E08093430310933B
:101C5000CD05143409F000C125C18695869503C0D1
:101C600080916F018695817009F0F6C080916F01B7
:101C7000992311F0846001C0826080936F0180918C
:101C80006F01877E886080936F01109270018FEFE3
:101C900080933E0115C1002309F0DEC06093480324
:101CA00080915E0490915F040E94AF0790935F045F
:101CB00080935E0483E08093430302C180917F059B
:101CC0008F3F09F4C9C0002309F461C0823008F4D1
:101CD000C3C0E091B805EE2309F4EBC04E2F41508C
:101CE000E42FFF27E854FA4F82819927382F2227C3
:101CF000442311F4E2E002C0E42FE150FF27E8544E
:101D0000FA4F82819927282B392B80915E0490917C
:101D10005F042817390709F09FC080E00E94B40DC6
:101D20003091480380910F0420911004982F9F5FF9
:101D3000963008F090E0921771F0E82FFF27E15FEE
:101D4000FB4F32838F5F80930F04863010F0109228
:101D50000F040E9484021092B9051092B80594E015
:101D60009093430310927F051092CD051092480383
:101D700010925F0410925E0480917F018D7F8093AA
:101D80007F0180916E01882309F49AC084C082305B
:101D900008F44EC0E091B905FF27E854FA4F82815C
:101DA000482F5527342F20916F01822F86958695D5
:101DB0008695837099278130910519F00297F9F47F
:101DC0000EC0277E206120936F01442311F485E02B
:101DD00001C080E08093700130933E0110C080917B
:101DE0007001843360F4E0914301F0914401E80F05
:101DF000F11D4083809170018F5F8093700180910D
:101E0000B905E82FFF27E854FA4F62818F5F80936E
:101E1000B905833010F01092B905772780915E04E0
:101E200090915F040E94AF0790935F0480935E04DB
:101E30008091B805E82FFF27E854FA4F12838F5F8F
:101E40008093B805833010F01092B80580917F051B
:101E50008F5F80937F0534C01092B9051092B8054A
:101E600014E01093430310927F051092CD05109259
:101E7000480310925F0410925E0480917F018D7F71
:101E800080937F0181E00E94B40D80916E018823D0
:101E900029F0109343030E946D0612C0002381F0C5
:101EA00081E009CF80916F01982F917080FDD5CE90
:101EB000D7CE8091BC059927382F222742E01CCF2E
:101EC0001F910F9108951F920F920FB60F92112438
:101ED0002F933F934F935F936F937F938F939F9332
:101EE000AF93BF93EF93FF935F9B3DC06CB1E091C5
:101EF0006004F09161043097F9F080917806909138
:101F00007906E80FF91F6083019690937906809314
:101F100078062091D3063091D4068217930718F1E2
:101F2000109261041092600480916D058330D9F0A5
:101F3000579810926D0517C06E3719F460E081E074
:101F400010C080917F016D3721F4826080937F0102
:101F50000AC081FF05C08D7F80937F0180E26827E2
:101F600080E00E94F40DFF91EF91BF91AF919F919E
:101F70008F917F916F915F914F913F912F910F9032
:101F80000FBE0F901F901895982F8D57823068F4D0
:101F900080917F01816080937F0180E28927809317
:101FA0007E058DE78093520202C09093520261E059
:101FB00070E082E592E00E94860699270895789461
:101FC0001F920F920FB60F921124FF920F931F933F
:101FD0002F933F934F935F936F937F938F939F9331
:101FE000AF93BF93CF93DF93EF93FF93209144037D
:101FF000309145038091BF059091C005281739079E
:1020000080F4E0919803F0919903E20FF31F80812F
:102010002F5F3F4F30934503209344030E947F0678
:10202000CDC01092990310929803109246035698CF
:10203000FFB6F89480917F0180FF0EC08E7F809361
:102040007F0180917E058093520261E070E082E51D
:1020500092E00E948606AFC080917605843009F434
:102060008CC0853040F4823021F18330B8F5813066
:1020700009F09CC00DC0863009F48DC0863008F48C
:1020800083C0873009F48EC0883009F08FC091C0BA
:1020900080918E030E94C40F082F83E08093760501
:1020A00060918E038091D1069091D2060E94AF0775
:1020B00010C080912E060E94C40F082F83E08093E9
:1020C000760560912E068091D1069091D2060E94ED
:1020D000AF079093D2068093D10666C0E091640466
:1020E000FF27EE0FFF1FE156FC4F80810E94C40FB7
:1020F000082F10916404C12FDD27FE01EE0FFF1F92
:10210000E156FC4F60818091D1069091D2060E94E9
:10211000AF079093D2068093D106209168032F5F7A
:1021200020936803113039F580917601E0917101B7
:10213000F0917201E80FF11DE0818F5F80937601CD
:1021400090917501981730F482E08093A00340E0ED
:1021500050E002C04E2F5527DE01AA0FBB1FFD0124
:10216000E256FC4F8081823031F02F3F21F0A156A2
:10217000BC4F4C9319C084E012C08091D1060E94DC
:10218000C40F082F85E00BC08091D2060E94C40FB7
:10219000082F86E004C00E94B306082F87E08093D2
:1021A000760502C088E003C0002329F089E080930F
:1021B00076050E9484028F2D99278FBFFF91EF91A2
:1021C000DF91CF91BF91AF919F918F917F916F914F
:1021D0005F914F913F912F911F910F91FF900F9021
:1021E0000FBE0F901F9018951F920F920FB60F926F
:1021F00011248F9380919B0087FF02C080919C00E7
:102200008F910F900FBE0F901F90189578941F928A
:102210000F920FB60F9211240F900FBE0F901F90C8
:10222000189578941F920F920FB60F9211240F9069
:102230000FBE0F901F90189578941F920F920FB6B3
:102240000F9211240F900FBE0F901F901895789445
:102250001F920F920FB60F9211240F900FBE0F9086
:102260001F90189578941F920F920FB60F92112419
:102270008F939F9380918000909181009F918F9187
:102280000F900FBE0F901F90189578941F920F9289
:102290000FB60F9211242F933F938F939F932FB7D5
:1022A000F89433278091640390916503019690938D
:1022B0006503809364032FBF9F918F913F912F916E
:1022C0000F900FBE0F901F901895EF92FF920F93F3
:1022D0001F93CF93DF93EA017B010AC08C010F5F4C
:1022E0001F4F0E94594BF70181937F012197C8012D
:1022F0002097A1F780E090E0DF91CF911F910F919F
:10230000FF90EF900895EF92FF920F931F93790142
:102310008A016A3018F04AE050E002C0462F552783
:10232000BC0187E995E00E94494BE0926601F0927A
:10233000670100936801109369011F910F91FF904D
:10234000EF900895EF92FF920F931F93CF93DF9337
:10235000EA017B010AC0F70161917F018C010F5FE7
:102360001F4F0E94614B2197C8012097A1F7E19967
:10237000FECF80E090E0DF91CF911F910F91FF9011
:10238000EF900895AF92BF92CF92DF92EF92FF92BB
:102390000F931F93CF93DF93CDB7DEB728970FB678
:1023A000F894DEBF0FBECDBF1092A203A0907405BB
:1023B000B090750580912F06882309F08FC08FB7E4
:1023C000F894C82E80916B01833009F041C0809150
:1023D0003D018823E9F580916804882309F078C0DD
:1023E00070C0ED2DE695E695E695FF274D2D552716
:1023F000E859FB4F9A012770307081E090E002C0ED
:10240000880F991F2A95E2F7809520812823208341
:1024100000936A0112C00F5F1F4F0130110511F4C4
:1024200000E010E0D02E802F0E94CD078823C9F64F
:102430000E151F0581F74FEF50E040934D038FEFCE
:1024400080933D0181E080936B0181E20E942B0229
:10245000CFBE8FECA81681E0B80608F03FC08FB75A
:10246000F89448E050E08E010F5F1F4FB80180EFF5
:102470009FE00E9465118091D8019091D901A091AF
:10248000DA01B091DB018B839C83AD83BE838FEF38
:102490008F83188680910F01909110019A83898310
:1024A00048E050E0B80180EF9FE00E94A21188E16F
:1024B00090E029E00FB6F894A89581BD0FBE21BD2C
:1024C000FFCF81E080933D0110926B013798C0CF20
:1024D00080916A01E82EFF2487019DCF28960FB6D0
:1024E000F894DEBF0FBECDBFDF91CF911F910F914A
:1024F000FF90EF90DF90CF90BF90AF9008951F9224
:102500000F920FB60F9211242F933F934F935F9327
:102510006F937F938F939F93AF93BF93EF93FF93AB
:1025200083B783BF00B600FCFDCF81B79927019622
:10253000AA27BB272091C7013091C8014091C9014A
:102540005091CA01280F391F4A1F5B1F2093C701F2
:102550003093C8014093C9015093CA0178940E94F6
:10256000E80BFF91EF91BF91AF919F918F917F9178
:102570006F915F914F913F912F910F900FBE0F90F0
:102580001F9018951F93982F1FB7F894809165019D
:10259000823099F580913C01891779F580913A0153
:1025A00020E030E08F3F11F421E030E0232BF1F404
:1025B0009FEF90933C018F3F19F42FEF30E00DC057
:1025C000282F3327F901EE5DFC4F808180933A017B
:1025D0008F3F11F490933B0190832093930381E00C
:1025E000809365018EE10E942B0205C08FEF8093DE
:1025F0003C011092650121E001C020E0812F992764
:102600008FBF90E0213009F491E081E09827892F75
:1026100099271F91089510926D01833031F0843015
:1026200041F0823049F480E101C08EE00E94C21284
:1026300008958FE00E94C21208950F931F93CF93C5
:10264000DF93182F8FB7F894282F3327022F80910C
:102650006B01882359F581E080936B0110934D0342
:102660002FBF8FB7F8949927379A8FBF8FB7F894F9
:10267000C82FDD279C2F80913D018130A9F48091E6
:102680006B01813021F481E20E942B0209C082306B
:1026900059F480914D0380933D0183E080936B0159
:1026A000CFBF80E090E025C09FBFFBCF80914D035E
:1026B000811711F42FBFF5CF812F0E94CD078823FA
:1026C00019F085E090E014C0E12FE695E695E695D7
:1026D000FF27E859FB4F177081E090E002C0880F98
:1026E000991F1A95E2F72081282B208380E090E043
:1026F0000FBFDF91CF911F910F910895CF93DF937B
:10270000982F8FB7F894282F3327422F8091640198
:10271000882321F581E0809364019093B4052FBF55
:102720008FB7F894C82FDD279C2F80913901843012
:1027300099F480916401813021F48DE10E942B0293
:1027400009C0823049F48091B4058093390183E057
:1027500080936401CFBF07C09FBF05C08091B405BF
:10276000891721F42FBF80E090E021C0E92FFF27D7
:10277000ED5CF94F80818F3F89F4E0913801E917D2
:1027800089F40CC09093370104C0FF27ED5CF94F2A
:1027900090839093380180E090E002C085E090E063
:1027A0004FBF05C0809137018F3F79F7EBCFDF91A5
:1027B000CF910895CF92DF92EF92FF920F931F93E4
:1027C000CF93DF93782FC62FDD278BE090E0C89F53
:1027D000F001C99FF00DD89FF00D1124E255FC4F78
:1027E0008081882319F085E090E048C0643018F4B7
:1027F00080E091E002C080E090E0AA27BB27BA2FDA
:10280000A92F982F882782179307A407B507A0F14F
:10281000821B930BA40BB50B8C159D05AE05BF0554
:1028200058F18BE090E0C89FF001C99FF00DD89F50
:10283000F00D1124E255FC4F7083238334834583CC
:102840005683C782D086E186F28612830183613087
:1028500069F0613028F0623059F0633059F003C0FC
:1028600080E00E947E1380E090E008C081E0F9CF14
:1028700082E0F7CF83E0F5CF86E090E0DF91CF9163
:102880001F910F91FF90EF90DF90CF900895BF922E
:10289000CF92DF92EF92FF920F931F93B82E6701B2
:1028A000780180916201882319F085E090E034C0BE
:1028B000EB2DFF27E931F105B8F4EA5BFF4FEE0F8E
:1028C000FF1F0590F491E02D099481E00E94DA1336
:1028D0009927282F882349F481E080936201B092E0
:1028E000AF0680E090E018C021E0822F992714C045
:1028F00089019A01AB0160E0E8CF89019A01AB013F
:1029000063E0E3CF89019A01AB0161E0DECF890189
:102910009A01AB0162E0D9CF1F910F91FF90EF9028
:10292000DF90CF90BF900895AF92BF92CF92DF9289
:10293000EF92FF920F931F938091470399272CE109
:1029400030E0829FA001839F500D929F500D112473
:10295000FA01E15CF94F8081A82EBB24CC24DD2450
:102960001AE0AA0CBB1CCC1CDD1C1A95D1F7FA018D
:10297000E05CF94F808126E1829FC0011124AA27E3
:10298000BB27A80EB91ECA1EDB1E9A012F5B394F4A
:1029900080915201833079F08430B1F0823011F0AF
:1029A00081E01CC0B6E1EB2EF12C012D112DB601FA
:1029B000A50185E011C0A6E1EA2EF12C012D112D13
:1029C000B601A50183E008C0F6E1EF2EF12C012D40
:1029D000112DB601A50184E00E944714882311F04F
:1029E000109250021F910F91FF90EF90DF90CF90C7
:1029F000BF90AF900895BF92CF92DF92EF92FF9277
:102A00000F931F93B82E670178018091620188238C
:102A100019F085E090E034C0EB2DFF27E931F10596
:102A2000B8F4E15AFF4FEE0FFF1F0590F491E02D2F
:102A3000099484E00E94DA139927282F882349F407
:102A400081E080936201B092AF0680E090E018C010
:102A500021E0822F992714C089019A01AB0160E01F
:102A6000E8CF89019A01AB0163E0E3CF89019A01C4
:102A7000AB0161E0DECF89019A01AB0162E0D9CF01
:102A80001F910F91FF90EF90DF90CF90BF9008952E
:102A9000EF92FF920F931F93823069F0833018F406
:102AA000882339F004C0833041F0843041F081E064
:102AB00009C086E005C089E003C087E001C088E066
:102AC0000E94FB1499271F910F91FF90EF9008959A
:102AD000BF92CF92DF92EF92FF920F931F93B82E87
:102AE000D70180916201882319F085E090E03CC015
:102AF000EB2DFF27E931F105B8F4E858FF4FEE0F51
:102B0000FF1F0590F491E02D099485E00E94DA13EF
:102B10009927282F882349F481E080936201B0929D
:102B2000AF0680E090E020C021E0822F99271CC0F2
:102B3000680179018D019A01AB0160E0E6CF68017F
:102B400079018D019A01AB0163E0DFCF6801790162
:102B50008D019A01AB0161E0D8CF680179018D0147
:102B60009A01AB0162E0D1CF1F910F91FF90EF90DE
:102B7000DF90CF90BF9008958FB7F8949927DA9A95
:102B8000D998D8988FBF10926C0180914E039927E5
:102B9000833019F08430D1F406C081E080936C0159
:102BA0000E943F09089540E050E060E070E08091AD
:102BB00053030E941B096093D8017093D90180933D
:102BC000DA019093DB0180E00E941D1308950F93BA
:102BD0001F93182F0FB7F89461E080E00E945E0504
:102BE000882371F51093280180912B018823A9F582
:102BF00080915901823089F58DE00CC00E94580601
:102C000080915901882349F481E080935901109201
:102C10001F038FE00E942B022AC080916D038F3F1B
:102C200031F5E0912A01EE2311F11CC01092290127
:102C300004C0FF27E359FC4F108210922A0117C0ED
:102C400081E090E002C0880F991F1A95E2F7209169
:102C50005801282B209358010AC0809159018823DC
:102C6000E1F6CCCF809129018F3F19F7DFCF802F7C
:102C700099278FBF80E090E01F910F9108951F93D7
:102C800083E00E94DB0A9927182F882319F083E03C
:102C90000E94E715812F99271F9108951F938FB7E1
:102CA000F894282F3327122F8091B206882321F021
:102CB0002FBF81E090E013C081E08093B206809145
:102CC000550190915601049721F481E00E94E71587
:102CD00003C08BE00E942B021FBF80E090E01F9199
:102CE000089580E094E090933301809332018FB790
:102CF000F89499272AE12093B5058FBF0E944E16BC
:102D000090914D0180E02FEF3FEF09C0E82FFF27A2
:102D1000EE0FFF1FE059FC4F318320838F5F89172F
:102D2000A9F708958531C1F0863138F4843061F017
:102D3000853051F08330D9F407C0873189F087316D
:102D400068F08831A1F410C080911C01813079F4C1
:102D500082E00E942B02089580E003C083E001C05E
:102D600084E00E948509089582E00E948509089503
:102D700080915E0190915F01892B19F480E090E0D1
:102D8000089562E084E00E944C0990E0882309F4F1
:102D900091E081E09827892F99270895EF92FF927B
:102DA0000F931F9380911704843090F41092DE01EA
:102DB00054E5E52EF12C012D112D29EC32E040E0F7
:102DC00050E060E070E0809159030E94481527C0F0
:102DD00062E084E00E944C098823F1F461E084E021
:102DE0000E944C098823C1F460E084E00E944C09F1
:102DF000882391F08FB7F894992721E020938B05D1
:102E00008FBF80915E0190915F01892B11F086E167
:102E100001C087E10E942B0283E08093DE011F91B5
:102E20000F91FF90EF9008958091DE01823019F0AC
:102E3000833071F4FBCFE0911704EF5FE093170448
:102E4000FF27EF5EFE4F8081809359030E94CE16CC
:102E50000895EF92FF920F931F93CF93DF93182F54
:102E60007B01042F8FB7F894C82FDD2760E080E046
:102E70000E944C09882321F0CFBF80E090E014C06D
:102E8000CFBF1064812F992790939B0380939A035F
:102E90000E94140B182F402F5527B70180E090E0B7
:102EA0000E948E0B812F9927DF91CF911F910F9157
:102EB000FF90EF900895C098609181017091820118
:102EC00041E08FE30E942917089582E090E09093FB
:102ED0004F0280934E0281E08093420320E030E075
:102EE00080912801843011F421E030E0232B29F473
:102EF00084E00E94DB0A882319F40E945B1708957E
:102F000084E00E94E71508951F920F920FB60F926A
:102F100011242F933F934F935F936F937F938F93DE
:102F20009F93AF93BF93EF93FF9380914E02909145
:102F30004F02019749F482E090E090934F02809312
:102F40004E020E94651705C080911E038F5F80931B
:102F50001E03FF91EF91BF91AF919F918F917F9150
:102F60006F915F914F913F912F910F900FBE0F90F6
:102F70001F901895FF920F931F93CF93DF93F82E16
:102F80008B018FB7F894C82FDD2760E080E00E94A6
:102F90004C09882321F0CFBF80E090E00CC0CFBF68
:102FA0008F2D0E94140B812F99270E94140B802FC4
:102FB0000E94140B9927DF91CF911F910F91FF90E1
:102FC00008951F931FB7F89480911D03882319F467
:102FD00060E070E009C060E080917306882309F426
:102FE00061E081E06827772780915803882319F4EE
:102FF00080E090E00AC090E08091AB05882309F45E
:1030000091E081E09827892F9927762F6627770FFF
:10301000770F770FE4E0880F991FEA95E1F7826E4A
:103020009262682B792B81E10E94BA17812F992730
:103030008FBF1F9108958FB7F89499276091B505B8
:103040008FBF85E0689FB0011124625D7E4F706480
:1030500088E10E94BA1708951F93CF93DF93182F2A
:103060008FB7F894C82FDD2760E080E00E944C09FC
:10307000882321F0CFBF80E090E005C0CFBF812F33
:103080000E94140B9927DF91CF911F91089583E03F
:103090000E942C1899270895CF93DF93C0988FB77B
:1030A000F894C82FDD278091550190915601029721
:1030B000A1F583E090E0909356018093550168E17B
:1030C00070E08DE10E94BA1781E080939603109220
:1030D000570180B39927A6E096958795AA95E1F7C1
:1030E00081709070809397038CE00E942B0281E0A6
:1030F0000E942C186FE772E08CE10E94BA170E94C0
:103100001B180E94E11766E57AE287E10E94BA1770
:103110006FEF70E885E10E94BA17CFBFDF91CF91C2
:1031200008951F9380915801882309F04BC0109196
:1031300028011F3F09F046C060E00E944C09882327
:1031400009F440C081E08093B60580912102882374
:10315000E1F11092B60585E090E045C0923069F546
:10316000C09A8091290120E030E08F3F11F421E0E6
:1031700030E0232BE9F410932B018F3F19F42FEF4C
:1031800030E00DC0282F3327F901E359FC4F80812F
:10319000809329018F3F11F410932A01108320930B
:1031A0001F0381E0809359018FE00E942B0205C02C
:1031B00010932B011092590111C08091590188235D
:1031C00069F00FC081E090E00EC080912B019091DA
:1031D0005901882319F2923021F0EFCF80E00E944C
:1031E0004C0680E090E01F9108951F93CF93DF93EA
:1031F0009FB7F894C92FDD271C2F909128019817AD
:1032000021F0CFBF81E090E036C08FEF809328019E
:10321000309158013323D1F40E94BE0A0E949118C4
:10322000CFBF11C02093280181E090E002C0880F39
:10323000991F4A95E2F780953823309358018DE025
:103240000E942B021FBF80E090E015C080E065E087
:10325000E32FFF270E94B04A292F492F5527CF017E
:10326000042E02C0959587950A94E2F780FDDACF87
:10327000822F8F5FEFCFDF91CF911F91089582E072
:103280000E94F518992708950F931F930FB7F8948C
:10329000112710925B0110925A0187B78F7E87BF6A
:1032A00087B78F7D87BF83E00E94F518C09A0FBF54
:1032B0000FB7F894112710924F0210924E020E94FD
:1032C000C50AC09A89B78F7B89BF0FBF80E090E0A5
:1032D0001F910F9108950E9444190E94D10A88E01D
:1032E0000E942B0208951F93CF93DF938FB7F8941A
:1032F000C82FDD271C2F80914E0290914F02892B01
:1033000029F484E00E94F518CFBF1EC0109242033A
:1033100080911E03882311F0B79904C00E9908C04C
:10332000882319F0815080931E030E9465170BC0FB
:1033300081E090E090934F0280934E0210921E0322
:1033400084E00E94F5181FBFDF91CF911F9108956F
:103350000E94C50AC09AC09888E00E942C1888E094
:103360000E942C18C09A84E00E94F5180E947319DC
:103370000895EF92FF921F93CF93DF93E0905A034B
:10338000F0905B03F70182A59927182F882309F491
:103390001FE1C0988091C602811749F0612F7727FD
:1033A0006F717070606E706885E10E94BA1710933B
:1033B000C602F70110818FB7F894C82FDD2760E0AF
:1033C00080E00E944C09882311F0CFBF12C0CFBF0C
:1033D0008EE390E090939B0380939A038EE30E9488
:1033E000140B1150412F552760E070E0C7010E9477
:1033F0008E0BDF91CF911F91FF90EF900895BF92B8
:10340000CF92DF92EF92FF920F931F93B82E80918D
:10341000CB01882339F085E0809363018CE10E9421
:103420002B021DC08B2D9927FC01EE0FFF1FE80F0B
:10343000F91FED5AFD4F20813181BB2011F461E667
:1034400001C060E6B1E0CB2ED12CEE24FF2400E0D9
:1034500010E040E08AE00E946E08B09262041F9182
:103460000F91FF90EF90DF90CF90BF900895CF9293
:10347000DF92EF92FF920F931F938091CB018823ED
:1034800039F085E0809363018CE10E942B0229C012
:1034900040916504842F9927FC01EE0FFF1FE80F70
:1034A000F91FDF01AD5ABD4F2D913C91EB5AFD4FF5
:1034B000808182FF06C0442311F068E807C069E8F4
:1034C00005C0442311F063E801C066E801E0C02EA6
:1034D000D12CEE24FF2400E010E040E089E00E94BF
:1034E0006E081F910F91FF90EF90DF90CF9008959D
:1034F000CF92DF92EF92FF920F931F93CF93DF93C0
:103500008C01F62E6A01E22E8FB7F894C82FDD27C2
:1035100060E080E00E944C09882321F0CFBF80E06A
:1035200090E01EC0CFBF0F0D111D802F80680E943C
:10353000140BF82E16950795802F807C0E94140B93
:103540000E2D0AC0EE2DFF27E01BF109EC0DFD1D2D
:1035500080810E94140B01500023A1F78F2D992721
:10356000DF91CF911F910F91FF90EF90DF90CF905F
:103570000895CF93DF93CDB7DEB72C970FB6F894AD
:10358000DEBF0FBECDBF8FB7F894282FAE014F5FBF
:103590005F4FDA01ECEAF5E088E001900D9281508E
:1035A000E1F78091490390914A038987892F9927F0
:1035B0008A8780919403909195038B87892F99270F
:1035C0008C872FBF2CE060E080E691E00E94781AA3
:1035D0002C960FB6F894DEBF0FBECDBFDF91CF9112
:1035E0000895C09886E00E942C180E941B180E9423
:1035F000E1170E94B91AC09AC09883E00E942C1863
:10360000C09A81E00E94F5188BE00E942B02089579
:103610001F93182F81E090E090935B0180935A01F3
:10362000109221020E9491188FB7F8949927109355
:1036300054018FBF89E00E942B021F910895AF9221
:10364000BF92CF92DF92EF92FF920F931F93282F9A
:1036500033278BE090E0289FF001299FF00D389FE1
:10366000F00D1124ED57FE4F82819381A481B58125
:103670000097A105B10569F080819181880F991F9C
:10368000918380838150944020F080E094E0918386
:1036900080838BE090E0289F5001299FB00C389FD9
:1036A000B00C112483E891E0A80EB91EF5018681C3
:1036B0009781A085B18582839383A483B583C080DD
:1036C000D180EE24FF2469E0CC0CDD1CEE1CFF1C35
:1036D0006A95D1F70E948C04DC01CB01F5010081D1
:1036E0001181B801762F6627770F0E94BC4AAA275E
:1036F000BB278C0D9D1DAE1DBF1D222733274AE021
:10370000000F111F221F331F4A95D1F7081B190BF9
:103710002A0B3B0B06831783208731872281338155
:1037200044815581280F391F4A1F5B1F2283338331
:10373000448355831F910F91FF90EF90DF90CF90BE
:10374000BF90AF9008950F931F938C010E948C043B
:10375000DC01CB0166E371E00E94BC4A0B969093BA
:10376000DD018093DC01F80182A99927982F882731
:1037700023A93327822B932B892B69F00E948C0479
:10378000DC01CB0168E270E00E94BC4A0B9690938A
:10379000DD018093DC011F910F910895BF92CF92BC
:1037A000DF92EF92FF920F931F93B82E80916201E8
:1037B000882319F085E090E04CC0EB2DFF27E9311C
:1037C000F105B8F4EF56FF4FEE0FFF1F0590F4918F
:1037D000E02D099482E00E94DA139927282F88238C
:1037E00049F481E080936201B092AF0680E090E0FE
:1037F00030C021E0822F99272CC0CC24DD24760113
:1038000000E010E020E030E040E050E060E0E2CF97
:10381000CC24DD24760100E010E020E030E040E040
:1038200050E063E0D7CFCC24DD24760100E010E047
:1038300020E030E040E050E061E0CCCFCC24DD245B
:10384000760100E010E020E030E040E050E062E08F
:10385000C1CF1F910F91FF90EF90DF90CF90BF905D
:103860000895EF92FF920F931F938091DE018230B3
:1038700009F051C08091EB019927982F882720915A
:10388000EC013327822B932BE816F906C1F08091C7
:103890005903823061F0833018F4882331F03BC043
:1038A000833049F08430B9F508C08AE001C08DE06A
:1038B0000E94CE1B30C08BE0FBCF8CE0F9CF409153
:1038C00020034F5F409320038091D1024817B0F44A
:1038D00081E08093DE015527440F551F40585F4F0C
:1038E00066277727B2E0EB2EF12C012D112D2BEE60
:1038F00031E0809159030E9448150DC0E0911704F2
:10390000EF5FE0931704FF27EF5EFE4F8081809307
:1039100059030E94CE161F910F91FF90EF900895CA
:10392000CF92EF92FF920F931F938930E9F08A3084
:1039300038F4873099F08830A8F4863001F50CC04F
:103940008231B1F0833118F48131C9F40FC0833171
:1039500089F08431A1F410C080E001C083E00E94AE
:10396000311C0DC084E0FBCF82E0F9CF80E005C0C0
:1039700083E003C084E001C082E00E9469091F91D6
:103980000F91FF90EF90CF900895CF92DF92EF923A
:10399000FF920F931F93982F80916201882319F053
:1039A00085E090E04AC0E92FFF27E931F105A8F44E
:1039B000E655FF4FEE0FFF1F0590F491E02D09949F
:1039C00083E00E94DA139927282F882339F481E0B5
:1039D0008093620180E090E030C021E0822F99273F
:1039E0002CC0CC24DD24760100E010E020E030E0A3
:1039F00040E050E060E0E4CFCC24DD24760100E03C
:103A000010E020E030E040E050E063E0D9CFCC248B
:103A1000DD24760100E010E020E030E040E050E0FE
:103A200061E0CECFCC24DD24760100E010E020E080
:103A300030E040E050E062E0C3CF1F910F91FF9073
:103A4000EF90DF90CF900895823069F0833018F4C2
:103A5000882339F004C0833041F0843041F081E0A4
:103A600009C085E105C088E103C086E101C087E1A6
:103A70000E94C51C9927089562E081E00E944C09CC
:103A8000882379F08FB7F894992723E0209388054D
:103A90008FBF0E9444190E94D10A88E00E942B0225
:103AA0001DC060E081E00E944C09882319F089E084
:103AB00090E0089564E081E00E944C09882341F081
:103AC0008FB7F894992723E0209388058FBF06C00D
:103AD00063E081E00E944C09882319F080E090E0C7
:103AE000089585E090E00895982F809180018130BD
:103AF000B9F4923061F0933018F4992331F00895BD
:103B0000933039F0943061F408C085E103C088E156
:103B100001C086E10E94C51C089587E10E94C51C72
:103B2000089561E081E00E945E058823E9F48FB783
:103B3000F894282F33278091550190915601892BB5
:103B400011F02FBF20C081E090E090935601809348
:103B500055012FBFDD9A0E94E60924E130E040E0E4
:103B600050E00E94A30A0FC062E081E00E944C096D
:103B7000882319F089E090E0089561E081E00E94D7
:103B80004C09882319F080E090E0089585E090E0EA
:103B900008950E94911D9927882329F0893019F0F2
:103BA00087E10E942B020895DF92EF92FF920F931C
:103BB0001F93DFB6F89400915A0310915B030E94A3
:103BC0008C04DC01CB0166E470E00E94BC4A0B96D9
:103BD0009093B1068093B006F80182A923A9992792
:103BE000982F88273327822B932B892B69F00E94EB
:103BF0008C04DC01CB016EE170E00E94BC4A0B96A4
:103C00009093B1068093B006E090B006F090B106B4
:103C1000002711270E94E609A80197010E94A30A24
:103C20008D2D99278FBF1F910F91FF90EF90DF90FF
:103C300008951F93CF93DF938FB7F894C82FDD2794
:103C40001C2F80915A0190915B010897C9F489E07B
:103C50000E942C1883E00E94F518C09A81E090E041
:103C600090935B0180935A018FB7F894992723E0D2
:103C7000209354018FBF89E00E942B02CFBF30C038
:103C8000C0988091D006882311F085E001C084E0BF
:103C90000E942C1883FD09C080E00E942C1883FF2D
:103CA00004C085E090E020E003C083E090E021E0E4
:103CB00090935B0180935A01C09A1FBF222341F069
:103CC0001092C40183E00E94F5180E94D41D08C020
:103CD0000E94E60920E431E040E050E00E94A30A9F
:103CE000DF91CF911F9108958FB7F8949927209174
:103CF0005A018FBF243039F0283041F0223019F5B5
:103D00000E94B91908950E94191E0895C09889E06B
:103D10000E942C18C09A83E00E94F5182FB7F894DF
:103D2000332781E090E090935B0180935A012FBF8D
:103D30008FB7F894992723E0209354018FBF89E02F
:103D40000E942B02089583E00E94F5180895EF92D7
:103D5000FF920F931F938FB7F894282F33278091EA
:103D60005A0190915B018830910561F1019751F5FD
:103D700081E08093D00683E090E090935B01809394
:103D80005A011092C4012FBF8091D006882399F068
:103D900080915A0390915B030E94A31BE090DC0189
:103DA000F090DD01002711270E94E609A801970184
:103DB0000E94A30A0BC00E943F16882339F40E9478
:103DC000191E04C02FBF83E10E942B021F910F9187
:103DD000FF90EF90089578941F920F920FB60F9274
:103DE00011242F923F924F925F926F927F928F9207
:103DF0009F92AF92BF92CF92DF92EF92FF920F937A
:103E00001F932F933F934F935F936F937F938F9362
:103E10009F93AF93BF93CF93DF93EF93FF93C6B579
:103E2000D7B58FB7F894282E0E94E6099B012C1B6A
:103E30003D0B442755272B013C01421A530A640AC3
:103E4000750A80915A0190915B018530910521F0AE
:103E5000069709F0E0C0BFC086E090E090935B0158
:103E600080935A0131E0332E30923E0310925C0170
:103E700080E00E94D00BE0915A03F0915B0341AACD
:103E8000BB27A72D962D852D80ABC301AA27BB2765
:103E900087A7872D9927AA27BB2786A7E0915A03D2
:103EA000F0915B0385A5882309F484C06081655087
:103EB00077274F01860E971EF4012081E1808281D1
:103EC000A3809927AA27BB27BA2FA92F982F882725
:103ED000332744275527522F442733272227FF24EF
:103EE000002711278701FF24EE242E293F29402B8C
:103EF000512BBB24CC24DD242A293B294C295D29C4
:103F0000822B932BA42BB52B84199509A609B709ED
:103F10008383292F3A2F4B2F552722839D01442736
:103F2000552721838B2F9927AA27BB278083C098E9
:103F300024E0A40180E090E00E94781AC09AF40185
:103F40002081E1808281A3809927AA27BB27BA2FED
:103F5000A92F982F8827332744275527522F4427E6
:103F600033272227FF24002711278701FF24EE246F
:103F70002E293F29402B512BBB24CC24DD242A2978
:103F80003B294C295D29822B932BA42BB52B840D27
:103F9000951DA61DB71D8383292F3A2F4B2F55271B
:103FA00022839D014427552721838B2F9927AA27F8
:103FB000BB278083E0915A03F0915B03818185FFE9
:103FC00002C03092210283E00E94F51887B78F7EED
:103FD00087BF84997AC010923E0381E00E94D00B83
:103FE000E0915A03F0915B03818185FF0FC087E068
:103FF00090E090935B0180935A010E94E60920E0D3
:1040000031E040E050E00E94A30A03C080E00E943B
:10401000081B849B5AC080915C01882391F5809194
:104020003E03882371F511E010933E030E94D00BEC
:1040300080B320912A06283098F4E0913006E20FF0
:10404000FF27E770F070EE0FFF1FEE0FFF1FEE521D
:10405000FA4F40825182628273822F5F20932A0638
:1040600010935C01D0939D03C0939C0384992DC051
:10407000992744E0969587954A95E1F7182F117096
:1040800001C010E080913E038130F9F410923E03AC
:104090000E94D00B10925C011123B9F480919C0313
:1040A00090919D03C81BD90B2A9778F480912A061A
:1040B000882319F0815080932A0680915A039091A9
:1040C0005B03009711F00E94C10B2FBEFF91EF918F
:1040D000DF91CF91BF91AF919F918F917F916F9120
:1040E0005F914F913F912F911F910F91FF90EF9012
:1040F000DF90CF90BF90AF909F908F907F906F9008
:104100005F904F903F902F900F900FBE0F901F9099
:10411000189578941F920F920FB60F9211241F9347
:104120002F933F934F935F936F937F938F939F93BF
:10413000AF93BF93EF93FF9387B78F7E87BF78943A
:104140001FB7F8948091690390916A03A0916B0363
:10415000B0916C030097A105B10509F051C08091A1
:104160005A0190915B018530910561F1863091058E
:1041700030F48330910549F0049781F51AC08730F7
:104180009105F1F0089751F514C0869B0FC084E0AB
:1041900090E090935B0180935A010E94E60927E02A
:1041A00030E040E050E00E94A30A18C00E94D41DF5
:1041B00015C00E943F16882389F40E94191E0EC064
:1041C00080E00AC089E00E942C1881E00E94D00B98
:1041D00083E00E94F51887E00E94081B809155013A
:1041E00090915601019771F482E090E0909356010E
:1041F00080935501DE98DE9A80E00E94E71502C0A8
:104200000E94030A812F99278FBFFF91EF91BF91E1
:10421000AF919F918F917F916F915F914F913F915E
:104220002F911F910F900FBE0F901F901895EF9236
:10423000FF920F931F93CF93DF938B0180919A038B
:1042400090919B0386FF40C18F7B8F3309F087C11C
:10425000C0918101D0918201588150935102809187
:104260004E0290914F028530910509F443C086308B
:10427000910509F48AC0029709F01FC185E090E01A
:1042800090934F0280934E024091E901852F992728
:104290000196242F3327281739074CF1B79906C008
:1042A0000E9904C0451B41504093E90140915102D1
:1042B0004A32E8F44423A1F0BE016F5F7F4F4830DB
:1042C00018F047E050E007C086E090E090934F027E
:1042D00080934E02552780E090E00E948E0B3FC1F4
:1042E00010924203C09A84E00E94F518E3C00E9435
:1042F000A81935C186E090E090934F0280934E025A
:1043000080915803882309F439C08091AB05882334
:10431000A9F5898185FF32C08F814E812FB7F8942E
:10432000332760919403709195032FBF9927982F9D
:1043300088275527842B952B8617970759F08F814F
:104340002E819927982F88273327822B932B8F5FD5
:104350009F4FA1F489818770813081F4C09AC09801
:104360008AE00E942C18C09AC09840915102475090
:104370002896BE018FE30E942917F1C04091510297
:10438000475055272896BE01A6CFC09A80911E039C
:10439000882339F484E00E94F51880911E03882355
:1043A00011F0B7990AC00E9B08C090912A06992374
:1043B00021F0809151028B3038F4809181019091ED
:1043C00082010E94C10B3DC0913001F5E0913006A1
:1043D000FF27EE0FFF1FEE0FFF1FEE52FA4F208157
:1043E000318142815381E0918101F091820121ABC1
:1043F000BB27A52F942F832F80ABCA01AA27BB27E9
:1044000087A7252F33274427552726A780913006D5
:104410009927019668E070E00E94D04A80933006A8
:1044200080912A06815080932A06882351F080913A
:104430008101909182010E94C10B1092300610926E
:104440002A0680915102FE01E80FF11D808187FF4D
:1044500031C0012B79F169816770E0918101F091A0
:104460008201623019F5A0915A03B0915B03109755
:1044700009F180915A0190915B010797D9F4ED0100
:104480009B8183819817B1F487B78F7E87BF908116
:1044900081E08CA7E90FF11D8291319688A7808178
:1044A0008F7789A780E00E94081B04C0613011F457
:1044B00080E12AC00E94731952C010924203C09A30
:1044C00084E00E94F5184BC08E3309F048C0C09AB2
:1044D00080915A0190915B010897C9F4C09889E0D6
:1044E0000E942C18C09A83E00E94F51881E090E0A9
:1044F00090935B0180935A018FB7F894992723E03A
:10450000209354018FBF89E00E942B0228C0809124
:10451000D006882349F484E090E090935B01809377
:104520005A010E94191E1BC083E00E94F51883E007
:1045300090E090935B0180935A0180915A0390918F
:104540005B030E94A31BE090DC01F090DD010027DB
:1045500011270E94E609A80197010E94A30ADF9192
:10456000CF911F910F91FF90EF9008951F920F929E
:104570000FB60F9211242F933F934F935F936F9336
:104580007F938F939F93AF93BF93EF93FF932FB13D
:10459000E0914A05F0914B05309739F0809118046D
:1045A00090911904E80FF91F2083809118049091CD
:1045B00019040196909319048093180480E00E94D6
:1045C000520640918E0150918F0180911804909174
:1045D00019048417950718F40E94200B1CC06091E1
:1045E0004A0570914B058091740690917506109262
:1045F0004B0510924A05109275061092740610929F
:104600008F0110928E0110921904109218042FB18C
:1046100020E00E941721FF91EF91BF91AF919F91F0
:104620008F917F916F915F914F913F912F910F905B
:104630000FBE0F901F9018950F931F930FB7F8940C
:10464000112740918E0150918F0160914A05709120
:104650004B05809174069091750610924B0510924F
:104660004A05109275061092740610928F011092EE
:104670008E01109219041092180420E00E94172154
:104680000FBF1F910F910895AF92BF92CF92DF920B
:10469000EF920F931F935B016C010E944604AB01E4
:1046A000BC0181E0E82E9601850182E00E9427048A
:1046B0001F910F91EF90DF90CF90BF90AF90089532
:1046C000AF92BF92CF92DF92EF920F931F935B0155
:1046D0006C010E944604AB01BC0191E0E92E9601F9
:1046E000850184E00E9427041F910F91EF90DF90D5
:1046F000CF90BF90AF9008956091340170913501D3
:10470000882799270E94602308950F931F93809113
:104710005E0190915F01892B09F44EC062E084E054
:104720000E944C09882309F447C080917606909135
:10473000770601969093770680937606019761F449
:1047400087E138C06091340170913501882799273D
:104750000E9460231FBF30C08FB7F894182F00E06D
:1047600014C080914203882369F7869B81E08823E7
:1047700019F00F5F043030F780917606909177063C
:1047800001969093770680937606809176069091B5
:1047900077068C5D954030F460E085E00E944C091E
:1047A0008823F9F61FBF60E085E00E944C0988234A
:1047B00019F086E10E942B021F910F910895AF928C
:1047C000BF92CF92DF92EF920F931F935B016C0128
:1047D0000E944604AB01BC0121E0E22E9601850156
:1047E0008CE00E9427041F910F91EF90DF90CF90F3
:1047F000BF90AF900895AF92BF92CF92DF92EF92A9
:104800000F931F93882389F00E948C045B016C0135
:104810008FEF90E0A0E0B0E0A822B922CA22DB220C
:1048200080E190E0A0E0B0E010C00E948C045B0149
:104830006C018FE790E0A0E0B0E0A822B922CA2284
:10484000DB2280E890E0A0E0B0E0A80EB91ECA1E0E
:10485000DB1E0E944604AB01BC0131E0E32E960151
:10486000850180E00E9427041F910F91EF90DF9057
:10487000CF90BF90AF900895EF920F931F93209128
:104880007C0533272150304081E090E0A0E0B0E08B
:1048900004C0880F991FAA1FBB1F2A95D2F78093C7
:1048A000780590937905A0937A05B0937B050E94D3
:1048B0008C04209178053091790540917A055091CA
:1048C0007B05882799272150304040405040622383
:1048D0007323842395232F5F3F4F4F4F5F4F260F46
:1048E000371F481F591F209378053093790540934F
:1048F0007A0550937B0580917D058E7F80937D05A1
:104900008091A7048D7F8093A7040E944604AB0189
:10491000BC01E1E0EE2E08EE13E020E030E086E09E
:104920000E9427041F910F91EF90089580917C05BC
:10493000893029F089E080937C050E943C24089509
:10494000AF92BF92CF92DF92EF92FF920F931F939D
:104950000E9446047B018C016091A8047091A90417
:104960008091AA049091AB04A0908501B09086013B
:10497000C0908701D0908801A114B104C104D10472
:1049800009F44EC0EFB7F89420914E0520FD36C0D3
:10499000A8019701261B370B480B590B2A153B051D
:1049A0004C055D05C8F4A21AB30AC40AD50A809161
:1049B000850190918601A0918701B0918801821BA9
:1049C000930BA40BB50B8093850190938601A09364
:1049D0008701B093880115C081E090E0A0E0B0E0CD
:1049E0008093850190938601A0938701B0938801FD
:1049F000A1E0AA2EB12CC12CD12C03C02E7F209374
:104A00004E058E2F99278FBF0E944604AB01BC0133
:104A1000F1E0EF2E9601850187E00E94270405C092
:104A20008091B0048D7F8093B0041F910F91FF900F
:104A3000EF90DF90CF90BF90AF900895FF920F93CB
:104A40001F93CF93DF93F82E282F33278BE090E02E
:104A5000289FE001299FD00D389FD00D1124CD57FC
:104A6000DE4F81E090E0998388831A868A819B815A
:104A7000AC81BD810097A105B105A1F00FB7F894F5
:104A80001127C9010E9478050FBF1A821B821C8260
:104A90001D821E821F82188619868F2D0E941F1B61
:104AA0000E94A024DF91CF911F910F91FF90089554
:104AB0000F931F9363E084E00E944C09882339F030
:104AC0008FB7F894992710928B058FBF48C061E08B
:104AD00084E00E944C09882319F480E090E041C0F2
:104AE0008FB7F894992722E020938B058FBF809190
:104AF000850190918601A0918701B091880100976E
:104B0000A105B10531F51092850110928601109230
:104B10008701109288011092890110928A011092E7
:104B20008B0110928C0110928D0180E00E941F1B5E
:104B30000FB7F894112780E090E00E9478050FBF2E
:104B40000E94A02480E00E941E2581E08093C6017F
:104B500003C080E00E941E2581E08093E30181E094
:104B600090E01F910F910895AF92BF92CF92DF9284
:104B7000EF920F931F93CF93DF93E0918105F09114
:104B8000820582A99927982F882723A93327822B6A
:104B9000932B892B09F443C027813327322F2227F7
:104BA00086819927282B392BDF01119641812F5FB0
:104BB0003F4F59F4ED0189819927982F8827242F99
:104BC0003327822B932B8F7D0AC0ED018981992792
:104BD000982F8827242F33272062822B932B8183C1
:104BE000892F99278983E0918105F091820582A917
:104BF0009927182F002783A99927082B192B0C5EBA
:104C00001F4F5801CC24DD240E944604AB01BC0197
:104C1000B1E0EB2E9601850185E00E94270482E138
:104C20000E942B02DF91CF911F910F91EF90DF90A7
:104C3000CF90BF90AF900895FF920F931F93CF93A3
:104C4000DF93EC01F62E0FB7F89411270E941A0596
:104C5000FC018FE380830FBF109239061092380653
:104C600061E082E00E945E05882319F085E090E013
:104C700043C08091B7058F5F8093B70581508B83C8
:104C80008FB7F894992720918B058FBF222349F184
:104C900062E085E00E945E05882319F085E090E0DF
:104CA00022C0D0938205C0938105F0927705809150
:104CB00095048D7F8093950480919E048D7F8093D1
:104CC0009E048FB7F894992720918A058FBF2230D0
:104CD00019F40E94B42503C084E10E942B0220E055
:104CE00009C084E090E0282F8FB7F894992710929C
:104CF00089058FBF822F9927DF91CF911F910F9147
:104D0000FF900895CF93DF93DA01422F2D3118F0F1
:104D100082E090E05EC0ED018B876E83872F99273C
:104D20008F832FB7F89433278091490390914A03DA
:104D30002FBFFD018483892F992785832FB7F8948E
:104D4000332780912C0190912D012FBF8887892FC7
:104D5000992789873196818129819927982F8827DA
:104D6000332720643868822B932B8983892F9927D6
:104D70008183435F4C934D5080912F01882359F0DC
:104D800010922F01642FCD010E941C269927282FF5
:104D90008823A9F417C0842F99279093A4038093A4
:104DA000A303B0936101A093600181E10E942B02F3
:104DB00080912F01882349F489E090E00AC08FEFA9
:104DC00080932F01822F992704C01092610380E005
:104DD00090E0DF91CF9108951F938091270199274B
:104DE000019666E070E00E94D04A682F8093270108
:104DF00010E0462F5527FA01EE0FFF1FE25BFB4F35
:104E0000A081B181109799F0E62FE695E695E69599
:104E1000FF27E95CF94F808199279A01277030704C
:104E200002C0959587952A95E2F780FF0DC0CA01CB
:104E3000019666E070E00E94D04A682F1F5F16302E
:104E4000C1F61093270119C0609327016630A8F4BA
:104E50002C912D503327FD0167817727762F662708
:104E600086819927682B792BAD0183850E94822644
:104E7000882319F086E00E942B021F910895CF939A
:104E8000DF93582FFB01863018F081E090E033C0AB
:104E9000C82FDD27CC0FDD1FC25BDB4F88819981D6
:104EA000892B19F085E090E026C079836883435F01
:104EB00040834D5080912701863018F480E090E0C7
:104EC0001AC0838567817727762F66272681332747
:104ED000622B732B50932701242FAF010E9482264F
:104EE0009927282F882329F086E0809327011982AB
:104EF0001882822F9927DF91CF910895AF92BF92A8
:104F0000CF92DF92EF92FF920F931F93BC0180919B
:104F1000E301882309F483C080913F03882309F0CB
:104F20007EC081E080933F0360939D01872F992786
:104F300080939C018EED6030780721F0AA24BB2479
:104F4000650108C0A0906601B0906701C09068013B
:104F5000D0906901A092A10111270D2DFC2CEB2C02
:104F6000E092A00196014427552720939F018D2DA3
:104F70009927AA27BB27ECE9F1E08283FF240027C9
:104F80001127102F0F2DFE2CEE24B82FAA279927BA
:104F90008827332744275527A90133272227822B27
:104FA000932BA42BB52B2A2D332744275527822B4F
:104FB000932BA42BB52BE82AF92A0A2B1B2BE114DF
:104FC000F1040105110511F410E010C060507E4D90
:104FD00021F41AE067E975E003C010E060E070E0DA
:104FE000412F552782EA91E00E94494B809132017E
:104FF000909133018093C301892F99278093C20137
:105000008FEF809396018093970180E680939B01B8
:105010001A5F412F60E971E083E00E943F271F91F2
:105020000F91FF90EF90DF90CF90BF90AF900895D9
:105030008FB7F8942091630420FD02C020E004C0E3
:105040002E7F2093630421E099278FBF222339F01C
:1050500080E09EED0E947E2780E20E942B02089550
:105060009C018091C601882309F455C0A7E9B5E0E9
:10507000F9018AE001900D928150E1F7809166017B
:1050800090916701A0916801B0916901CD01AA27B3
:10509000BB270196A11DB11D809366019093670106
:1050A000A0936801B09369010097A105B10561F46F
:1050B00081E090E0A0E0B0E080936601909367010A
:1050C000A0936801B0936901209166013091670156
:1050D0004091680150916901A901332722278091ED
:1050E0000F0190911001AA27BB27280F391F4A1FD3
:1050F0005B1F2093660130936701409368015093D2
:10510000690180E09EED0E947E2780E00E941E25BE
:105110008FE10E942B020895EF92FF920F931F934D
:10512000CF93DF93CDB7DEB722970FB6F894DEBFEB
:105130000FBECDBF60915101862F8250823008F0A2
:10514000CBC0E0909005FF2400271127102F0F2DD2
:10515000FE2CEE2420918E05332744275527522F0D
:1051600044273327222780918F059927AA27BB2719
:10517000DC0199278827282B392B4A2B5B2B809120
:1051800091059927AA27BB27282B392B4A2B5B2B64
:10519000E22AF32A042B152B80911D0190911E0108
:1051A000A0911F01B09120018E159F05A007B107A6
:1051B00029F480917D05816080937D05623061F5E1
:1051C00080915301882309F087C081E080935301C7
:1051D00083E00E94792980911D0190911E01A09188
:1051E0001F01B091200180932904292F3A2F4B2FC2
:1051F0005527209328049D014427552720932704F1
:105200008B2F9927AA27BB27809326048091210101
:1052100080932A0410922B0460912B0477272FE2AD
:1052200030E04EE655E0CE0101960E94EB03882364
:1052300021F081E00E9479294FC0898180932B045D
:1052400020912101422F552766277727BAE0440F86
:10525000551F661F771FBA95D1F726E1829FC001BF
:105260001124AA27BB27480F591F6A1F7B1F809153
:105270005201833079F08430B1F0823011F081E056
:105280001CC0A6E1EA2EF12C012D112D2CE234E0F8
:1052900082E011C0F6E1EF2EF12C012D112D2CE250
:1052A00034E080E008C0E6E1EE2EF12C012D112D56
:1052B0002CE234E081E00E94FB14882369F00E9414
:1052C0004604AB01BC0131E0E32E00E110E020E038
:1052D00030E080E00E94270422960FB6F894DEBFEB
:1052E0000FBECDBFDF91CF911F910F91FF90EF9037
:1052F0000895823040F490915101933011F095302F
:1053000011F4109253018093510108950F931F934C
:105310008B019C0190915101892F8250823030F590
:1053200080911D0190911E01A0911F01B09120015B
:10533000081719072A073B074CF0081719072A070F
:105340003B0781F580912101481760F581E00E94BB
:10535000792910926E0510926F05109270051092C7
:10536000710510927205109273051CC09450923012
:10537000C8F48091220190912301A0912401B09161
:105380002501081719072A073B074CF008171907CA
:105390002A073B0739F480912601841718F081E031
:1053A0008093C3051F910F910895DF92EF92FF92B2
:1053B0000F931F937B018C01D42E80915101882380
:1053C00019F481E00E947929E0922201F0922301F0
:1053D0000093240110932501D09226018FEF809332
:1053E000A8038093A9038093AA038093AB038093BF
:1053F000AC038093AD0380E090E01F910F91FF908C
:10540000EF90DF900895809151018430F1F5809103
:105410005301882309F090C081E08093530185E017
:105420000E947929809166049091670480932704F3
:10543000892F99278093260480910F019091100164
:1054400080932904892F9927809328048091220131
:1054500090912301A0912401B091250180932D0406
:10546000292F3A2F4B2F552720932C049D01442799
:10547000552720932B048B2F9927AA27BB2780938E
:105480002A048091260180932E0480915101853059
:1054900009F052C08091C305882331F080E00E945A
:1054A000FB231092C305089580915C03882321F4A7
:1054B00081E00E94792908958091A80380932F04A8
:1054C0008091A903809330048091AA0380933104D2
:1054D0008091AB03809332048091AC0380933304BA
:1054E0008091AD0380933404209126043327322F1A
:1054F0002227809127049927282B392B809132016C
:105500009091330180934D04892F992780934C0407
:1055100020932004232F33272093210481E58093B7
:1055200025044FE06AE174E081E00E943F27882370
:1055300019F080E00E94FB2308956F927F928F9272
:105540009F92AF92BF92DF92EF92FF920F931F93C1
:10555000CF93DF93CDB7DEB728970FB6F894DEBFB1
:105560000FBECDBF4B015C016624772469E674E071
:10557000FB01D084D1FEBCC12081318142815381A5
:10558000E480F58006811781D501C401821B930B4D
:10559000A40BB50B8E159F05A007B10708F4A8C191
:1055A000D0FE05C0FDEFDF22FB01D08609C02E0D25
:1055B0003F1D401F511FFB012083318342835383D2
:1055C000F6E06F1609F48BC0F61588F082E06816D5
:1055D00059F1861518F0662011F194C1E4E06E16B9
:1055E00009F447C0F5E06F1609F08CC167C08AE086
:1055F000681609F41EC1861548F0E7E06E1609F436
:10560000CFC0F9E06F1609F07DC1FFC08BE06816CE
:1056100009F454C1ECE06E1609F074C158C10E943F
:10562000032A0E948C286EC180915E0190915F01D7
:10563000892B09F467C162E084E00E944C09882349
:1056400009F460C18FB7F894992720918A058FBF1C
:10565000222331F4109277061092760688E12BC04F
:1056600060915E0170915F01882799270E94442311
:1056700049C18FB7F894992720918B058FBF2223BA
:10568000C9F080915E0190915F01892B09F43AC1C4
:105690008FB7F894992720918B058FBF222309F4A7
:1056A00031C18FB7F894992720918C058FBF2223A1
:1056B00009F028C185E10E942B0224C18FB7F8941C
:1056C000992720918C058FBF223009F01BC18FB71D
:1056D000F894992723E020938C058FBF13C1809104
:1056E0007D0580FD39C0809150018823A9F5809106
:1056F0000F019091100180936602892F9927809362
:10570000650282E08093670210926802A9E6B2E027
:10571000EEE8F5E089E001900D928150E1F780918B
:1057200032019091330180938C02892F99278093C5
:105730008B028FEF80935F028093600280E58093FD
:1057400064024EE069E572E080E00E943F27882312
:1057500019F481E08093500190E0809151018230F2
:1057600008F091E080917D05992319F081708460A3
:1057700007C0982F969531F09150990F8170892B21
:1057800080937D0580917D058E7F39F480917C0525
:10579000863118F48F5F80937C050E943C24B2C050
:1057A0002091AC043091AD044091AE045091AF040F
:1057B0008091850190918601A0918701B091880127
:1057C0000097A105B105F1F082179307A407B5076B
:1057D000C9F480918D01882361F42FB7F8943327A1
:1057E000809163048160809363042FBF80E20E94F4
:1057F0002B0280E090E00E94780580E00E941F1B51
:1058000010928D010E94A0247DC080918001882388
:1058100009F078C082E10E94F105882319F082E145
:105820000E94C21280918001882309F06BC0D99A2E
:1058300069C08091A1059927853021F0863009F053
:1058400061C014C040E050E060E070E08091A605C7
:105850000E941B096093D8017093D9018093DA01EB
:105860009093DB0180E00E941D134CC08FB7F89429
:1058700048E050E08E010F5F1F4FB80180EF9FE0BE
:105880000E94651120910F013091100189819A8148
:105890008217930749F03A83298348E050E0B80122
:1058A00080EF9FE00E94A21188E190E029E00FB60E
:1058B000F894A89581BD0FBE21BDFFCF8091A703AD
:1058C00081508093A7038823E9F080E0F4CE109202
:1058D0004D01209115018FB7F89499272093B505B4
:1058E0008FBF0E944E1610923301109232010AC0EF
:1058F0000894611C711C675F7F4FFDE06F16710497
:1059000009F036CE84E00E942B0228960FB6F89458
:10591000DEBF0FBECDBFDF91CF911F910F91FF90E2
:10592000EF90DF90BF90AF909F908F907F906F909F
:105930000895EF92FF920F931F9380919102882315
:1059400061F52091CE053091CF054091D005509161
:10595000D105EFB7F894FF27609183057091840516
:105960008091850590918605E090E501F090E60133
:105970000091E7011091E8016E0D7F1D801F911FBE
:10598000EFBF2093CE053093CF054093D0055093C1
:10599000D105109291020E946B0C0E9446040E9455
:1059A0009D2A1F910F91FF90EF9008952F923F92A3
:1059B0004F925F926F927F928F929F92AF92BF921F
:1059C000CF92DF92EF92FF920F931F93CF93DF93CB
:1059D000CDB7DEB7AA970FB6F894DEBF0FBECDBF26
:1059E000A0918101B0918201FC909D012F0D311D8C
:1059F000F9018081881F8827881FFD0183A7F9018D
:105A000080818F77FD0181A721503040F90180818D
:105A1000FD0180A7A0918101B0918201FD01328139
:105A20008FB7F894992720911D038FBF222309F483
:105A300090C0832F99279695879596958795837023
:105A400090708230910541F5878146812FB7F89497
:105A5000332760919403709195032FBF9927982F56
:105A600088275527842B952B8617970719F481E0F3
:105A700090E06CC0FD018781268140E050E09927CD
:105A8000982F88273327822B932B8F5F9F4F11F4FA
:105A900041E050E0CA015AC0039709F094C49E0146
:105AA0002F5F3F4F4CEA55E088E0FA010190AF01CB
:105AB000F90101929F018150C1F79E012F5D3F4F77
:105AC000AE014F5F5F4F88E0FA010190AF01F9012D
:105AD00001929F018150C1F79E01275F3F4FAE01A8
