S01800006275696C642F6D6963617A2F6D61696E2E73726563E5
S11300000C94C1010C94D4090C94DE090C94E809F5
S11300100C94F2090C94FC090C94060A0C944112F9
S11300200C94100A0C94E0010C94E0010C947E18DA
S11300300C941C1A0C949E090C94B4090C94AA0AEE
S11300400C948D090C94491C0C94E0010C94E0016F
S11300500C94E0010C941A0A0C94E0010C94E00155
S11300600C94A9090C94E0010C94E0010C94E001B7
S11300700C94E0010C94E0010C94E0010C94E00178
S11300800C94E0010C94E0010C94E001230B280B88
S11300901E0B230B280B1E0B2D0B230B280B1E0BE7
S11300A02D0B230B280B1E0B230B280B1E0BD80B1D
S11300B0DF0BD10BD80BDF0BD10BE60BD80BDF0B0F
S11300C0D10BE60BD80BDF0BD10BD80BDF0BD10B0D
S11300D02B0C300C260C2B0C300C260C350C2B0C5A
S11300E0300C260C350C2B0C300C260C2B0C300C45
S11300F0260CD715E215CC15D715E215CC15ED1540
S1130100D715E215CC15ED15D715E215CC15D71575
S1130110E215CC15391644162E16391644162E1629
S11301204F16391644162E164F16391644162E1627
S1130130391644162E16413177317B31C6313A31A6
S11301401A3229329F32DA322A332E3336333A3393
S11301507C33A033B5335A396C39DF39183A203A35
S1130160233A263A303A723A753A783A7B3A7E3AEA
S11301709F3AC13AC43AC73AE53AEC3A0000211032
S1130180422063308440A550C660E77008812991FD
S11301904AA16BB18CC1ADD1CEE1EFF131121002A5
S11301A073325222B5529442F772D662399318834D
S11301B07BB35AA3BDD39CC3FFF3DEE36224433471
S11301C020040114E664C774A44485546AA54BB59D
S11301D028850995EEE5CFF5ACC58DD55336722645
S11301E011163006D776F6669556B4465BB77AA7ED
S11301F019973887DFF7FEE79DD7BCC7C448E55891
S11302008668A7784008611802282338CCC9EDD93C
S11302108EE9AFF9488969990AA92BB9F55AD44AE4
S1130220B77A966A711A500A333A122AFDDBDCCB8C
S1130230BFFB9EEB799B588B3BBB1AABA66C877CB0
S1130240E44CC55C222C033C600C411CAEED8FFDDC
S1130250ECCDCDDD2AAD0BBD688D499D977EB66E84
S1130260D55EF44E133E322E511E700E9FFFBEEF2C
S1130270DDDFFCCF1BBF3AAF599F788F8891A981EE
S1130280CAB1EBA10CD12DC14EF16FE18010A100D8
S1130290C230E3200450254046706760B9839893C8
S11302A0FBA3DAB33DC31CD37FE35EF3B102901228
S11302B0F322D2323542145277625672EAB5CBA594
S11302C0A89589856EF54FE52CD50DC5E234C32478
S11302D0A01481046674476424540544DBA7FAB768
S11302E09987B8975FE77EF71DC73CD7D326F236C8
S11302F09106B01657667676154634564CD96DC9B4
S11303000EF92FE9C899E9898AB9ABA94458654817
S113031006782768C018E1088238A3287DCB5CDB07
S11303203FEB1EFBF98BD89BBBAB9ABB754A545A67
S1130330376A167AF10AD01AB32A923A2EFD0FEDD3
S11303406CDD4DCDAABD8BADE89DC98D267C076CB7
S1130350645C454CA23C832CE01CC10C1FEF3EFFA7
S11303605DCF7CDF9BAFBABFD98FF89F176E367E07
S1130370554E745E932EB23ED10EF01E00081C182A
S1130380141011241FBECFEFD0E1DEBFCDBF11E0AA
S1130390A0E0B1E0E4E8FFE700E00BBF02C0079093
S11303A00D92AE32B107D9F714E0AEE2B1E001C06C
S11303B01D92A23FB107E1F70E94243B0C94C13F78
S11303C00C9400008FB7F894992708958FBF08956F
S11303D0CF92DF92EF92FF920F931F93CF93DF930D
S11303E06C018B017A01E901232B19F1FB0183E0F4
S11303F0F695E7958A95E1F7EE0DFF1D8081992723
S11304009B012770307002C0959587952A95E2F775
S113041080FF06C0F6017183608380E090E00BC02A
S1130420CB010196BE010E94313FBC0180179107A8
S1130430E9F681E090E0DF91CF911F910F91FF9059
S1130440EF90DF90CF900895282F9FB7F894E82F6E
S1130450FF27E354FE4F80818F3F81F4E091F00445
S1130460E21771F40BC020936C0404C0FF27E3541B
S1130470FE4F20832093F00420E007C025E005C050
S113048080916C048F3F91F7EECF892F99278FBF0E
S1130490822F9927089587E10E94240299270895BD
S11304A08CE00E9424029927089581E10E9424028D
S11304B09927089582E10E9424029927089585E1ED
S11304C00E9424029927089586E10E942402992714
S11304D0089583E10E94240299270895CF93DF931E
S11304E0982F8FB7F894282F3327422F80914701F4
S11304F0882321F581E080934701909303042FBF63
S11305008FB7F894C82FDD279C2F80912901843060
S113051099F480914701813021F48CE10E942402F6
S113052009C0823049F4809103048093290183E057
S113053080934701CFBF07C09FBF05C080910304CC
S1130540891721F42FBF80E090E021C0E92FFF2715
S1130550ED58FB4F80818F3F89F4E0912801E91722
S113056089F40CC09093270104C0FF27ED58FB4F7A
S113057090839093280180E090E002C085E090E0B1
S11305804FBF05C0809127018F3F79F7EBCFDF91F3
S1130590CF910895CF92DF92EF92FF920F931F9322
S11305A0CF93DF93782FC62FDD278BE090E0C89F91
S11305B0F001C99FF00DD89FF00D1124EE52FD4FAC
S11305C08081882319F085E090E048C0643018F4F5
S11305D080E091E002C080E090E0AA27BB27BA2F18
S11305E0A92F982F882782179307A407B507A0F18E
S11305F0821B930BA40BB50B8C159D05AE05BF0593
S113060058F18BE090E0C89FF001C99FF00DD89F8E
S1130610F00D1124EE52FD4F708323833483458300
S11306205683C782D086E186F286128301836130C5
S113063069F0613028F0623059F0633059F003C03A
S113064080E00E946E0280E090E008C081E0F9CF73
S113065082E0F7CF83E0F5CF86E090E0DF91CF91A1
S11306601F910F91FF90EF90DF90CF9008957FB787
S1130670F89462B7209197013091980140919901C3
S113068050919A0106B601FE0FC081B792B7280FA8
S1130690311D411D511D2F5F3F4F4F4F5F4F290F9C
S11306A0311D411D511D04C0260F311D411D511D19
S11306B0872F99278FBFCA01B90108952F923F92BE
S11306C04F925F926F927F928F929F92AF92BF925E
S11306D0CF92DF92EF92FF920F931F93CF93DF930A
S11306E0CDB7DEB729970FB6F894DEBF0FBECDBFE6
S11306F06FB76983F8942090AB023090AC024090BD
S1130700AD025090AE02662477248824BEE4AB2E5A
S1130710A3E8BA2ECC24DD24EE24FF2400E010E06C
S1130720222D332D442D552D662D772D882D90E0C7
S11307300E94853D2A833B834C835D836E837F8344
S113074088879987822E932EA42EB52E24013501F5
S113075000E20E94833EA22EB32EC42ED52EA30106
S1130760920156954795379527952A0D3B1D4C1DAB
S11307705D1D57FF05C05F772F5F3F4F4F4F5F4FA2
S11307802093AB023093AC024093AD025093AE027F
S1130790E9818E2F99278FBFCA01B90129960FB617
S11307A0F894DEBF0FBECDBFDF91CF911F910F91A3
S11307B0FF90EF90DF90CF90BF90AF909F908F907D
S11307C07F906F905F904F903F902F900895FC0121
S11307D082819927582F442781819927482B592BA7
S11307E0CA01892F992786958695837090708230E7
S11307F0910559F08330910559F0892B19F420E0C3
S113080030E008C02CE93FEF05C022E030E002C030
S113081028E030E0CA0184E0989F812D99271124B3
S11308208230910559F08330910559F0892B19F4E0
S113083080E090E008C08CE99FEF05C082E090E082
S113084002C088E090E0280F391F2A5F3F4FCF0194
S1130850820F931F0895282F9FB7F894662349F0B9
S1130860E82FFF27E052FC4F8081882311F021E01C
S113087006C0E22FFF27E052FC4F608320E0892F5F
S113088099278FBF822F99270895CF93DF93FC0177
S1130890DC011196ED0129813327322F2227818132
S11308A099278062282B392B2183232F33272983EF
S11308B080E090E0DF91CF910895ECE7F1E06927C3
S11308C0660FF11DE60FF11DC895982F802D319606
S11308D0C895902508951F93CF93DF93142FEB01B0
S11308E004C069910E945D0411501123D1F7DF9176
S11308F0CF911F910895462FBC0180E090E00E94A3
S11309006B040895982F969596959695EBE4F3E0ED
S1130910E90FF11D877021E030E002C0220F331F80
S11309208A95E2F7808182239927089580916F0444
S1130930882311F0813011F478E008C0882329F06D
S1130940813019F02FE170E002C070E02EE1622FD7
S1130950EFB7F894809124028E7F8093240287B1AC
S1130960982F9F71829586958695837019F080E003
S113097090E012C0822F8850863118F081E090E018
S11309800BC040E050E03327892F992728173907F7
S113099011F441E050E0CA01982F9170990F8091B1
S11309A024028178262F2F71422F440F440F892B64
S11309B0842B80932402332727B9783059F580910A
S11309C06D0490916E0421E08638920718F087E058
S11309D090E01FC0833C910518F086E090E019C0B8
S11309E08136910518F085E090E013C080339105BD
S11309F018F084E090E00DC08831910518F083E090
S1130A0090E007C00C9718F082E090E002C080E00C
S1130A1090E0782F7770887D872B886D992786B929
S1130A208E2F99278FBF089591E09093C7028093EA
S1130A306F040E94960480E090E00895CF93DF93C2
S1130A40982F8FB7F894C82FDD272C2F8091480159
S1130A50882361F481E0809348019093BE028DE184
S1130A600E942402CFBF80E090E021C0E92FFF273D
S1130A70E158FD4F80818F3F89F4E0912B01E91704
S1130A8089F40CC090932A0104C0FF27E158FD4F5C
S1130A90908390932B0180E090E002C085E090E089
S1130AA02FBF05C080912A018F3F79F7EBCFDF91EB
S1130AB0CF9108951F93182F809150018823E1F45A
S1130AC0623041F0633041F0613011F081E007C0E1
S1130AD080E103C08EE001C08FE00E941E0590E01B
S1130AE0882309F491E090935001992329F01093FD
S1130AF0070480E090E002C081E090E01F91089537
S1130B008FB7F894282F3327922F80912C018131AD
S1130B1049F480914801823029F42FBF82E20E9477
S1130B20240208959FBF81E10E941E0508950F933A
S1130B301F93CF93DF93182F8FB7F894282F332761
S1130B40022F80914E01882359F581E080934E0154
S1130B5010939B022FBF8FB7F8949927379A8FBFB2
S1130B608FB7F894C82FDD279C2F80912D018230F8
S1130B70A9F480914E01813021F480E20E94240284
S1130B8009C0823059F480919B0280932D0183E047
S1130B9080934E01CFBF80E090E025C09FBFFBCF84
S1130BA080919B02811711F42FBFF5CF812F0E94F2
S1130BB08204882319F085E090E014C0E12FE695C3
S1130BC0E695E695FF27E55BFC4F177081E090E022
S1130BD002C0880F991F1A95E2F72081282B2083E1
S1130BE080E090E00FBFDF91CF911F910F910895A6
S1130BF0E82F9A01AB01BB27A52F942F832FBC01AB
S1130C00E13049F0E13078F0E23041F0E33049F08E
S1130C1060E078E008C060507F4F05C060507E4FB0
S1130C2002C060507D4F88279927982F872F762FF1
S1130C306627307044275527620F731F841F951F42
S1130C400895E82F8FB7F894282F332790E0FF27D3
S1130C50E052FC4F8081861709F491E02FBF892F61
S1130C6099270895682F81E00E9421069927089505
S1130C7060E085E00E94210699270895813049F0BB
S1130C80813078F0823041F0833049F060E070E0E8
S1130C9008C060507E4F05C060507D4F02C0605058
S1130CA07F4FCB010895982F4FB7F894552722B35F
S1130CB0277D22BB80E097FD939A959A829980685C
S1130CC022BB96FD939A959A8299806422BB95FDE6
S1130CD0939A959A8299806222BB94FD939A959AED
S1130CE08299806122BB93FD939A959A8299886038
S1130CF022BB92FD939A959A8299846022BB91FDBE
S1130D00939A959A8299826022BB90FD939A959AC0
S1130D10829981604FBF992708958FB7F8946091A5
S1130D204203709143032CB53DB506B602FE04C0E0
S1130D306F5F7F4F2CB53DB599278FBF88279927C3
S1130D40CB017727662744275527622B732B842BE7
S1130D50952B0895EF92FF920F931F930E948D0697
S1130D607B018C012091BA023091BB024091BC02FC
S1130D705091BD028091B3029091B402A091B5024A
S1130D80B091B602820F931FA41FB51FE216F3069B
S1130D900407150730F082179307A407B50758F026
S1130DA005C082179307A407B507E0F5E816F9060E
S1130DB00A071B07B8F59C01AD012E193F09400B2A
S1130DC0510B213060E8360760E0460760E05607C3
S1130DD068F180E090E8A0E0B0E0E80EF91E0A1F98
S1130DE01B1FE092BA02F092BB020093BC02109364
S1130DF0BD0280E090E8AFEFBFEFE80EF91E0A1FD6
S1130E001B1F20503048404050402093B302309381
S1130E10B4024093B5025093B60220E030E840E0BB
S1130E2050E014C020E030E040E050E08093BA028B
S1130E309093BB02A093BC02B093BD021092B30284
S1130E401092B4021092B5021092B602A901B70131
S1130E502CB53DB5C9018E199F09039684179507D2
S1130E6020F0B9016D5F7F4F02C0640F751F6115DB
S1130E70710511F461E070E0615070407BBD6ABDA2
S1130E8080E186BF87B7806187BF1F910F91FF9074
S1130E90EF9008950F931F930FB7F8941127609361
S1130EA0BA027093BB028093BC029093BD0220935C
S1130EB0B3023093B4024093B5025093B6020E9439
S1130EC0AA060FBF1F910F910895EF92FF920F93FF
S1130ED01F937B018C010E948D06A80197010E943B
S1130EE04A071F910F91FF90EF9008958FB7F894E0
S1130EF099271092E0038FBF0895882311F06E9A0A
S1130F0008956E98089580E88093B901109295022F
S1130F101092700410926B0410927B020895109248
S1130F203B0110923A01DE98DD98DE9A80E090E071
S1130F3008954FB7F8945527FC0153E0F695E795CB
S1130F405A95E1F7E753FC4F8770907021E030E049
S1130F5002C0220F331F8A95E2F78081822B80839F
S1130F604FBF0895882311F06F9A08956F980895DC
S1130F7080E00E947D07BA9ABB98B99AB89A6C9A95
S1130F8080E00E94B2076B986A9881E00E947D0716
S1130F90709A8DB18C7F8DB908951F93182F81E0BD
S1130FA00E947D071FB9779BFECF8FB199271F91B0
S1130FB008958F929F92AF92BF92CF92DF92EF9259
S1130FC0FF920F931F93CF93DF938FB7F8949927D2
S1130FD0C090B404D090B5048090C5039090C6032B
S1130FE0C0910003D091010320915E0130915F0113
S1130FF06AE0A62EB12CAC0EBD1E2A153B0508F4E2
S113100059018FBF7401EC0EFD1E86010C0F1D1FCC
S113101014C0C114D10419F0F801808101C080E02A
S11310200E94CD078114910411F0F7018083219669
S11310300894E11CF11C0F5F1F4FC5010197C817ED
S1131040D90738F381E00E94B2079FB7F894C1141E
S1131050D10431F0CC0EDD1EF60180818FB901C0C0
S11310601FB8D0930103C0930003892F99278FBF22
S113107080E090E0DF91CF911F910F91FF90EF906E
S1131080DF90CF90BF90AF909F908F9008952FB72F
S1131090F894332750935F0140935E019093B50415
S11310A08093B4047093C6036093C5031092010344
S11310B0109200032FBF452B29F08FB10E94D9074E
S11310C0992708958DE00E94240280E090E008951D
S11310D08FB7F89499272BB332E023272BBB8FBF0C
S11310E008958FB7F89499272BB334E023272BBBAB
S11310F08FBF08954FB7F89455278FB7F894992761
S113110020911A0130911B018FBF3093C0022093AC
S1131110BF022FB7F894332780911C012FBF992762
S113112090939802809397024FBF89E00E94240213
S11311300895CF93DF93FC0115A6DC019E96ED0183
S11311401B821A82198280E886A7DF91CF910895C5
S113115097B79F7D97BF90E296BF882319F08EB50D
S1131160806402C08EB58F7B8EBD87B7806287BFD7
S113117080E090E0089581E00E94A80899270895EE
S1131180DF92EF92FF920F931F938FB7F894282F5B
S11311903327D22E91B782B746B7981711F041FF83
S11311A002C02FBF6AC08091FE028823E1F10E9431
S11311B03703E090DC03F090DD030091DE0310912F
S11311C0DF032091B5013091B6014091B7015091F0
S11311D0B8016E197F09800B910B6217730784079E
S11311E0950720F01092FE0271E01EC02E0D3F1DE7
S11311F0401F511F8091970190919801A0919901EE
S1131200B0919A01281B390B4A0B5B0B273E310521
S11312104105510540F4822F223010F070E005C0E2
S113122070E082E002C070E086EE682F615000B684
S113123001FCFDCF82B7681709F46F5F2091970115
S1131240309198014091990150919A01DA01C901B4
S11312500196A11DB11D860F911DA11DB11D8217FF
S11312609307A407B50710F4622F609561BFDFBE32
S1131270772319F080E00E9424021F910F91FF90C0
S1131280EF90DF900895AFB7F894BB27E1E0E093C7
S1131290FE026093DC037093DD038093DE0390937E
S11312A0DF032093B5013093B6014093B701509307
S11312B0B801AFBF0E94C0080895AF92BF92CF9209
S11312C0DF92EF92FF920F931F93CF93DF93CDB7EB
S11312D0DEB728970FB6F894DEBF0FBECDBF20E06F
S11312E070E0E0910001F091010132E14DE65CE42F
S11312F06FE4809101019E2F28960FB6F894DEBF0B
S11313000FBECDBFDF91CF911F910F91FF90EF9052
S1131310DF90CF90BF90AF9008951F920F920FB6B9
S11313200F9211248F9383B783BF00B600FCFDCFC7
S11313308F910F900FBE0F901F90189578941F9265
S11313400F920FB60F9211240F900FBE0F901F90A3
S1131350189578941F920F920FB60F9211240F9044
S11313600FBE0F901F90189578941F920F920FB68E
S11313700F9211242F933F938F939F932FB7F89439
S11313803327809142039091430301969093430342
S1131390809342032FBF9F918F913F912F910F9084
S11313A00FBE0F901F9018951F920F920FB60F92B9
S11313B011240F900FBE0F901F9018951F920F923B
S11313C00FB60F9211240F900FBE0F901F90189517
S11313D01F920F920FB60F9211240F900FBE0F9011
S11313E01F9018951F920F920FB60F9211240F9011
S11313F00FBE0F901F9018951F920F920FB60F9269
S113140011240F900FBE0F901F9018951F920F92EA
S11314100FB60F9211240F900FBE0F901F901895C6
S11314201F920F920FB60F9211240F900FBE0F90C0
S11314301F9018951F920F920FB60F9211242F939D
S11314403F934F935F936F937F938F939F93AF9348
S1131450BF93EF93FF9344B155B178948FB7F89449
S1131460992720912402322F3695317021708FBF35
S11314702223D9F433988091C702813021F082303D
S113148009F039C00AC0332351F05093D10340937B
S1131490D00381E20E9424022EC0332319F40E9457
S11314A0960429C01092C70226C08FB7F8949927D2
S11314B08FBF2FB7F894332786B1582F5770482F12
S11314C04072987D942B952B8074977B982B906118
S11314D09F77892F992786B9887D842B852B8773DD
S11314E08061992786B9887D842B852B877B8069C9
S11314F0992786B92FBFFF91EF91BF91AF919F912B
S11315008F917F916F915F914F913F912F910F90A8
S11315100FBE0F901F901895EF92FF920F931F9399
S1131520CF93DF93EA017B010AC08C010F5F1F4F49
S11315300E94AC3FF70181937F012197C801209756
S1131540A1F780E090E0DF91CF911F910F91FF9080
S1131550EF9008951F920F920FB60F9211242F93BC
S11315603F934F935F936F937F938F939F93AF9327
S1131570BF93EF93FF9383B783BF00B600FCFDCF07
S113158081B799270196AA27BB272091970130910B
S113159098014091990150919A01280F391F4A1FCF
S11315A05B1F2093970130939801409399015093C6
S11315B09A0178940E94C008FF91EF91BF91AF9176
S11315C09F918F917F916F915F914F913F912F9157
S11315D00F900FBE0F901F901895BF92CF92DF927D
S11315E0EF92FF920F931F93B82E670178018091B9
S11315F04501882319F085E090E034C0EB2DFF27E6
S1131600E131F105B8F4EA5BFF4FEE0FFF1F0590DF
S1131610F491E02D099481E00E94CA029927282FB1
S1131620882349F481E080934501B092EC0480E082
S113163090E018C021E0822F992714C089019A01F3
S1131640AB0163E0E8CF89019A01AB0161E0E3CF2C
S113165089019A01AB0162E0DECF89019A01AB01F5
S113166060E0D9CF1F910F91FF90EF90DF90CF9062
S1131670BF900895AF92BF92CF92DF92EF92FF9204
S11316800F931F938091960299272CE130E0829F5B
S1131690A001839F500D929F500D1124FA01E1582F
S11316A0FB4F8081A82EBB24CC24DD24AAE0AA0C05
S11316B0BB1CCC1CDD1CAA95D1F7FA01E058FB4FEA
S11316C0808126E1829FC0011124AA27BB27A80E8E
S11316D0B91ECA1EDB1E9A012F573B4F809137015A
S11316E0823079F08330B1F0813011F081E01CC098
S11316F0F6E1EF2EF12C012D112DB601A50185E0A7
S113170011C0E6E1EE2EF12C012D112DB601A5013B
S113171083E008C076E1E72EF12C012D112DB601EE
S1131720A50184E00E94ED0A882311F01092E201E1
S11317301F910F91FF90EF90DF90CF90BF90AF90EB
S11317400895BF92CF92DF92EF92FF920F931F936F
S1131750B82ED70180914501882319F085E090E0E7
S11317603CC0EB2DFF27E131F105B8F4E95AFF4FF6
S1131770EE0FFF1F0590F491E02D099485E00E947F
S1131780CA029927282F882349F481E080934501D0
S1131790B092EC0480E090E020C021E0822F9927F1
S11317A01CC0680179018D019A01AB0163E0E6CFA9
S11317B0680179018D019A01AB0161E0DFCF680115
S11317C079018D019A01AB0162E0D8CF68017901FA
S11317D08D019A01AB0160E0D1CF1F910F91FF9071
S11317E0EF90DF90CF90BF900895BF92CF92DF9299
S11317F0EF92FF920F931F93B82E670178018091A7
S11318004501882319F085E090E034C0EB2DFF27D3
S1131810E131F105B8F4E859FF4FEE0FFF1F0590D1
S1131820F491E02D099484E00E94CA029927282F9C
S1131830882349F481E080934501B092EC0480E070
S113184090E018C021E0822F992714C089019A01E1
S1131850AB0163E0E8CF89019A01AB0161E0E3CF1A
S113186089019A01AB0162E0DECF89019A01AB01E3
S113187060E0D9CF1F910F91FF90EF90DF90CF9050
S1131880BF900895EF92FF920F931F93813051F010
S1131890813030F0823041F0833041F081E009C082
S11318A086E005C089E003C087E001C088E00E94AB
S11318B0F50B99271F910F91FF90EF9008950F93C7
S11318C01F93CF93DF93182F8FB7F894C82FDD277A
S11318D00C2F61E080E00E942B04882321F0CFBF0D
S11318E085E090E020C0809119018823A1F48091C3
S11318F03E01823081F409C082E080933E0110925F
S113190019010E94B807B89AC0981093160180E094
S11319100FBF992708C080913E01882369F30E9474
S1131920760781E0F5CFDF91CF911F910F91089554
S113193060E080E00E94210699270895EF92FF92CB
S11319400F931F93CF93DF93982F8FB7F894E82EBC
S113195080914E01833009F045C080912D01891793
S113196009F040C080914B03882309F046C03EC073
S1131970EF2DE695E695E695FF274F2D5527E55B78
S1131980FC4F9A012770307081E090E002C0880F0C
S1131990991F2A95E2F78095208128232083C093FC
S11319A04D0111C02196C230D10511F4C0E0D0E040
S11319B0FC2E8C2F0E9482048823D1F6C017D107F5
S11319C089F74FEF50E040939B028FEF80932D01F6
S11319D081E080934E0180E20E942402EFBE80E009
S11319E090E011C0EFBE81E090E00DC082E08093F2
S11319F02D0110924E013798F1CF80914D01082F9F
S1131A001127E801CFCFDF91CF911F910F91FF9064
S1131A10EF900895EF92FF920F931F93CF93DF936C
S1131A20CDB7DEB728970FB6F894DEBF0FBECDBF93
S1131A301092C7020091D0031091D10380916F04DA
S1131A40882319F0813049F404C080E00E949E0C80
S1131A500AC081E00E949E0C48C0882321F0813096
S1131A6009F04AC042C00F5C114008F045C08FB76E
S1131A70F89448E050E08E010F5F1F4FB80180EFEB
S1131A809FE00E948C0A8091A8019091A901A091E5
S1131A90AA01B091AB018B839C83AD83BE838FEF8E
S1131AA08F83188680910001909101019A83898324
S1131AB0780180EF9FE0F70161917F018C010F5F56
S1131AC01F4F0E94B43FFFE0083F1F0711F0C801F9
S1131AD0F2CFE199FECF88E190E029E00FB6F894C7
S1131AE0A89581BD0FBE21BDFFCF10933101009396
S1131AF0300182E00E94240228960FB6F894DEBFDB
S1131B000FBECDBFDF91CF911F910F91FF90EF904A
S1131B1008951F93982F1FB7F8948091480182303D
S1131B2099F580912C01891779F580912A0120E09B
S1131B3030E08F3F11F421E030E0232BF1F49FEFEC
S1131B4090932C018F3F19F42FEF30E00DC0282F14
S1131B503327F901E158FD4F808180932A018F3F9B
S1131B6011F490932B0190832093BE0281E0809323
S1131B7048018DE10E94240205C08FEF80932C015F
S1131B801092480121E001C020E0812F99278FBFE6
S1131B9090E0213009F491E081E09827892F99277A
S1131BA01F91089510925001823031F0833041F03A
S1131BB0813049F480E101C08EE00E94890D0895CE
S1131BC08FE00E94890D0895EF920F931F93AE2D1D
S1131BD099E0899FF0011124E45BFC4F4083518319
S1131BE0628373830483158326833783A17080857E
S1131BF08E7F8A2B8260808781E00E9424021F915D
S1131C000F91EF9008951F93982F8FB7F894182F82
S1131C10809147018330B1F580912901891791F5AD
S1131C208091270120E030E08F3F11F421E030E083
S1131C30232BF9F48F3F19F42FEF30E00EC0282F37
S1131C403327F901ED58FB4F8081809327018F3FA3
S1131C5011F4809328018FEF8083209303048FEF86
S1131C608093290181E0809347018CE10E94240242
S1131C7005C084E080932901109247011FBF80E0D2
S1131C8090E003C01FBF81E090E01F910895CF92C0
S1131C90DF92EF92FF920F931F938093460160931C
S1131CA00A04C901880F892F881F990B9195809385
S1131CB00B04220F812F9927282B20930C040093C7
S1131CC00D04D092C803C092C703F092B902E09207
S1131CD0B8024093B2028BE10E9424021F910F913B
S1131CE0FF90EF90DF90CF9008950F931F93182FDC
S1131CF00FB7F89461E080E00E942B04882371F50B
S1131D0010931601809119018823A9F580913E0151
S1131D10823089F58CE00CC00E94B80780913E01A6
S1131D20882349F481E080933E0110927C028EE086
S1131D300E9424022AC08091B7028F3F31F5E091BE
S1131D401801EE2311F11CC01092170104C0FF27E3
S1131D50E954FD4F10821092180117C081E090E001
S1131D6002C0880F991F1A95E2F720913D01282B94
S1131D7020933D010AC080913E018823E1F6CCCF37
S1131D80809117018F3F19F7DFCF802F99278FBFDD
S1131D9080E090E01F910F9108951F938FB7F894FE
S1131DA0282F3327122F8091EF04882321F02FBF8F
S1131DB081E090E013C081E08093EF0480913A01C8
S1131DC090913B01049721F481E00E94750E03C0B9
S1131DD08AE00E9424021FBF80E090E01F910895D2
S1131DE01F9383E00E945F0C9927182F882319F012
S1131DF083E00E94750E812F99271F9108958430E6
S1131E0021F0853051F0833079F480910A018130DA
S1131E1059F483E00E942402089580910A018130DC
S1131E2019F483E00E942402089580912001909186
S1131E302101892B19F480E090E0089562E084E0A8
S1131E400E94210690E0882309F491E081E098271C
S1131E50892F99270895EF92FF920F931F938091F2
S1131E60FF02843090F41092AE0144E5E42EF12C8C
S1131E70012D112D26E232E040E050E060E070E0F8
S1131E808091A7020E94420C27C062E084E00E9475
S1131E9021068823F1F461E084E00E94210688236E
S1131EA0C1F460E084E00E942106882391F08FB79A
S1131EB0F894992721E02093E4038FBF80912001B7
S1131EC090912101892B11F085E101C086E10E94E6
S1131ED0240283E08093AE011F910F91FF90EF9055
S1131EE008958091AE01823019F0833071F4FBCFF4
S1131EF0E091FF02EF5FE093FF02FF27EE5FFE4FEA
S1131F0080818093A7020E942B0F08959F92AF9225
S1131F10BF92CF92DF92EF92FF920F931F93982E6E
S1131F20F9018091AE01813009F4DEC0813008F4FA
S1131F3081C0843009F018C183E08093AE018091A0
S1131F400804882309F010C1A280BB24CC24DD241A
S1131F50DC2CCB2CBA2CAA242081332744275527E8
S1131F60522F44273327222781819927AA27BB2769
S1131F70DC0199278827282B392B4A2B5B2B83815B
S1131F809927AA27BB27282B392B4A2B5B2BA22A5C
S1131F90B32AC42AD52AE0909F02FF2400271127E0
S1131FA0102F0F2DFE2CEE2420919D023327442761
S1131FB05527522F44273327222780919E029927A1
S1131FC0AA27BB27DC0199278827282B392B4A2BE2
S1131FD05B2B8091A0029927AA27BB27282B392B9A
S1131FE04A2B5B2BE22AF32A042B152BAE14BF04D5
S1131FF0C006D106C9F480919C02843099F440E073
S113200050E060E070E0892D0E94F8056093A8011B
S11320107093A9018093AA019093AB0180E00E9480
S11320209705A2C081E001C082E080934F010E9425
S113203080059AC0CC2009F097C0E0902802FF24C4
S113204000271127102F0F2DFE2CEE24209126029D
S1132050332744275527522F44273327222780919B
S113206027029927AA27BB27DC0199278827282B31
S1132070392B4A2B5B2B809129029927AA27BB274E
S1132080282B392B4A2B5B2BE22AF32A042B152B02
S11320908FEFE8168FEFF8068FEF08078FEF18071A
S11320A0A9F010927D0281E08093AE0152E0E52E0A
S11320B0F12C012D112D2AEB31E040E850E060E0D5
S11320C070E08091A7020E94420C4EC0E091FF0292
S11320D0EF5FE093FF02FF27EE5FFE4F8081809366
S11320E0A7020E942B0F40C082E08093AE01609152
S11320F07D0277278827992720E534E040E050E0E7
S11321000E94063FAB01BC0140585E4F6F4F7F4FAA
S11321108091A702813079F0813028F0823099F0E3
S1132120833011F518C0EE24FF2400E514E020E00C
S113213030E086E017C0EE24FF2400E514E020E040
S113214030E089E00FC0EE24FF2400E514E020E035
S113215030E087E007C0EE24FF2400E514E020E02F
S113216030E088E00E94A10B1F910F91FF90EF9047
S1132170DF90CF90BF90AF909F900895AF92BF92A1
S1132180CF92DF92EF92FF920F931F93282F332762
S11321908BE090E0289FF001299FF00D389FF00D0F
S11321A01124ED5AFE4F82819381A481B581009759
S11321B0A105B10569F080819181880F991F9183F0
S11321C080838150944020F080E094E09183808368
S11321D08BE090E0289F5001299FB00C389FB00CF1
S11321E0112483E591E0A80EB91EF501868197813B
S11321F0A085B18582839383A483B583C080D18075
S1132200EE24FF2469E0CC0CDD1CEE1CFF1C6A9557
S1132210D1F70E945E03DC01CB01F501008111813D
S1132220B801762F6627770F0E94313FAA27BB2774
S11322308C0D9D1DAE1DBF1D222733274AE0000FC4
S1132240111F221F331F4A95D1F7081B190B2A0BA4
S11322503B0B068317832087318722813381448196
S11322605581280F391F4A1F5B1F22833383448300
S113227055831F910F91FF90EF90DF90CF90BF9007
S1132280AF9008950F931F938C010E945E03DC01AD
S1132290CB0166E371E00E94313F0B969093AD0150
S11322A08093AC01F80182A99927982F882723A944
S11322B03327822B932B892B69F00E945E03DC0168
S11322C0CB0168E270E00E94313F0B969093AD0120
S11322D08093AC011F910F910895BF92CF92DF922A
S11322E0EF92FF920F931F93B82E80919B01882346
S11322F039F085E0809346018BE10E9424021DC0E1
S11323008B2D9927FC01EE0FFF1FE80FF91FEC51ED
S1132310FE4F20813181BB2011F461E601C060E6EB
S1132320B1E0CB2ED12CEE24FF2400E010E040E0FD
S11323308AE00E94470EB09246031F910F91FF90CE
S1132340EF90DF90CF90BF900895CF92DF92EF92FD
S1132350FF920F931F9380919B01882339F085E0AE
S1132360809346018BE10E94240229C040914803D6
S1132370842F9927FC01EE0FFF1FE80FF91FDF01DF
S1132380AC51BE4F2D913C91EA51FE4F808182FFAA
S113239006C0442311F068E807C069E805C0442377
S11323A011F063E801C066E801E0C02ED12CEE24F0
S11323B0FF2400E010E040E089E00E94470E1F91F6
S11323C00F91FF90EF90DF90CF900895EF92FF92DE
S11323D00F931F93CF93DF93182F7B01042F8FB795
S11323E0F894C82FDD2760E080E00E94210688234E
S11323F021F0CFBF80E090E014C0CFBF1064812FE4
S113240099279093C4028093C3020E94CD07182F8A
S1132410402F5527B70180E090E00E944708812FA4
S11324209927DF91CF911F910F91FF90EF9008951D
S1132430C098609151017091520141E08FE30E9474
S1132440E611089582E090E09093E1018093E00129
S113245081E08093950220E030E080911601843081
S113246011F421E030E0232B29F484E00E945F0C76
S1132470882319F40E941812089584E00E94750EAE
S113248008951F920F920FB60F9211242F933F932A
S11324904F935F936F937F938F939F93AF93BF9368
S11324A0EF93FF938091E0019091E101019749F44A
S11324B082E090E09093E1018093E0010E94221277
S11324C005C080917B028F5F80937B02FF91EF9127
S11324D0BF91AF919F918F917F916F915F914F9138
S11324E03F912F910F900FBE0F901F901895FF9260
S11324F00F931F93CF93DF93F82E8B018FB7F8942C
S1132500C82FDD2760E080E00E942106882321F0A7
S1132510CFBF80E090E00CC0CFBF8F2D0E94CD07CD
S1132520812F99270E94CD07802F0E94CD079927DC
S1132530DF91CF911F910F91FF9008951F931FB7C3
S1132540F89480917A02882319F460E070E009C05D
S113255060E08091B304882309F461E081E0682796
S113256077278091A602882319F480E090E00AC0BE
S113257090E08091FA03882309F491E081E09827A0
S1132580892F9927762F6627770F770F770F44E0E7
S1132590880F991F4A95E1F7826E9262682B792B16
S11325A081E10E947712812F99278FBF1F9108958F
S11325B08FB7F8949927609104048FBF85E0689FD2
S11325C0B0011124625D7E4F706488E10E9477122D
S11325D00895EF92FF921F93CF93DF93E090A802A8
S11325E0F090A902F70182A59927182F882309F4EE
S11325F01FE1C09880912302811749F0612F77274A
S11326006F717070606E706885E10E94771210932C
S11326102302F70110818FB7F894C82FDD2760E0FB
S113262080E00E942106882311F0CFBF12C0CFBFE3
S11326308EE390E09093C4028093C3028EE30E94E1
S1132640CD071150412F552760E070E0C7010E946B
S11326504708DF91CF911F91FF90EF9008951F934A
S1132660CF93DF93182F8FB7F894C82FDD2760E03E
S113267080E00E942106882321F0CFBF80E090E013
S113268005C0CFBF812F0E94CD079927DF91CF913D
S11326901F91089583E00E942F1399270895CF93E3
S11326A0DF93C0988FB7F894C82FDD2780913A0143
S11326B090913B010297A1F583E090E090933B0158
S11326C080933A0168E170E08DE10E94771281E025
S11326D08093C10210923C0180B3992766E09695DD
S11326E087956A95E1F7817090708093C2028BE0C0
S11326F00E94240281E00E942F136FE772E08CE1B4
S11327000E9477120E94D8120E949E1266E57AE215
S113271087E10E9477126FEF70E885E10E947712DB
S1132720CFBFDF91CF9108951F9380913D018823FE
S113273009F04BC0109116011F3F09F046C060E03C
S11327400E942106882309F440C081E08093050497
S11327508091BC018823E1F11092050485E090E0AA
S113276045C0923069F5C09A8091170120E030E0AD
S11327708F3F11F421E030E0232BE9F41093190189
S11327808F3F19F42FEF30E00DC0282F3327F901C4
S1132790E954FD4F8081809317018F3F11F410930A
S11327A01801108320937C0281E080933E018EE027
S11327B00E94240205C01093190110923E0111C019
S11327C080913E01882369F00FC081E090E00EC043
S11327D08091190190913E01882319F2923021F0E1
S11327E0EFCF80E00E947D0780E090E01F91089584
S11327F01F93CF93DF939FB7F894C92FDD271C2F26
S113280090911601981721F0CFBF81E090E036C077
S11328108FEF8093160130913D013323D1F40E9450
S113282076070E949413CFBF11C02093160181E054
S113283090E002C0880F991F4A95E2F780953823EB
S113284030933D018CE00E9424021FBF80E090E0A1
S113285015C080E065E0E32FFF270E94253F292F64
S1132860492F5527CF01042E02C0959587950A94C8
S1132870E2F780FDDACF822F8F5FEFCFDF91CF9128
S11328801F91089582E00E94F813992708951F93D9
S1132890CF93DF938FB7F894C82FDD271C2F809137
S11328A0E0019091E101892B29F484E00E94F8135E
S11328B0CFBF1EC01092950280917B02882311F035
S11328C0B79904C00E9908C0882319F081508093E9
S11328D07B020E9422120BC081E090E09093E10100
S11328E08093E00110927B0284E00E94F8131FBFE2
S11328F0DF91CF911F9108950E948307C09AC098D9
S113290088E00E942F1388E00E942F13C09A84E06D
S11329100E94F8130E9447140895CF92DF92EF9219
S1132920FF920F931F93CF93DF938C01F62E6A01CE
S1132930E22E8FB7F894C82FDD2760E080E00E9474
S11329402106882321F0CFBF80E090E01EC0CFBFD6
S11329500F0D111D802F80680E94CD07F82E16954B
S11329600795802F807C0E94CD070E2D0AC0EE2D86
S1132970FF27E01BF109EC0DFD1D80810E94CD07AE
S113298001500023A1F78F2D9927DF91CF911F913B
S11329900F91FF90EF90DF90CF900895CF93DF9346
S11329A0CDB7DEB72C970FB6F894DEBF0FBECDBF00
S11329B08FB7F894282FAE014F5F5F4FDA01EBEF2A
S11329C0F3E088E001900D928150E1F78091970245
S11329D0909198028987892F99278A878091BF02CD
S11329E09091C0028B87892F99278C872FBF2CE069
S11329F060E080E691E00E948D142C960FB6F89466
S1132A00DEBF0FBECDBFDF91CF9108951F938FB767
S1132A10F894282F332780913C01882311F02FBF8D
S1132A2030C02FBF80B39927A6E096958795AA95C5
S1132A30E1F7182F11709091C1028091C202891799
S1132A40D9F01917C9F484E090E090933B01809386
S1132A503A018FB7F894992721E020933C018FBF66
S1132A6060E070E08DE10E9477120E94CE14C09A5B
S1132A70C09886E00E9424021093C2028BE00E9458
S1132A8024021F910895C09886E00E942F130E948B
S1132A90D8120E949E120E94CE14C09AC09883E05D
S1132AA00E942F13C09A81E00E94F8138AE00E94CA
S1132AB0240208951F93182F81E090E09093400121
S1132AC080933F011092BC010E9494138FB7F89435
S1132AD09927109339018FBF88E00E9424021F9127
S1132AE008950F931F930FB7F89411271092400184
S1132AF010923F0187B78F7E87BF87B78F7D87BFCF
S1132B0083E00E94F813C09A0FBF0FB7F8941127FF
S1132B101092E1011092E0010E948307C09A89B7E4
S1132B208F7B89BF0FBF80E090E01F910F910895C4
S1132B300E9471150E948F0787E00E942402089565
S1132B40CF92DF92EF92FF920F931F93982F809171
S1132B504501882319F085E090E04AC0E92FFF275A
S1132B60E131F105A8F4E758FF4FEE0FFF1F059080
S1132B70F491E02D099483E00E94CA029927282F3A
S1132B80882339F481E08093450180E090E030C0EF
S1132B9021E0822F99272CC0CC24DD24760100E08B
S1132BA010E020E030E040E050E063E0E4CFCC24EB
S1132BB0DD24760100E010E020E030E040E050E069
S1132BC061E0D9CFCC24DD24760100E010E020E0E0
S1132BD030E040E050E062E0CECFCC24DD2476014A
S1132BE000E010E020E030E040E050E060E0C3CFDF
S1132BF01F910F91FF90EF90DF90CF900895BF92B7
S1132C00CF92DF92EF92FF920F931F93B82E809191
S1132C104501882319F085E090E04CC0EB2DFF2797
S1132C20E131F105B8F4E657FF4FEE0FFF1F0590B1
S1132C30F491E02D099482E00E94CA029927282F7A
S1132C40882349F481E080934501B092EC0480E04C
S1132C5090E030C021E0822F99272CC0CC24DD24C1
S1132C60760100E010E020E030E040E050E063E076
S1132C70E2CFCC24DD24760100E010E020E030E057
S1132C8040E050E061E0D7CFCC24DD24760100E0C1
S1132C9010E020E030E040E050E062E0CCCFCC2413
S1132CA0DD24760100E010E020E030E040E050E078
S1132CB060E0C1CF1F910F91FF90EF90DF90CF9014
S1132CC0BF900895EF92FF920F931F938091AE01EE
S1132CD0823009F04EC08091BA019927982F882735
S1132CE02091BB013327822B932BE816F906A9F018
S1132CF08091A702813049F0813028F0823049F078
S1132D008330B9F508C08AE001C08DE00E94FF1548
S1132D1030C08BE0FBCF8CE0F9CF40917D024F5F58
S1132D2040937D0280912E024817B0F481E0809395
S1132D30AE015527440F551F40585F4F662777272C
S1132D40B2E0EB2EF12C012D112D2AEB31E0809114
S1132D50A7020E94420C0DC0E091FF02EF5FE093D6
S1132D60FF02FF27EE5FFE4F80818093A7020E943F
S1132D702B0F1F910F91FF90EF900895CF92EF9238
S1132D80FF920F931F93873061F0883018F48630D8
S1132D9079F405C0883039F0893051F406C080E0F8
S1132DA005C082E003C083E001C081E00E94621696
S1132DB01F910F91FF90EF90CF900895823041F0D2
S1132DC0833041F0813011F081E007C080E103C01D
S1132DD08EE001C08FE00E94FF159927089581E0DD
S1132DE00E9497059927089580E00E9497059927E6
S1132DF0089562E081E00E942106882379F08FB76C
S1132E00F894992723E02093E1038FBF0E94711562
S1132E100E948F0787E00E9424021DC060E081E0C9
S1132E200E942106882319F089E090E0089564E067
S1132E3081E00E942106882341F08FB7F8949927F6
S1132E4023E02093E1038FBF06C063E081E00E948A
S1132E502106882319F080E090E0089585E090E051
S1132E6008958FB7F89499272091E5038FBF222303
S1132E7039F40E94F916882319F084E10E9424028F
S1132E800895DF92EF92FF920F931F93DFB6F894A9
S1132E900091A8021091A9020E945E03DC01CB01FB
S1132EA066E470E00E94313F0B969093EE048093A9
S1132EB0ED04F80182A923A99927982F882733279D
S1132EC0822B932B892B69F00E945E03DC01CB01DA
S1132ED06EE170E00E94313F0B969093EE04809374
S1132EE0ED04E090ED04F090EE04002711270E9419
S1132EF08D06A80197010E944A078D2D99278FBF3F
S1132F001F910F91FF90EF90DF90089561E081E0B1
S1132F100E942B048823E9F48FB7F894282F3327D1
S1132F2080913A0190913B01892B11F02FBF20C071
S1132F3081E090E090933B0180933A012FBFDD9AAA
S1132F400E948D0624E130E040E050E00E944A07F0
S1132F500FC062E081E00E942106882319F089E015
S1132F6090E0089561E081E00E942106882319F031
S1132F7080E090E0089585E090E00895CF93DF939A
S1132F80EC018091200190912101892B51F420972B
S1132F90F9F085E10E942402D0932101C09320011D
S1132FA01CC0D0932101C0932001CD2BB1F462E069
S1132FB084E00E942106882381F08FB7F894992732
S1132FC02091E3038FBF222341F40E94861705C09A
S1132FD01092210110922001EACFDF91CF91089540
S1132FE01F93CF93DF938FB7F894C82FDD271C2F3F
S1132FF080913F01909140010897C9F489E00E94B3
S11330002F1383E00E94F813C09A81E090E090931C
S1133010400180933F018FB7F894992723E02093D0
S113302039018FBF88E00E942402CFBF30C0C0980E
S11330308091F104882311F085E001C084E00E94AE
S11330402F1383FD09C080E00E942F1383FF04C067
S113305085E090E020E003C083E090E021E09093DD
S1133060400180933F01C09A1FBF222341F0109278
S1133070940183E00E94F8130E94411708C00E9443
S11330808D0620E431E040E050E00E944A07DF91E1
S1133090CF911F9108958FB7F894992720913F01FC
S11330A08FBF243039F0283041F0223019F50E94C6
S11330B0E91208950E94F0170895C09889E00E94CB
S11330C02F13C09A83E00E94F8132FB7F894332784
S11330D081E090E09093400180933F012FBF8FB730
S11330E0F894992723E0209339018FBF88E00E9448
S11330F02402089583E00E94F813089578941F929F
S11331000F920FB60F9211242F923F924F925F921B
S11331106F927F928F929F92AF92BF92CF92DF92E3
S1133120EF92FF920F931F932F933F934F935F93CD
S11331306F937F938F939F93AF93BF93CF93DF93BB
S1133140EF93FF93C6B5D7B58FB7F894282E0E9496
S11331508D069B012C1B3D0B442755272B013C015D
S1133160421A530A640A750A80913F019091400102
S11331708530910521F0069709F0E0C0BFC086E0D4
S113318090E09093400180933F0131E0332E3092E0
S113319091021092410180E00E94A808E091A802E7
S11331A0F091A90241AABB27A72D962D852D80ABAE
S11331B0C301AA27BB2787A7872D9927AA27BB273F
S11331C086A7E091A802F091A90285A5882309F4B5
S11331D084C06081655077274F01860E971EF401E5
S11331E02081E1808281A3809927AA27BB27BA2F57
S11331F0A92F982F8827332744275527522F442750
S113320033272227FF24002711278701FF24EE24D8
S11332102E293F29402B512BBB24CC24DD242A29E1
S11332203B294C295D29822B932BA42BB52B841984
S11332309509A609B7098383292F3A2F4B2F5527C0
S113324022839D014427552721838B2F9927AA2761
S1133250BB278083C09824E0A40180E090E00E9412
S11332608D14C09AF4012081E1808281A380992782
S1133270AA27BB27BA2FA92F982F8827332744279B
S11332805527522F442733272227FF2400271127AD
S11332908701FF24EE242E293F29402B512BBB24E8
S11332A0CC24DD242A293B294C295D29822B932B0C
S11332B0A42BB52B840D951DA61DB71D8383292F23
S11332C03A2F4B2F552722839D01442755272183CD
S11332D08B2F9927AA27BB278083E091A802F0911E
S11332E0A902818185FF02C03092BC0183E00E9463
S11332F0F81387B78F7E87BF84997AC010929102A2
S113330081E00E94A808E091A802F091A9028181BD
S113331085FF0FC087E090E09093400180933F01C8
S11333200E948D0620E031E040E050E00E944A0710
S113333003C080E00E945A15849B5AC080914101C9
S1133340882391F580919102882371F511E01093FF
S113335091020E94A80880B320916B04283098F44D
S1133360E0917004E20FFF27E770F070EE0FFF1F8B
S1133370EE0FFF1FE95EFB4F40825182628273822F
S11333802F5F20936B0410934101D093C602C09326
S1133390C50284992DC0992744E0969587954A954E
S11333A0E1F7182F117001C010E080919102813073
S11333B0F9F4109291020E94A8081092410111237D
S11333C0B9F48091C5029091C602C81BD90B2A9703
S11333D078F480916B04882319F0815080936B04F6
S11333E08091A8029091A902009711F00E94990877
S11333F02FBEFF91EF91DF91CF91BF91AF919F913C
S11334008F917F916F915F914F913F912F911F9178
S11334100F91FF90EF90DF90CF90BF90AF909F906F
S11334208F907F906F905F904F903F902F900F9070
S11334300FBE0F901F90189578941F920F920FB69D
S11334400F9211241F932F933F934F935F936F9386
S11334507F938F939F93AF93BF93EF93FF9387B71C
S11334608F7E87BF78941FB7F8948091B3029091B0
S1133470B402A091B502B091B6020097A105B105BE
S113348009F051C080913F01909140018530910530
S113349061F18630910530F48330910549F0049749
S11334A081F51AC087309105F1F0089751F514C0E1
S11334B0869B0FC084E090E09093400180933F018D
S11334C00E948D0627E030E040E050E00E944A0769
S11334D018C00E94411715C00E94F00E882389F479
S11334E00E94F0170EC080E00AC089E00E942F13EA
S11334F081E00E94A80883E00E94F81387E00E94FC
S11335005A1580913A0190913B01019771F482E040
S113351090E090933B0180933A01DE98DE9A80E03C
S11335200E94750E02C00E94AA06812F99278FBFA0
S1133530FF91EF91BF91AF919F918F917F916F9187
S11335405F914F913F912F911F910F900FBE0F905C
S11335501F901895EF92FF920F931F93CF93DF93D1
S11335608B018091C3029091C40286FF40C18F7B7E
S11335708F3309F087C1C0915101D0915201588114
S11335805093E3018091E0019091E1018530910530
S113359009F443C08630910509F48AC0029709F002
S11335A01FC185E090E09093E1018093E001409198
S11335B0B901852F99270196242F33272817390716
S11335C04CF1B79906C00E9904C0451B4150409375
S11335D0B9014091E3014A32E8F44423A1F0BE0169
S11335E06F5F7F4F483018F047E050E007C086E037
S11335F090E09093E1018093E001552780E090E012
S11336000E9447083FC110929502C09A84E00E942C
S1133610F813E3C00E947C1435C186E090E09093D7
S1133620E1018093E0018091A602882309F439C066
S11336308091FA038823A9F5898185FF32C08F819F
S11336404E812FB7F89433276091BF027091C00266
S11336502FBF9927982F88275527842B952B8617BA
S1133660970759F08F812E819927982F8827332720
S1133670822B932B8F5F9F4FA1F4898187708130B8
S113368081F4C09AC0988AE00E942F13C09AC0980F
S11336904091E30147502896BE018FE30E94E61152
S11336A0F1C04091E301475055272896BE01A6CFAB
S11336B0C09A80917B02882339F484E00E94F81335
S11336C080917B02882311F0B7990AC00E9B08C031
S11336D090916B04992321F08091E3018B3038F4AD
S11336E080915101909152010E9499083DC09130FE
S11336F001F5E0917004FF27EE0FFF1FEE0FFF1F8F
S1133700E95EFB4F2081318142815381E091510177
S1133710F091520121ABBB27A52F942F832F80ABAF
S1133720CA01AA27BB2787A7252F33274427552754
S113373026A7809170049927019668E070E00E94A2
S1133740453F8093700480916B04815080936B0497
S1133750882351F080915101909152010E9499085F
S11337601092700410926B048091E301FE01E80F43
S1133770F11D808187FF31C0012B79F16981677068
S1133780E0915101F0915201623019F5A091A80223
S1133790B091A902109709F180913F0190914001E5
S11337A00797D9F4ED019B8183819817B1F487B70A
S11337B08F7E87BF908181E08CA7E90FF11D8291F4
S11337C0319688A780818F7789A780E00E945A1557
S11337D004C0613011F48FE02AC00E94471452C023
S11337E010929502C09A84E00E94F8134BC08E3365
S11337F009F048C0C09A80913F0190914001089718
S1133800C9F4C09889E00E942F13C09A83E00E94F3
S1133810F81381E090E09093400180933F018FB7CB
S1133820F894992723E0209339018FBF88E00E9400
S1133830240228C08091F104882349F484E090E0B4
S11338409093400180933F010E94F0171BC083E0D6
S11338500E94F81383E090E09093400180933F012D
S11338608091A8029091A9020E944211E090AC01BB
S1133870F090AD01002711270E948D06A801970141
S11338800E944A07DF91CF911F910F91FF90EF9013
S113389008951F920F920FB60F9211242F933F9306
S11338A04F935F936F937F938F939F93AF93BF9344
S11338B0EF93FF932FB1E091C503F091C6033097C6
S11338C039F08091000390910103E80FF91F2083E0
S11338D080910003909101030196909301038093DA
S11338E0000380E00E94B20740915E0150915F01A5
S11338F080910003909101038417950718F40E94A6
S1133900D9071CC06091C5037091C6038091B404AB
S11339109091B5041092C6031092C5031092B50499
S11339201092B40410925F0110925E011092010390
S1133930109200032FB120E00E94AA1AFF91EF9188
S1133940BF91AF919F918F917F916F915F914F91B3
S11339503F912F910F900FBE0F901F901895AF922B
S1133960BF92CF92DF92EF920F931F935B016C0192
S11339700E943703AB01BC0181E0E82E960185016A
S11339808BE00E94E40D1F910F91EF90DF90CF9098
S1133990BF90AF900895AF92BF92CF92DF92EF9213
S11339A00F931F935B016C010E943703AB01BC01B1
S11339B091E0E92E9601850183E00E94E40D1F91B8
S11339C00F91EF90DF90CF90BF90AF900895AF929A
S11339D0BF92CF92DF92EF920F931F93A090240196
S11339E0B0902501CC24DD240E943703AB01BC0137
S11339F021E0E22E9601850185E00E94E40D1F91ED
S1133A000F91EF90DF90CF90BF90AF900895AF9259
S1133A10BF92CF92DF92EF920F931F93CF93DF93D6
S1133A20A091DA03B091DB03ED018AA99927982FBD
S1133A3088272BA93327822B932B892BD1F18F81B4
S1133A409927982F88272E813327822B932B8F5FDA
S1133A509F4F81F4FD01319681819927982F882702
S1133A6029813327822B932B8F7D8983892F992753
S1133A70818303C0CD010E944504E091DA03F091F3
S1133A80DB0382A99927182F002783A99927082BDC
S1133A90192B0C5E1F4F5801CC24DD240E943703E0
S1133AA0AB01BC0131E0E32E9601850186E00E9462
S1133AB0E40D81E10E942402DF91CF911F910F91C7
S1133AC0EF90DF90CF90BF90AF900895FF920F9347
S1133AD01F93CF93DF93EC01F62E0FB7F8941127C1
S1133AE00E94E703FC018FE380830FBF10927904E7
S1133AF01092780461E082E00E942B04882319F07C
S1133B0085E090E043C0809106048F5F80930604B3
S1133B1081508B838FB7F89499272091E4038FBF4A
S1133B20222349F162E085E00E942B04882319F0E6
S1133B3085E090E022C0D093DB03C093DA03F092D7
S1133B40D203809181038D7F8093810380918A03C6
S1133B508D7F80938A038FB7F89499272091E3038C
S1133B608FBF223019F40E94071D03C083E10E9415
S1133B70240220E009C084E090E0282F8FB7F89455
S1133B8099271092E2038FBF822F9927DF91CF915B
S1133B901F910F91FF900895CF93DF93DA01422F85
S1133BA02D3118F082E090E05EC0ED018B876E83CA
S1133BB0872F99278F832FB7F89433278091970203
S1133BC0909198022FBFFD018483892F99278583C3
S1133BD02FB7F894332780911A0190911B012FBFBE
S1133BE08887892F99278987319681812981992707
S1133BF0982F8827332720643868822B932B898356
S1133C00892F99278183435F4C934D5080911D01E7
S1133C10882359F010921D01642FCD010E94661D66
S1133C209927282F8823A9F417C0842F99279093C4
S1133C30C9028093C802B0934401A093430180E178
S1133C400E94240280911D01882349F489E090E0B8
S1133C500AC08FEF80931D01822F992704C0109210
S1133C60AF0280E090E0DF91CF9108951F9380919F
S1133C7015019927019666E070E00E94453F682F80
S1133C808093150110E0462F5527FA01EE0FFF1F10
S1133C90EA5CFC4FA081B181109799F0E62FE6957C
S1133CA0E695E695FF27E958FB4F808199279A010D
S1133CB02770307002C0959587952A95E2F780FFAA
S1133CC00DC0CA01019666E070E00E94453F682F6E
S1133CD01F5F1630C1F61093150119C060931501CA
S1133CE06630A8F42C912D503327FD016781772786
S1133CF0762F662786819927682B792BAD018385DA
S1133D000E94CC1D882319F085E00E9424021F9193
S1133D100895CF93DF93582FFB01863018F081E08C
S1133D2090E033C0C82FDD27CC0FDD1FCA5CDC4F09
S1133D3088819981892B19F085E090E026C07983E8
S1133D406883435F40834D5080911501863018F499
S1133D5080E090E01AC0838567817727762F6627F5
S1133D6026813327622B732B50931501242FAF0127
S1133D700E94CC1D9927282F882329F086E0809360
S1133D80150119821882822F9927DF91CF91089506
S1133D90AF92BF92CF92DF92EF92FF920F931F9355
S1133DA0BC018091B301882309F483C080919202FD
S1133DB0882309F07EC081E08093920260936D01B4
S1133DC0872F992780936C018EED6030780721F05E
S1133DD0AA24BB24650108C0A0904901B0904A01FF
S1133DE0C0904B01D0904C01A092710111270D2D70
S1133DF0FC2CEB2CE092700196014427552720936C
S1133E006F018D2D9927AA27BB27ECE6F1E0828369
S1133E10FF2400271127102F0F2DFE2CEE24B82F7E
S1133E20AA2799278827332744275527A901332709
S1133E302227822B932BA42BB52B2A2D33274427FF
S1133E405527822B932BA42BB52BE82AF92A0A2B6E
S1133E501B2BE114F1040105110511F410E010C04D
S1133E6060507E4D21F41AE060EF73E003C010E06F
S1133E7060E070E0412F552782E791E00E949C3F6B
S1133E80809122019091230180939301892F992796
S1133E90809392018FEF809366018093670180E69F
S1133EA080936B011A5F412F60E671E083E00E940A
S1133EB0891E1F910F91FF90EF90DF90CF90BF90DC
S1133EC0AF9008958FB7F8942091470320FD02C066
S1133ED020E004C02E7F2093470321E099278FBF61
S1133EE0222339F080E09EED0E94C81E8FE10E94DB
S1133EF024020895AF92BF92CF92DF92EF92FF9285
S1133F000F931F930E9437037B018C0160919403EC
S1133F10709195038091960390919703A090550119
S1133F20B0905601C0905701D0905801A114B1042B
S1133F30C104D10409F44EC0EFB7F8942091C90329
S1133F4020FD36C0A8019701261B370B480B590BDF
S1133F502A153B054C055D05C8F4A21AB30AC40A28
S1133F60D50A8091550190915601A0915701B091C5
S1133F705801821B930BA40BB50B809355019093AE
S1133F805601A0935701B093580115C081E090E009
S1133F90A0E0B0E08093550190935601A09357019F
S1133FA0B0935801B1E0AB2EB12CC12CD12C03C07D
S1133FB02E7F2093C9038E2F99278FBF0E9437032A
S1133FC0AB01BC01A1E0EA2E9601850188E00E94C4
S1133FD0E40D05C080919C038D7F80939C031F9109
S1133FE00F91FF90EF90DF90CF90BF90AF90089526
S1133FF0FF920F931F93CF93DF93F82E282F33272D
S11340008BE090E0289FE001299FD00D389FD00DD0
S11340101124CD5ADE4F81E090E0998388831A867B
S11340208A819B81AC81BD810097A105B105A1F076
S11340300FB7F8941127C9010E9499070FBF1A827C
S11340401B821C821D821E821F82188619868F2D58
S11340500E94BE100E947A1FDF91CF911F910F9191
S1134060FF90089580509E4D19F480E00E94F81F3F
S1134070089580919601882391F0109296011092F0
S1134080550110925601109257011092580180E088
S113409094E090935401809353010E947A1F1092EC
S11340A0B30180E090E008950F931F938091550130
S11340B090915601A0915701B09158010097A10524
S11340C0B10531F510925501109256011092570125
S11340D0109258011092590110925A0110925B01EA
S11340E010925C0110925D0180E00E94BE100FB737
S11340F0F894112780E090E00E9499070FBF0E9476
S11341007A1F80E00E94F81F81E08093960103C02B
S113411080E00E94F81F81E08093B30180E090E08A
S11341201F910F91089563E084E00E942106882383
S113413049F08FB7F89499271092E4038FBF81E078
S113414090E0089561E084E00E942106882319F438
S113415080E090E008958FB7F894992722E02093A7
S1134160E4038FBF0E94542081E090E008950E94F0
S1134170F916882351F00E949320609120017091D8
S11341802101882799270E94CB1C0895EF920F9351
S11341901F932091D70333272150304081E090E0D2
S11341A0A0E0B0E004C0880F991FAA1FBB1F2A9586
S11341B0D2F78093D3039093D403A093D503B09301
S11341C0D6030E945E032091D3033091D40340911F
S11341D0D5035091D6038827992721503040404079
S11341E0504062237323842395232F5F3F4F4F4F07
S11341F05F4F260F371F481F591F2093D303309357
S1134200D4034093D5035093D6038091D8038E7F73
S11342108093D803809193038D7F809393030E94AE
S11342203703AB01BC0111E0E12E08EE13E020E0FE
S113423030E087E00E94E40D1F910F91EF90089504
S11342408091D703893029F089E08093D7030E94B5
S1134250C6200895AF92BF92CF92DF92EF920F9350
S11342601F93882389F00E945E035B016C018FEF2A
S113427090E0A0E0B0E0A822B922CA22DB2280E1CB
S113428090E0A0E0B0E010C00E945E035B016C010E
S11342908FE790E0A0E0B0E0A822B922CA22DB2296
S11342A080E890E0A0E0B0E0A80EB91ECA1EDB1EB4
S11342B00E943703AB01BC0101E0E02E96018501A9
S11342C081E00E94E40D1F910F91EF90DF90CF9059
S11342D0BF90AF900895809136018430F1F58091BC
S11342E03801882309F090C081E08093380185E08B
S11342F00E9405228091490390914A0380930F0301
S1134300892F992780930E038091000190910101D8
S113431080931103892F99278093100380911001B2
S113432090911101A0911201B09113018093150392
S1134330292F3A2F4B2F5527209314039D014427EF
S11343405527209313038B2F9927AA27BB278093E4
S113435012038091140180931603809136018530F5
S113436009F052C080910904882331F080E00E9452
S11343702A211092090408958091AA02882321F425
S113438081E00E94052208958091CC028093170356
S11343908091CD02809318038091CE0280931903FB
S11343A08091CF0280931A038091D00280931B03E3
S11343B08091D10280931C0320910E033327322F66
S11343C0222780910F039927282B392B80912201D2
S11343D09091230180933503892F99278093340387
S11343E020930803232F33272093090381E5809327
S11343F00D034FE062E073E081E00E94891E882390
S113440019F080E00E942A210895823040F49091AE
S11344103601933011F0953011F4109238018093E5
S1134420360108950F931F938B019C0190913601DF
S1134430892F8250823030F580910B0190910C01CC
S1134440A0910D01B0910E01081719072A073B0727
S11344504CF0081719072A073B0781F580910F01D3
S1134460481760F581E00E9405221092CA03109259
S1134470CB031092CC031092CD031092CE03109272
S1134480CF031CC094509230C8F4809110019091D5
S11344901101A0911201B0911301081719072A07FD
S11344A03B074CF0081719072A073B0739F480919A
S11344B01401841718F081E0809309041F910F916F
S11344C00895CF92EF920F931F9324513340C1F577
S11344D0809136018330A1F5CC2021F081E00E9447
S11344E005222EC02091490330914A038091220174
S11344F09091230180933503892F99278093340366
S113450020930803232F33272093090382E5809304
S11345100D034CE16EE073E06C50704082E00E9449
S1134520891E882369F00E943703AB01BC01B1E006
S1134530EB2E00E110E020E030E081E00E94E40D89
S11345401F910F91EF90CF900895CF92EF92FF9229
S11345500F931F938630C1F0873038F4813071F0A7
S1134560813050F08230C9F40DC0883089F0883031
S113457068F0893091F40EC082E001C083E00E94AB
S113458061220BC081E0FBCF80E005C082E003C064
S113459083E001C081E00E94860F1F910F91FF907C
S11345A0EF90CF900895DF92EF92FF920F931F93B5
S11345B07B018C01D42E80913601882319F481E08B
S11345C00E940522E0921001F09211010093120161
S11345D010931301D09214018FEF8093CC02809337
S11345E0CD028093CE028093CF028093D002809339
S11345F0D10280E090E01F910F91FF90EF90DF9047
S11346000895EF92FF920F931F93CF93DF93CDB74B
S1134610DEB722970FB6F894DEBF0FBECDBF609110
S11346203601862F8250823008F0CBC0E090E90337
S1134630FF2400271127102F0F2DFE2CEE2420918C
S1134640E703332744275527522F442733272227AC
S11346508091E8039927AA27BB27DC01992788279B
S1134660282B392B4A2B5B2B8091EA039927AA2705
S1134670BB27282B392B4A2B5B2BE22AF32A042B4A
S1134680152B80910B0190910C01A0910D01B0911B
S11346900E018E159F05A007B10729F48091D80358
S11346A081608093D803623061F58091380188235A
S11346B009F087C081E08093380183E00E940522DD
S11346C080910B0190910C01A0910D01B0910E010C
S11346D080931103292F3A2F4B2F55272093100332
S11346E09D014427552720930F038B2F9927AA2731
S11346F0BB2780930E0380910F01809312031092C5
S113470013036091130377272FE230E04AEC53E060
S1134710CE0101960E94E801882321F081E00E94E5
S113472005224FC089818093130320910F01422FEA
S1134730552766277727EAE0440F551F661F771F22
S1134740EA95D1F726E1829FC0011124AA27BB274D
S1134750480F591F6A1F7B1F80913701823079F0FF
S11347608330B1F0813011F081E01CC036E1E32EDA
S1134770F12C012D112D24E133E082E011C026E15A
S1134780E22EF12C012D112D24E133E080E008C04C
S113479096E1E92EF12C012D112D24E133E081E085
S11347A00E94F50B882369F00E943703AB01BC011A
S11347B081E0E82E00E110E020E030E081E00E949A
S11347C0E40D22960FB6F894DEBF0FBECDBFDF9185
S11347D0CF911F910F91FF90EF90089580919303D3
S11347E08D7F8093930380915D038D7F80935D0320
S11347F080E00E9405228FEF90E0A0E0B0E080937B
S1134800100190931101A0931201B09313019FEF33
S1134810909314011092CC021092CD021092CE0209
S11348201092CF021092D0021092D1021092CA03B9
S11348301092CB031092CC031092CD031092CE03AE
S11348401092CF0385E080930A019093EA031092BB
S1134850E9031092E8031092E7039093EB0390931B
S1134860EE031092D70380E090E00895EF92FF9258
S11348700F931F938091EE03E82FFF278091EB03A2
S1134880E817A0F56091E903772788279927982FDF
S1134890872F762F6627E090E703FF240027112750
S11348A01E2D0027FF24EE242091E80333274427FC
S11348B05527A90133272227E22AF32A042B152B93
S11348C02091EA03332744275527E22AF32A042BAD
S11348D0152B6E297F29802B912B4E2F0E94D322DA
S11348E084E08093D8030E9420211BC04FEF6FEF18
S11348F070E080E090E00E94D3220E94EE2381E0E9
S113490080930A0180919501823031F0833031F037
S1134910813039F485E003C083E001C084E00E9463
S1134920A0151F910F91FF90EF90089583E080935D
S11349300A018091AF019091B001A091B101B091B1
S1134940B2018093EA03292F3A2F4B2F5527209346
S1134950E9039D01442755272093E8038B2F9927CA
S1134960AA27BB278093E7038091C1039091C203D8
S1134970A091C303B091C4030197A109B1093AE01E
S1134980B695A795979587953A95D1F78F5F8093BC
S1134990EB031092EE0345E067EE73E080E090E0F5
S11349A00E946B048093ED03892F99278093EC0375
S11349B080910A01833011F40E94202184E08093C5
S11349C00A0180919501809337010E94362408954D
S11349D08B3029F18C3060F48430C1F0853018F4C8
S11349E0833071F513C0853089F08A3049F515C0DC
S11349F08E30E9F08F3028F48C3099F08D3001F549
S1134A0012C08F30B1F08031D9F417C080910A01FF
S1134A108823B1F40E949624089580E005C082E0C2
S1134A2003C083E001C081E00E94710F089582E019
S1134A3001C083E00E94D20D089581E00E94D20D4E
S1134A400895CF92EF92FF920F931F93CF93DF932A
S1134A50CDB7DEB722970FB6F894DEBF0FBECDBF39
S1134A6080919602482F55278CE190E0489FF001F1
S1134A70499FF00D589FF00D1124CF018F579B4F84
S1134A802817390709F0F1C0CC2071F08FEF80931B
S1134A90CC028093CD028093CE028093CF02809388
S1134AA0D0028093D102D8C0E058FB4F2081332735
S1134AB0E22FE695E695E695FF27E453FD4F277030
S1134AC0307081E090E002C0880F991F2A95E2F7C8
S1134AD08095208128232083CA01019662E070E03A
S1134AE00E94453F809396028091E2018150809319
S1134AF0E2012FE230E04CEC52E060E070E0CE01E5
S1134B0001960E94E801882309F4A9C0D99A60910A
S1134B101401E090E903FF2400271127102F0F2D23
S1134B20FE2CEE242091E703332744275527522FE8
S1134B304427332722278091E8039927AA27BB27F4
S1134B40DC0199278827282B392B4A2B5B2B809152
S1134B50EA039927AA27BB27282B392B4A2B5B2B3F
S1134B60E22AF32A042B152B809110019091110154
S1134B70A0911201B09113018E159F05A007B107F2
S1134B8009F067C08091EE03681709F062C06F5F97
S1134B906093EE0345E067EE73E080E090E00E94EE
S1134BA06B048093ED03892F99278093EC03809104
S1134BB0EE03E82FFF278091EB03E81718F40E9417
S1134BC0362447C06091E903772788279927982FCF
S1134BD0872F762F6627E090E703FF24002711270D
S1134BE01E2D0027FF24EE242091E80333274427B9
S1134BF05527A90133272227E22AF32A042B152B50
S1134C002091EA03332744275527E22AF32A042B69
S1134C10152B6E297F29802B912B4E2F0E94D32296
S1134C2081E080930A0180919501823041F08330C4
S1134C3041F0813011F081E007C085E003C083E0DA
S1134C4001C084E00E94A015882319F083E00E942B
S1134C50240281E00E9405221092E20106C08091A4
S1134C60E201882311F00E943A0B22960FB6F894C1
S1134C70DEBF0FBECDBFDF91CF911F910F91FF908B
S1134C80EF90CF900895CF92EF92FF920F931F93DE
S1134C90843031F0853031F0833039F482E003C060
S1134CA083E001C081E00E9421251F910F91FF90B4
S1134CB0EF90CF900895CF92DF92EF92FF920F93EF
S1134CC01F93CF93DF93C82E7B01D0902601CD2D67
S1134CD0DD278BE090E0C89FF001C99FF00DD89FBD
S1134CE0F00D1124EE52FD4F10818FEF80932601B9
S1134CF0108281E0D81659F0D81638F082E0D81620
S1134D0041F083E0D81651F406C080E005C081E08C
S1134D1003C082E001C083E00E94030E133009F453
S1134D20A3C0143030F41130B1F1123009F0AEC028
S1134D305EC0143021F0153009F0A8C06CC0E090BA
S1134D401E02F0901F0200912002109121028BE0BC
S1134D5090E0C89FF001C99FF00DD89FF00D112479
S1134D60EE52FD4F438154816581768121813281E8
S1134D7081E0D81649F0D81638F082E0D81621F030
S1134D8083E0D81609F082C0109245018091EC04AA
S1134D900E94A5227BC0E0901E02F0901F020091A9
S1134DA02002109121028BE090E0C89FF001C99F7E
S1134DB0F00DD89FF00D1124EE52FD4F4381548124
S1134DC0658176812181328181E0D81649F0D81637
S1134DD038F082E0D81621F083E0D81609F056C0E6
S1134DE0109245018091EC040E9443264FC081E05B
S1134DF0D81649F0D81638F082E0D81621F083E0AE
S1134E00D81609F043C0109245016C2D8091EC0432
S1134E100E94E8243BC000911E0210911F022091C1
S1134E202002309121028BE090E0C89FF001C99FDD
S1134E30F00DD89FF00D1124EE52FD4F43815481A3
S1134E406581768181E0D81641F0D81630F082E091
S1134E50D81619F083E0D816C9F410924501809150
S1134E60EC040E94BE1612C081E0D81641F0D81698
S1134E7030F082E0D81619F083E0D81639F4109295
S1134E8045016C2D8091EC040E94FF0EDF91CF91BF
S1134E901F910F91FF90EF90DF90CF900895282FEE
S1134EA080919302409393028330A9F0843028F4D4
S1134EB0813089F0823069F506C0843009F186506A
S1134EC0823038F513C0809126018F3F11F12223DF
S1134ED089F4CB0108C0809126018F3FD1F02223B1
S1134EE049F480E090E00E942A29089580912601E7
S1134EF08F3F79F060E070E0822F0E945B26089576
S1134F00809126018F3F29F060E070E0822F0E949B
S1134F105B260895CF92DF92EF92FF920F931F9337
S1134F202091990230919A0260914803462F5527A7
S1134F30FA01EE0FFF1FE40FF51FDF01AC51BE4F66
S1134F408D919C9111972817390709F0D3C090913E
S1134F509302953009F44DC0963080F4923009F4F0
S1134F6093C0933020F4913009F0F7C072C09330AD
S1134F7009F4A5C0943009F0F0C007C0983008F4D3
S1134F8047C09A3008F0E9C04EC0809171049091F6
S1134F90720481309105E1F08130910520F002978F
S1134FA009F0DBC010C080919B01882309F0BBC0CD
S1134FB001E0C02ED12CEE24FF2400E010E040E0FC
S1134FC061E88BE0C8C0EA51FE4F80818460808331
S1134FD0FA01EE0FFF1FE40FF51FEA51FE4F808127
S1134FE08260808340E060E070E080E00E944F27B0
S1134FF0B4C0EA51FE4F808181FF9CC0809171044E
S1135000909172048D939C9380818D7F808319C0CD
S1135010EA51FE4F808181FF8DC0869586958695E5
S1135020837059F08AC0FA01EE0FFF1FE40FF51FD9
S1135030EA51FE4F808181FF7DC0983011F0963097
S113504011F488E174C010929302892F0E94B4284D
S113505084C0EA51FE4F808180FD65C0C090440346
S1135060D0904503E090B002F090B1020091710439
S113507010917204662311F064ED01C066ED20E026
S113508030E042E082E067C0EA51FE4F808180FD5B
S11350904AC0E090B002F090B102C0904403D090B6
S11350A045030091710410917204662311F064EDBC
S11350B001C066ED20E030E042E083E04CC0EA51FC
S11350C0FE4F808180FD2FC0C0904403D0904503E3
S11350D0E090B002F090B10200917104109172045A
S11350E0662311F064E801C067E820E030E040E0A6
S11350F084E031C0EA51FE4F808181FF1BC0869558
S1135100869586958370C9F480919302843019F44E
S11351102D933C930DCF80919B01882321F466232A
S113512081F063E50FC085E0809346018BE10E9426
S1135130240213C00E94A51110C0862F0E946D1175
S11351400CC065E5A1E0CA2ED12CEE24FF2400E0BA
S113515010E040E088E00E94470E1F910F91FF90FD
S1135160EF90DF90CF900895809393028091E601B1
S113517081FD03C0109248030CC08091E90181FDB8
S113518004C081E08093480304C088E10E942402A3
S11351900895809148039927FC01EE0FFF1FE80F43
S11351A0F91FEA51FE4F8081877E80830E948A27FF
S11351B008950F931F93E82F809393021093450350
S11351C0009344033093B1022093B00270939A0287
S11351D06093990250937204409371048091E401A6
S11351E09091E5016817790719F41092480313C0E8
S11351F08091E7019091E8016817790721F481E033
S11352008093480308C090E080914803882309F400
S113521091E0909348036050784098F481E009301D
S1135220180778F4E53051F081E04830580748F425
S1135230400F511F4950514020F407C0405058407E
S113524020F089E10E94240202C00E948A271F9153
S11352500F9108952F923F924F925F926F927F9297
S11352608F929F92AF92BF92CF92DF92EF92FF9272
S11352700F931F93CF93DF931C0140912601242F9A
S1135280332760901E0270901F028090200290903D
S113529021028BE090E0289FE001299FD00D389FE8
S11352A0D00D1124CE52DD4FAF80B884C984DA8486
S11352B0A618B708C808D90849805A80A114B104AF
S11352C0C104D10429F4B10180E00E945B264FC0DF
S11352D0EB80FC800D811E81E60CF71C081D191D56
S11352E09927812F702F6F2D842F0E943E06BC01B9
S11352F0A7015070E12C31E0F32EE41AF50AC7013E
S1135300AA27BB27A816B906CA06DB0608F4750146
S11353102881243051F0253071F0213089F4460C75
S1135320571C8701920183E009C0460C571C870172
S1135330920181E003C08701910182E00E94D92893
S113534097014427552780911E0290911F02A09136
S11353502002B0912102820F931FA41FB51F8093D6
S11353601E0290931F02A0932002B0932102DF91AA
S1135370CF911F910F91FF90EF90DF90CF90BF904E
S1135380AF909F908F907F906F905F904F903F90E1
S11353902F9008950F931F93482F80932601282F51
S11353A033278BE090E0289FF001299FF00D389F70
S11353B0F00D1124EE52FD4F8081823019F08330BC
S11353C0A9F410C060E070E0842F0E943E0600E063
S11353D010E020E030E040E050E0BC0184E00E94B6
S11353E0D92810C087E00E94B4280CC08181928122
S11353F010921E0210921F0210922002109221029B
S11354000E942A291F910F91089540E060E070E006
S113541080E00E944F27089540E060E070E081E062
S11354200E944F270895809146019091E9012091AF
S1135430E601863009F03CC0959A9598000000007A
S113544080B3DB9A9E7F9093E9012E7F2093E6013F
S113545010929B0190E082FF91E080914603992392
S113546061F09927FC01EE0FFF1FE80FF91FEA51C5
S1135470FE4F8081877E808324C09927FC01EE0F34
S1135480FF1FE80FF91FEA51FE4F2081822F8695F6
S1135490869586958370992702971CF42D7F208327
S11354A010C04AE060E070E081E00E944F27089558
S11354B0DB9A9E7F9093E9012E7F2093E601109260
S11354C09B010E948A270895CF92DF92EF92FF9268
S11354D00F931F93CF93DF938091460185508230C1
S11354E008F59598DB9887ED0E945306959882E01D
S11354F090E0019701960197E1F710C020E030E0B9
S1135500E2E0F0E0959A9598CF0101970196019712
S1135510E1F72F5F3F4F28303105A1F7829BEECF93
S11355208AE1BDC0E090B802F090B9028091C7034F
S11355309091C803892B09F442C08091B202C82F0C
S1135540DD2724969598DB9860E0CC240AE014E0EB
S113555031E0D32E83E0D81639F4C7010E945D04EC
S11355607C01219731F52AC0E1E0DE1679F4F801D7
S1135570C080219791F4D09046010091B802109117
S1135580B902C091C703D091C80313C0F2E0DF167B
S113559039F4F8016083219789F00F5F1F4F09C028
S11355A0F4E0DF1659F4209749F0F801C1908F0117
S11355B021978C2D0E945306682FCCCFDB9A8091C3
S11355C04601109246018830B9F0893048F483309E
S11355D081F0843009F47FC0823009F08FC088C024
S11355E08A3009F442C08A3010F18B3009F086C049
S11355F059C040E0B7017FC081E080939B01809156
S113560048039927FC01EE0FFF1FE80FF91FDF0184
S1135610AC51BE4F8091990290919A028D939C93C4
S1135620EA51FE4F808183608B7F80831BC081E0C1
S113563080939B01809148039927FC01EE0FFF1F83
S1135640E80FF91FEA51FE4F90819360892F8695E8
S1135650869586958F5F8370880F880F880F937E59
S1135660982B90830E948A2749C081E080939B01F4
S1135670809146039927FC01EE0FFF1FE80FF91FE5
S1135680EA51FE4F8081816080838AE090E0019737
S113569001960197E1F786E0809346018BE10E9431
S11356A024022CC081E080939B01809148039927B8
S11356B0FC01EE0FFF1FE80FF91FDF01AC51BE4FD5
S11356C08091990290919A028D939C93EA51FE4F96
S11356D0808186600CC0809148039927FC01EE0FFD
S11356E0FF1FE80FF91FEA51FE4F8081857E8083FA
S11356F040E060E070E080E00E944F27DF91CF91AE
S11357001F910F91FF90EF90DF90CF90089581E16A
S11357100E94890D80914F01823031F46091A10281
S1135720772780E00E945A050E94EE2310924F01D1
S113573008950E9439200E94872B80E094E0909382
S11357402301809322010E94BE178FB7F8949927F2
S11357502AE1209304048FBF0E94CD0EDA9AD99ACD
S1135760D89A8091B70381FF03C08D7F8093B703DC
S11357700895AF92BF92CF92DF92EF92FF920F9370
S11357801F93CF93DF935B016C01E0E0F0E0CCE486
S1135790D3E0688561FF48C1288139814A815B81F2
S11357A0EC80FD800E811F81D601C501821B930B05
S11357B0A40BB50B8E159F05A007B10708F434C1DF
S11357C060FF03C06D7F688708C02E0D3F1D401F1A
S11357D0511F288339834A835B83E63009F46FC001
S11357E0E73050F4E130F1F0E130C8F0E330F9F0A3
S11357F0E53009F01FC140C0EA3009F407C1EB30BD
S113580038F4E73009F46CC0E83009F013C1C9C0BA
S1135810EB3009F402C1EC3009F00CC101C10E9463
S1135820710808C10E946B210E94012303C1809169
S1135830200190912101892B09F4FCC062E084E0ED
S11358400E942106882309F4F5C08FB7F89499279C
S11358502091E3038FBF222331F41092B7041092F6
S1135860B60487E1DEC06091200170912101882790
S113587099270E94CB1CDEC08FB7F89499272091FA
S1135880E4038FBF2223C9F080912001909121016C
S1135890892B09F4CFC08FB7F89499272091E4039A
S11358A08FBF222309F4C6C08FB7F894992720919B
S11358B0E5038FBF222309F0BDC084E1B2C08FB7D6
S11358C0F89499272091E5038FBF223009F0B2C0E4
S11358D08FB7F894992723E02093E5038FBFAAC0DC
S11358E08091D80380FD39C0809135018823A9F5C2
S11358F080910001909101018093F701892F9927EC
S11359008093F60182E08093F8011092F901AAEFE6
S1135910B1E0E7EEF3E089E001900D928150E1F708
S1135920809122019091230180931D02892F992750
S113593080931C028FEF8093F0018093F10180E546
S11359408093F5014EE06AEE71E080E00E94891ECA
S1135950882319F481E08093350190E08091360129
S1135960823008F091E08091D803992319F0817076
S1135970846007C0982F969531F09150990F8170EB
S1135980892B8093D8038091D8038E7F39F480913A
S1135990D703863118F48F5F8093D7030E94C62003
S11359A049C0209198033091990340919A035091F2
S11359B09B038091550190915601A0915701B0919C
S11359C058010097A105B105F1F082179307A407C8
S11359D0B507C9F480915D01882361F42FB7F89469
S11359E03327809147038160809347032FBF8FE162
S11359F00E94240280E090E00E94990780E00E94C7
S1135A00BE1010925D010E947A1F14C080912F0174
S1135A108A3081F40E9439200DC00E94992B0AC05B
S1135A2082E00E94240206C031962996ED30F105E9
S1135A3009F0AFCE81E00E942402DF91CF911F9143
S1135A400F91FF90EF90DF90CF90BF90AF900895AB
S1135A50AF92BF92CF92DF92EF92FF920F931F9378
S1135A600E9437035B016C018FB7F8949927109259
S1135A70FE028FBF6FEFE62E6FEFF62E6FEF062F4D
S1135A806FE7162F60E0ECE4F3E0808581FF1CC033
S1135A9080819181A281B381A6019501281B390BD4
S1135AA04A0B5B0BDA01C901248135814681578198
S1135AB0281B390B4A0B5B0B2E153F05400751077A
S1135AC01CF479018A0161E0399633E0E13CF30783
S1135AD0E1F66623D9F01E141F04100611062CF0FB
S1135AE0C601B5010E94B92B11C0E0921304F092D3
S1135AF01404009315041093160481E08093220289
S1135B00A8019701C601B5010E9443091F910F9195
S1135B10FF90EF90DF90CF90BF90AF900895AF9239
S1135B20BF92CF92DF92EF92FF920F931F938091D7
S1135B30F0039927813041F0813008F4C9C08350C3
S1135B40823008F0C5C003C00E94872BC1C0809179
S1135B504F01823009F064C0A090F303BB24CC242D
S1135B60DD24DC2CCB2CBA2CAA242091F10333277E
S1135B7044275527522F4427332722278091F203A5
S1135B809927AA27BB27DC0199278827282B392B9B
S1135B904A2B5B2B8091F4039927AA27BB27282B38
S1135BA0392B4A2B5B2BA22AB32AC42AD52AE0908C
S1135BB09F02FF2400271127102F0F2DFE2CEE2407
S1135BC020919D02332744275527522F44273327FA
S1135BD0222780919E029927AA27BB27DC019927B7
S1135BE08827282B392B4A2B5B2B8091A0029927DD
S1135BF0AA27BB27282B392B4A2B5B2BE22AF32A13
S1135C00042B152BAE14BF04C006D10639F49091B1
S1135C10F5038091A102981709F45AC00E94872BBA
S1135C20E090F303FF2400271127102F0F2DFE2CE3
S1135C30EE242091F103332744275527522F44277C
S1135C40332722278091F2039927AA27BB27DC0157
S1135C5099278827282B392B4A2B5B2B8091F40317
S1135C609927AA27BB27282B392B4A2B5B2BE22AFF
S1135C70F32A042B152B8EECE8168EE9F80681E145
S1135C80080788E21807F9F09091F5038091AE01B6
S1135C908330F1F41092080474E5E72EF12C012D01
S1135CA0112D26E232E040E050E060E070E0892F00
S1135CB00E94420C882311F484E002C08091AE015A
S1135CC08093AE0105C081E080934F010E9480055E
S1135CD0ACE9B2E0E0EFF3E08AE001900D9281508C
S1135CE0E1F71F910F91FF90EF90DF90CF90BF905D
