S01800006275696C642F6D6963617A2F6D61696E2E73726563E5
S11300000C94E9010C94AD0B0C94B70B0C94C10B3C
S11300100C94CB0B0C94D50B0C94DF0B0C94C716DF
S11300200C94E90B0C9408020C9408020C949B1E8B
S11300300C9427240C94770B0C948D0B0C94301196
S11300400C94660B0C94A4220C94140E0C940802C9
S11300500C94900E0C94F30B0C9408020C9408026C
S11300600C94820B0C94E30F0C94C20F0C94CD0FE0
S11300700C94D80F0C94F60F0C94A50F0C94080252
S11300800C94B70F0C9408020C940802AE11B3112F
S1130090A911AE11B311A911A411AE11B311A91173
S11300A0A411AE11B311A911AE11B311A911A41168
S11300B0AE11B311A911A411AE11B311A9111812E3
S11300C01D12131218121D1213120E1218121D12E1
S11300D013120E1218121D12131218121D121312DB
S11300E00E1218121D1213120E1218121D121312D0
S11300F0CF12D612C812CF12D612C812C112CF1202
S1130100D612C812C112CF12D612C812CF12D612EA
S1130110C812C112CF12D612C812C112CF12D612EF
S1130120C812881B931B7D1B881B931B7D1B721B92
S1130130881B931B7D1B721B881B931B7D1B881BB9
S1130140931B7D1B721B881B931B7D1B721B881BBF
S1130150931B7D1BEA1BF51BDF1BEA1BF51BDF1B37
S1130160D41BEA1BF51BDF1BD41BEA1BF51BDF1B8F
S1130170EA1BF51BDF1BD41BEA1BF51BDF1BD41B7F
S1130180EA1BF51BDF1BC235F0352336B035A43628
S1130190B33638373E37933797379F37DB376A386C
S11301A06D387038D73C4F3EE93CF03C3A3D533E05
S11301B0563E7C3FB735693E813E843E873E683F6C
S11301C06B3F6E3F713F743F773F7A3F00002110D1
S11301D0422063308440A550C660E77008812991AD
S11301E04AA16BB18CC1ADD1CEE1EFF13112100255
S11301F073325222B5529442F772D66239931883FD
S11302007BB35AA3BDD39CC3FFF3DEE36224433420
S113021020040114E664C774A44485546AA54BB54C
S113022028850995EEE5CFF5ACC58DD553367226F4
S113023011163006D776F6669556B4465BB77AA79C
S113024019973887DFF7FEE79DD7BCC7C448E55840
S11302508668A7784008611802282338CCC9EDD9EC
S11302608EE9AFF9488969990AA92BB9F55AD44A94
S1130270B77A966A711A500A333A122AFDDBDCCB3C
S1130280BFFB9EEB799B588B3BBB1AABA66C877C60
S1130290E44CC55C222C033C600C411CAEED8FFD8C
S11302A0ECCDCDDD2AAD0BBD688D499D977EB66E34
S11302B0D55EF44E133E322E511E700E9FFFBEEFDC
S11302C0DDDFFCCF1BBF3AAF599F788F8891A9819E
S11302D0CAB1EBA10CD12DC14EF16FE18010A10088
S11302E0C230E3200450254046706760B983989378
S11302F0FBA3DAB33DC31CD37FE35EF3B1029012D8
S1130300F322D2323542145277625672EAB5CBA543
S1130310A89589856EF54FE52CD50DC5E234C32427
S1130320A01481046674476424540544DBA7FAB717
S11303309987B8975FE77EF71DC73CD7D326F23677
S11303409106B01657667676154634564CD96DC963
S11303500EF92FE9C899E9898AB9ABA944586548C7
S113036006782768C018E1088238A3287DCB5CDBB7
S11303703FEB1EFBF98BD89BBBAB9ABB754A545A17
S1130380376A167AF10AD01AB32A923A2EFD0FED83
S11303906CDD4DCDAABD8BADE89DC98D267C076C67
S11303A0645C454CA23C832CE01CC10C1FEF3EFF57
S11303B05DCF7CDF9BAFBABFD98FF89F176E367EB7
S11303C0554E745E932EB23ED10EF01E00081C18DA
S11303D0141011241FBECFEFD0E1DEBFCDBF11E05A
S11303E0A0E0B1E0E8EBF9E800E00BBF02C0079041
S11303F00D92AE33B107D9F717E0AEE3B1E001C017
S11304001D92AC30B107E1F70E94B23F0C94DB447B
S11304100C9400008FB7F894992708958FBF08951E
S113042090916C039923A1F021E0EBEEF5E0892F84
S1130430822329F011821082822F8095982332968C
S113044085E0EB3FF80711F0220FF1CF90936C0396
S113045008955698579810926E0510924B03539A2C
S1130460549A579A8FB7F89499271092740510925A
S113047048038FBF0895282F9FB7F894E82FFF27CC
S1130480EA50FE4F80818F3F81F4E091CD06E21760
S113049071F40BC02093410604C0FF27EA50FE4FBD
S11304A020832093CD0620E007C025E005C080917D
S11304B041068F3F91F7EECF892F99278FBF822F67
S11304C09927089589E00E943B02992708958AE0BC
S11304D00E943B029927089583E10E943B029927D9
S11304E0089587E10E943B02992708958FE10E94B5
S11304F03B02992708958EE10E943B0299270895B3
S11305001F931FB7F8948091C806882341F48BE1A8
S11305100E943B02882319F481E08093C806812F4E
S113052099278FBF1F910895382FFA01422F2A333C
S113053018F082E090E008956683872F99278583D9
S11305403387218780915F0190916001892B19F095
S113055085E090E008952FB7F894332785E08093E1
S1130560620110926301F0935E01E0935D0182E009
S113057090E09093600180935F0110926501109266
S11305806401445F409361012FBF8FB7F894282F13
S11305903327809174058A3011F42FBF19C02FBFFF
S11305A09FB7F89480918703882311F020E006C058
S11305B081E0809387031092880321E0892F992793
S11305C08FBF222329F00E94800280E090E00895EA
S11305D01092600110925F0181E090E008951F93F2
S11305E0CF93DF93E82FFF27EE0FFF1FE551FA4F5C
S11305F01182108280913B019927019662E070E09C
S11306000E943D44682F80933B0110E0462F5527FC
S1130610FA01EE0FFF1FE551FA4FA081B181109747
S113062099F0E62FE695E695E695FF27E459FC4F09
S1130630808199279A012770307002C0959587951B
S11306402A95E2F780FF0DC0CA01019662E070E0CE
S11306500E943D44682F1F5F1230C1F610933B0186
S11306601AC060933B016230B0F4FD0135962481D9
S11306703327ED016D817727762F662781819927AE
S1130680682B792BAD0186810E949402882319F08E
S113069082E20E943B02DF91CF911F910895109254
S11306A0600110925F018FB7F8949927409163011C
S11306B08FBF80916401811143E020915D013091ED
S11306C05E0180916501882389F480913B01823029
S11306D068F4E82FFF27EE0FFF1FE551FA4F608102
S11306E071816217730711F40E94EF0208958091DB
S11306F03B01E82FFF27EE0FFF1FE551FA4F608102
S1130700718141E00E94EF0208951F93982F1FB753
S1130710F89480915101823099F5809132018917C2
S113072079F58091300120E030E08F3F11F421E031
S113073030E0232BF1F49FEF909332018F3F19F4B3
S11307402FEF30E00DC0282F3327F901E95DFC4F6E
S11307508081809330018F3F11F490933101908315
S113076020937A0381E08093510185E10E943B024A
S113077005C08FEF809332011092510121E001C036
S113078020E0812F99278FBF90E0213009F491E078
S113079081E09827892F99271F910895CF92DF929E
S11307A0EF92FF920F931F93CF93DF936C018B0112
S11307B07A01E901232B19F1FB01A3E0F695E795F2
S11307C0AA95E1F7EE0DFF1D808199279B01277003
S11307D0307002C0959587952A95E2F780FF06C090
S11307E0F6017183608380E090E00BC0CB01019639
S11307F0BE010E942944BC0180179107E9F681E0FB
S113080090E0DF91CF911F910F91FF90EF90DF90D7
S1130810CF900895CF93DF93982F8FB7F894282F14
S11308203327422F80915001882321F581E0809362
S113083050019093AD052FBF8FB7F894C82FDD27D3
S11308409C2F80912F01843099F480915001813044
S113085021F484E10E943B0209C0823049F4809172
S1130860AD0580932F0183E080935001CFBF07C073
S11308709FBF05C08091AD05891721F42FBF80E08B
S113088090E021C0E92FFF27E75BF94F80818F3F7C
S113089089F4E0912E01E91789F40CC090932D019D
S11308A004C0FF27E75BF94F908390932E0180E00B
S11308B090E002C085E090E04FBF05C080912D011B
S11308C08F3F79F7EBCFDF91CF910895CF92DF92ED
S11308D0EF92FF920F931F93CF93DF93782FC62F3E
S11308E0DD278BE090E0C89FF001C99FF00DD89FF1
S11308F0F00D1124EF56FC4F8081882319F085E018
S113090090E048C0643018F480E091E002C080E0D8
S113091090E0AA27BB27BA2FA92F982F88278217E0
S11309209307A407B507A0F1821B930BA40BB50B87
S11309308C159D05AE05BF0558F18BE090E0C89F6E
S1130940F001C99FF00DD89FF00D1124EF56FC4F14
S113095070832383348345835683C782D086E1869C
S1130960F28612830183613069F0613028F06230CD
S113097059F0633059F003C080E00E940A0480E01B
S113098090E008C081E0F9CF82E0F7CF83E0F5CFB3
S113099086E090E0DF91CF911F910F91FF90EF904F
S11309A0DF90CF900895EF920F931F93AE2D99E0AF
S11309B0899FF0011124EC57FB4F408351836283DC
S11309C073830483158326833783A17080858E7F88
S11309D08A2B8260808782E00E943B021F910F91E4
S11309E0EF9008957FB7F89462B72091D0013091C9
S11309F0D1014091D2015091D30106B601FE0FC03E
S1130A0081B792B7280F311D411D511D2F5F3F4FF4
S1130A104F4F5F4F290F311D411D511D04C0260F3B
S1130A20311D411D511D872F99278FBFCA01B9015F
S1130A3008952F923F924F925F926F927F928F927E
S1130A409F92AF92BF92CF92DF92EF92FF920F9359
S1130A501F93CF93DF93CDB7DEB729970FB6F894E2
S1130A60DEBF0FBECDBF6FB76983F89420906203D9
S1130A7030906303409064035090650366247724A8
S1130A808824BEE4AB2EA3E8BA2ECC24DD24EE24C5
S1130A90FF2400E010E0222D332D442D552D662D2A
S1130AA0772D882D90E00E947D422A833B834C83DE
S1130AB05D836E837F8388879987822E932EA42EED
S1130AC0B52E2401350100E20E947B43A22EB32EF1
S1130AD0C42ED52EA3019201569547953795279597
S1130AE02A0D3B1D4C1D5D1D57FF05C05F772F5F11
S1130AF03F4F4F4F5F4F2093620330936303409304
S1130B00640350936503E9818E2F99278FBFCA012F
S1130B10B90129960FB6F894DEBF0FBECDBFDF91A1
S1130B20CF911F910F91FF90EF90DF90CF90BF90E6
S1130B30AF909F908F907F906F905F904F903F9079
S1130B402F900895FC0182819927582F4427818191
S1130B509927482B592BCA01892F99278695869561
S1130B60837090708230910559F08330910559F06B
S1130B70892B19F420E030E008C02CE93FEF05C0D0
S1130B8022E030E002C028E030E0CA0184E0989F0F
S1130B90812D992711248230910559F083309105D4
S1130BA059F0892B19F480E090E008C08CE99FEF9C
S1130BB005C082E090E002C088E090E0280F391F71
S1130BC02A5F3F4FCF01820F931F0895282F9FB7AD
S1130BD0F894662349F0E82FFF27EE57FA4F8081F7
S1130BE0882311F021E006C0E22FFF27EE57FA4FC9
S1130BF0608320E0892F99278FBF822F992708953A
S1130C00E82F8FB7F894282F332790E0FF27EE576B
S1130C10FA4F8081861709F491E02FBF892F992715
S1130C20089560E080E00E94000699270895682FE7
S1130C3081E00E94000699270895882311F06E9A96
S1130C4008956E980895882311F06F9A08956F9807
S1130C50089580E00E941D06BA9ABB98B99AB89A82
S1130C606C9A80E00E9423066B986A9881E00E9447
S1130C701D06709A8DB18C7F8DB908951F93182F1E
S1130C8081E00E941D061FB9779BFECF8FB1992783
S1130C901F9108958F929F92AF92BF92CF92DF924D
S1130CA0EF92FF920F931F93CF93DF938FB7F89434
S1130CB09927C090C406D090C5068090690590908D
S1130CC06A05C0911804D091190420917A013091D9
S1130CD07B01EAE0AE2EB12CAC0EBD1E2A153B05FD
S1130CE008F459018FBF7401EC0EFD1E86010C0F30
S1130CF01D1F14C0C114D10419F0F801808101C072
S1130D0080E00E943E068114910411F0F701808373
S1130D1021960894E11CF11C0F5F1F4FC501019738
S1130D20C817D90738F381E00E9423069FB7F894C7
S1130D30C114D10431F0CC0EDD1EF60180818FB9CF
S1130D4001C01FB8D0931904C0931804892F9927A0
S1130D508FBF80E090E0DF91CF911F910F91FF90C2
S1130D60EF90DF90CF90BF90AF909F908F900895B9
S1130D702FB7F894332750937B0140937A019093D3
S1130D80C5068093C40670936A0560936905109242
S1130D901904109218042FBF452B29F08FB10E941B
S1130DA04A06992708958CE00E943B0280E090E077
S1130DB008958FB7F8949927109284058FBF0895EA
S1130DC04FB7F8945527FC01A3E0F695E795AA954B
S1130DD0E1F7E359FA4F8770907021E030E002C0E8
S1130DE0220F331F8A95E2F78081822B80834FBFC5
S1130DF00895FC016683672F772765830895CF9351
S1130E00DF93582FDB01823018F081E090E038C086
S1130E10C82FDD27CC0FDD1FC551DA4F888199819A
S1130E20892B19F085E090E02BC0798368839B01BE
S1130E302B5F3F4FF901448380913B01823018F4CA
S1130E4080E090E01DC0F9018681FB016581772770
S1130E50762F6627F90121813327622B732B509358
S1130E603B01242FAD010E9494029927282F882347
S1130E7029F082E080933B0119821882822F9927FE
S1130E80DF91CF9108950F931F93809386020AE711
S1130E9012E06FEF7FEFC8010E94F90684E58093AA
S1130EA0850241E0B80181E00E94FF061F910F9185
S1130EB008959FB7F894292F3327422F9091320138
S1130EC0981741F480915101823021F42FBF81E0C1
S1130ED090E008954FBF80E090E00895982F8FB779
S1130EE0F894282F332780915101882349F482E014
S1130EF080935101909332012FBF80E090E00895D8
S1130F002FBF81E090E00895CF92DF92EF92FF929D
S1130F100F931F937A018B018093C9033DEBC32E7A
S1130F2033E0D32E6FEF7FEFC6010E94F90683E50D
S1130F308093C8034E2DB60180E00E94FF061F91E6
S1130F400F91FF90EF90DF90CF90089580917405FA
S1130F508A3021F480914803843021F081E0809329
S1130F605A0108958DE10E943B0210925A0108959E
S1130F702FB7F89433278CB95E9A2FBF0895FC01DC
S1130F806115710519F481E090E0089580917F0363
S1130F9090918003892B19F085E090E00895709377
S1130FA0B9056093B805F0938003E0937F03109232
S1130FB04A031092490381E080934B035E9A569A48
S1130FC0808121E030E030934A03209349030E945A
S1130FD0B80780E090E008958FB7F894992720919E
S1130FE06B012E7F20936B012EE720931D028FBF90
S1130FF061E070E08DE192E00E94BF0799270895B7
S1131000ECECF1E06927660FF11DE60FF11DC895C0
S1131010982F802D3196C895902508951F93CF93CE
S1131020DF93142FEB0104C069910E940008115052
S11310301123D1F7DF91CF911F910895462FBC0161
S113104080E090E00E940E080895982F969596955A
S11310509695E3E8F4E0E90FF11D877021E030E0B4
S113106002C0220F331F8A95E2F7808182239927D9
S1131070089580914506882319F02FE170E002C09D
S113108078E02EE1622FEFB7F8948091CC028E7F46
S11310908093CC0287B1982F9F718295869586950F
S11310A0837019F080E090E012C0822F885086315E
S11310B018F081E090E00BC040E050E03327892F26
S11310C099272817390711F441E050E0CA01982FF5
S11310D09170990F8091CC028178262F2F71422F25
S11310E0440F440F892B842B8093CC02332727B9D8
S11310F0783059F5809142069091430621E0863874
S1131100920718F087E090E01FC0833C910518F027
S113111086E090E019C08136910518F085E090E0F2
S113112013C08033910518F084E090E00DC088313D
S1131130910518F083E090E007C00C9718F082E066
S113114090E002C080E090E0782F7770887D872B54
S1131150886D992786B98E2F99278FBF0895CF92CE
S1131160EF92FF920F931F9380916C01833079F477
S11311702A5C334061F410926C010894E11CF11C68
S1131180011D111DB801A7018C2D0E9484071F9118
S11311900F91FF90EF90CF900895E82F9A01AB0143
S11311A0BB27A52F942F832FBC01E13049F0E130F8
S11311B078F0E23041F0E33049F060E078E008C0D4
S11311C060507F4F05C060507E4F02C060507D4F1D
S11311D088279927982F872F762F662730704427E2
S11311E05527620F731F841F951F08958FB7F894B6
S11311F060917504709176042CB53DB506B602FE77
S113120004C06F5F7F4F2CB53DB599278FBF8827EA
S11312109927CB017727662744275527622B732B01
S1131220842B952B0895EF92FF920F931F930E94A6
S1131230F6087B018C01209176033091770340916D
S113124078035091790380916E0390916F03A0917C
S11312507003B0917103820F931FA41FB51FE21690
S1131260F3060407150730F082179307A407B507A0
S113127058F005C082179307A407B507E0F5E816F0
S1131280F9060A071B07B8F59C01AD012E193F09A1
S1131290400B510B213060E8360760E0460760E000
S11312A0560768F180E090E8A0E0B0E0E80EF91E8F
S11312B00A1F1B1FE0927603F092770300937803D2
S11312C01093790380E090E8AFEFBFEFE80EF91ECA
S11312D00A1F1B1F205030484040504020936E038B
S11312E030936F03409370035093710320E030E810
S11312F040E050E014C020E030E040E050E0809353
S1131300760390937703A0937803B09379031092B4
S11313106E0310926F031092700310927103A9016F
S1131320B7012CB53DB5C9018E199F0903968417E1
S1131330950720F0B9016D5F7F4F02C0640F751FE0
S11313406115710511F461E070E0615070407BBD7E
S11313506ABD80E186BF87B7806187BF1F910F9107
S1131360FF90EF9008950F931F930FB7F8941127F0
S11313706093760370937703809378039093790353
S113138020936E0330936F03409370035093710363
S11313900E9413090FBF1F910F91089510925901D4
S11313A0823031F0833041F0813049F480E101C072
S11313B08EE00E94850308958FE00E9485030895BE
S11313C0CF92EF92FF9280916C01843089F4109255
S11313D06C01CC2031F4E092CB038F2D99278093BC
S11313E0CA0343E050E060E070E08C2D0E94840763
S11313F0FF90EF90CF900895862F90916C019130DB
S113140011F0963041F410926C0141E050E060E03C
S113141070E00E9484070895813049F0813078F0AB
S1131420823041F0833049F060E070E008C06050E1
S11314307E4F05C060507D4F02C060507F4FCB018E
S11314400895982F4FB7F894552722B3277D22BBD0
S113145080E097FD939A959A8299806822BB96FDC5
S1131460939A959A8299806422BB95FD939A959A52
S11314708299806222BB94FD939A959A82998061A5
S113148022BB93FD939A959A8299886022BB92FD20
S1131490939A959A8299846022BB91FD939A959A26
S11314A08299826022BB90FD939A959A8299816079
S11314B04FBF992708958FB7F89499272BB332E03B
S11314C023272BBB8FBF089580E88093F1011092EE
S11314D04703109246061092400610922303089583
S11314E0CF93DF93FC01EB5BFF4F1582DF01169670
S11314F0ED011B821A82198280E88683DF91CF91E5
S1131500089597B79F7D97BF90E296BF882319F0FF
S11315108EB5806402C08EB58F7B8EBD87B7806226
S113152087BF80E090E0089581E00E94810A9927B6
S11315300895DF92EF92FF920F931F938FB7F89461
S1131540282F3327D22E91B782B746B7981711F0B8
S113155041FF02C02FBF6AC080910E048823E1F1CD
S11315600E94F204E0907E05F0907F0500918005D2
S1131570109181052091ED013091EE014091EF0130
S11315805091F0016E197F09800B910B621773075C
S11315908407950720F010920E0471E01EC02E0DF2
S11315A03F1D401F511F8091D0019091D101A09106
S11315B0D201B091D301281B390B4A0B5B0B273E98
S11315C031054105510540F4822F223010F070E0BE
S11315D005C070E082E002C070E086EE682F6150C2
S11315E000B601FCFDCF82B7681709F46F5F209144
S11315F0D0013091D1014091D2015091D301DA014F
S1131600C9010196A11DB11D860F911DA11DB11D1A
S113161082179307A407B50710F4622F609561BF82
S1131620DFBE772319F081E00E943B021F910F91E6
S1131630FF90EF90DF900895AFB7F894BB27E1E0F7
S1131640E0930E0460937E0570937F05809380057C
S1131650909381052093ED013093EE014093EF01C7
S11316605093F001AFBF0E94990A0895AF92BF92C0
S1131670CF92DF92EF92FF920F931F93CF93DF935A
S1131680CDB7DEB728970FB6F894DEBF0FBECDBF37
S113169020E070E0E0911001F091110132E14DE69B
S11316A05CE46FE4809111019E2F28960FB6F894A4
S11316B0DEBF0FBECDBFDF91CF911F910F91FF9081
S11316C0EF90DF90CF90BF90AF9008951F920F924C
S11316D00FB60F9211248F9383B783BF00B600FC1B
S11316E0FDCF8F910F900FBE0F901F901895789497
S11316F01F920F920FB60F9211240F900FBE0F90EE
S11317001F90189578941F920F920FB60F92112480
S11317100F900FBE0F901F90189578941F920F9200
S11317200FB60F9211242F933F938F939F932FB74C
S1131730F8943327809175049091760401969093E0
S11317407604809375042FBF9F918F913F912F91C1
S11317500F900FBE0F901F9018951F920F920FB607
S11317600F9211240F900FBE0F901F9018951F9287
S11317700F920FB60F9211240F900FBE0F901F906F
S113178018951F920F920FB60F9211240F900FBE4F
S11317900F901F9018951F920F920FB60F9211245D
S11317A00F900FBE0F901F9018951F920F920FB6B7
S11317B00F9211240F900FBE0F901F9018951F9237
S11317C00F920FB60F9211240F900FBE0F901F901F
S11317D018951F920F920FB60F9211240F900FBEFF
S11317E00F901F9018951F920F920FB60F9211240D
S11317F02F933F934F935F936F937F938F939F9315
S1131800AF93BF93EF93FF9344B155B178948FB7DF
S1131810F89499272091CC02322F3695317021709B
S11318208FBF2223D9F4339880918903813021F02A
S1131830823009F039C00AC0332351F05093730544
S11318404093720589E10E943B022EC0332319F4B0
S11318500E94390829C01092890326C08FB7F894D2
S113186099278FBF2FB7F894332786B1582F577015
S1131870482F4072987D942B952B8074977B982BDE
S113188090619F77892F992786B9887D842B852B32
S113189087738061992786B9887D842B852B877B04
S11318A08069992786B92FBFFF91EF91BF91AF91BE
S11318B09F918F917F916F915F914F913F912F9164
S11318C00F900FBE0F901F901895982F809166016E
S11318D0882389F5992379F531E030936601809165
S11318E034018093670120915B01822F8170809382
S11318F0F2018091390190913A01909369018093AA
S1131900680180915C0180936A0132273170267EE0
S1131910E32FFF27EE0FFF1FEB5CFE4F80819181C9
S113192090933A0180933901232B20935B0180E249
S11319300E943B02089580915B0180FF02C08B7F6F
S113194001C08D7F80935B0108950F931F93082F2F
S1131950162F809148038130D9F0813038F08230DD
S113196009F44AC0833009F028C159C0002309F49E
S113197058C11092B2051092B10510927C051092D4
S1131980C60510924D0310927A041092790439C15D
S1131990002309F046C18091790490917A040E9451
S11319A0000890937A048093790482E0809348033A
S11319B01093C605143409F000C125C18695869597
S11319C003C080915B018695817009F0F6C0809117
S11319D05B01992311F0846001C0826080935B01F4
S11319E080915B01877E886080935B0110925C012B
S11319F08FEF8093340115C1002309F0DEC060939A
S1131A004D038091790490917A040E940008909388
S1131A107A048093790483E08093480302C180911F
S1131A207C058F3F09F4C9C0002309F461C08230EA
S1131A3008F4C3C0E091B105EE2309F4EBC04E2FC6
S1131A404150E42FFF27EF54FA4F82819927382F12
S1131A502227442311F4E2E002C0E42FE150FF27DF
S1131A60EF54FA4F82819927282B392B80917904DE
S1131A7090917A042817390709F09FC080E00E94EA
S1131A80650C30914D0380910F0420911004982F20
S1131A909F5F963008F090E0921771F0E82FFF27CF
S1131AA0E15FFB4F32838F5F80930F04863010F029
S1131AB010920F040E9480021092B2051092B10598
S1131AC094E09093480310927C051092C6051092FE
S1131AD04D0310927A041092790480916B018D7FEA
S1131AE080936B0180915A01882309F49AC084C0C1
S1131AF0823008F44EC0E091B205FF27EF54FA4F4C
S1131B008281482F5527342F20915B01822F86959F
S1131B1086958695837099278130910519F00297EF
S1131B20F9F40EC0277E206120935B01442311F455
S1131B3085E001C080E080935C013093340110C0E3
S1131B4080915C01813560F4E0913901F0913A01B2
S1131B50E80FF11D408380915C018F5F80935C01ED
S1131B608091B205E82FFF27EF54FA4F62818F5F0F
S1131B708093B205833010F01092B20577278091DC
S1131B80790490917A040E94000890937A048093D7
S1131B9079048091B105E82FFF27EF54FA4F12839F
S1131BA08F5F8093B105833010F01092B10580915E
S1131BB07C058F5F80937C0534C01092B20510922F
S1131BC0B10514E01093480310927C051092C605E9
S1131BD010924D0310927A041092790480916B0153
S1131BE08D7F80936B0181E00E94650C80915A0186
S1131BF0882329F0109348030E94A60712C00023EB
S1131C0081F081E009CF80915B01982F917080FD74
S1131C10D5CED7CE8091B5059927382F222742E01B
S1131C201CCF1F910F9108951F920F920FB60F9220
S1131C3011242F933F934F935F936F937F938F93CD
S1131C409F93AF93BF93EF93FF935F9B3DC06CB1A2
S1131C50E0917B04F0917C043097F9F08091C60602
S1131C609091C706E80FF91F608301969093C70609
S1131C708093C60620910A0730910B0782179307B9
S1131C8018F110927C0410927B0480916E058330CD
S1131C90D9F0579810926E0517C06E3719F460E0AA
S1131CA081E010C080916B016D3721F482608093D4
S1131CB06B010AC081FF05C08D7F80936B0180E2B8
S1131CC0682780E00E94A50CFF91EF91BF91AF912E
S1131CD09F918F917F916F915F914F913F912F9140
S1131CE00F900FBE0F901F901895982F8D5782302C
S1131CF068F480916B01816080936B0180E2892795
S1131D0080937B058DE780931D0202C090931D0292
S1131D1061E070E08DE192E00E94BF079927089589
S1131D2078941F920F920FB60F921124FF920F9383
S1131D301F932F933F934F935F936F937F938F934F
S1131D409F93AF93BF93CF93DF93EF93FF93209130
S1131D50490330914A038091B8059091B905281739
S1131D60390780F4E0917F03F0918003E20FF31FC1
S1131D7080812F5F3F4F30934A03209349030E9491
S1131D80B807CDC01092800310927F0310924B03CA
S1131D905698FFB6F89480916B0180FF0EC08E7F39
S1131DA080936B0180917B0580931D0261E070E05C
S1131DB08DE192E00E94BF07AFC08091740584302A
S1131DC009F48CC0853040F4823021F18330B8F5B9
S1131DD0813009F09CC00DC0863009F48DC0863076
S1131DE008F483C0873009F48EC0883009F08FC0AE
S1131DF091C0809175030E94750E082F83E0809333
S1131E0074056091750380910807909109070E94F9
S1131E10000810C0809144060E94750E082F83E0CC
S1131E208093740560914406809108079091090796
S1131E300E940008909309078093080766C0E09108
S1131E407F04FF27EE0FFF1FEA57FC4F80810E949B
S1131E50750E082F10917F04C12FDD27FE01EE0FB0
S1131E60FF1FEA57FC4F6081809108079091090792
S1131E700E940008909309078093080720916D033E
S1131E802F5F20936D03113039F580916201E09149
S1131E905D01F0915E01E80FF11DE0818F5F809399
S1131EA0620190916101981730F482E08093870376
S1131EB040E050E002C04E2F5527DE01AA0FBB1FA1
S1131EC0FD01EB57FC4F8081823031F02F3F21F030
S1131ED0AA57BC4F4C9319C084E012C080910807E4
S1131EE00E94750E082F85E00BC0809109070E949F
S1131EF0750E082F86E004C00E94EC07082F87E0C7
S1131F008093740502C088E003C0002329F089E0AF
S1131F10809374050E9480028F2D99278FBFFF91B3
S1131F20EF91DF91CF91BF91AF919F918F917F916D
S1131F306F915F914F913F912F911F910F91FF905E
S1131F400F900FBE0F901F9018951F920F920FB60F
S1131F500F9211248F9380919B0087FF02C0809180
S1131F609C008F910F900FBE0F901F90189578943E
S1131F701F920F920FB60F9211240F900FBE0F9065
S1131F801F90189578941F920F920FB60F921124F8
S1131F900F900FBE0F901F90189578941F920F9278
S1131FA00FB60F9211240F900FBE0F901F9018952B
S1131FB078941F920F920FB60F9211240F900FBEB8
S1131FC00F901F90189578941F920F920FB60F924E
S1131FD011248F939F9380918000909181009F9111
S1131FE08F910F900FBE0F901F90189578941F92A9
S1131FF00F920FB60F9211242F933F938F939F93B9
S11320002FB7F89433278091690390916A0301965E
S113201090936A03809369032FBF9F918F913F919F
S11320202F910F900FBE0F901F901895EF92FF9273
S11320300F931F93CF93DF93EA017B010AC08C01B6
S11320400F5F1F4F0E94C644F70181937F012197C0
S1132050C8012097A1F780E090E0DF91CF911F9114
S11320600F91FF90EF900895EF92FF920F931F93BB
S113207079018A016A3018F04AE050E002C0462F24
S11320805527BC0180E995E00E94B644E0925201D4
S1132090F092530100935401109355011F910F9135
S11320A0FF90EF900895EF92FF920F931F93CF93B9
S11320B0DF93EA017B010AC0F70161917F018C0182
S11320C00F5F1F4F0E94CE442197C8012097A1F7AC
S11320D0E199FECF80E090E0DF91CF911F910F91C5
S11320E0FF90EF900895AF92BF92CF92DF92EF925C
S11320F0FF920F931F93CF93DF93CDB7DEB728974B
S11321000FB6F894DEBF0FBECDBF10928903A09026
S11321107205B090730580914506882309F08FC03D
S11321208FB7F894C82E80915701833009F041C0CD
S1132130809133018823E9F580918304882309F091
S113214078C070C0ED2DE695E695E695FF274D2DF8
S11321505527ED57FB4F9A012770307081E090E0CE
S113216002C0880F991F2A95E2F7809520812823C1
S113217020830093560112C00F5F1F4F01301105D9
S113218011F400E010E0D02E802F0E94250888234F
S1132190C9F60E151F0581F74FEF50E04093520327
S11321A08FEF8093330181E08093570188E10E948F
S11321B03B02CFBE8FECA81681E0B80608F03FC002
S11321C08FB7F89448E050E08E010F5F1F4FB801BD
S11321D080EF9FE00E9416108091E1019091E2014E
S11321E0A091E301B091E4018B839C83AD83BE8312
S11321F08FEF8F83188680911001909111019A833B
S1132200898348E050E0B80180EF9FE00E945310BA
S113221088E190E029E00FB6F894A89581BD0FBE3F
S113222021BDFFCF81E0809333011092570137988D
S1132230C0CF80915601E82EFF2487019DCF2896B8
S11322400FB6F894DEBF0FBECDBFDF91CF911F91C3
S11322500F91FF90EF90DF90CF90BF90AF900895D3
S11322601F920F920FB60F9211242F933F934F9307
S11322705F936F937F938F939F93AF93BF93EF93EA
S1132280FF9383B783BF00B600FCFDCF81B79927C6
S11322900196AA27BB272091D0013091D10140910A
S11322A0D2015091D301280F391F4A1F5B1F20937D
S11322B0D0013093D1014093D2015093D30178944B
S11322C00E94990AFF91EF91BF91AF919F918F91D5
S11322D07F916F915F914F913F912F910F900FBE1E
S11322E00F901F901895BF92CF92DF92EF92FF92BA
S11322F00F931F93B82E6701780180914E018823B4
S113230019F085E090E034C0EB2DFF27E931F105A9
S1132310B8F4EA5BFF4FEE0FFF1F0590F491E02D38
S1132320099484E00E9466049927282F882349F49D
S113233081E080934E01B092C90680E090E018C01D
S113234021E0822F992714C089019A01AB0160E032
S1132350E8CF89019A01AB0163E0E3CF89019A01D7
S1132360AB0161E0DECF89019A01AB0162E0D9CF14
S11323701F910F91FF90EF90DF90CF90BF90089541
S1132380EF92FF920F931F93813051F0813030F020
S1132390823041F0833041F081E009C086E005C01D
S11323A089E003C087E001C088E00E947311992787
S11323B01F910F91FF90EF900895BF92CF92DF92FB
S11323C0EF92FF920F931F93B82E670178018091CB
S11323D04E01882319F085E090E034C0EB2DFF27EF
S11323E0E931F105B8F4E15AFF4FEE0FFF1F0590F4
S11323F0F491E02D099481E00E9466049927282F26
S1132400882349F481E080934E01B092C90680E0AC
S113241090E018C021E0822F992714C089019A0105
S1132420AB0160E0E8CF89019A01AB0163E0E3CF3F
S113243089019A01AB0161E0DECF89019A01AB0108
S113244062E0D9CF1F910F91FF90EF90DF90CF9072
S1132450BF900895AF92BF92CF92DF92EF92FF9216
S11324600F931F9380914C03992729E330E0829FB7
S1132470A001839F500D929F500D1124FA01EB5A35
S1132480F94F8081A82EBB24CC24DD247AE0AA0C49
S1132490BB1CCC1CDD1C7A95D1F7FA01EA5AF94F22
S11324A0808123E3829FC0011124AA27BB27A80EA1
S11324B0B91ECA1EDB1E9A01295A394F8091400168
S11324C0823079F08330B1F0813011F081E01CC0AA
S11324D063E3E62EF12C012D112DB601A50185E053
S11324E011C053E3E52EF12C012D112DB601A501E8
S11324F083E008C043E3E42EF12C012D112DB60135
S1132500A50184E00E94DD11882311F010921B02C2
S11325101F910F91FF90EF90DF90CF90BF90AF90FD
S11325200895BF92CF92DF92EF92FF920F931F9381
S1132530B82ED70180914E01882319F085E090E0F0
S11325403CC0EB2DFF27E931F105B8F4E858FF4F03
S1132550EE0FFF1F0590F491E02D099485E00E9491
S113256066049927282F882349F481E080934E013B
S1132570B092C90680E090E020C021E0822F992724
S11325801CC0680179018D019A01AB0160E0E6CFBE
S1132590680179018D019A01AB0163E0DFCF680125
S11325A079018D019A01AB0161E0D8CF680179010D
S11325B08D019A01AB0162E0D1CF1F910F91FF9081
S11325C0EF90DF90CF90BF9008950F931F93CF9318
S11325D0DF93182F8FB7F894C82FDD270C2F61E0F5
S11325E080E00E94E605882321F0CFBF85E090E0DB
S11325F024C0809125018823A1F480914701823071
S113260081F409C082E080934701109225010E9461
S11326102906B89AC0981093220180E00FBF992729
S11326200CC080914701882369F38FB7F8949927E8
S1132630109282058FBF81E0F1CFDF91CF911F917E
S11326400F9108950F931F93CF93DF93182F8FB794
S1132650F894282F3327022F80915701882359F5A6
S113266081E080935701109352032FBF8FB7F894E2
S11326709927379A8FBF8FB7F894C82FDD279C2FDF
S1132680809133018130A9F480915701813021F484
S113269088E10E943B0209C0823059F480915203C0
S11326A08093330183E080935701CFBF80E090E0B3
S11326B025C09FBFFBCF80915203811711F42FBF18
S11326C0F5CF812F0E942508882319F085E090E03A
S11326D014C0E12FE695E695E695FF27ED57FB4FED
S11326E0177081E090E002C0880F991F1A95E2F7F5
S11326F02081282B208380E090E00FBFDF91CF91D1
S11327001F910F91089580E00E9422139927089544
S1132710CF93DF93982F8FB7F894C82FDD272C2FF2
S113272080915101882361F481E080935101909359
S11327307A0385E10E943B02CFBF80E090E021C094
S1132740E92FFF27E95DFC4F80818F3F89F4E091F9
S11327503101E91789F40CC09093300104C0FF27BC
S1132760E95DFC4F90839093310180E090E002C0DA
S113277085E090E02FBF05C0809130018F3F79F74D
S1132780EBCFDF91CF91089581E10E94590788230F
S113279021F08AE10E943B02089581E10E9488139E
S11327A008951F93182F809159018823E1F4623012
S11327B041F0633041F0613011F081E007C080E105
S11327C003C08EE001C08FE00E94881390E088234C
S11327D009F491E090935901992329F01093BA05D3
S11327E080E090E002C081E090E01F9108950F9393
S11327F01F93182F0FB7F89461E080E00E94E6055C
S1132800882371F510932201809125018823A9F56D
S113281080914701823089F58BE00CC00E94290623
S113282080914701882349F481E080934701109205
S113283024038DE00E943B022AC0809172038F3FE3
S113284031F5E0912401EE2311F11CC01092230113
S113285004C0FF27EE58FC4F10821092240117C0C9
S113286081E090E002C0880F991F1A95E2F7209149
S11328704601282B209346010AC0809147018823F2
S1132880E1F6CCCF809123018F3F19F7DFCF802F62
S113289099278FBF80E090E01F910F9108951F93B7
S11328A083E00E94E5129927182F882319F083E00A
S11328B00E94F713812F99271F9108951F938FB7B3
S11328C0F894282F3327122F8091CC06882321F0E7
S11328D02FBF81E090E013C081E08093CC0680910B
S11328E0430190914401049721F481E00E94F7137D
S11328F003C089E00E943B021FBF80E090E01F916B
S113290008951F93982F8FB7F894182F8091500132
S11329108330B1F580912F01891791F580912D01B4
S113292020E030E08F3F11F421E030E0232BF9F474
S11329308F3F19F42FEF30E00EC0282F3327F90111
S1132940E75BF94F808180932D018F3F11F48093D1
S11329502E018FEF80832093AD058FEF80932F019D
S113296081E08093500184E10E943B0205C084E031
S113297080932F01109250011FBF80E090E003C0AC
S11329801FBF81E090E01F9108952FB7F89433277B
S1132990809124038093250182E0809347012FBF17
S11329A080912501882329F4B89AC0988BE00E946D
S11329B03B020895CF92DF92EF92FF920F931F9301
S11329C080934F016093BD05C901880F892F881F2B
S11329D0990B91958093BE05220F812F9927282B5F
S11329E02093BF050093C005D0926C05C0926B057F
S11329F0F0927403E092730340936B0383E10E94AB
S1132A003B021F910F91FF90EF90DF90CF900895BC
S1132A10CF92DF92EF92FF920F931F938091D40194
S1132A20882339F085E080934F0183E10E943B02C3
S1132A3029C040918004842F9927FC01EE0FFF1FC9
S1132A40E80FF91FDF01A25EBD4F2D913C91E05EBE
S1132A50FD4F808182FF06C0442311F068E807C05F
S1132A6069E805C0442311F063E801C066E8A1E009
S1132A70CA2ED12CEE24FF2400E010E040E089E0CF
S1132A800E94DA141F910F91FF90EF90DF90CF9086
S1132A9008958531C1F0863138F4843061F0853091
S1132AA051F08330D9F407C0873189F0873168F059
S1132AB08831A1F410C080911601813079F480E04E
S1132AC00E943B02089580E003C082E001C083E0DD
S1132AD00E94FC09089581E00E94FC090895AF92C8
S1132AE0BF92CF92DF92EF92FF920F931F93282F02
S1132AF033278BE090E0289FF001299FF00D389F49
S1132B00F00D1124E159FE4F82819381A481B58196
S1132B100097A105B10569F080819181880F991F03
S1132B20918380838150944020F080E094E09183ED
S1132B3080838BE090E0289F5001299FB00C389F40
S1132B40B00C11248FE691E0A80EB91EF501868120
S1132B509781A085B18582839383A483B583C08044
S1132B60D180EE24FF2469E0CC0CDD1CEE1CFF1C9C
S1132B706A95D1F70E941905DC01CB01F5010081AA
S1132B801181B801762F6627770F0E942944AA275E
S1132B90BB278C0D9D1DAE1DBF1D222733274AE088
S1132BA0000F111F221F331F4A95D1F7081B190B61
S1132BB02A0B3B0B068317832087318722813381BD
S1132BC044815581280F391F4A1F5B1F2283338399
S1132BD0448355831F910F91FF90EF90DF90CF9026
S1132BE0BF90AF900895CF92DF92EF92FF920F9330
S1132BF01F93CF93DF938C01F62E6A01E22E8FB7D9
S1132C00F894C82FDD2760E080E00E940006882346
S1132C1021F0CFBF80E090E01EC0CFBF0F0D111D8B
S1132C20802F80680E943E06F82E16950795802F07
S1132C30807C0E943E060E2D0AC0EE2DFF27E01B6D
S1132C40F109EC0DFD1D80810E943E060150002318
S1132C50A1F78F2D9927DF91CF911F910F91FF90AD
S1132C60EF90DF90CF900895CF93DF93CDB7DEB789
S1132C702C970FB6F894DEBF0FBECDBF8FB7F89474
S1132C80282FAE014F5F5F4FDA01E5EAF5E088E0F7
S1132C9001900D928150E1F780914E0390914F0382
S1132CA08987892F99278A8780917B0390917C0358
S1132CB08B87892F99278C872FBF2CE060E080E6D3
S1132CC091E00E94F3152C960FB6F894DEBF0FBE68
S1132CD0CDBFDF91CF910895EF92FF920F931F9391
S1132CE0CF93DF93182F7B01042F8FB7F894C82F4D
S1132CF0DD2760E080E00E940006882321F0CFBF3A
S1132D0080E090E014C0CFBF1064812F9927909386
S1132D108203809381030E943E06182F402F55277B
S1132D20B70180E090E00E94B806812F9927DF91D7
S1132D30CF911F910F91FF90EF900895C0986091EB
S1132D406D0170916E0141E08FE30E946C1608954D
S1132D5082E090E090931A028093190281E08093BC
S1132D60470320E030E080912201843011F421E017
S1132D7030E0232B29F484E00E94E512882319F41F
S1132D800E949E16089584E00E94F71308951F92EE
S1132D900F920FB60F9211242F933F934F935F938B
S1132DA06F937F938F939F93AF93BF93EF93FF930F
S1132DB08091190290911A02019749F482E090E0FF
S1132DC090931A02809319020E94A81605C080915C
S1132DD023038F5F80932303FF91EF91BF91AF9102
S1132DE09F918F917F916F915F914F913F912F911F
S1132DF00F900FBE0F901F9018951F93CF93DF93E2
S1132E00182F8FB7F894C82FDD2760E080E00E9468
S1132E100006882321F0CFBF80E090E005C0CFBF3B
S1132E20812F0E943E069927DF91CF911F9108952B
S1132E3083E00E94FD16992708951F93809146010F
S1132E40882309F04BC0109122011F3F09F046C0AE
S1132E5060E00E940006882309F440C081E080936A
S1132E60AF058091F5018823E1F11092AF0585E06B
S1132E7090E045C0923069F5C09A8091230120E02A
S1132E8030E08F3F11F421E030E0232BE9F410937C
S1132E9025018F3F19F42FEF30E00DC0282F332781
S1132EA0F901EE58FC4F8081809323018F3F11F488
S1132EB01093240110832093240381E0809347011D
S1132EC08DE00E943B0205C010932501109247013A
S1132ED011C080914701882369F00FC081E090E020
S1132EE00EC08091250190914701882319F29230F8
S1132EF021F0EFCF80E00E941D0680E090E01F915A
S1132F0008951F93182F81E090E0909349018093D6
S1132F1048011092F5010E941D178FB7F894992764
S1132F20109342018FBF87E00E943B021F910895D6
S1132F301F93CF93DF939FB7F894C92FDD271C2FDE
S1132F4090912201981721F0CFBF81E090E03AC020
S1132F508FEF80932201309146013323F1F48FB730
S1132F60F8949927109282058FBF0E941D17CFBF36
S1132F7011C02093220181E090E002C0880F991FC4
S1132F804A95E2F780953823309346018BE00E94FE
S1132F903B021FBF80E090E015C080E065E0E32FB6
S1132FA0FF270E941D44292F492F5527CF01042EA6
S1132FB002C0959587950A94E2F780FDDACF822FB7
S1132FC08F5FEFCFDF91CF911F91089583E00E942F
S1132FD09817992708951F93CF93DF938FB7F89489
S1132FE0C82FDD271C2F8091190290911A02892B7A
S1132FF029F484E00E949817CFBF1EC010924703A3
S113300080912303882311F0B79904C00E9908C056
S1133010882319F08150809323030E94A8160BC0C3
S113302081E090E090931A02809319021092230396
S113303084E00E9498171FBFDF91CF911F910895DC
S11330400E94640AC09AC09888E00E94FD1688E035
S11330500E94FD16C09A84E00E9498170E94EB1704
S11330600895FF920F931F93CF93DF93F82E8B0154
S11330708FB7F894C82FDD2760E080E00E94000637
S1133080882321F0CFBF80E090E00CC0CFBF8F2D0C
S11330900E943E06812F99270E943E06802F0E949F
S11330A03E069927DF91CF911F910F91FF900895CC
S11330B01F931FB7F89480912203882319F460E0CA
S11330C070E009C060E08091C306882309F461E0E0
S11330D081E06827772780915D03882319F480E0D5
S11330E090E00AC090E08091A405882309F491E05F
S11330F081E09827892F9927762F6627770F770FF6
S1133100770F24E0880F991F2A95E1F7826E926267
S1133110682B792B81E10E943118812F99278FBF69
S11331201F9108958FB7F89499276091AE058FBFCA
S113313085E0689FB0011124625D7E4F706488E170
S11331400E9431180895BF92CF92DF92EF92FF92BE
S11331500F931F93B82E8091D401882339F085E012
S113316080934F0183E10E943B021DC08B2D992760
S1133170FC01EE0FFF1FE80FF91FE25EFD4F2081F7
S11331803181BB2011F461E601C060E641E0C42E48
S1133190D12CEE24FF2400E010E040E08AE00E94FD
S11331A0DA14B0927D041F910F91FF90EF90DF909D
S11331B0CF90BF900895FF920F931F93CF93DF9307
S11331C0C0915F03D0916003CB5BDF4F8A81C5540C
S11331D0D0409927182F882309F41FE1C0988091C3
S11331E0CB02811749F0612F77276F717070606E81
S11331F0706885E10E9431181093CB02F8808FB774
S1133200F894082F112760E080E00E9400068823CC
S113321011F00FBF12C00FBF8EE390E090938203B2
S1133220809381038EE30E943E06FA944F2D552726
S113323060E070E0CE010E94B806DF91CF911F914B
S11332400F91FF9008950F931F93CF93DF93EC0199
S11332500FB7F89411270E94A205FC018FE3808325
S11332600FBF10924F0610924E0661E082E00E945A
S1133270E605882319F085E090E077C08091B005D9
S11332808F5F8093B00581508B838FB7F894082F9C
S1133290112762E081E00E940006882329F40FBF11
S11332A00E94D90681E060C0AE014B5B5F4F8FB7CF
S11332B0F894992724E0209383058FBFD0938D033E
S11332C0C0938C030FBFDE011196FD01818129811A
S11332D09927982F88273327822B932B80729C7CE5
S11332E08983892F992781832981982F88273327D8
S11332F02164822B932B8983892F99278183FA0157
S113330014821082118211861086178280E88683C7
S113331061E06093860540918C0350918D038FB7D3
S1133320F894282F332780914801909149018830DF
S1133330910511F0019711F02FBF15C082E090E0C4
S11333409093490180934801609307075093600369
S113335040935F031092CD012FBF0E944F14882326
S113336011F40E94DB1880E09927DF91CF911F911F
S11333700F910895CF93DF93DA01422F2A3318F087
S113338082E090E05EC0ED018B876E83872F9927E2
S11333908F832FB7F894332780914E0390914F0376
S11333A02FBFFD018483892F992785832FB7F89434
S11333B0332780912601909127012FBF8887892F79
S11333C0992789873196818129819927982F882780
S11333D0332720643868822B932B8983892F99277C
S11333E08183435F4C934D5080912901882359F088
S11333F010922901642FCD010E9423199927282FA7
S11334008823A9F417C0842F992790938B03809362
S11334108A03B0934D01A0934C018FE00E943B02BC
S113342080912901882349F489E090E00AC08FEF54
S113343080932901822F992704C01092660380E0AB
S113344090E0DF91CF9108951F93809121019927F6
S1133450019665E070E00E943D44682F809321014D
S113346010E0462F5527FA01EE0FFF1FE559FB4FD9
S1133470A081B181109799F0E62FE695E695E6953F
S1133480FF27E35BF94F808199279A0127703070F9
S113349002C0959587952A95E2F780FF0DC0CA0171
S11334A0019665E070E00E943D44682F1F5F15306F
S11334B0C1F61093210119C0609321016530A8F46D
S11334C02C912D503327FD0167817727762F6627AE
S11334D086819927682B792BAD0183850E94BA19BF
S11334E0882319F084E00E943B021F910895CF9332
S11334F0DF93582FFB01853018F081E090E033C052
S1133500C82FDD27CC0FDD1FC559DB4F888199817A
S1133510892B19F085E090E026C079836883435FA6
S113352040834D5080912101853018F480E090E073
S11335301AC0838567817727762F662726813327EC
S1133540622B732B50932101242FAF010E94BA19CF
S11335509927282F882329F085E080932101198257
S11335601882822F9927DF91CF910895AF92BF924D
S1133570CF92DF92EF92FF920F931F93BC01809141
S1133580EC01882309F479C080914403882309F06D
S113359074C081E08093440360938901872F992745
S11335A0809388018EED6030780721F0AA24BB2433
S11335B0650108C0A0905201B0905301C09054011D
S11335C0D0905501A0928D0111270D2DFC2CEB2CD0
S11335D0E0928C0196014427552720938B018D2D71
S11335E09927AA27BB27E8E8F1E08283FF24002774
S11335F01127102F0F2DFE2CEE24B82FAA27992760
S11336008827332744275527A90133272227822BCC
S1133610932BA42BB52B2A2D332744275527822BF4
S1133620932BA42BB52BE82AF92A0A2B1B2BE11484
S1133630F1040105110511F410E010C060507E4D35
S113364021F41AE060E975E003C010E060E070E086
S1133650412F55278EE891E00E94B6448FEF809366
S113366082018093830180E6809387011A5F412F52
S11336706CE771E083E00E94771A1F910F91FF902D
S1133680EF90DF90CF90BF90AF900895CF92DF92EC
S1133690EF92FF920F931F93982F80914E018823EE
S11336A019F085E090E04AC0E92FFF27E931F105E0
S11336B0A8F4EF56FF4FEE0FFF1F0590F491E02D95
S11336C0099483E00E9466049927282F882339F4FB
S11336D081E080934E0180E090E030C021E0822FB1
S11336E099272CC0CC24DD24760100E010E020E0F2
S11336F030E040E050E060E0E4CFCC24DD2476010B
S113370000E010E020E030E040E050E063E0D9CF9A
S1133710CC24DD24760100E010E020E030E040E03D
S113372050E061E0CECFCC24DD24760100E010E04F
S113373020E030E040E050E062E0C3CF1F910F9101
S1133740FF90EF90DF90CF900895BF92CF92DF92D9
S1133750EF92FF920F931F93B82E80914E0188230E
S113376019F085E090E04CC0EB2DFF27E931F1051D
S1133770B8F4E655FF4FEE0FFF1F0590F491E02DCE
S1133780099482E00E9466049927282F882349F42B
S113379081E080934E01B092C90680E090E030C091
S11337A021E0822F99272CC0CC24DD24760100E06F
S11337B010E020E030E040E050E060E0E2CFCC24D4
S11337C0DD24760100E010E020E030E040E050E04D
S11337D063E0D7CFCC24DD24760100E010E020E0C4
S11337E030E040E050E061E0CCCFCC24DD24760131
S11337F000E010E020E030E040E050E062E0C1CFC3
S11338001F910F91FF90EF90DF90CF90BF9008959C
S1133810982F80916C018130A1F4913049F091305E
S113382028F0923039F0933061F408C085E103C088
S113383088E101C086E10E94461B089587E10E9449
S1133840461B0895AF92BF92CF92DF92EF92FF9200
S11338500F931F930E94F2047B018C0160919F04DB
S11338607091A0048091A1049091A204A090710190
S1133870B0907201C0907301D0907401A114B1048E
S1133880C104D10409F44EC0EFB7F89420916D053A
S113389020FD36C0A8019701261B370B480B590B96
S11338A02A153B054C055D05C8F4A21AB30AC40ADF
S11338B0D50A8091710190917201A0917301B09128
S11338C07401821B930BA40BB50B8093710190932D
S11338D07201A0937301B093740115C081E090E06C
S11338E0A0E0B0E08093710190937201A093730102
S11338F0B0937401B1E0AB2EB12CC12CD12C03C018
S11339002E7F20936D058E2F99278FBF0E94F2047E
S1133910AB01BC01A1E0EA2E9601850183E00E947F
S1133920D30405C08091A7048D7F8093A7041F91C1
S11339300F91FF90EF90DF90CF90BF90AF900895DC
S1133940FF920F931F93CF93DF93F82E282F3327E3
S11339508BE090E0289FE001299FD00D389FD00D87
S11339601124C159DE4F81E090E0998388831A863F
S11339708A819B81AC81BD810097A105B105A1F02D
S11339800FB7F8941127C9010E94E0060FBF1A82ED
S11339901B821C821D821E821F82188619868F2D0F
S11339A00E946F150E94221CDF91CF911F910F91ED
S11339B0FF90089580509E4D19F480E00E94A01C51
S11339C008959C018091CF01882309F455C0A0E992
S11339D0B5E0F9018AE001900D928150E1F7809100
S11339E0520190915301A0915401B0915501CD0120
S11339F0AA27BB270196A11DB11D80935201909364
S1133A005301A0935401B09355010097A105B1054A
S1133A1061F481E090E0A0E0B0E0809352019093E3
S1133A205301A0935401B093550120915201309158
S1133A3053014091540150915501A9013327222784
S1133A408091100190911101AA27BB27280F391FDB
S1133A504A1F5B1F2093520130935301409354013A
S1133A605093550180E09EED0E94B61A80E00E94BA
S1133A70A01C86E10E943B020895AF92BF92CF92B0
S1133A80DF92EF920F931F93882389F00E94190508
S1133A905B016C018FEF90E0A0E0B0E0A822B922B6
S1133AA0CA22DB2280E190E0A0E0B0E010C00E94D6
S1133AB019055B016C018FE790E0A0E0B0E0A8225B
S1133AC0B922CA22DB2280E890E0A0E0B0E0A80E90
S1133AD0B91ECA1EDB1E0E94F204AB01BC0131E018
S1133AE0E32E9601850180E00E94D3041F910F917B
S1133AF0EF90DF90CF90BF90AF900895EF920F9327
S1133B001F93823001F1833030F4882359F08130DF
S1133B1009F050C00AC0833009F44AC0843009F067
S1133B2049C046C010923E0145C080913F01853096
S1133B3009F040C08091610381508093610380E06B
S1133B400E943D1D37C020912B04E22FE695E69597
S1133B50E695FF27E159FA4F277081E090E002C013
S1133B60880F991F2A95E2F78095208128232083C6
S1133B700E94F204AB01BC01E1E0EE2E02E010E091
S1133B8020E030E080E00E94D3042FB7F89433277C
S1133B908BB391E089278BBB2FBF0E945B0A2FB7A1
S1133BA0F89433278BB394E089278BBB2FBF02C0D3
S1133BB0109244031F910F91EF900895EF92FF929A
S1133BC00F931F93E82E8B01F42EE82FFF27EE0F9F
S1133BD0FF1FE559FB4F118210820E94241A4F2DBA
S1133BE0B8018E2D0E947E1D1F910F91FF90EF90C2
S1133BF008950F931F93CF93DF93042F1091210106
S1133C001530A0F4E12FFF27EE0FFF1FE559FB4FFE
S1133C10C081D181C617D70749F4118210820E944E
S1133C20241A402FBE01812F0E947E1DDF91CF9167
S1133C301F910F910895CF93DF93C0914C01D091C0
S1133C404D0160918A03CE010E942319482F552704
S1133C50442351F08FEF8093290160914C017091BE
S1133C604D018B850E94F91DDF91CF910895EF924C
S1133C700F931F932091790533272150304081E021
S1133C8090E0A0E0B0E004C0880F991FAA1FBB1FFA
S1133C902A95D2F78093750590937605A0937705BE
S1133CA0B09378050E941905209175053091760529
S1133CB04091770550917805882799272150304005
S1133CC04040504062237323842395232F5F3F4F4A
S1133CD04F4F5F4F260F371F481F591F20937505FD
S1133CE030937605409377055093780580917A0553
S1133CF08E7F80937A0580919E048D7F80939E04AD
S1133D000E94F204AB01BC0111E0E12E08EE13E0C5
S1133D1020E030E082E00E94D3041F910F91EF90E5
S1133D20089580917905893029F089E08093790597
S1133D300E94371E089578941F920F920FB60F9227
S1133D4011242F923F924F925F926F927F928F92A3
S1133D509F92AF92BF92CF92DF92EF92FF920F9316
S1133D601F932F933F934F935F936F937F938F93FF
S1133D709F93AF93BF93CF93DF93EF93FF93C6B516
S1133D80D7B58FB7F894282E0E94F6089B012C1BF8
S1133D903D0B442755272B013C01421A530A640A60
S1133DA0750A80914801909149018530910521F06F
S1133DB0069709F0E6C0C5C086E090E090934901FB
S1133DC08093480131E0332E3092430310924A012C
S1133DD080E00E94810AE0915F03F0916003EB5B55
S1133DE0FF4F4186BB27A72D962D852D8087C301C4
S1133DF0AA27BB278783872D9927AA27BB278683D2
S1133E00E0915F03F0916003EB5BFF4F8581E55424
S1133E10F040882309F484C06081655077274F01FE
S1133E20860E971EF4012081E1808281A380992768
S1133E30AA27BB27BA2FA92F982F882733274427CF
S1133E405527522F442733272227FF2400271127E1
S1133E508701FF24EE242E293F29402B512BBB241C
S1133E60CC24DD242A293B294C295D29822B932B40
S1133E70A42BB52B84199509A609B7098383292F87
S1133E803A2F4B2F552722839D0144275527218301
S1133E908B2F9927AA27BB278083C09824E0A401ED
S1133EA080E090E00E94F315C09AF4012081E18043
S1133EB08281A3809927AA27BB27BA2FA92F982FDD
S1133EC08827332744275527522F4427332722276F
S1133ED0FF24002711278701FF24EE242E293F29E0
S1133EE0402B512BBB24CC24DD242A293B294C29EB
S1133EF05D29822B932BA42BB52B840D951DA61D18
S1133F00B71D8383292F3A2F4B2F552722839D01D9
S1133F104427552721838B2F9927AA27BB278083E2
S1133F20E0915F03F0916003818185FF02C03092CC
S1133F30F50183E00E94981787B78F7E87BF849925
S1133F407AC01092430381E00E94810AE0915F03EA
S1133F50F0916003818185FF0FC087E090E090932A
S1133F604901809348010E94F60820E031E040E0D6
S1133F7050E00E94B30903C080E00E948117849B33
S1133F805AC080914A01882391F580914303882384
S1133F9071F511E0109343030E94810A80B32091CC
S1133FA04006283098F4E0914606E20FFF27E770B8
S1133FB0F070EE0FFF1FEE0FFF1FE553FA4F408224
S1133FC05182628273822F5F2093400610934A01CC
S1133FD0D0938403C093830384992DC0992704E06C
S1133FE0969587950A95E1F7182F117001C010E096
S1133FF0809143038130F9F4109243030E94810AB3
S113400010924A011123B9F480918303909184039F
S1134010C81BD90B2A9778F480914006882319F09D
S113402081508093400680915F03909160030097D4
S113403011F00E94700A2FBEFF91EF91DF91CF9192
S1134040BF91AF919F918F917F916F915F914F91AC
S11340503F912F911F910F91FF90EF90DF90CF90A0
S1134060BF90AF909F908F907F906F905F904F9094
S11340703F902F900F900FBE0F901F901895CF92E6
S1134080DF92EF92FF920F931F93CFB6F894DD2443
S11340900E941905DC01CB0166E470E00E9429440A
S11340A04BE0E42EF12CE80EF91EF092CB06E092E0
S11340B0CA060E94F60800271127A80197010E944A
S11340C0B309CFBE1F910F91FF90EF90DF90CF9077
S11340D008951F93CF93DF938FB7F894C82FDD27EC
S11340E01C2F80914801909149010897C9F489E0F7
S11340F00E94FD1683E00E949817C09A81E090E028
S113410090934901809348018FB7F894992723E04D
S1134110209342018FBF87E00E943B02CFBF30C093
S1134120C09880910707882311F085E001C084E0DE
S11341300E94FD1683FD09C080E00E94FD1683FFE6
S113414004C085E090E020E003C083E090E021E03B
S11341509093490180934801C09A1FBF222341F0E4
S11341601092CD0183E00E9498170E943F2008C05E
S11341700E94F60820E431E040E050E00E94B309D8
S1134180DF91CF911F9108958FB7F89499272091CB
S113419048018FBF243039F0283041F0223019F51E
S11341A00E94DB1808950E9469200895C09889E050
S11341B00E94FD16C09A83E00E9498172FB7F894C6
S11341C0332781E090E090934901809348012FBF09
S11341D08FB7F894992723E0209342018FBF87E09B
S11341E00E943B02089583E00E9498170895EF927D
S11341F0FF920F931F93CF93DF938B0180918103E1
S11342009091820386FF47C18F7B8F3309F095C15C
S1134210C0916D01D0916E01588150931C02809120
S1134220190290911A028530910509F443C0863031
S1134230910509F48AC0029709F026C185E090E04F
S113424090931A02809319024091F101852F9927C6
S11342500196242F3327281739074CF1B79906C044
S11342600E9904C0451B41504093F10140911C023A
S11342704734E8F44423A1F0BE016F5F7F4F483018
S113428018F047E050E007C086E090E090931A02EF
S113429080931902552780E090E00E94B8064DC132
S11342A010924703C09A84E00E949817EAC00E94C3
S11342B0201843C186E090E090931A02809319027B
S11342C080915D03882309F439C08091A405882373
S11342D0A9F5898185FF32C08F814E812FB7F8946B
S11342E0332760917B0370917C032FBF9927982F0C
S11342F088275527842B952B8617970759F08F818C
S11343002E819927982F88273327822B932B8F5F11
S11343109F4FA1F489818770813081F4C09AC0983D
S11343208AE00E94FD16C09AC09840911C02475032
S11343302896BE018FE30E946C16FFC040911C02B8
S1134340475055272896BE01A6CFC09A80912303D3
S1134350882339F484E00E949817809123038823EA
S113436011F0B7990AC00E9B08C09091400699239A
S113437021F080911C028B3038F480916D01909172
S11343806E010E94700A3FC0913011F5E09146061B
S1134390FF27EE0FFF1FEE0FFF1FE553FA4F20819B
S11343A0318142815381E0916D01F0916E01EB5BAB
S11343B0FF4F2187BB27A52F942F832F8087CA0106
S11343C0AA27BB278783252F3327442755272683EE
S11343D0809146069927019668E070E00E943D446A
S11343E0809346068091400681508093400688233E
S11343F051F080916D0190916E010E94700A1092AB
S113440046061092400680911C02FE01E80FF11D41
S1134410808187FF36C0012BA1F169816770C0914B
S11344206D01D0916E01623041F5E0915F03F0912E
S11344306003309731F180914801909149010797C9
S113444001F593818B819817E1F487B78F7E87BF3D
S1134450DF01AB5BBF4F988181E0FD018483FE01E6
S1134460E90FF11D829131968C9380818F77FD0144
S1134470818380E00E94811704C0613011F48EE0D2
S11344802AC00E94EB1759C010924703C09A84E0D7
S11344900E94981752C08E3309F04FC0C09A809181
S11344A04801909149010897C9F4C09889E00E9495
S11344B0FD16C09A83E00E94981781E090E09093E3
S11344C04901809348018FB7F894992723E02093FA
S11344D042018FBF87E00E943B022FC080910707F3
S11344E0882349F484E090E0909349018093480143
S11344F00E94692022C083E00E94981783E090E024
S113450090934901809348010E941905DC01CB0175
S113451066E371E00E9429445BE0E52EF12CE80E8D
S1134520F91EF092E601E092E5010E94F6080027E8
S11345301127A80197010E94B309DF91CF911F9120
S11345400F91FF90EF9008951F920F920FB60F9264
S113455011242F933F934F935F936F937F938F9384
S11345609F93AF93BF93EF93FF932FB1E0916905AE
S1134570F0916A05309739F08091180490911904EC
S1134580E80FF91F20838091180490911904019673
S1134590909319048093180480E00E9423064091AC
S11345A07A0150917B018091180490911904841729
S11345B0950718F40E944A061CC060916905709121
S11345C06A058091C4069091C50610926A051092FE
S11345D069051092C5061092C40610927B011092D0
S11345E07A0110921904109218042FB120E00E944D
S11345F0F720FF91EF91BF91AF919F918F917F91A0
S11346006F915F914F913F912F910F900FBE0F903B
S11346101F9018950F931F930FB7F894112740918B
S11346207A0150917B016091690570916A058091CE
S1134630C4069091C50610926A05109269051092FD
S1134640C5061092C40610927B0110927A01109252
S113465019041092180420E00E94F7200FBF1F9144
S11346600F910895EF92FF920F931F938091170477
S1134670843090F41092E70184E5E82EF12C012DAA
S1134680112D2EEC32E040E050E060E070E08091CB
S11346905E030E94C01130C061E081E00E94E60523
S11346A08823E9F48FB7F894282F332780914301A6
S11346B090914401892B11F02FBF1BC081E090E041
S11346C090934401809343012FBFDD9A0E94F60822
S11346D024E130E040E050E00E94B3090AC062E007
S11346E081E00E940006882321F461E081E00E94B9
S11346F0000683E08093E7011F910F91FF90EF90F4
S11347000895EF92FF920F931F938091E7018230F7
S113471009F04EC08091F3019927982F88272091A2
S1134720F4013327822B932BE816F906A9F0809124
S11347305E03813049F0813028F0823049F08330C3
S1134740B9F508C08AE001C08DE00E94A51B30C005
S11347508BE0FBCF8CE0F9CF409125034F5F409372
S113476025038091D6024817B0F481E08093E701D5
S11347705527440F551F40585F4F6627772792E00F
S1134780E92EF12C012D112D23EF31E080915E03F0
S11347900E94C0110DC0E0911704EF5FE09317046D
S11347A0FF27EE5EFE4F808180935E030E943223DA
S11347B01F910F91FF90EF900895CF92EF92FF9287
S11347C00F931F938930E9F08A3038F4873099F0D9
S11347D08830A8F4863001F50CC08231B1F0833101
S11347E018F48131C9F40FC0833189F08431A1F404
S11347F010C080E001C082E00E9481230DC083E0EC
S1134800FBCF81E0F9CF80E005C082E003C083E004
S113481001C081E00E94E0091F910F91FF90EF9089
S1134820CF9008958091E701823019F0833071F4BC
S1134830FBCFE0911704EF5FE0931704FF27EE5ED0
S1134840FE4F808180935E030E9432230895789402
S11348501F920F920FB60F9211241F932F933F9321
S11348604F935F936F937F938F939F93AF93BF9374
S1134870EF93FF9387B78F7E87BF78941FB7F89421
S113488080916E0390916F03A0917003B0917103B6
S11348900097A105B10509F051C08091480190919C
S11348A049018530910561F18630910530F48330FA
S11348B0910549F0049781F51AC087309105F1F00C
S11348C0089751F514C0869B0FC084E090E0909344
S11348D04901809348010E94F60827E030E040E057
S11348E050E00E94B30918C00E943F2015C00E94E6
S11348F04F14882389F40E9469200EC080E00AC006
S113490089E00E94FD1681E00E94810A83E00E94F2
S1134910981787E00E948117809143019091440188
S1134920019771F482E090E09093440180934301F5
S1134930DE98DE9A80E00E94F71302C00E941309F9
S1134940812F99278FBFFF91EF91BF91AF919F91D5
S11349508F917F916F915F914F913F912F911F9113
S11349600F900FBE0F901F901895EF92FF920F9328
S11349701F93CF93DF93CDB7DEB722970FB6F8948A
S1134980DEBF0FBECDBF60913F01862F82508230C3
S113499008F0CBC0E0908905FF2400271127102FD1
S11349A00F2DFE2CEE24209187053327442755270D
S11349B0522F442733272227809188059927AA2735
S11349C0BB27DC0199278827282B392B4A2B5B2B03
S11349D080918A059927AA27BB27282B392B4A2B94
S11349E05B2BE22AF32A042B152B8091170190915B
S11349F01801A0911901B0911A018E159F05A00705
S1134A00B10729F480917A05816080937A05623038
S1134A1061F580914101882309F087C081E080938A
S1134A20410183E00E94A225809117019091180111
S1134A30A0911901B0911A0180932904292F3A2FCA
S1134A404B2F5527209328049D0144275527209355
S1134A5027048B2F9927AA27BB27809326048091AC
S1134A601B0180932A0410922B0460912B04772756
S1134A7025E130E04FE655E0CE0101960E94CE03D9
S1134A80882321F081E00E94A2254FC08981809370
S1134A902B0420911B01422F5527662777271AE004
S1134AA0440F551F661F771F1A95D1F723E3829F82
S1134AB0C0011124AA27BB27480F591F6A1F7B1F57
S1134AC080914001823079F08330B1F0813011F06F
S1134AD081E01CC0B3E3EB2EF12C012D112D2CE24F
S1134AE034E082E011C0A3E3EA2EF12C012D112D54
S1134AF02CE234E080E008C0F3E3EF2EF12C012D2A
S1134B00112D2CE234E081E00E947311882369F0B6
S1134B100E94F204AB01BC01E1E0EE2E00E110E0E2
S1134B2020E030E080E00E94D30422960FB6F8948F
S1134B30DEBF0FBECDBFDF91CF911F910F91FF90CC
S1134B40EF900895823040F490913F01933011F03A
S1134B50953011F41092410180933F0108950F9311
S1134B601F938B019C0190913F01892F82508230C9
S1134B7000F58091170190911801A0911901B0914D
S1134B801A01081719072A073B074CF008171907D9
S1134B902A073B0751F580911B01481730F581E046
S1134BA00E94A22510926F05109270051092710553
S1134BB01CC094509230C8F480911C0190911D0146
S1134BC0A0911E01B0911F01081719072A073B077E
S1134BD04CF0081719072A073B0739F48091200184
S1134BE0841718F081E08093BC051F910F910895FC
S1134BF0CF92EF920F931F9384E02C32380769F51C
S1134C0080913F01833049F5CC2021F081E00E945E
S1134C10A22523C080918104909182048093200472
S1134C20892F99278093210482E58093250449E301
S1134C30B9016251704082E00E94771A882369F0BA
S1134C400E94F204AB01BC01A1E0EA2E00E110E0F5
S1134C5020E030E080E00E94D3041F910F91EF9098
S1134C60CF900895DF92EF92FF920F931F937B01F1
S1134C708C01D42E80913F01882319F481E00E9495
S1134C80A225E0921C01F0921D0100931E011093D5
S1134C901F01D09220018FEF80938E0380938F03A6
S1134CA08093900380E090E01F910F91FF90EF902C
S1134CB0DF90089580913F018430F1F580914101A6
S1134CC0882309F079C081E08093410185E00E9446
S1134CD0A225809181049091820480932704892FD6
S1134CE0992780932604809110019091110180935B
S1134CF02904892F99278093280480911C0190917D
S1134D001D01A0911E01B0911F0180932D04292F34
S1134D103A2F4B2F552720932C049D0144275527C8
S1134D2020932B048B2F9927AA27BB2780932A042F
S1134D308091200180932E0480913F018530E1F51C
S1134D408091BC05882331F080E00E943D1D1092C3
S1134D50BC05089580916103882321F481E00E94B9
S1134D60A225089580918E0380932F0480918F0350
S1134D7080933004809190038093310480912604C1
S1134D809927982F8827209127043327822B932B48
S1134D9080932004892F99278093210481E58093AF
S1134DA025044CE06AE174E081E00E94771A8823CC
S1134DB019F080E00E943D1D08958F929F92AF925A
S1134DC0BF92CF92DF92EF92FF920F931F93CF93F4
S1134DD0DF93CDB7DEB728970FB6F894DEBF0FBECA
S1134DE0CDBF4B015C01CC24DD24E4E8F4E0608514
S1134DF061FF21C12081318142815381E480F580AA
S1134E0006811781D501C401821B930BA40BB50B3A
S1134E108E159F05A007B10708F40DC160FF03C0FC
S1134E206D7F608708C02E0D3F1D401F511F2083DA
S1134E3031834283538383E0C81609F46EC08C1512
S1134E4038F0CC2071F082E0C81609F0FDC00EC025
S1134E5085E0C81609F496C086E0C81609F0F4C0C7
S1134E60A5C00E945A260E94B524EEC080917A05FE
S1134E7080FD2FC080913E01882359F58091100157
S1134E809091110180933102892F992780933002E8
S1134E9082E08093320210923302A4E3B2E0E7E8A6
S1134EA0F5E089E001900D928150E1F78FEF809356
S1134EB02A0280932B0280E580932F024EE064E265
S1134EC072E080E00E94771A882319F481E08093CD
S1134ED03E0190E080913F01823008F091E08091A2
S1134EE07A05992319F08170846007C0982F9695EC
S1134EF031F09150990F8170892B80937A058091BC
S1134F007A058E7F39F480917905863118F48F5FA4
S1134F10809379050E94371E97C02091A304309195
S1134F20A4044091A5045091A6048091710190912C
S1134F307201A0917301B09174010097A105B105AC
S1134F40F1F082179307A407B507C9F4809179019A
S1134F50882361F42FB7F894332780917E0481600D
S1134F6080937E042FBF87E10E943B0280E090E0A3
S1134F700E94E00680E00E946F15109279010E9461
S1134F80221C62C080916C01882309F05DC082E11B
S1134F900E945907882319F082E10E9485038091B9
S1134FA06C01882309F050C0D99A4EC080919A05AB
S1134FB09927853021F0863009F046C014C040E0BE
S1134FC050E060E070E080919F050E94CD086093FE
S1134FD0E1017093E2018093E3019093E40180E0A6
S1134FE00E94221331C08FB7F89448E050E08E013C
S1134FF00F5F1F4FB80180EF9FE00E9416102091B1
S113500010013091110189819A818217930749F027
S11350103A83298348E050E0B80180EF9FE00E9482
S1135020531088E190E029E00FB6F894A89581BD6B
S11350300FBE21BDFFCF0894C11CD11C399687E057
S1135040C816D10409F0D3CE82E00E943B02289610
S11350500FB6F894DEBF0FBECDBFDF91CF911F9185
S11350600F91FF90EF90DF90CF90BF90AF909F9003
S11350708F90089580919E048D7F80939E048091EB
S11350808C048D7F80938C0480E00E94A2258FEF96
S113509090E0A0E0B0E080931C0190931D01A093E8
S11350A01E01B0931F019FEF9093200110928E0375
S11350B010928F031092900310926F051092700556
S11350C01092710585E08093160190938A051092E1
S11350D08905109288051092870590938B0590930B
S11350E08E051092790580E090E00895EF92FF928A
S11350F00F931F9380918E05E82FFF2780918B05D6
S1135100E817A0F560918905772788279927982FB4
S1135110872F762F6627E0908705FF240027112725
S11351201E2D0027FF24EE242091880533274427D1
S11351305527A90133272227E22AF32A042B152B0A
S113514020918A05332744275527E22AF32A042B82
S1135150152B6E297F29802B912B4E2F0E943226EE
S113516084E080937A050E94911E1BC04FEF6FEF7D
S113517070E080E090E00E9432260E943A2881E0AC
S1135180809316018091CE01823031F0833031F06A
S1135190813039F485E003C083E001C084E00E94DB
S11351A0461B1F910F91FF90EF90089583E0809329
S11351B016018091E8019091E901A091EA01B09172
S11351C0EB0180938A05292F3A2F4B2F55272093E3
S11351D089059D0144275527209388058B2F9927FE
S11351E0AA27BB2780938705809165059091660562
S11351F0A0916705B09168050197A109B1093AE04A
S1135200B695A795979587953A95D1F78F5F809333
S11352108B0510928E0545E067E875E080E090E02C
S11352200E940E0880938D05892F992780938C0501
S113523080911601833011F40E94911E84E08093C2
S113524016018091CE01809340010E947628089532
S11352508D3089F18E3080F4853001F1863028F468
S11352608330E1F08430F1F519C08B3001F18C30DA
S113527000F58A30B9F519C0853149F1863138F421
S11352808F30F9F08F30D8F0803161F51CC0873150
S113529011F18731F0F0883129F521C08091160190
S11352A0882301F50E94D628089580E005C082E095
S11352B003C083E001C081E00E941224089582E0CB
S11352C003C083E001C081E00E94CE09089580E01C
S11352D003C082E001C083E00E94081C089581E0BD
S11352E00E94081C0895CF92EF92FF920F931F9390
S11352F0CF93DF93CDB7DEB722970FB6F894DEBF16
S11353000FBECDBF80914C03482F552789E390E011
S1135310489FF001499FF00D589FF00D1124CF01D3
S1135320895A994F2817390709F0EBC0CC2041F06E
S11353308FEF80938E0380938F0380939003D8C064
S1135340EA5AF94F20813327E22FE695E695E69550
S1135350FF27E257FC4F2770307081E090E002C0D5
S1135360880F991F2A95E2F78095208128232083AE
S1135370CA01019662E070E00E943D4480934C03B0
S113538080911B02815080931B0225E130E04EE89E
S113539053E060E070E0CE0101960E94CE038823C2
S11353A009F4A9C0D99A60912001E0908905FF24ED
S11353B000271127102F0F2DFE2CEE242091870596
S11353C0332744275527522F4427332722278091F8
S11353D088059927AA27BB27DC0199278827282B2A
S11353E0392B4A2B5B2B80918A059927AA27BB2747
S11353F0282B392B4A2B5B2BE22AF32A042B152B5F
S113540080911C0190911D01A0911E01B0911F017A
S11354108E159F05A007B10709F067C080918E051E
S1135420681709F062C06F5F60938E0545E067E816
S113543075E080E090E00E940E0880938D05892F2E
S1135440992780938C0580918E05E82FFF27809102
S11354508B05E81718F40E94762847C060918905E7
S1135460772788279927982F872F762F6627E0900C
S11354708705FF24002711271E2D0027FF24EE2473
S113548020918805332744275527A901332722274C
S1135490E22AF32A042B152B20918A05332744276B
S11354A05527E22AF32A042B152B6E297F29802BFA
S11354B0912B4E2F0E94322681E080931601809119
S11354C0CE01823041F0833041F0813011F081E02F
S11354D007C085E003C083E001C084E00E94461B4E
S11354E0882319F080E00E943B0281E00E94A225FB
S11354F010921B0206C080911B02882311F00E94A7
S11355002A1222960FB6F894DEBF0FBECDBFDF91EC
S1135510CF911F910F91FF90EF90CF900895CF926C
S1135520EF92FF920F931F938531C1F0863138F4C7
S1135530843071F0853081F08330C1F507C0873144
S1135540E9F0873198F0883189F520C082E001C004
S113555083E00E9473292AC081E0FBCF80916C0113
S1135560823021F52E5C364009F517C080916C011C
S11355708230E1F42E5C3640C9F40FC080916C0196
S11355808230A1F42E5C364089F407C080916C010E
S1135590823061F42E5C364049F410926C0141E093
S11355A050E060E070E08C2D0E9484071F910F9101
S11355B0FF90EF90CF9008958F929F92AF92BF92F9
S11355C0CF92DF92EF92FF920F931F934B015C01F6
S11355D069017A010E943A2882E080931601809240
S11355E08A05BB27AB2D9A2D892D80938905C5018A
S11355F0AA27BB27809388058B2C9924AA24BB2433
S1135600809287050894C108D108E108F1083AE0BE
S1135610F694E794D794C7943A95D1F7C394C0927B
S11356208B05C0928E0545E067E875E080E090E068
S11356300E940E0880938D05892F992780938C05ED
S113564080911601823011F40E94911E84E08093AF
S113565016010093400140918B05552760918905FF
S1135660772788279927982F872F762F6627C0902A
S11356708705DD24EE24FF24FC2CEE24DD24CC2439
S11356800091880511272227332798011127002725
S1135690C02AD12AE22AF32A00918A051127222757
S11356A03327C02AD12AE22AF32A6C297D298E299C
S11356B09F290E94322680E090E01F910F91FF9075
S11356C0EF90DF90CF90BF90AF909F908F90089510
S11356D08F929F92AF92BF92CF92DF92EF92FF92FE
S11356E00F931F93CF93DF93E82FE9018091E70194
S11356F0813009F4C5C1813008F468C1843009F0EF
S1135700FFC183E08093E7018091BB05882321F0EA
S1135710813009F0F5C176C0AA80BB24CC24DD24F5
S1135720DC2CCB2CBA2CAA242881332744275527D8
S1135730522F44273327222789819927AA27BB2759
S1135740DC0199278827282B392B4A2B5B2B8B814B
S11357509927AA27BB27282B392B4A2B5B2BA22A54
S1135760B32AC42AD52AE0905603FF240027112720
S1135770102F0F2DFE2CEE242091540333274427A1
S11357805527522F442733272227809155039927E1
S1135790AA27BB27DC0199278827282B392B4A2BDA
S11357A05B2B809157039927AA27BB27282B392BDA
S11357B04A2B5B2BE22AF32A042B152BAE14BF04CD
S11357C0C006D106C9F480915303843099F440E0B3
S11357D050E060E070E08E2F0E94CD086093E101FC
S11357E07093E2018093E3019093E40180E00E94CE
S11357F0221386C181E001C082E0809358010E9497
S1135800C4137EC1E0939F058C2D0E944307CC20D6
S113581009F076C180919A058350823008F070C1F6
S1135820EA80FF2400271127102F0F2DFE2CEE24D1
S11358302881332744275527522F442733272227EB
S113584089819927AA27BB27DC0199278827282B38
S1135850392B4A2B5B2B8B819927AA27BB27282B13
S1135860392B4A2B5B2BE22AF32A042B152BE092CB
S11358709E05BB27A12F902F8F2D80939D05C801D6
S1135880AA27BB2780939C05E12EFF24002711271C
S1135890E0929B05FE013496E280FF240027112745
S11358A0102F0F2DFE2CEE242C813327442755274F
S11358B0522F44273327222781819927AA27BB27E0
S11358C0DC0199278827282B392B4A2B5B2B8381D2
S11358D09927AA27BB27282B392B4A2B5B2BE22A93
S11358E0F32A042B152BE092A305BB27A12F902F9D
S11358F08F2D8093A205C801AA27BB278093A105F9
S1135900E12EFF2400271127E092A0058AE995E003
S11359100E94E11C00919F0511272091A2053327C5
S113592044275527542F432F322F2227C090A005F8
S1135930DD24EE24FF24FC2CEE24DD24CC248091F1
S1135940A1059927AA27BB27DC0199278827C82AFC
S1135950D92AEA2AFB2A8091A3059927AA27BB27DB
S1135960C82AD92AEA2AFB2A2C293D294E295F294B
S113597060919D05772788279927982F872F762F61
S1135980662780909B059924AA24BB24B82CAA24BA
S113599099248824C0909C05DD24EE24FF247601FC
S11359A0DD24CC248C289D28AE28BF28C0909E05D9
S11359B0DD24EE24FF248C289D28AE28BF286829E6
S11359C079298A299B290E94DC2A9AC0CC2009F0D3
S11359D097C0E090D002FF2400271127102F0F2D2D
S11359E0FE2CEE242091CE02332744275527522F34
S11359F04427332722278091CF029927AA27BB2740
S1135A00DC0199278827282B392B4A2B5B2B809183
S1135A10D1029927AA27BB27282B392B4A2B5B2B8A
S1135A20E22AF32A042B152B8FEFE8168FEFF806E2
S1135A308FEF08078FEF1807A9F01092250381E074
S1135A408093E70172E0E72EF12C012D112D23EF55
S1135A5031E040E850E060E070E080915E030E9435
S1135A60C0114EC0E0911704EF5FE0931704FF27C5
S1135A70EE5EFE4F808180935E030E94322340C01D
S1135A8082E08093E701609125037727882799278F
S1135A9020E534E040E050E00E94FE43AB01BC014D
S1135AA040585E4F6F4F7F4F80915E03813079F095
S1135AB0813028F0823099F0833011F518C0EE243B
S1135AC0FF2400E514E020E030E086E017C0EE2477
S1135AD0FF2400E514E020E030E089E00FC0EE246C
S1135AE0FF2400E514E020E030E087E007C0EE2466
S1135AF0FF2400E514E020E030E088E00E949112E9
S1135B00DF91CF911F910F91FF90EF90DF90CF9095
S1135B10BF90AF909F908F900895CF92EF92FF9295
S1135B200F931F93883051F1893070F4823001F162
S1135B30833028F48823B1F0813079F515C086309C
S1135B40C9F0873051F518C0823101F1833128F44E
S1135B508930B1F0813109F517C08331C9F084313E
S1135B60E1F418C082E001C083E00E94F82515C06A
S1135B7081E0FBCF80E005C082E003C083E001C088
S1135B8081E00E94682B09C080E005C082E003C068
S1135B9083E001C081E00E94AF081F910F91FF9044
S1135BA0EF90CF900895CF92DF92EF92FF920F93F0
S1135BB01F93CF93DF93C82E7B01D0902C01CD2D62
S1135BC0DD278BE090E0C89FF001C99FF00DD89FBE
S1135BD0F00D1124EF56FC4F10818FEF80932C01B0
S1135BE0108281E0D81659F0D81638F082E0D81621
S1135BF041F083E0D81651F406C080E005C081E08E
S1135C0003C082E001C083E00E948114133009F4D0
S1135C10A3C0143030F41130B1F1123009F0AEC029
S1135C205EC0143021F0153009F0A8C06CC0E090BB
S1135C307502F090760200917702109178028BE061
S1135C4090E0C89FF001C99FF00DD89FF00D11247A
S1135C50EF56FC4F438154816581768121813281E5
S1135C6081E0D81649F0D81638F082E0D81621F031
S1135C7083E0D81609F082C010924E018091C906C3
S1135C800E948D2D7BC0E0907502F0907602009109
S1135C907702109178028BE090E0C89FF001C99FD1
S1135CA0F00DD89FF00D1124EF56FC4F4381548121
S1135CB0658176812181328181E0D81649F0D81638
S1135CC038F082E0D81621F083E0D81609F056C0E7
S1135CD010924E018091C9060E948F2A4FC081E024
S1135CE0D81649F0D81638F082E0D81621F083E0AF
