S01700006275696C642F697269732F6D61696E2E7372656343
S11300000C9407020C9426020C9426020C942602EB
S11300100C9426020C9426020C9426020C942602BC
S11300200C9426020C9426020C9426020C942602AC
S11300300C9426020C946B110C9426020C94180C4C
S11300400C947D1F0C94B31F0C94CF0C0C94DA0CFD
S11300500C94E50C0C9426020C9426020C942602B3
S11300600C942C0C0C94C20E0C9426020C94450F88
S11300700C9426020C9426020C9426020C949C10D8
S11300800C947B100C9486100C9491100C94AF106B
S11300900C945E100C9426020C9470100C9426029E
S11300A00C9426020C9426020C9426020C9426022C
S11300B00C9426020C9426020C9426020C9426021C
S11300C00C9426020C9426020C942602ED11F211D3
S11300D0E811ED11F211E811E311ED11F211E8113B
S11300E0E311ED11F211E811ED11F211E811E31130
S11300F0ED11F211E811E311ED11F211E811A11261
S1130100A6129C12A112A6129C129712A112A61258
S11301109C129712A112A6129C12A112A6129C1252
S11301209712A112A6129C129712A112A6129C1247
S1130130111318130A13111318130A1303131113A9
S113014018130A130313111318130A131113181392
S11301500A130313111318130A1303131113181397
S11301600A135F166A1654165F166A165416491651
S11301705F166A16541649165F166A1654165F16E9
S11301806A16541649165F166A16541649165F16EF
S11301906A165416BF16CA16B416BF16CA16B41673
S11301A0A916BF16CA16B416A916BF16CA16B416CF
S11301B0BF16CA16B416A916BF16CA16B416A916BF
S11301C0BF16CA16B4167035743578357C35AF351C
S11301D00A360E361236163639374D37B437A33B46
S11301E0493CAD3BC13BA63D4F3C563CA03CB73DD2
S11301F0BA3D283FBD3DC03DC33DA73ECD3ED13EA7
S1130200DC3E0F3F123F153F0000211042206330B7
S11302108440A550C660E770088129914AA16BB15A
S11302208CC1ADD1CEE1EFF1311210027332522202
S1130230B5529442F772D662399318837BB35AA3AA
S1130240BDD39CC3FFF3DEE36224433420040114D2
S1130250E664C774A44485546AA54BB528850995FA
S1130260EEE5CFF5ACC58DD55336722611163006A2
S1130270D776F6669556B4465BB77AA7199738874A
S1130280DFF7FEE79DD7BCC7C448E5588668A77862
S11302904008611802282338CCC9EDD98EE9AFF99A
S11302A0488969990AA92BB9F55AD44AB77A966A42
S11302B0711A500A333A122AFDDBDCCBBFFB9EEBEA
S11302C0799B588B3BBB1AABA66C877CE44CC55C12
S11302D0222C033C600C411CAEED8FFDECCDCDDD3A
S11302E02AAD0BBD688D499D977EB66ED55EF44EE2
S11302F0133E322E511E700E9FFFBEEFDDDFFCCF8A
S11303001BBF3AAF599F788F8891A981CAB1EBA1DD
S11303100CD12DC14EF16FE18010A100C230E32059
S11303200450254046706760B9839893FBA3DAB301
S11303303DC31CD37FE35EF3B1029012F322D232A9
S11303403542145277625672EAB5CBA5A8958985D1
S11303506EF54FE52CD50DC5E234C324A0148104F9
S11303606674476424540544DBA7FAB79987B897A1
S11303705FE77EF71DC73CD7D326F2369106B01649
S113038057667676154634564CD96DC90EF92FE961
S1130390C899E9898AB9ABA9445865480678276899
S11303A0C018E1088238A3287DCB5CDB3FEB1EFB41
S11303B0F98BD89BBBAB9ABB754A545A376A167AE9
S11303C0F10AD01AB32A923A2EFD0FED6CDD4DCD11
S11303D0AABD8BADE89DC98D267C076C645C454C39
S11303E0A23C832CE01CC10C1FEF3EFF5DCF7CDFE1
S11303F09BAFBABFD98FF89F176E367E554E745E89
S1130400932EB23ED10EF01E00020E060C041124EF
S11304101FBECFEFD1E2DEBFCDBF12E0A0E0B2E05D
S1130420E8E8F8E800E00BBF02C007900D92A6349C
S1130430B107D9F718E0A6E4B2E001C01D92A330D9
S1130440B107E1F70E945E3F0C9443440C94000012
S11304508FB7F894992708958FBF08959091340425
S11304609923A1F021E0EBEBF6E0892F822329F018
S113047011821082822F80959823329686E0EB3C7D
S1130480F80711F0220FF1CF909334040895282F28
S11304909FB7F894E82FFF27EC5FFC4F80818F3FD4
S11304A081F4E091DB07E21771F40BC02093BF06DF
S11304B004C0FF27EC5FFC4F20832093DB0720E080
S11304C007C025E005C08091BF068F3F91F7EECFAE
S11304D0892F99278FBF822F992708958AE00E9438
S11304E047029927089583E10E94470299270895B6
S11304F088E00E9447029927089581E00E944702FC
S1130500992708951F931FB7F8948091A307882310
S113051041F489E10E944702882319F481E0809321
S1130520A307812F99278FBF1F910895382FFA01B0
S1130530422F2D3118F082E090E008956683872FD2
S1130540992785833387218780916502909166027C
S1130550892B19F085E090E008952FB7F89433279C
S113056085E08093680210926902F0936402E0933C
S1130570630282E090E09093660280936502109299
S11305806B0210926A02445F409367022FBF8FB7D9
S1130590F894282F3327809165068A3011F42FBFF1
S11305A019C02FBF9FB7F89480915E04882311F07F
S11305B020E006C081E080935E0410925F0421E095
S11305C0892F99278FBF222329F00E94820280E07D
S11305D090E00895109266021092650281E090E026
S11305E00895809117028093B00780911802809338
S11305F0B3078091190290911A028093B207892F50
S113060099278093B107809148028093B407809121
S1130610490290914A028093B607892F99278093C3
S1130620B50780914B028093B707809147028823D6
S113063069F428E044EA57E06FEF7FEF89E80E940D
S11306409602882319F481E08093470208951F934A
S1130650CF93DF93E82FFF27EE0FFF1FE554F94FE9
S113066011821082809143029927019662E070E022
S11306700E94B143682F8093430210E0462F552710
S1130680FA01EE0FFF1FE554F94FA081B1811097D5
S113069099F0E62FE695E695E695FF27EC5CFB4F8F
S11306A0808199279A012770307002C095958795AB
S11306B02A95E2F780FF0DC0CA01019662E070E05E
S11306C00E94B143682F1F5F1230C1F6109343029A
S11306D01AC0609343026230B0F4FD013596248160
S11306E03327ED016D817727762F6627818199273E
S11306F0682B792BAD0186810E949602882319F01C
S113070080E20E944702DF91CF911F9108951F93C9
S1130710982F1FB7F89480915902823099F58091EF
S11307203B02891779F58091390220E030E08F3F50
S113073011F421E030E0232BF1F49FEF90933B027E
S11307408F3F19F42FEF30E00DC0282F3327F90124
S1130750ED50FC4F8081809339028F3F11F49093C8
S11307603A02908320939D0781E08093590285E1AA
S11307700E94470205C08FEF80933B0210925902FA
S113078021E001C020E0812F99278FBF90E0213024
S113079009F491E081E09827892F99271F91089502
S11307A06D3118F080E090E008950C960895CF9292
S11307B0DF92EF92FF920F931F93CF93DF936C011D
S11307C08B017A01E901232B19F1FB01B3E0F695C2
S11307D0E795BA95E1F7EE0DFF1D808199279B01FE
S11307E02770307002C0959587952A95E2F780FFAF
S11307F006C0F6017183608380E090E00BC0CB01FA
S11308000196BE010E949D43BC0180179107E9F641
S113081081E090E0DF91CF911F910F91FF90EF90D5
S1130820DF90CF900895CF93DF93982F8FB7F894EC
S1130830282F3327422F80915802882321F581E005
S11308408093580290938F062FBF8FB7F894C82FC8
S1130850DD279C2F80913802843099F480915802CE
S1130860813021F484E10E94470209C0823049F4B6
S113087080918F068093380283E080935802CFBF23
S113088007C09FBF05C080918F06891721F42FBF31
S113089080E090E021C0E92FFF27EA53F94F8081DF
S11308A08F3F89F4E0913702E91789F40CC09093E3
S11308B0360204C0FF27EA53F94F9083909337021E
S11308C080E090E002C085E090E04FBF05C08091D9
S11308D036028F3F79F7EBCFDF91CF910895CF9216
S11308E0DF92EF92FF920F931F93CF93DF93782FB2
S11308F0C62FDD278BE090E0C89FF001C99FF00D63
S1130900D89FF00D1124E653FB4F8081882319F002
S113091085E090E048C0643018F480E091E002C0C3
S113092080E090E0AA27BB27BA2FA92F982F882709
S113093082179307A407B507A0F1821B930BA40B9E
S1130940B50B8C159D05AE05BF0558F18BE090E005
S1130950C89FF001C99FF00DD89FF00D1124E653F4
S1130960FB4F70832383348345835683C782D086A9
S1130970E186F28612830183613069F0613028F0E8
S1130980623059F0633059F003C080E00E941304D0
S113099080E090E008C081E0F9CF82E0F7CF83E007
S11309A0F5CF86E090E0DF91CF911F910F91FF90FA
S11309B0EF90DF90CF9008957FB7F8946091B200E4
S11309C02091FF02309100034091010350910203F2
S11309D0B99B11C08091B3009091B200280F311DD2
S11309E0411D511D2F5F3F4F4F4F5F4F290F311D49
S11309F0411D511D04C0260F311D411D511D872F5E
S1130A0099278FBFCA01B90108952F923F924F923F
S1130A105F926F927F928F929F92AF92BF92CF928A
S1130A20DF92EF92FF920F931F93CF93DF93CDB793
S1130A30DEB729970FB6F894DEBF0FBECDBF6FB7F0
S1130A406983F894209028043090290440902A0463
S1130A5050902B04662477248824BEE4AB2EA3E8AC
S1130A60BA2ECC24DD24EE24FF2400E010E0222D55
S1130A70332D442D552D662D772D882D90E00E9421
S1130A80FD412A833B834C835D836E837F83888708
S1130A909987822E932EA42EB52E2401350100E2CF
S1130AA00E94FB42A22EB32EC42ED52EA301920186
S1130AB056954795379527952A0D3B1D4C1D5D1D71
S1130AC057FF05C05F772F5F3F4F4F4F5F4F209316
S1130AD028043093290440932A0450932B04E98179
S1130AE08E2F99278FBFCA01B90129960FB6F894A2
S1130AF0DEBF0FBECDBFDF91CF911F910F91FF904D
S1130B00EF90DF90CF90BF90AF909F908F907F90A9
S1130B106F905F904F903F902F9008950E9405052D
S1130B20DC01CB010895FC016230710510F460E032
S1130B3070E071A760A708950B9608951F93982FEE
S1130B401FB7F89480915202823099F580912D025A
S1130B50891779F580912B0220E030E08F3F11F462
S1130B6021E030E0232BF1F49FEF90932D028F3F8F
S1130B7019F42FEF30E00DC0282F3327F901E1518C
S1130B80FC4F808180932B028F3F11F490932C02B1
S1130B9090832093EB0381E08093520287E00E94CC
S1130BA0470205C08FEF80932D021092520221E07C
S1130BB001C020E0812F99278FBF90E0213009F4F4
S1130BC091E081E09827892F99271F91089580E06B
S1130BD00E949E05992708954FB7F8945527FC0164
S1130BE023E0F695E7952A95E1F7E25CF94F8770E3
S1130BF0907021E030E002C0220F331F8A95E2F7A3
S1130C008081822B80834FBF0895FC016683672F08
S1130C10772765830895CF93DF93582FDB018230C4
S1130C2018F081E090E038C0C82FDD27CC0FDD1F1D
S1130C30C554D94F88819981892B19F085E090E0BA
S1130C402BC0798368839B012B5F3F4FF901448359
S1130C5080914302823018F480E090E01DC0F901D5
S1130C608681FB0165817727762F6627F90121812B
S1130C703327622B732B50934302242FAD010E9420
S1130C8096029927282F882329F082E08093430233
S1130C9019821882822F9927DF91CF9108950F939B
S1130CA01F9380936F0303E613E06FEF7FEFC80198
S1130CB00E94050684E580936E0341E0B80181E05B
S1130CC00E940B061F910F9108959FB7F894292F46
S1130CD03327422F90913B02981741F48091590297
S1130CE0823021F42FBF81E090E008954FBF80E06F
S1130CF090E00895982F8FB7F894282F3327809188
S1130D005902882349F482E08093590290933B026C
S1130D102FBF80E090E008952FBF81E090E0089518
S1130D20CF92DF92EF92FF920F931F937A018B0180
S1130D3080930205A6EFCA2EA4E0DA2E6FEF7FEFB0
S1130D40C6010E94050683E5809301054E2DB60178
S1130D5080E00E940B061F910F91FF90EF90DF90AF
S1130D60CF9008958FB7F894992722B134E02327C0
S1130D7022B98FBF0895882319F08CB5806402C00E
S1130D808CB58F7B8CBD0895882319F08CB5806851
S1130D9002C08CB58F778CBD08950F931F9380E0AC
S1130DA00E94BB060FB7F8941127229A2398219A20
S1130DB0209A8CB580618CBD80E00E94C4068CB5FD
S1130DC0877F8CBD8CB58B7F8CBD81E00E94BB0678
S1130DD08DB581608DBD8CB58C7F8CBD0FBF1F918F
S1130DE00F9108950F931F93CF93DF93182F0FB78D
S1130DF0F89480915502882311F40E94CD06802F27
S1130E0099278FBF8FB7F894C82FDD272C2F809197
S1130E105502882361F481E08093550210935804AD
S1130E208FE00E944702CFBF80E090E021C0E12F15
S1130E30FF27EA5CFB4F80818F3F89F4E091330206
S1130E40E11789F40CC01093320204C0FF27EA5C56
S1130E50FB4F10831093330280E090E002C085E0E2
S1130E6090E02FBF05C0809132028F3F79F7EBCF1E
S1130E70DF91CF911F910F9108958FB7F894282F88
S1130E803327922F80913402882331F480915502C4
S1130E90823011F42FBF13C09FBF8FB7F894282F4F
S1130EA0332780915502882369F482E080935502A8
S1130EB0109234022FBF0E94CD06209A289A81E016
S1130EC090E008952FBF80E00E94F20680E090E059
S1130ED008958FB7F894209171053091720540916F
S1130EE0730550917405E0918400F0918500B09BE6
S1130EF008C02F5F3F4F4F4F5F4FE0918400F09148
S1130F00850099278FBFC901772766279F0144274A
S1130F105527622B732B842B952B0895FC0186A5F2
S1130F20826086A708958A960895FC018281992794
S1130F30982F882721813327822B932B25E09695A0
S1130F4087952A95E1F7817090700895AC01EFB709
S1130F50F8942091840030918500C901841B950B7D
S1130F6003968617970720F0B9016D5F7F4F02C083
S1130F70640F751F6115710511F461E070E0615033
S1130F807040709389006093880082E086BB8091F2
S1130F906F00826080936F008E2F99278FBF089512
S1130FA0CF93DF93EC010E949507882339F18A815E
S1130FB029819927982F88273327822B932B87748D
S1130FC09C7C81549848D1F48F814E812FB7F8943A
S1130FD0332760912802709129022FBF20E09927BE
S1130FE0982F88275527842B952B8617970709F068
S1130FF021E081E02827822F992702C080E090E039
S1131000DF91CF9108954F925F926F927F928F926A
S11310109F92AF92BF92CF92DF92EF92FF920F9383
S11310201F93CF93DF932C0180917F02882309F0D3
S113103085C180919E07853009F080C10E943D07DB
S1131040882309F47BC180919B06882309F076C12B
S11310506EE2862E912C840C951CF20186A582FDED
S113106002C090E003C0F20190A99F7080919104A6
S1131070981781F090939104289885EC8EBD0DB457
S113108007FEFDCF8EB590689EBD0DB407FEFDCF63
S11310908EB5289AE20121968981F201218140E0EE
S11310A09927982F88273327822B932B87749C7C2E
S11310B08154984809F441E0442301F1289886E8D2
S11310C08EBD0DB407FEFDCF8EB51EBC0DB407FE5C
S11310D0FDCF8EB5289A99278F71907020912C049A
S11310E04091F003240F312D311D43E035952795B0
S11310F04A95E1F7281739070CF420C1289882ECA7
S11311008EBD0DB407FEFDCF8EB589E08EBD0DB446
S113111007FEFDCF8EB5289A0E9469077B018C01DA
S1131120D4018C9184FD03C0E0E0F0E005C0F2013D
S113113080818550E80FF11D289881E88EBD0DB49B
S113114007FEFDCF8EB51EBC0DB407FEFDCF8EB5D8
S1131150289A8F71893079F0289882EC8EBD0DB46D
S113116007FEFDCF8EB586E08EBD0DB407FEFDCF24
S11311708EB5289AE3C08FB7F89499272F9A2091B7
S11311808400309185008FBF2F98289880E68EBD0B
S1131190D2019C910DB407FEFDCF8EB59EBD792F73
S11311A07250773010F4672F01C067E0DE01962F8C
S11311B04D910DB407FEFDCF8EB54EBD9150C1F7D4
S11311C06150C60FD11D6F5F21962E193F092E5510
S11311D03F4F3901882477FC8094982C6E0C7F1C37
S11311E0801E911E309719F4972F961B42C02081C0
S11311F0E1808281A3809927AA27BB27BA2FA92F30
S1131200982F8827332744275527522F44273327DD
S11312102227FF24002711278701FF24EE242E29EB
S11312203F29402B512BBB24CC24DD242A293B29E4
S11312304C295D29822B932BA42BB52B8619970956
S1131240A809B9098383292F3A2F4B2F55272283C5
S11312509D014427552721838B2F9927AA27BB2734
S11312608083C2CF28810DB407FEFDCF21968EB5B1
S11312702EBD9150B8F70DB407FEFDCF8EB5289A58
S1131280289882EC8EBD0DB407FEFDCF8EB586E0A6
S11312908EBD0DB407FEFDCF8EB5289A3097D1F1DF
S11312A02081E1808281A3809927AA27BB27BA2FB6
S11312B0A92F982F8827332744275527522F4427AF
S11312C033272227FF24002711278701FF24EE2438
S11312D02E293F29402B512BBB24CC24DD242A2941
S11312E03B294C295D29822B932BA42BB52B860DEE
S11312F0971DA81DB91D8383292F3A2F4B2F5527DE
S113130022839D014427552721838B2F9927AA27C0
S1131310BB278083C2010E948E07C2010E949307EB
S1131320FC01608271828282938286E080939E07B0
S113133084E080937F0280E090E002C085E090E04A
S1131340DF91CF911F910F91FF90EF90DF90CF909D
S1131350BF90AF909F908F907F906F905F904F90D1
S1131360089521E020935B0420933C06209184009F
S113137030918500BC01C9010E94A6070895EF922F
S1131380FF920F931F937C018FB7F89499270091D4
S11313906806109169060F5E1E4F1093690600934C
S11313A06806015111408FBF8CE00E944702C801BA
S11313B0B7010E949D438A5D9E4F1F910F91FF903C
S11313C0EF900895809165068A3021F4809113048A
S11313D0843021F081E08093600208958BE10E94C3
S11313E047021092600208952FB7F8943327809330
S11313F0C600E0ECF0E08081806480832FBF089514
S1131400FC016115710519F481E090E00895809163
S1131410590490915A04892B19F085E090E00895BD
S113142070939F0660939E06F0935A04E0935904C8
S1131430109215041092140481E080931604809194
S1131440C00080648093C0008091C1008064809358
S1131450C100808121E030E030931504209314040E
S11314600E94F40980E090E008958FB7F8949927DA
S1131470209171022E7F209371022EE72093260380
S11314808FBF61E070E086E293E00E94000A992732
S11314900895E8E0F2E06927660FF11DE60FF11DFB
S11314A0C895982F802D3196C895902508951F933F
S11314B0CF93DF93142FEB0104C069910E94490A72
S11314C011501123D1F7DF91CF911F910895462F29
S11314D0BC0180E090E00E94570A0895CF92EF92F9
S11314E0FF920F931F9380917202833079F42350FB
S11314F0354061F4109272020894E11CF11C011D44
S1131500111DB801A7018C2D0E9490061F910F9107
S1131510FF90EF90CF900895823089F0833028F4C3
S11315208823A9F0813029F407C0833059F084302E
S113153061F060E078E00BC060507F4F08C0685DE8
S11315407E4F05C0685D7D4F02C0685D7C4FCB0156
S11315500895EF92FF920F931F937A018B01252F29
S1131560362F472F5527B9010E948C0AAA27BB277B
S1131570BA2FA92F982F88272FEFE222FF24970153
S113158044275527820F931FA41FB51FBC01CD010B
S11315901F910F91FF90EF90089510925F02833096
S11315A031F0843041F0823049F480E101C08EE0B2
S11315B00E94870308958FE00E9487030895CF92C5
S11315C0EF92FF9280917202843089F41092720239
S11315D0CC2031F4E09204058F2D992780930305E4
S11315E043E050E060E070E08C2D0E949006FF9094
S11315F0EF90CF900895862F90917202913011F060
S1131600963041F41092720241E050E060E070E0E4
S11316100E9490060895813059F0813038F082306C
S113162049F0833059F080E090E0089580E003C0F1
S113163083E001C084E00E948C0A089582E00E9445
S11316408C0A0895982F4FB7F89455272BB1277D0E
S11316502BB980E097FD5B9A5D9A4A9980682BB913
S113166096FD5B9A5D9A4A9980642BB995FD5B9AC5
S11316705D9A4A9980622BB994FD5B9A5D9A4A9966
S113168080612BB993FD5B9A5D9A4A9988602BB966
S113169092FD5B9A5D9A4A9984602BB991FD5B9A9D
S11316A05D9A4A9982602BB990FD5B9A5D9A4A993A
S11316B081604FBF99270895FC0180A591A50895E5
S11316C08FB7F894992722B131E0232722B98FBF2D
S11316D008958FB7F894992722B132E0232722B9CD
S11316E08FBF0895DF92EF92FF920F931F938FB7EE
S11316F0F894282F3327D22E9091B3008091B20012
S113170047B3981711F041FF02C02FBF71C08091F9
S113171019048823E1F10E94DC04E090C402F090F3
S1131720C5020091C6021091C7022091CB063091E8
S1131730CC064091CD065091CE066E197F09800BE0
S1131740910B621773078407950720F01092190410
S113175071E01EC02E0D3F1D401F511F8091FF02DE
S113176090910003A0910103B0910203281B390B4F
S11317704A0B5B0B273E31054105510540F4822F8E
S1131780223010F070E005C070E082E002C070E02A
S113179086EE682F61508091B60083FDFCCF809166
S11317A0B200681709F46F5F2091FF0230910003C3
S11317B04091010350910203DA01C9010196A11D70
S11317C0B11D860F911DA11DB11D82179307A4079A
S11317D0B50710F4622F60958091B60083FDFCCFAD
S11317E06093B300DFBE772319F083E00E944702C1
S11317F01F910F91FF90EF90DF900895AFB7F89489
S1131800BB27E1E0E09319046093C4027093C5021E
S11318108093C6029093C7022093CB063093CC06E4
S11318204093CD065093CE06AFBF0E94720B08952D
S11318301F920F920FB60F9211248F938091B000D4
S11318408093B0008091B60081FDFCCF8F910F9002
S11318500FBE0F901F9018951F920F920FB60F9204
S113186011240F931F932F933F934F935F936F9381
S11318707F938F939F93AF93BF93CF93DF93EF9314
S1131880FF932EB5E0913806F0913906309739F080
S11318908091300590913105E80FF91F20838091E4
S11318A03005909131050196909331058093300570
S11318B080E00E94C406C0913005D091310520918A
S11318C0800230918102C217D30708F042C0009110
S11318D09B0710919C074091380650913906CE0120
S11318E00A962817390708F4C901DA01AC0FBD1F9D
S11318F0F801EC0FFD1F9C012150304015C001156B
S1131900110531F080818EBD0DB407FEFDCF04C0FA
S11319101EBC0DB407FEFDCF8EB54115510509F06F
S11319208C93219611963196C217D30740F381E028
S11319300E94C4060115110531F00C0F1D1FF8019A
S113194080818EBD01C01EBCD0933105C09330058B
S113195011C0109239061092380610929C0710920A
S11319609B0710928102109280021092310510920E
S113197030058EB5FF91EF91DF91CF91BF91AF917B
S11319809F918F917F916F915F914F913F912F9193
S11319901F910F910F900FBE0F901F901895789480
S11319A01F920F920FB60F9211240F900FBE0F903B
S11319B01F90189578941F920F920FB60F921124CE
S11319C00F900FBE0F901F90189578941F920F924E
S11319D00FB60F9211242F933F938F939F93AF933E
S11319E0BF932FB7F89433278091710590917205B6
S11319F0A0917305B09174050196A11DB11D80934A
S1131A00710590937205A0937305B09374052FBF6D
S1131A10BF91AF919F918F913F912F910F900FBEE6
S1131A200F901F901895982F80916C02882389F548
S1131A30992379F531E030936C0280913C028093D4
S1131A406D0220916102822F81708093CA0280917D
S1131A5041029091420290936F0280936E028091B2
S1131A6062028093700232273170267EE32FFF27B3
S1131A70EE0FFF1FE35CFD4F808191819093420242
S1131A8080934102232B209361028EE10E9447023E
S1131A9008958091610280FF02C08B7F01C08D7F19
S1131AA08093610208950F931F93082F162F80913E
S1131AB013048130D9F0813038F0823009F44AC0FF
S1131AC0833009F028C159C0002309F458C1109289
S1131AD0970610929606109271061092B60610920E
S1131AE01804109278051092770539C1002309F083
S1131AF046C180917705909178050E94490A909398
S1131B0078058093770582E0809313041093B606DA
S1131B10143409F000C125C18695869503C08091CF
S1131B2061028695817009F0F6C080916102992363
S1131B3011F0846001C0826080936102809161022F
S1131B40877E886080936102109262028FEF809397
S1131B503C0215C1002309F0DEC060931804809193
S1131B607705909178050E94490A909378058093AF
S1131B70770583E08093130402C1809171068F3F3F
S1131B8009F4C9C0002309F461C0823008F4C3C059
S1131B90E0919606EE2309F4EBC04E2F4150E42F5A
S1131BA0FF27EA56F94F82819927382F22274423A9
S1131BB011F4E2E002C0E42FE150FF27EA56F94FA6
S1131BC082819927282B392B80917705909178056C
S1131BD02817390709F09FC080E00E94130D309147
S1131BE018048091270520912805982F9F5F96302F
S1131BF008F090E0921771F0E82FFF27E95DFA4FA3
S1131C0032838F5F80932705863010F0109227056A
S1131C100E948202109297061092960694E0909386
S1131C201304109271061092B606109218041092C2
S1131C30780510927705809171028D7F80937102EF
S1131C4080916002882309F49AC084C0823008F429
S1131C504EC0E0919706FF27EA56F94F8281482F3C
S1131C605527342F20916102822F8695869586957B
S1131C70837099278130910519F00297F9F40EC009
S1131C80277E206120936102442311F485E001C082
S1131C9080E08093620230933C0210C08091620223
S1131CA0813360F4E0914102F0914202E80FF11DAA
S1131CB04083809162028F5F8093620280919706D5
S1131CC0E82FFF27EA56F94F62818F5F80939706CA
S1131CD0833010F0109297067727809177059091C2
S1131CE078050E94490A909378058093770580913E
S1131CF09606E82FFF27EA56F94F12838F5F8093E9
S1131D009606833010F010929606809171068F5FCC
S1131D108093710634C0109297061092960614E0D0
S1131D2010931304109271061092B60610921804C0
S1131D301092780510927705809171028D7F8093BF
S1131D40710281E00E94130D80916002882329F0C2
S1131D50109313040E94E20912C0002381F081E071
S1131D6009CF80916102982F917080FDD5CED7CE96
S1131D7080919A069927382F222742E01CCF1F9181
S1131D800F9108951F920F920FB60F9211242F9363
S1131D903F934F935F936F937F938F939F93AF93EF
S1131DA0BF93EF93FF938091C00087FF42C060917F
S1131DB0C600E0917905F0917A05309719F1809188
S1131DC0A1079091A207E80FF91F608301969093F1
S1131DD0A2078093A1072091FC073091FD07821789
S1131DE0930738F110927A051092790580915E0676
S1131DF08330F9F08091C1008F778093C1001092F5
S1131E005E0617C06E3719F460E081E010C080915F
S1131E1071026D3721F48260809371020AC081FFE0
S1131E2005C08D7F8093710280E2682780E00E9464
S1131E30530DFF91EF91BF91AF919F918F917F913E
S1131E406F915F914F913F912F910F900FBE0F9023
S1131E501F901895982F8D57823068F480917102E5
S1131E6081608093710280E28927809370068DE7F8
S1131E708093260302C09093260361E070E086E21B
S1131E8093E00E94000A9927089578941F920F9274
S1131E900FB60F921124FF920F931F932F933F932A
S1131EA04F935F936F937F938F939F93AF93BF935E
S1131EB0CF93DF93EF93FF93209114043091150493
S1131EC080919E0690919F062817390780F4E0912F
S1131ED05904F0915A04E20FF31F80812F5F3F4FA2
S1131EE030931504209314040E94F409D1C0109275
S1131EF05A0410925904109216048091C1008F7BE9
S1131F008093C100FFB6F8948091710280FF0EC0E7
S1131F108E7F80937102809170068093260361E026
S1131F2070E086E293E00E94000AAFC080916506EB
S1131F30843009F48CC0853040F4823021F1833040
S1131F40B8F5813009F09CC00DC0863009F48DC00D
S1131F50863008F483C0873009F48EC0883009F0D5
S1131F608FC091C0809157040E942A0F082F83E0EC
S1131F7080936506609157048091FA079091FB075E
S1131F800E94490A10C08091C3060E942A0F082F9C
S1131F9083E0809365066091C3068091FA0790916F
S1131FA0FB070E94490A9093FB078093FA0766C0D7
S1131FB0E0917D05FF27EE0FFF1FE35AFB4F808161
S1131FC00E942A0F082F10917D05C12FDD27FE01E5
S1131FD0EE0FFF1FE35AFB4F60818091FA07909147
S1131FE0FB070E94490A9093FB078093FA0720910C
S1131FF035042F5F20933504113039F58091680240
S1132000E0916302F0916402E80FF11DE0818F5FBB
S11320108093680290916702981730F482E080936D
S11320205E0440E050E002C04E2F5527DE01AA0FA7
S1132030BB1FFD01E45AFB4F8081823031F02F3FFA
S113204021F0A35ABB4F4C9319C084E012C0809175
S1132050FA070E942A0F082F85E00BC08091FB0726
S11320600E942A0F082F86E004C00E94350A082F18
S113207087E08093650602C088E003C0002329F04E
S113208089E0809365060E9482028F2D99278FBF75
S1132090FF91EF91DF91CF91BF91AF919F918F917C
S11320A07F916F915F914F913F912F911F910F916C
S11320B0FF900F900FBE0F901F9018951F920F92D4
S11320C00FB60F9211248F938091C80087FF02C02E
S11320D08091CE008F910F900FBE0F901F90189596
S11320E078941F920F920FB60F9211240F900FBE87
S11320F00F901F90189578941F920F920FB60F921D
S113210011240F900FBE0F901F90189578941F9272
S11321100F920FB60F9211240F900FBE0F901F90C5
S1132120189578941F920F920FB60F9211240F9066
S11321300FBE0F901F90189578941F920F920FB6B0
S11321400F9211248F939F93809196009091970002
S11321509F918F910F900FBE0F901F9018957894B8
S11321601F920F920FB60F9211242F933F938F93C8
S11321709F932FB7F894332780912F0490913004C4
S113218001969093300480932F042FBF9F918F91D9
S11321903F912F910F900FBE0F901F901895EF92C3
S11321A0FF920F931F93CF93DF93EA017B010AC041
S11321B08C010F5F1F4F0E942D44F70181937F0113
S11321C02197C8012097A1F780E090E0DF91CF919B
S11321D01F910F91FF90EF900895EF92FF920F934C
S11321E01F93CF93DF93EA017B010AC0F70161914A
S11321F07F018C010F5F1F4F0E9435442197C80156
S11322002097A1F7F999FECF80E090E0DF91CF917C
S11322101F910F91FF90EF900895CF92DF92EF926C
S1132220FF920F931F93CF93DF93CDB7DEB7289719
S11322300FB6F894DEBF0FBECDBF7B018C018FB704
S1132240F89448E050E06E010894C11CD11CB6011A
S113225080EF9FE00E94CF10EB82FC820D831E83EF
S11322608FEF8F83188680910F02909110029A83CA
S1132270898348E050E0B60180EF9FE00E94ED10B2
S113228088E190E029E00FB6F894A8958093600067
S11322900FBE20936000FFCFEF92FF920F931F9326
S11322A079018A016A3018F04AE050E002C0462FF2
S11322B05527BC018BE796E00E941D44E0925A0228
S11322C0F0925B0200935C0210935D021F910F91E8
S11322D0FF90EF9008951F920F920FB60F92112462
S11322E02F933F934F935F936F937F938F939F931A
S11322F0AF93BF93EF93FF938091B0008093B000AE
S11323008091B60081FDFCCF8091B300992701969E
S1132310AA27BB272091FF023091000340910103BB
S113232050910203280F391F4A1F5B1F2093FF029D
S113233030930003409301035093020378940E9466
S1132340720BFF91EF91BF91AF919F918F917F910C
S11323506F915F914F913F912F910F900FBE0F900E
S11323601F901895BF92CF92DF92EF92FF920F9336
S11323701F93B82E6701780180915602882319F0C3
S113238085E090E034C0EB2DFF27E931F105B8F486
S1132390EA59FF4FEE0FFF1F0590F491E02D0994C9
S11323A081E00E946F049927282F882349F481E053
S11323B080935602B092D50780E090E018C021E0E7
S11323C0822F992714C089019A01AB0160E0E8CFFC
S11323D089019A01AB0163E0E3CF89019A01AB0162
S11323E061E0DECF89019A01AB0162E0D9CF1F9190
S11323F00F91FF90EF90DF90CF90BF900895AF9230
S1132400BF92CF92DF92EF92FF920F931F9380912E
S1132410170499272CE130E0829FA001839F500D7F
S1132420929F500D1124FA01E959F84F8081A82E8A
S1132430BB24CC24DD247AE0AA0CBB1CCC1CDD1C00
S11324407A95D1F7FA01E859F84F808126E1829F05
S1132450C0011124AA27BB27A80EB91ECA1EDB1E61
S11324609A012759384F80915002833079F0843093
S1132470B1F0823011F081E01CC066E1E62EF12C4F
S1132480012D112DB601A50185E011C056E1E52EFF
S1132490F12C012D112DB601A50183E008C046E100
S11324A0E42EF12C012D112DB601A50184E00E942A
S11324B0B211882311F0109225031F910F91FF9000
S11324C0EF90DF90CF90BF90AF900895BF92CF92DE
S11324D0DF92EF92FF920F931F93B82E670178015A
S11324E080915602882319F085E090E034C0EB2DEA
S11324F0FF27E931F105B8F4E158FF4FEE0FFF1F54
S11325000590F491E02D099484E00E946F049927CA
S1132510282F882349F481E080935602B092D5078E
S113252080E090E018C021E0822F992714C089012F
S11325309A01AB0160E0E8CF89019A01AB0163E045
S1132540E3CF89019A01AB0161E0DECF89019A01F1
S1132550AB0162E0D9CF1F910F91FF90EF90DF9014
S1132560CF90BF900895EF92FF920F931F93823004
S113257069F0833018F4882339F004C0833041F0C3
S1132580843041F081E009C086E005C089E003C0E1
S113259087E001C088E00E94661299271F910F917D
S11325A0FF90EF900895BF92CF92DF92EF92FF9247
S11325B00F931F93B82ED70180915602882319F0E8
S11325C085E090E03CC0EB2DFF27E931F105B8F43C
S11325D0E856FF4FEE0FFF1F0590F491E02D09948C
S11325E085E00E946F049927282F882349F481E00D
S11325F080935602B092D50780E090E020C021E09D
S1132600822F99271CC0680179018D019A01AB01C1
S113261060E0E6CF680179018D019A01AB0163E0C6
S1132620DFCF680179018D019A01AB0161E0D8CF58
S1132630680179018D019A01AB0162E0D1CF1F914C
S11326400F91FF90EF90DF90CF90BF9008950F937C
S11326501F931FB7F89480915502823099F58091A9
S11326603402882379F58091320220E030E08F3FF4
S113267011F421E030E0232BF1F49FEF9093340226
S11326808F3F19F42FEF30E00DC0282F3327F901C5
S1132690EA5CFB4F8081809332028F3F11F4909368
S11326A0330290832093580481E0809355028FE095
S11326B00E94470205C08FEF8093340210925502A6
S11326C001E001C000E0812F99278FBF1FB7F89464
S11326D080915502882311F40E94BB06812F99270B
S11326E08FBF90E0013009F491E081E09827892FB1
S11326F099271F910F910895CF93DF93982F8FB748
S1132700F894C82FDD272C2F80915902882361F477
S113271081E08093590290939D0785E10E944702CE
S1132720CFBF80E090E021C0E92FFF27ED50FC4FA0
S113273080818F3F89F4E0913A02E91789F40CC053
S11327409093390204C0FF27ED50FC4F908390937F
S11327503A0280E090E002C085E090E02FBF05C01F
S1132760809139028F3F79F7EBCFDF91CF910895B4
S113277081E10E946506882321F088E10E944702D6
S1132780089581E10E947C1308951F93182F80916E
S11327905F028823E1F4633041F0643041F0623039
S11327A011F081E007C080E103C08EE001C08FE03A
S11327B00E947C1390E0882309F491E090935F02D7
S11327C0992329F01093AA0680E090E002C081E0EA
S11327D090E01F9108958FB7F8949927129A119851
S11327E010988FBF10925E0280911C049927833049
S11327F019F0843089F406C081E080935E020E945F
S1132800B813089540E050E060E070E08091210446
S11328100E94A90A0E940D110895EF920F931F932D
S1132820AE2D99E0899FF0011124EF57FA4F4083B0
S11328305183628373830483158326833783A17052
S113284080858E7F8A2B8260808784E00E94470285
S11328501F910F91EF9008951F93982F8FB7F894BD
S1132860182F809158028330B1F58091380289176E
S113287091F58091360220E030E08F3F11F421E0A1
S113288030E0232BF9F48F3F19F42FEF30E00EC022
S1132890282F3327F901EA53F94F808180933602B8
S11328A08F3F11F4809337028FEF808320938F063C
S11328B08FEF8093380281E08093580284E10E9474
S11328C0470205C084E080933802109258021FBF6B
S11328D080E090E003C01FBF81E090E01F91089565
S11328E0CF92DF92EF92FF920F931F938093570240
S11328F06093AD06C901880F892F881F990B9195A4
S11329008093AE06220F812F9927282B2093AF06A0
S11329100093B006D0923B06C0923A06F092380477
S1132920E09237044093330483E10E9447021F91ED
S11329300F91FF90EF90DF90CF900895AF92BF92E8
S1132940CF92DF92EF920F931F93882389F00E9416
S113295005055B016C018FEF90E0A0E0B0E0A822D8
S1132960B922CA22DB2280E190E0A0E0B0E010C0EE
S11329700E9405055B016C018FE790E0A0E0B0E0E8
S1132980A822B922CA22DB2280E890E0A0E0B0E0CD
S1132990A80EB91ECA1EDB1E0E94DC04AB01BC01DA
S11329A0A1E0EA2E9601850180E00E940D141F919A
S11329B00F91EF90DF90CF90BF90AF9008958091EA
S11329C01104823031F481E0809311048AE00E9482
S11329D0470208958093CF06882311F484E001C050
S11329E081E0809311048AE00E9447020895AF9227
S11329F0BF92CF92DF92EF92FF920F931F93282FF3
S1132A0033278BE090E0289FF001299FF00D389F39
S1132A10F00D1124EC58FD4F82819381A481B5817E
S1132A200097A105B10569F080819181880F991FF4
S1132A30918380838150944020F080E094E09183DE
S1132A4080838BE090E0289F5001299FB00C389F31
S1132A50B00C112484E792E0A80EB91EF50186811A
S1132A609781A085B18582839383A483B583C08035
S1132A70D180EE24FF2469E0CC0CDD1CEE1CFF1C8D
S1132A806A95D1F70E940505DC01CB01F5010081AF
S1132A901181B801762F6627770F0E949D43AA27DC
S1132AA0BB278C0D9D1DAE1DBF1D222733274AE079
S1132AB0000F111F221F331F4A95D1F7081B190B52
S1132AC02A0B3B0B068317832087318722813381AE
S1132AD044815581280F391F4A1F5B1F228333838A
S1132AE0448355831F910F91FF90EF90DF90CF9017
S1132AF0BF90AF9008958531C1F0863138F48430A9
S1132B0061F0853051F08330D9F407C0873189F002
S1132B10873168F08831A1F410C080911C028130A3
S1132B2079F482E00E944702089580E003C083E0C4
S1132B3001C084E00E94FB0A089582E00E94FB0A1F
S1132B400895BF92CF92DF92EF92FF920F931F935B
S1132B50B82E8091B602882339F085E0809357021D
S1132B6083E10E9447021DC08B2D9927FC01EE0FC3
S1132B70FF1FE80FF91FE95DFC4F20813181BB2065
S1132B8011F461E601C060E6E1E0CE2ED12CEE2422
S1132B90FF2400E010E040E08AE00E947014B0924C
S1132BA07B051F910F91FF90EF90DF90CF90BF9026
S1132BB00895CF92DF92EF92FF920F931F9380912B
S1132BC0B602882339F085E08093570283E10E949E
S1132BD0470229C040917E05842F9927FC01EE0FFE
S1132BE0FF1FE80FF91FDF01A95DBC4F2D913C9138
S1132BF0E75DFC4F808182FF06C0442311F068E842
S1132C0007C069E805C0442311F063E801C066E821
S1132C10B1E0CB2ED12CEE24FF2400E010E040E004
S1132C2089E00E9470141F910F91FF90EF90DF9044
S1132C30CF900895BF92CF92DF92EF92FF920F93BD
S1132C401F93B82E80915602882319F085E090E0F6
S1132C504CC0EB2DFF27E931F105B8F4EF54FF4FD9
S1132C60EE0FFF1F0590F491E02D099482E00E947D
S1132C706F049927282F882349F481E08093560212
S1132C80B092D50780E090E030C021E0822F9927F0
S1132C902CC0CC24DD24760100E010E020E030E0FC
S1132CA040E050E060E0E2CFCC24DD24760100E097
S1132CB010E020E030E040E050E063E0D7CFCC24E7
S1132CC0DD24760100E010E020E030E040E050E058
S1132CD061E0CCCFCC24DD24760100E010E020E0DC
S1132CE030E040E050E062E0C1CF1F910F91FF90CF
S1132CF0EF90DF90CF90BF900895CF92DF92EF9244
S1132D00FF920F931F93982F80915602882319F0F6
S1132D1085E090E04AC0E92FFF27E931F105A8F4E6
S1132D20E653FF4FEE0FFF1F0590F491E02D099439
S1132D3083E00E946F049927282F882339F481E0C7
S1132D408093560280E090E030C021E0822F9927E2
S1132D502CC0CC24DD24760100E010E020E030E03B
S1132D6040E050E060E0E4CFCC24DD24760100E0D4
S1132D7010E020E030E040E050E063E0D9CFCC2424
S1132D80DD24760100E010E020E030E040E050E097
S1132D9061E0CECFCC24DD24760100E010E020E019
S1132DA030E040E050E062E0C3CF1F910F91FF900C
S1132DB0EF90DF90CF9008950F931F93CF93DF93FD
S1132DC08C018FE3F8018287809173028F5F809377
S1132DD07302E80121968A838091C2028D3011F03A
S1132DE0873141F4809192058D7F8093920588E02C
S1132DF00E9447028091C2028A3021F0863111F08C
S1132E00873111F48EE112C08B3011F48FE10EC0C2
S1132E108C3021F0843111F08D3011F480E206C041
S1132E20853119F085E090E028C08DE18093C202DD
S1132E3040E08E819927982F88272D813327822B74
S1132E40932B8F5F9F4F09F041E0442369F0298160
S1132E503327322F2227888199278062282B392B08
S1132E602883232F332729831093A00700939F07D8
S1132E7081E08093B30280E090E0DF91CF911F91D5
S1132E800F910895FF920F931F93CF93DF93F82E22
S1132E908B01EA01622F2D3118F086E090E092C098
S1132EA0FA0131968181298170E09927582F4427AE
S1132EB03327422B532BCA0187749C7C8154984836
S1132EC009F471E0772349F4CA0180739070816436
S1132ED098688983892F99278183635F68832FB7D3
S1132EE0F894332780912802909129022FBF888774
S1132EF0892F992789872FB7F894332780912A023D
S1132F002FBF99278C831D82CE010E949C05FC0152
S1132F10F0820E83812F99278F838FB7F894282FFF
S1132F20332780915202882371F482E08093520205
S1132F3010922D022FBFCE010E94DC169927182F64
S1132F40882399F00FC02FBFD093ED03C093EC03F7
S1132F508FB7F894C82FDD272C2F80915202882335
S1132F6099F406C080E00E949E05812F99272AC00B
S1132F7081E0809352021092EB0387E00E944702A3
S1132F80CFBF80E090E01EC08091EF038F3F89F4B3
S1132F90E0912C02EE2369F010C010922B0204C0C1
S1132FA0FF27E151FC4F108210922C0280E090E048
S1132FB002C085E090E02FBF05C080912B028F3FB7
S1132FC079F7EBCFDF91CF911F910F91FF90089587
S1132FD0EF92FF920F931F93CF93DF938091270279
S1132FE09927019666E070E00E94B143682F8093B0
S1132FF0270200E0462F5527FA01EE0FFF1FEB5979
S1133000FA4FC081D181209799F0E62FE695E69595
S1133010E695FF27E653F94F808199279A01277097
S1133020307002C0959587952A95E2F780FF0DC010
S1133030CA01019666E070E00E94B143682F0F5FF9
S11330400630C1F6009327021FC060932702663042
S1133050D8F4E88083EFE80EFF240F811127102FA6
S113306000278E819927082B192BCE010E949C05DD
S1133070FC012E2DAE01B80180810E9442178823E5
S113308019F086E00E944702DF91CF911F910F91C2
S1133090FF90EF900895EF92FF920F931F93CF93B9
S11330A0DF93E82E8B01F42E85E08E1518F481E071
S11330B090E03BC0CE2DDD27CC0FDD1FCB59DA4F7E
S11330C088819981892B19F085E090E02EC079835D
S11330D06883EDE0FE0EFB01F082F3EFFF0E8091BA
S11330E02702863018F480E090E01FC0CB010E94D4
S11330F09C05FC018081F80167817727762F66277C
S113310026813327622B732BE09227022F2DA801EF
S11331100E9442179927282F882329F086E080935C
S1133120270219821882822F9927DF91CF911F914C
S11331300F91FF90EF900895CF93DF9362E28EECAE
S113314092E00E94D003EC01809116028983809161
S11331504D028A8380914C02888320E030E00FC0C6
S1133160FF27EE0FFF1FDF01A05CB94F8D919C91EB
S11331703396EC0FFD1F8183892F99278083E22FDB
S11331802F5F3F4F80914D02E81750F38091150255
S113319089A380914602882309F560912E027091DB
S11331A02F028EEC92E00E9493058FEF8093D4025D
S11331B08093D5028EEC92E00E949C05FC0189E983
S11331C0808342E26EEC72E085E00E944B18882313
S11331D029F481E0809346020E94690BDF91CF912C
S11331E00895CF92DF92EF92FF920F931F93CF93A4
S11331F0DF936C018091C302882309F48EC080910F
S11332000F04882309F089C066E082E892E00E94F6
S1133210D003EC01892B09F480C081E080930F0472
S1133220C9828D2D9927888380E0C8168EEDD80633
S113323029F020E030E040E050E008C020915A023C
S113324030915B0240915C0250915D02FE01329626
S11332502383BB27A52F942F832F8283CA01AA27F8
S1133260BB278183252F3327442755272A83E280D0
S1133270FF2400271127102F0F2DFE2CEE24522F90
S11332804427332722279927AA27BB27DC0199271C
S11332908827282B392B4A2B5B2B83819927AA2734
S11332A0BB27282B392B4A2B5B2BE22AF32A042B2E
S11332B0152BE114F1040105110511F410E012C0FD
S11332C080E0C8168EEDD80621F41AE06BE776E0AC
S11332D003C010E060E070E0412F5527CE01069650
S11332E00E941D4460912E0270912F0282E892E0A8
S11332F00E9493058FEF809388028093890282E86D
S113330092E00E949C05FC0180E680831A5F412FB5
S113331062E872E083E00E944B18DF91CF911F9125
S11333200F91FF90EF90DF90CF9008958FB7F894AE
S113333020917C0520FD02C020E004C02E7F209354
S11333407C0521E099278FBF222339F080E09EED90
S11333500E94F11887E10E9447020895EF92FF92BC
S11333600F931F9380912F05843090F41092BD0227
S113337094E5E92EF12C012D112D25E933E040E0EF
S113338050E060E070E0809126040E94B3120FC008
S11333908091C202843041F0882331F484E0809328
S11333A0C20288E00E94470283E08093BD021F911D
S11333B00F91FF90EF900895EF92FF920F931F9358
S11333C08091BD02823009F051C08091CC029927CE
S11333D0982F88272091CD023327822B932BE81630
S11333E0F906C1F080912604823061F0833018F42C
S11333F0882331F03BC0833049F08430B9F508C0EC
S11334008AE001C08DE00E941A1630C08BE0FBCF29
S11334108CE0F9CF4091EE034F5F4093EE0380912F
S11334209D034817B0F481E08093BD025527440FF3
S1133430551F40585F4F6627772722E0E22EF12C74
S1133440012D112D2CEC32E0809126040E94B31240
S11334500DC0E0912F05EF5FE0932F05FF27EF5E8E
S1133460FD4F8081809326040E94AE191F910F9115
S1133470FF90EF900895CF92EF92FF920F931F93D6
S11334808930E9F08A3038F4873099F08830A8F42C
S1133490863001F50CC08231B1F0833118F48131EA
S11334A0C9F40FC0833189F08431A1F410C080E0E5
S11334B001C083E00E94DC190DC084E0FBCF82E0F0
S11334C0F9CF80E005C083E003C084E001C082E05E
S11334D00E94DF0A1F910F91FF90EF90CF90089503
S11334E08091BD02823019F0833071F4FBCFE091FA
S11334F02F05EF5FE0932F05FF27EF5EFD4F8081DF
S1133500809326040E94AE190895AF92BF92CF9281
S1133510DF92EF92FF920F931F93CF93DF938091EB
S11335209B06882309F4FEC00E943D07882309F402
S1133530F9C08FB7F8949927C0913104D09132041F
S11335408FBF10929B0628988FE88EBD0DB407FE9E
S1133550FDCF8EB51EBC0DB407FEFDCF8EB5289AE7
S1133560982F80917F02833011F0873031F485E009
S113357080939E0788E080937F02A92EBB24A2FE3D
S11335805FC080917F02863019F410927F0203C0DD
S1133590882309F055C0943009F041C0289886E882
S11335A08EBD0DB407FEFDCF8EB51EBC0DB407FE57
S11335B0FDCF2EB5289A2F718091F003982F969500
S11335C09695322F391B830F8093F003E091C80244
S11335D0F091C90286A58B7F886086A720AB0E94E4
S11335E069076B017C010091C8021091C902C801EE
S11335F00E948E07C8010E949307FC01CC19DD09C3
S11336002797CE01AA2797FDA095BA2F8C0D9D1D53
S1133610AE1DBF1D80839183A283B3830EC0E0914E
S1133620C802F091C90286A5877F86A7E091C802E7
S1133630F091C90286A58D7F86A785E080937F02DD
S1133640A3FE70C080917F02843009F04EC085E0F3
S113365080939E0710927F028091CB02833019F4ED
S11336601092CB025FC0C091F807D091F907CE0148
S11336700E949507882389F18A8129819927982FA7
S113368088273327822B932B87749C7C81549848FA
S113369021F58F812E819927982F88273327822B14
S11336A0932B8F5F9F4FC9F090E080913C06882355
S11336B009F491E0992389F012E010935B0481E00E
S11336C080933C06809184009091850063E377E0C9
S11336D00E94A6071093CB0225C01092CB02109231
S11336E0120480E00E94EA141DC08530D9F42091B0
S11336F02C04289886E88EBD0DB407FEFDCF8EB548
S11337001EBC0DB407FEFDCF8EB5289A8F71922F83
S113371096959695891B280F20932C0489E0809315
S11337207F0208C090917F02992309F4E4C2993082
S113373009F011C2289880E28EBD0DB407FEFDCFBA
S11337408EB51EBC0DB407FEFDCF8EB5482F552790
S1133750433008F495C3842F99278A970CF090C3BB
S11337601EBCE091C802F091C9024083542F52500C
S1133770573010F4452F01C047E0DF011196242F84
S1133780FD0160E070E00DB407FEFDCF8EB51EBCF8
S1133790992781936827062E6295607F6025072EFE
S11337A0762F62956F700626669576276727660FD3
S11337B0660F660F6025215031F74150A40FB11DEB
S11337C04F5F1196E091C802F091C902818190E0A7
S11337D08770823009F491E0992349F020E030E0C9
S11337E08091CB02823081F421E030E00DC08FB7AC
S11337F0F894282F332790E080919006833008F4C2
S113380091E02FBF292F3327232B09F45CC0952F78
S1133810941B18C00DB407FEFDCF8EB51EBC8C934F
S11338208D916827062E6295607F6025072E762F7E
S113383062956F700626669576276727660F660F72
S1133840660F6025915030F70DB407FEFDCF8EB59D
S11338501EBC9B012827022E2295207F2025032EA3
S1133860322F22952F700226269532272327220FE6
S1133870220F220F20250DB407FEFDCF8EB51EBCEE
S11338802827022E2295207F2025032E322F2295D1
S11338902F700226269532272327220F220F220F6C
S11338A020250DB407FEFDCF8EB5E091C802F0913E
S11338B0C90287A7289A15E010939E0710927F02E9
S11338C0232B31F014C20DB407FEFDCF8EB5D8C240
S11338D0E090C802F090C90267010894C11CD11C91
S11338E0F701818190E0282F332727703070223030
S11338F0310509F491E08091CB02992319F18230CA
S113390009F024C1F7019381E091F807F091F907D8
S11339108381981709F01AC12230310509F016C1C4
S113392080916F008D7F80936F0010923C0686A576
S1133930816086A71092CB021092120480E00E944C
S1133940EA1404C18823C9F4C7010E94D00788235C
S1133950A1F01093930482E0809394041092950450
S1133960F70183818093960483E994E00E9403081D
S1133970882319F483E08093CB0200918400109192
S11339808500C7010E94D007882311F0045E1C4FF4
S113399010936405009363058091840090918500E1
S11339A09801281B390B12161306A4F480911204F3
S11339B0882369F490E080913C06882309F491E01F
S11339C0992341F0C9010E94B10980E801C08068CF
S11339D080931204F601808527819927582F442764
S11339E03327422B532B80910303282F3327F901CC
S11339F0EE0FFF1FE056F94F8081918170913D06D3
S1133A008417950769F4F901EA52F84F8081871702
S1133A1009F467C0872F8F5F80933D0680831DC0A4
S1133A2000E010E080E090E0C0EAD6E0E6EDF7E0E8
S1133A30DF01682F9C01888199818417950779F4A7
S1133A402093030390913D068C91891709F449C092
S1133A50892F8F5F80933D068C9300E829C0808175
S1133A60972F981B091710F4092F122F6F5FC901A4
S1133A70019611962296319685309105D1F66530DE
S1133A80B9F410930303A12FBB27FD01EE0FFF1F11
S1133A90E056F94F5183408380913D068F5F8093B8
S1133AA03D06FD01EA52F84F8083A250B84F1C92A4
S1133AB090913D06892F8F778F3779F40F3768F00F
S1133AC0E6EDF7E0292F207880818F678913208322
S1133AD0319637E0EB3DF307B9F780910303282FC4
S1133AE03327F6019281A22FBB27FD01E250F84F44
S1133AF0808180FF07C0FD01EF56F94F8081981740
S1133B0029F102C081608083AF56B94F9C93DFB620
S1133B10F894809190068330B0F4E091C206E80FE7
S1133B20E33008F0E350FF27EE0FFF1FE954FD4F89
S1133B3000811181F182E0828F5F809390068BE097
S1133B400E94470278018D2D99278FBFF092C902F8
S1133B50E092C802C3C0892F8150833008F09CC012
S1133B6081508230E0F430919E073130C1F420E07E
S1133B7080913C06882309F421E0222381F02F98C8
S1133B8083E080935B0430933C06809184009091A1
S1133B9085006BE273E00E94A60782E068C0933060
S1133BA009F042C080919E07833009F097C00E94BB
S1133BB03D078823C9F128988FE88EBD0DB407FE10
S1133BC0FDCF8EB51EBC0DB407FEFDCF8EB5289A71
S1133BD08091810080648093810080E286BB809123
S1133BE06F00806280936F009091EA03289888ECBC
S1133BF08EBD0DB407FEFDCF8EB590669EBD0DB48F
S1133C0007FEFDCF8EB5289A289882EC8EBD0DB4A0
S1133C1007FEFDCF8EB586E08EBD0DB407FEFDCF49
S1133C208EB5289A84E023C080917F02815082302F
S1133C3000F580919E078530E1F40E943D078823BA
S1133C40C1F0289882EC8EBD0DB407FEFDCF8EB571
S1133C5083E08EBD0DB407FEFDCF8EB5289A80910A
S1133C606F008F7D80936F0010929B0683E080939A
S1133C709E0790917F02913041F480919E0783309A
S1133C80B1F52F9A90939E0725C0923039F5809113
S1133C909E07833061F51EC0973001F50E943D07F1
S1133CA08823E1F09091EA03289888EC8EBD0DB446
S1133CB007FEFDCF8EB590669EBD0DB407FEFDCF09
S1133CC08EB5289A80919E07853021F484E08093F4
S1133CD09E0704C088E080937F0204C080917F0225
S1133CE0883029F410927F0289E00E944702809173
S1133CF07F02882309F580919E078530D1F4809155
S1133D009B068823B1F48091CB02882391F480919F
S1133D101204882371F490E080913C06882309F40E
S1133D2091E0992331F00E94DF1480917F0288236F
S1133D3019F48DE00E94470280913C06823009F01C
S1133D4092C010923C06C0905B04F2E0CF1609F4D6
S1133D5066C023E0C21609F46AC031E0C31609F054
S1133D6082C0209163053091640580918400909114
S1133D70850040911204403829F4109212040E94E4
S1133D80DF1471C08901081B190B47FF03C010160B
S1133D901106ECF0C091F103D091F2038091CB02B3
S1133DA08823A9F4CE010E9403089927882351F49B
S1133DB08EA58E7F8EA7C092CB02D093F907C093B5
S1133DC0F80729C09927F82E882329F102C055E065
S1133DD0F52E20911204822F99278F77019759F499
S1133DE0207822602093120485E89BE00E94BF099A
S1133DF00E94B10938C027FF0AC0101611063CF40E
S1133E0080E880931204C8010E94B10902C0109294
S1133E1012048F2D09C083E08093120424C01092F1
S1133E20CB021092120480E00E94EA141CC080911C
S1133E309E07823019F4C0929E0713C080917F02BE
S1133E40863079F410927F02289881E88EBD0DB4F3
S1133E5007FEFDCF8EB51EBC0DB407FEFDCF8EB59B
S1133E60289A0E94691F8FB7F894282F33278091CE
S1133E70E903813061F081E08093E9032FBF4FCBE8
S1133E80289A85E080939E0710927F0230CF10928B
S1133E90E9032FBFDF91CF911F910F91FF90EF9016
S1133EA0DF90CF90BF90AF9008958FB7F894282FEC
S1133EB033278091E90381508093E903803811F01E
S1133EC02FBF089581E08093E9032FBF0E94851AD4
S1133ED008958FB7F894282F33278091E903882316
S1133EE029F080688093E9032FBF089581E08093CF
S1133EF0E9032FBF0E94851A089578941F920F92A8
S1133F000FB60F9211242F933F934F935F936F93A8
S1133F107F938F939F93AF93BF93EF93FF93E6E8C1
S1133F20F0E080819181208131818FB7F8949927C5
S1133F30309332042093310421E020939B068FBFF9
S1133F400E94691FFF91EF91BF91AF919F918F9153
S1133F507F916F915F914F913F912F910F900FBE81
S1133F600F901F90189578941F920F920FB60F928E
S1133F7011242F933F934F935F936F937F938F936A
S1133F809F93AF93BF93EF93FF9380916F008D7FC7
S1133F9080936F0078949FB7F89480913C068130A9
S1133FA019F482E080933C06892F99278FBF0E94E1
S1133FB0691FFF91EF91BF91AF919F918F917F9175
S1133FC06F915F914F913F912F910F900FBE0F9082
S1133FD01F90189580917F028823D1F480919E07C9
S1133FE0813049F490E080913C06882309F491E003
S1133FF0992371F005C0853019F489E090E00895A3
S113400083E080937F020E94691F80E090E008951E
S113401085E090E0089580917F02882319F085E07F
S113402090E0089580919E07813019F489E090E032
S1134030089581E080937F020E94691F80E090E0F0
S113404008951F93382F8FB7F89499272091E90387
S11340502F5F2093E9038FBF80911104882311F00F
S113406015E01BC080917F028823A1F4932F9F71D8
S11340708091EA03891719F489E090E00DC09093C8
S1134080EA0317E010937F020E94691F1093110442
S113409010E003C085E090E0182F0E94551F812F87
S11340A099271F91089580E094E090932F028093C4
S11340B02E028AE10E94212090914B0280E02FEF92
S11340C03FEF09C0E82FFF27EE0FFF1FE75CFB4F10
S11340D0318320838F5F8917A9F70895982F8091E2
S11340E072028130B9F4923061F0933018F499235C
S11340F031F00895933039F0943061F408C085E1CB
S113410003C088E101C086E10E947D16089587E11D
S11341100E947D160895EF920F931F9320916E06CF
S113412033272150304081E090E0A0E0B0E004C0AB
S1134130880F991FAA1FBB1F2A95D2F780936A067E
S113414090936B06A0936C06B0936D060E940505D0
S113415020916A0630916B0640916C0650916D0671
S113416088279927215030404040504062237323D0
S1134170842395232F5F3F4F4F4F5F4F260F371FE9
S1134180481F591F20936A0630936B0640936C06B0
S113419050936D0680916F068E7F80936F06809199
S11341A09B058D7F80939B050E94DC04AB01BC01C1
S11341B0E1E0EE2E08EE13E020E030E082E00E9421
S11341C00D141F910F91EF90089580916E06893020
S11341D029F089E080936E060E948B200895AF92A7
S11341E0BF92CF92DF92EF92FF920F931F930E94A0
S11341F0DC047B018C0160919C0570919D0580918C
S11342009E0590919F05A0907602B0907702C09091
S11342107802D0907902A114B104C104D10409F444
S11342204EC0EFB7F89420913E0620FD36C0A80199
S11342309701261B370B480B590B2A153B054C05D8
S11342405D05C8F4A21AB30AC40AD50A809176029D
S113425090917702A0917802B0917902821B930B1E
S1134260A40BB50B8093760290937702A093780207
S1134270B093790215C081E090E0A0E0B0E08093B3
S1134280760290937702A0937802B0937902A1E02A
S1134290AA2EB12CC12CD12C03C02E7F20933E0614
S11342A08E2F99278FBF0E94DC04AB01BC01F1E083
S11342B0EF2E9601850183E00E940D1405C08091C4
S11342C0A4058D7F8093A4051F910F91FF90EF901B
S11342D0DF90CF90BF90AF900895FF920F931F93FC
S11342E0CF93DF93F82E282F33278BE090E0289F7D
S11342F0E001299FD00D389FD00D1124CC58DD4FFB
S113430081E090E0998388831A868A819B81AC81BD
S1134310BD810097A105B105A1F00FB7F89411274D
S1134320C9010E94EC050FBF1A821B821C821D82E8
S11343301E821F82188619868F2D0E94F7140E94F0
S1134340EF20DF91CF911F910F91FF90089580503E
S11343509E4D19F480E00E946D2108959C01809186
S1134360B502882309F455C0ABE7B6E0F9018AE049
S113437001900D928150E1F780915A0290915B0275
S1134380A0915C02B0915D02CD01AA27BB270196E2
S1134390A11DB11D80935A0290935B02A0935C020D
S11343A0B0935D020097A105B10561F481E090E04E
S11343B0A0E0B0E080935A0290935B02A0935C0269
S11343C0B0935D0220915A0230915B0240915C02ED
S11343D050915D02A9013327222780910F02909109
S11343E01002AA27BB27280F391F4A1F5B1F2093DF
S11343F05A0230935B0240935C0250935D0280E06A
S11344009EED0E94F11880E00E946D2186E10E94D9
S113441047020895AF92BF92CF92DF92EF920F932B
S11344201F935B016C010E94DC04AB01BC0131E011
S1134430E32E9601850181E00E940D141F910F91D6
S1134440EF90DF90CF90BF90AF900895AF92BF925E
S1134450CF92DF92EF920F931F935B016C010E9446
S1134460DC04AB01BC01E1E0EE2E9601850188E09D
S11344700E940D141F910F91EF90DF90CF90BF9089
S1134480AF900895DF92EF92FF920F931F93CF9313
S1134490DF93CDB7DEB722970FB6F894DEBF0FBE19
S11344A0CDBFD0904F028D2D8250823008F0CBC00A
S11344B0E0907406FF2400271127102F0F2DFE2CE7
S11344C0EE2420917206332744275527522F442780
S11344D033272227809173069927AA27BB27DC015B
S11344E099278827282B392B4A2B5B2B809175061B
S11344F09927AA27BB27282B392B4A2B5B2BE22A87
S1134500F32A042B152B80911D0290911E02A09179
S11345101F02B09120028E159F05A007B10729F450
S113452080916F06816080936F066CE182E395E071
S11345300E94D0038C0182E0D81639F58091510293
S1134540882309F080C081E08093510283E00E94B7
S1134550312380911D0290911E02A0911F02B091FF
S11345602002F8018383292F3A2F4B2F55272283CA
S11345709D014427552721838B2F9927AA27BB27E1
S113458080838091210284831582F80165817727D5
S11345902FE230E04FE556E0CE0101960E94D703AA
S11345A0882321F081E00E9431234DC08981F801E4
S11345B0858380912102482F5527662777278AE033
S11345C0440F551F661F771F8A95D1F7898126E10D
S11345D0829FC0011124AA27BB27480F591F6A1FB5
S11345E07B1F98012A5F3F4FE0915002E33069F04E
S11345F0E43091F0E23011F081E016C016E1E12ED2
S1134600F12C012D112D82E00DC0B6E1EB2EF12C21
S1134610012D112D80E006C0A6E1EA2EF12C012D1A
S1134620112D81E00E946612882369F00E94DC0447
S1134630AB01BC01F1E0EF2E00E110E020E030E03E
S113464080E00E940D1422960FB6F894DEBF0FBED0
S1134650CDBFDF91CF911F910F91FF90EF90DF902D
S11346600895823040F490914F02933011F09530C8
S113467011F41092510280934F0208950F931F93E7
S11346808B019C0190914F02892F8250823030F52A
S113469080911D0290911E02A0911F02B0912002F0
S11346A0081719072A073B074CF0081719072A07A8
S11346B03B0781F580912102481760F581E00E9453
S11346C0312310925F0610926006109261061092D8
S11346D0620610926306109264061CC094509230D5
S11346E0C8F48091220290912302A0912402B091F7
S11346F02502081719072A073B074CF00817190762
S11347002A073B0739F480912602841718F081E0C8
S11347108093AC061F910F910895DF92EF92FF9260
S11347200F931F937B018C01D42E80914F02882319
S113473019F481E00E943123E0922202F0922302D4
S11347400093240210932502D09226028FEF8093C7
S1134750C4048093C5048093C6048093C7048093E3
S1134760C8048093C90480E090E01F910F91FF90EA
S1134770EF90DF9008950F931F93CF93DF936FE033
S113478082E395E00E94D003EC01892B09F48CC0EC
S113479080914F028430B9F580915102882309F049
S11347A083C081E08093510285E00E94312380918F
S11347B07F05909180058983892F9927888380912B
S11347C00F02909110028B83892F99278A8320915D
S11347D02202309123024091240250912502FE01CD
S11347E034962383BB27A52F942F832F8283CA015A
S11347F0AA27BB278183252F3327442755272C83BA
S113480080912602888780914F02853009F04CC040
S11348108091AC06882331F080E00E949E141092AF
S1134820AC0642C080912704882321F481E00E94D1
S113483031233AC08091C40489878091C5048A8752
S11348408091C6048B878091C7048C878091C804AB
S11348508D878091C9048E8708811127102F002726
S113486089819927082B192B60912E0270912F02B0
S113487082E395E00E94930500933805012F1127E8
S11348800093390582E395E00E949C05FC0181E5D3
S113489080834FE062E375E081E00E944B18882337
S11348A019F080E00E949E14DF91CF911F910F9127
S11348B008958F929F92AF92BF92DF92EF92FF92F0
S11348C00F931F93CF93DF93CDB7DEB728970FB61F
S11348D0F894DEBF0FBECDBF4B015C0160E070E019
S11348E0E1E8F5E0D084D1FE59C1208131814281D3
S11348F05381E480F58006811781D501C401821BB0
S1134900930BA40BB50B8E159F05A007B10708F4F4
S113491045C1D0FE04C08DEFD822D08608C02E0D2C
S11349203F1D401F511F20833183428353836330D3
S113493009F497C0643028F46130C1F0623058F54E
S113494010C0663009F4D6C0673020F4653009F031
S11349502CC1BCC0673009F40BC1683009F025C113
S113496012C10E94BB230E9442221FC18091C20235
S11349708D3011F484E10BC0873111F48AE007C053
S1134980823211F483E203C0813219F484E2809309
S1134990C20288E0F5C080916F0680FD3EC06EE0E3
S11349A08DE293E00E94D003FC01892BB1F1809148
S11349B04E02882391F580910F0290911002818319
S11349C0892F9927808382E0828313823496A2E719
S11349D0B6E089E00D9001928150E1F760912E02DA
S11349E070912F028DE293E00E9493058FEF8093E4
S11349F03303809334038DE293E00E949C05FC0111
S1134A0080E580834EE06DE273E080E00E944B1805
S1134A10882319F481E080934E0290E080914F0244
S1134A20823008F091E080916F06992319F081702B
S1134A30846007C0982F969531F09150990F81703A
S1134A40892B80936F0680916F068E7F39F4809155
S1134A506E06863118F48F5F80936E060E948B2059
S1134A60A4C02091A0053091A1054091A2055091C8
S1134A70A3058091760290917702A0917802B0917B
S1134A8079020097A105B105F1F082179307A407F5
S1134A90B507C9F480917E02882361F42FB7F89496
S1134AA0332780917C05816080937C052FBF87E14B
S1134AB00E94470280E090E00E94EC0580E00E94A2
S1134AC0F71410927E020E94EF206FC08091720250
S1134AD0882309F06AC082E10E946506882319F0E0
S1134AE082E10E94870380917202882309F05DC0ED
S1134AF0119A5BC0809185069927853021F0863014
S1134B0009F053C00BC040E050E060E070E08091D9
S1134B108A060E94A90A0E940D1147C08FB7F89413
S1134B2048E050E08E010F5F1F4FB80180EF9FE017
S1134B300E94CF1020910F023091100289819A8136
S1134B408217930749F03A83298348E050E0B8017B
S1134B5080EF9FE00E94ED1088E190E029E00FB61D
S1134B60F894A895809360000FBE20936000FFCF57
S1134B70809192048150809392048823B1F080E064
S1134B800E94470212C010924B02809115020E94AB
S1134B90212010922F0210922E0207C06F5F7F4FC8
S1134BA039966930710509F09DCE84E00E94470270
S1134BB028960FB6F894DEBF0FBECDBFDF91CF911C
S1134BC01F910F91FF90EF90DF90BF90AF909F9057
S1134BD08F90089580919B058D7F80939B05809194
S1134BE089058D7F8093890580E00E9431238FEFB2
S1134BF090E0A0E0B0E08093220290932302A0937F
S1134C002402B09325029FEF909326021092C404CD
S1134C101092C5041092C6041092C7041092C804DE
S1134C201092C90410925F061092600610926106F9
S1134C3010926206109263061092640685E08093D7
S1134C401C029093750610927406109273061092CB
S1134C507206909376069093790610926E0680E021
S1134C6090E00895EF92FF920F931F93809179063D
S1134C70E82FFF2780917606E817A0F56091740667
S1134C80772788279927982F872F762F6627E090F4
S1134C907206FF24002711271E2D0027FF24EE246F
S1134CA020917306332744275527A9013327222748
S1134CB0E22AF32A042B152B209175063327442767
S1134CC05527E22AF32A042B152B6E297F29802BE2
S1134CD0912B4E2F0E948D2384E080936F060E94B7
S1134CE0E5201BC04FEF6FEF70E080E090E00E9482
S1134CF08D230E94EA2581E080931C028091B402F6
S1134D00833031F0843031F0823039F485E003C0EF
S1134D1083E001C084E00E947D161F910F91FF90F3
S1134D20EF90089583E080931C028091BE029091DD
S1134D30BF02A091C002B091C10280937506292FD1
S1134D403A2F4B2F5527209374069D01442755274E
S1134D50209373068B2F9927AA27BB27809372066B
S1134D608091340690913506A0913606B0913706AD
S1134D700197A109B1093AE0B695A795979587954A
S1134D803A95D1F78F5F809376061092790645E0C5
S1134D9062E776E080E090E00E94570A809378060C
S1134DA0892F99278093770680911C02833011F410
S1134DB00E94E52084E080931C028091B4028093D9
S1134DC050020E94322608958D3089F18E3080F48D
S1134DD0853001F1863028F48330E1F08430F1F538
S1134DE019C08B3001F18C3000F58A30B9F519C047
S1134DF0853149F1863138F48F30F9F08F30D8F0AD
S1134E00803161F51CC0873111F18731F0F08831B0
S1134E1029F521C080911C02882301F50E94922665
S1134E20089580E005C083E003C084E001C082E00F
S1134E300E94701A089583E003C084E001C082E0F8
S1134E400E94CD0A089580E003C083E001C084E09D
S1134E500E946E20089582E00E946E200895CF92F1
S1134E60EF92FF920F931F93CF93DF93CDB7DEB7EB
S1134E7022970FB6F894DEBF0FBECDBF8091170402
S1134E80482F55278CE190E0489FF001499FF00D91
S1134E90589FF00D1124CF018759984F28173907CF
S1134EA009F0F1C0CC2071F08FEF8093C40480939B
S1134EB0C5048093C6048093C7048093C804809378
S1134EC0C904D8C0E859F84F20813327E22FE6956A
S1134ED0E695E695FF27EC53FB4F2770307081E091
S1134EE090E002C0880F991F2A95E2F780952081EF
S1134EF028232083CA01019662E070E00E94B14336
S1134F0080931704809125038150809325032FE219
S1134F1030E044EC54E060E070E0CE0101960E9481
S1134F20D703882309F4A9C0119A60912602E0905E
S1134F307406FF2400271127102F0F2DFE2CEE24BA
S1134F4020917206332744275527522F44273327AD
S1134F502227809173069927AA27BB27DC0199276A
S1134F608827282B392B4A2B5B2B80917506992790
S1134F70AA27BB27282B392B4A2B5B2BE22AF32A9F
S1134F80042B152B8091220290912302A0912402DC
S1134F90B09125028E159F05A007B10709F067C0DF
S1134FA080917906681709F062C06F5F6093790693
S1134FB045E062E776E080E090E00E94570A809343
S1134FC07806892F99278093770680917906E82FB0
S1134FD0FF2780917606E81718F40E94322647C00E
S1134FE060917406772788279927982F872F762F23
S1134FF06627E0907206FF24002711271E2D002744
S1135000FF24EE2420917306332744275527A90152
S113501033272227E22AF32A042B152B2091750625
S1135020332744275527E22AF32A042B152B6E290C
S11350307F29802B912B4E2F0E948D2381E080931A
S11350401C028091B402833041F0843041F08230FC
S113505011F081E007C085E003C083E001C084E073
S11350600E947D16882319F082E00E94470281E0A5
S11350700E9431231092250306C0809125038823C2
S113508011F00E94FF1122960FB6F894DEBF0FBEF6
S1135090CDBFDF91CF911F910F91FF90EF90CF90F3
S11350A00895CF92EF92FF920F931F938531C1F031
S11350B0863138F4843071F0853081F08330C1F565
S11350C007C08731E9F0873198F0883189F520C02D
S11350D083E001C084E00E942F272AC082E0FBCF36
S11350E080917202823021F52C5D374009F517C09A
S11350F0809172028230E1F42C5D3740C9F40FC014
S1135100809172028230A1F42C5D374089F407C08B
S113511080917202823061F42C5D374049F4109220
S1135120720241E050E060E070E08C2D0E94900635
S11351301F910F91FF90EF90CF9008958F929F92BF
S1135140AF92BF92CF92DF92EF92FF920F931F9391
S11351504B015C0169017A010E94EA2582E0809397
S11351601C0280927506BB27AB2D9A2D892D809346
S11351707406C501AA27BB27809373068B2C992438
S1135180AA24BB24809272060894C108D108E108BD
S1135190F1083AE0F694E794D794C7943A95D1F796
S11351A0C394C0927606C092790645E062E776E041
S11351B080E090E00E94570A80937806892F99270F
S11351C08093770680911C02823011F40E94E520BE
S11351D084E080931C020093500240917606552788
S11351E060917406772788279927982F872F762F21
S11351F06627C0907206DD24EE24FF24FC2CEE24E6
S1135200DD24CC240091730611272227332798012B
S113521011270027C02AD12AE22AF32A0091750611
S1135220112722273327C02AD12AE22AF32A6C29FC
S11352307D298E299F290E948D2380E090E01F9173
S11352400F91FF90EF90DF90CF90BF90AF909F9021
S11352508F9008958F929F92AF92BF92CF92DF92D8
S1135260EF92FF920F931F93CF93DF93E82FE901FF
S11352708091BD02813009F4BCC1813008F45FC162
S1135280843009F0F9C183E08093BD028091AB06BC
S1135290882321F0813009F0EFC16DC0AA80BB24BE
S11352A0CC24DD24DC2CCB2CBA2CAA242881332753
S11352B044275527522F44273327222789819927AA
S11352C0AA27BB27DC0199278827282B392B4A2BAF
S11352D05B2B8B819927AA27BB27282B392B4A2B99
S11352E05B2BA22AB32AC42AD52AE0901F04FF24E8
S11352F000271127102F0F2DFE2CEE2420911D04C2
S1135300332744275527522F4427332722278091B8
S11353101E049927AA27BB27DC0199278827282B55
S1135320392B4A2B5B2B809120049927AA27BB2772
S1135330282B392B4A2B5B2BE22AF32A042B152B1F
S1135340AE14BF04C006D10681F480911C048430DD
S113535051F440E050E060E070E08E2F0E94A90A12
S11353600E940D1189C181E001C082E080935E0238
S11353700E94B81381C1E0938A068C2D0E944F06C7
S1135380CC2009F079C1809185068350823008F0E1
S113539073C1EA80FF2400271127102F0F2DFE2C44
S11353A0EE242881332744275527522F44273327B7
S11353B0222789819927AA27BB27DC0199278827D7
S11353C0282B392B4A2B5B2B8B819927AA27BB27A8
S11353D0282B392B4A2B5B2BE22AF32A042B152B7F
S11353E0E0928906BB27A12F902F8F2D80938806EA
S11353F0C801AA27BB2780938706E12EFF24002734
S11354001127E0928606FE013496E280FF240027ED
S11354101127102F0F2DFE2CEE242C813327442727
S11354205527522F44273327222781819927AA27DA
S1135430BB27DC0199278827282B392B4A2B5B2B88
S113544083819927AA27BB27282B392B4A2B5B2B2F
S1135450E22AF32A042B152BE0928E06BB27A12FF8
S1135460902F8F2D80938D06C801AA27BB27809388
S11354708C06E12EFF2400271127E0928B0685E895
S113548096E00E94AE2100918A06112720918D0694
S1135490332744275527542F432F322F2227C090D8
S11354A08B06DD24EE24FF24FC2CEE24DD24CC2406
S11354B080918C069927AA27BB27DC019927882786
S11354C0C82AD92AEA2AFB2A80918E069927AA2774
S11354D0BB27C82AD92AEA2AFB2A2C293D294E2986
S11354E05F2960918806772788279927982F872F27
S11354F0762F6627809086069924AA24BB24B82C8C
S1135500AA2499248824C0908706DD24EE24FF244D
S11355107601DD24CC248C289D28AE28BF28C09099
S11355208906DD24EE24FF248C289D28AE28BF287C
S1135530682979298A299B290E949E289DC0CC200C
S113554009F09AC0E0909703FF2400271127102F39
S11355500F2DFE2CEE242091950333274427552745
S1135560522F442733272227809196039927AA276D
S1135570BB27DC0199278827282B392B4A2B5B2B47
S1135580809198039927AA27BB27282B392B4A2BCC
S11355905B2BE22AF32A042B152B8FEFE8168FEFEF
S11355A0F8068FEF08078FEF1807A9F01092EE03A3
S11355B081E08093BD0272E0E72EF12C012D112DC4
S11355C02CEC32E040E850E060E070E0809126048A
S11355D00E94B31251C0E0912F05EF5FE0932F05B5
S11355E0FF27EF5EFD4F8081809326040E94AE1951
S11355F043C082E08093BD026091EE037727882741
S1135600992720E534E040E050E00E947E43AB015E
S1135610BC0140585E4F6F4F7F4F8091260482300B
S113562091F0833018F4882331F026C0833099F048
S1135630843011F518C0EE24FF2400E514E020E0C6
S113564030E086E017C0EE24FF2400E514E020E0FB
S113565030E089E00FC0EE24FF2400E514E020E0F0
S113566030E087E007C0EE24FF2400E514E020E0EA
S113567030E088E00E94D312DF91CF911F910F9107
S1135680FF90EF90DF90CF90BF90AF909F908F905E
S113569008957F928F929F92AF92BF92CF92DF92A2
S11356A0EF92FF920F931F9380915E02813021F05D
S11356B0823009F0E0C05CC00091210411272091E0
S11356C02404332744275527542F432F322F2227CE
S11356D0C0902204DD24EE24FF24FC2CEE24DD24DF
S11356E0CC24809123049927AA27BB27DC0199277E
S11356F08827C82AD92AEA2AFB2A809125049927CF
S1135700AA27BB27C82AD92AEA2AFB2A2C293D29F9
S11357104E295F2960911F04772788279927982F9E
S1135720872F762F662780901D049924AA24BB24F2
S1135730B82CAA2499248824C0901E04DD24EE24C5
S1135740FF247601DD24CC248C289D28AE28BF2894
S1135750C0902004DD24EE24FF248C289D28AE284C
S1135760BF28682979298A299B290E949E2883C0F9
S1135770809021049924A0902404BB24CC24DD240B
S1135780DC2CCB2CBA2CAA242091220433274427C6
S11357905527522F44273327222780912304992702
S11357A0AA27BB27DC0199278827282B392B4A2BCA
S11357B05B2B809125049927AA27BB27282B392BFB
S11357C04A2B5B2BA22AB32AC42AD52AE0901F04B1
S11357D0FF2400271127102F0F2DFE2CEE242091DB
S11357E01D04332744275527522F442733272227C4
S11357F080911E049927AA27BB27DC0199278827B3
S1135800282B392B4A2B5B2B809120049927AA271C
S1135810BB27282B392B4A2B5B2BE22AF32A042B98
S1135820152B0E94EA25E092BE02F092BF0200937B
S1135830C0021093C102A0923406B0923506C09201
S11358403606D09237068092B40283E0881651F06F
S113585084E0881649F082E0881611F081E007C0E0
S113586085E003C083E001C084E00E941A16882307
S113587011F410921C021F910F91FF90EF90DF9092
S1135880CF90BF90AF909F908F907F9008958FB7E7
S1135890F894992720919D0720933B0222E02093BE
S11358A059028FBF80913B028F3061F0803118F430
S11358B08E3081F405C0803139F0813159F408C04B
S11358C08EE003C08FE001C080E10E941A160895A3
S11358D00E94492B08952F923F924F925F926F92AC
S11358E07F928F929F92AF92BF92CF92DF92EF926C
S11358F0FF920F931F93CF93DF938FB7F894992759
S113590020916D0220906E0230906F0230917002EF
S11359104090CA028FBF222309F00FC3232F2C50BB
S1135920E1012C96F10183859927843509F4F4C1AA
S1135930883809F482C2833509F0FFC2809172026B
S1135940882309F0FAC28585843008F043C0E82F23
S1135950FF27EF5EFD4F5080FFEF5F16D9F1F10195
S11359608485823068F482E10E946506882341F4CC
S113597082E10E947A069927282F882309F0C2C160
S113598011980E94DC04AB01BC01B1E0EB2E00E0F5
S113599018E020E030E085E00E940D1450924402AB
S11359A088819927823009F48CC0833030F48823AD
S11359B071F0813009F0C1C20FC0853009F44DC1C6
S11359C0863009F467C1833009F0B7C2E0C081E0D2
S11359D08093720221E096C182E0809372024E812C
S11359E08F815527542F44279927482B592BBE01C3
S11359F0685F7F4F8CED97E00E941D448E812F815C
S1135A009927982F88273327822B932B3C018824AE
S1135A1099242A81EB808C81AD809927AA27BB2702
S1135A20BA2FA92F982F8827332744275527522F79
S1135A30442733272227FF24002711278701FF2427
S1135A40EE242E293F29402B512BBB24CC24DD24CA
S1135A502A293B294C295D29822B932BA42BB52B76
S1135A60F2E05F16A1F0F51518F0552041F006C1DB
S1135A7023E05216A1F0E4E05E16C9F0FFC08401F1
S1135A8073012CED37E0AC01BD0185E117C0840141
S1135A9073012CED37E0AC01BD0188E10FC0840136
S1135AA073012CED37E0AC01BD0186E107C0840130
S1135AB073012CED37E0AC01BD0187E10E94B21106
S1135AC01DC183E0809372028E812F819927982FC4
S1135AD088273327822B932B3C01882499242A81FD
S1135AE0EB808C81AD809927AA27BB27BA2FA92FD9
S1135AF0982F8827332744275527522F44273327A5
S1135B002227FF24002711278701FF24EE242E29B2
S1135B103F29402B512BBB24CC24DD242A293B29AB
S1135B204C295D29822B932BA42BB52BF2E05F1615
S1135B30A1F0F51518F0552041F0A0C023E052164D
S1135B40A1F0E4E05E16C9F099C08401730123E07A
S1135B5035E0AC01BD0181E117C08401730123E08C
S1135B6035E0AC01BD0184E10FC08401730123E081
S1135B7035E0AC01BD0182E107C08401730123E07B
S1135B8035E0AC01BD0183E10E946612B7C084E038
S1135B90809372028E812F819927982F882733272B
S1135BA0822B932B3C01882499242A81EB808C81BD
S1135BB0AD809927AA27BB27BA2FA92F982F88270A
S1135BC0332744275527522F442733272227FF24DE
S1135BD0002711278701FF24EE242E293F29402B7B
S1135BE0512BBB24CC24DD242A293B294C295D29B3
S1135BF0822B932BA42BB52BF2E05F16A1F0F515A5
S1135C0018F0552041F03AC023E05216A1F0E4E028
S1135C105E16C9F033C0EE24FF2494018301AC0165
S1135C20BD0181E117C0EE24FF2494018301AC017E
S1135C30BD0184E10FC0EE24FF2494018301AC0173
S1135C40BD0182E107C0EE24FF2494018301AC016D
S1135C50BD0183E10E94D31251C086E08093720299
S1135C60F2E05F1679F0F51518F0552049F006C0FA
S1135C7023E0521649F084E0581641F081E03EC01A
S1135C8085E105C088E103C086E101C087E10E9487
S1135C907D1634C0E3E0F5E08AE1DF011D928A95C8
S1135CA0E9F7EF01A0E0B2E08FE00D900992815096
S1135CB0E1F787E88093160586EA809315058DE160
S1135CC0809314058AE5808B82EC80931A058AE020
S1135CD08093190585EF8093180582E2848B809167
S1135CE00F029091100280931C05892F9927808FB1
