S01700006275696C642F697269732F6D61696E2E7372656343
S11300000C94D8010C94F7010C94F7010C94F701AB
S11300100C94F7010C94F7010C94F7010C94F7017C
S11300200C94F7010C94F7010C94F7010C94F7016C
S11300300C94F7010C94AC090C94F7010C94C607CA
S11300400C94301B0C94661B0C947D080C9488084B
S11300500C9493080C94F7010C94F7010C94F70199
S11300600C94DA070C94F7010C94F7010C94F70143
S11300700C94F7010C94C1080C94F7010C94F7014B
S11300800C94F7010C94F7010C94F7010C94F7010C
S11300900C94F7010C94F7010C94F7010C94F701FC
S11300A00C94F7010C94F7010C94F7010C94F701EC
S11300B00C94F7010C94F7010C94F7010C94F701DC
S11300C00C94F7010C94F7010C94F7012A0A310AF5
S11300D0230A2A0A310A230A380A2A0A310A230A75
S11300E0380A2A0A310A230A2A0A310A230A7D0A0B
S11300F0820A780A7D0A820A780A870A7D0A820AB5
S1130100780A870A7D0A820A780A7D0A820A780AAE
S1130110E70AEC0AE20AE70AEC0AE20AF10AE70A49
S1130120EC0AE20AF10AE70AEC0AE20AE70AEC0A34
S1130130E20A9A0FA50F8F0F9A0FA50F8F0FB00F1A
S11301409A0FA50F8F0FB00F9A0FA50F8F0F9A0F4D
S1130150A50F8F0FFC0F0710F10FFC0F0710F10F05
S11301601210FC0F0710F10F1210FC0F0710F10F03
S1130170FC0F0710F10F962BCC2BD02B1F2C842BAC
S1130180672C762C9C2C992DAB2D102E9C3243334E
S1130190A632BB32A2344A334C339733A934CA341F
S11301A0CD348B2BE034E334FA34000021104220A8
S11301B063308440A550C660E770088129914AA144
S11301C06BB18CC1ADD1CEE1EFF1311210027332BB
S11301D05222B5529442F772D662399318837BB394
S11301E05AA3BDD39CC3FFF3DEE36224433420044B
S11301F00114E664C774A44485546AA54BB52885E4
S11302000995EEE5CFF5ACC58DD55336722611169A
S11302103006D776F6669556B4465BB77AA7199733
S11302203887DFF7FEE79DD7BCC7C448E558866822
S1130230A7784008611802282338CCC9EDD98EE983
S1130240AFF9488969990AA92BB9F55AD44AB77AFA
S1130250966A711A500A333A122AFDDBDCCBBFFBD3
S11302609EEB799B588B3BBB1AABA66C877CE44C0A
S1130270C55C222C033C600C411CAEED8FFDECCD23
S1130280CDDD2AAD0BBD688D499D977EB66ED55EDA
S1130290F44E133E322E511E700E9FFFBEEFDDDF73
S11302A0FCCF1BBF3AAF599F788F8891A981CAB1FF
S11302B0EBA10CD12DC14EF16FE18010A100C23031
S11302C0E3200450254046706760B9839893FBA3EC
S11302D0DAB33DC31CD37FE35EF3B1029012F32281
S11302E0D2323542145277625672EAB5CBA5A8953C
S11302F089856EF54FE52CD50DC5E234C324A014D1
S113030081046674476424540544DBA7FAB79987CB
S1130310B8975FE77EF71DC73CD7D326F236910620
S1130320B01657667676154634564CD96DC90EF913
S11303302FE9C899E9898AB9ABA944586548067870
S11303402768C018E1088238A3287DCB5CDB3FEB2B
S11303501EFBF98BD89BBBAB9ABB754A545A376AC0
S1130360167AF10AD01AB32A923A2EFD0FED6CDDFB
S11303704DCDAABD8BADE89DC98D267C076C645C10
S1130380454CA23C832CE01CC10C1FEF3EFF5DCF0B
S11303907CDF9BAFBABFD98FF89F176E367E554E60
S11303A0745E932EB23ED10EF01E00020E060C04B3
S11303B011241FBECFEFD1E2DEBFCDBF12E0A0E01B
S11303C0B2E0E2E2F3E700E00BBF02C007900D9257
S11303D0AE32B107D9F716E0AEE2B2E001C01D9229
S11303E0AD33B107E1F70E942C350C9490390C948D
S11303F000008FB7F894992708958FBF0895982F18
S1130400969596959695E7E7F4E0E90FF11D8770C8
S113041021E030E002C0220F331F8A95E2F7808189
S1130420822399270895282F9FB7F894E82FFF2750
S1130430EA55FD4F80818F3F81F4E0913506E21744
S113044071F40BC020931C0504C0FF27EA55FD4F2F
S113045020832093350620E007C025E005C0809165
S11304601C058F3F91F7EECF892F99278FBF822FDD
S11304709927089587E00E9413029927089580918F
S11304802005882319F02FE150E002C058E02EE146
S1130490622F7FB7F8948091FD028E7F8093FD02D6
S11304A080917C00982F9F718295869586958370A4
S11304B019F080E090E00CC040E03327892F9927A1
S11304C02817390709F041E081E04827842F99274C
S11304D0982F9170990F8091FD028178262F2F71AA
S11304E0422F440F440F892B842B8093FD02332722
S11304F020937C00583059F580911D0590911E057C
S113050021E08638920718F087E090E01FC0833C12
S1130510910518F086E090E019C08136910518F035
S113052085E090E013C08033910518F084E090E0FA
S11305300DC08831910518F083E090E007C00C9756
S113054018F082E090E002C080E090E0582F5770ED
S1130550887D852B886D992780937A00872F99272A
S11305608FBF08956D3118F080E090E008950C96E7
S11305700895CF92DF92EF92FF920F931F93CF9340
S1130580DF936C018B017A01E901232B19F1FB0143
S113059083E0F695E7958A95E1F7EE0DFF1D8081DE
S11305A099279B012770307002C0959587952A95ED
S11305B0E2F780FF06C0F6017183608380E090E07B
S11305C00BC0CB010196BE010E940C39BC018017FF
S11305D09107E9F681E090E0DF91CF911F910F91AF
S11305E0FF90EF90DF90CF900895CF93DF93982FF3
S11305F08FB7F894282F3327422F80913D02882308
S113060021F581E080933D029093FA042FBF8FB7C8
S1130610F894C82FDD279C2F80912802843099F408
S113062080913D02813021F483E10E94130209C0CC
S1130630823049F48091FA048093280283E0809305
S11306403D02CFBF07C09FBF05C08091FA04891740
S113065021F42FBF80E090E021C0E92FFF27ED5D5A
S1130660FA4F80818F3F89F4E0912702E91789F4DA
S11306700CC09093260204C0FF27ED5DFA4F9083CF
S11306809093270280E090E002C085E090E04FBFA5
S113069005C0809126028F3F79F7EBCFDF91CF9190
S11306A00895CF92DF92EF92FF920F931F93CF930F
S11306B0DF93782FC62FDD278BE090E0C89FF001F1
S11306C0C99FF00DD89FF00D1124E250FC4F80819A
S11306D0882319F085E090E048C0643018F480E085
S11306E091E002C080E090E0AA27BB27BA2FA92F8F
S11306F0982F882782179307A407B507A0F1821BB8
S1130700930BA40BB50B8C159D05AE05BF0558F1D5
S11307108BE090E0C89FF001C99FF00DD89FF00DC9
S11307201124E250FC4F7083238334834583568322
S1130730C782D086E186F28612830183613069F034
S1130740613028F0623059F0633059F003C080E022
S11307500E94F50280E090E008C081E0F9CF82E0D9
S1130760F7CF83E0F5CF86E090E0DF91CF911F9142
S11307700F91FF90EF90DF90CF9008957FB7F8949A
S11307806091B2002091A1023091A2024091A30293
S11307905091A402B99B11C08091B3009091B20012
S11307A0280F311D411D511D2F5F3F4F4F4F5F4F8C
S11307B0290F311D411D511D04C0260F311D411D3E
S11307C0511D872F99278FBFCA01B90108952F9210
S11307D03F924F925F926F927F928F929F92AF92CD
S11307E0BF92CF92DF92EF92FF920F931F93CF931A
S11307F0DF93CDB7DEB729970FB6F894DEBF0FBEEF
S1130800CDBF6FB76983F894209085033090860339
S11308104090870350908803662477248824BEE49C
S1130820AB2EA3E8BA2ECC24DD24EE24FF2400E072
S113083010E0222D332D442D552D662D772D882D36
S113084090E00E946C372A833B834C835D836E83E4
S11308507F8388879987822E932EA42EB52E240118
S1130860350100E20E946A38A22EB32EC42ED52E82
S1130870A301920156954795379527952A0D3B1D5F
S11308804C1D5D1D57FF05C05F772F5F3F4F4F4FD6
S11308905F4F2093850330938603409387035093DF
S11308A08803E9818E2F99278FBFCA01B901299640
S11308B00FB6F894DEBF0FBECDBFDF91CF911F916D
S11308C00F91FF90EF90DF90CF90BF90AF909F90EB
S11308D08F907F906F905F904F903F902F900895EE
S11308E0FC016230710510F460E070E071A760A74C
S11308F008950B960895CF93DF93FC01DC011196C4
S11309002181662351F0ED0189819927982F882749
S113091033272062822B932B09C0ED01898199270B
S1130920982F88273327822B932B8F7D8183892FC0
S113093099278983DF91CF910895EAEAF1E0692745
S1130940660FF11DE60FF11DC895982F802D319685
S1130950C895902508951F93CF93DF93142FEB012F
S113096004C069910E949D0411501123D1F7DF91B5
S1130970CF911F9108951F93982F1FB7F8948091DA
S11309803E02823099F580912B02891779F5809186
S1130990290220E030E08F3F11F421E030E0232BE6
S11309A0F1F49FEF90932B028F3F19F42FEF30E077
S11309B00DC0282F3327F901E35AFC4F808180931F
S11309C029028F3F11F490932A0290832093FA0511
S11309D081E080933E0284E10E94130205C08FEF00
S11309E080932B0210923E0221E001C020E0812F6F
S11309F099278FBF90E0213009F491E081E0982796
S1130A00892F99271F910895E82F9A01AB01BB27DD
S1130A10A52F942F832FBC01E13049F0E13078F009
S1130A20E23041F0E33049F060E078E008C0605023
S1130A307F4F05C060507E4F02C060507D4F8827B5
S1130A409927982F872F762F6627307044275527AC
S1130A50620F731F841F951F089510924402823001
S1130A6031F0833041F0813049F480E101C08EE0FF
S1130A700E94BB0408958FE00E94BB040895813056
S1130A8049F0813078F0823041F0833049F060E001
S1130A9070E008C060507E4F05C060507D4F02C0BA
S1130AA060507F4FCB010895982F4FB7F894552786
S1130AB02BB1277D2BB980E097FD5B9A5D9A4A990B
S1130AC080682BB996FD5B9A5D9A4A9980642BB92C
S1130AD095FD5B9A5D9A4A9980622BB994FD5B9A65
S1130AE05D9A4A9980612BB993FD5B9A5D9A4A9904
S1130AF088602BB992FD5B9A5D9A4A9984602BB900
S1130B0091FD5B9A5D9A4A9982602BB990FD5B9A3C
S1130B105D9A4A9981604FBF99270895882319F0F7
S1130B208CB5806402C08CB58F7B8CBD08950F9307
S1130B301F93982F1FB7F89480913A02823099F549
S1130B4080912402891779F58091220220E030E017
S1130B508F3F11F421E030E0232BF1F49FEF9093C9
S1130B6024028F3F19F42FEF30E00DC0282F3327D4
S1130B70F901E157FC4F8081809322028F3F11F4E9
S1130B809093230290832093920381E080933A020E
S1130B908EE00E94130205C08FEF8093240210920E
S1130BA03A0201E001C000E0812F99278FBF1FB7EF
S1130BB0F89480913A02882311F40E948E05812FC3
S1130BC099278FBF90E0013009F491E081E09827E4
S1130BD0892F99271F910F910895882319F08CB5B7
S1130BE0806802C08CB58F778CBD08950F931F93D6
S1130BF080E00E948E050FB7F8941127229A23985B
S1130C00219A209A8CB580618CBD80E00E94ED050C
S1130C108CB5877F8CBD8CB58B7F8CBD81E00E94A9
S1130C208E058DB581608DBD8CB58C7F8CBD0FBF5D
S1130C301F910F9108958FB7F89420916C0430910F
S1130C406D0440916E0450916F04E0918400F09122
S1130C508500B09B08C02F5F3F4F4F4F5F4FE0911F
S1130C608400F091850099278FBFC90177276627F3
S1130C709F0144275527622B732B842B952B0895B2
S1130C80FC0186A5826086A708958A960895FC01D2
S1130C9082819927982F882721813327822B932BB0
S1130CA0E5E096958795EA95E1F78170907008954F
S1130CB0AC01EFB7F8942091840030918500C9010C
S1130CC0841B950B03968617970720F0B9016D5F77
S1130CD07F4F02C0640F751F6115710511F461E047
S1130CE070E061507040709389006093880082E0E6
S1130CF086BB80916F00826080936F008E2F99274E
S1130D008FBF0895CF93DF93EC010E944706882399
S1130D1039F18A8129819927982F88273327822BB3
S1130D20932B87749C7C81549848D1F48F814E8195
S1130D302FB7F894332760911602709117022FBFD2
S1130D4020E09927982F88275527842B952B8617E1
S1130D50970709F021E081E02827822F992702C014
S1130D6080E090E0DF91CF91089521E020939303F8
S1130D702093D1042091840030918500BC01C901E5
S1130D800E945806089580917203823031F481E004
S1130D908093720389E00E9413020895EF92FF92F8
S1130DA00F931F937C018FB7F89499270091DF0468
S1130DB01091E0040F5E1E4F1093E0040093DF04D3
S1130DC0015111408FBF8BE00E941302C801B7018B
S1130DD00E940C398A5D9E4F1F910F91FF90EF90F6
S1130DE00895FC0180A591A508954FB7F89455275F
S1130DF0FC0153E0F695E7955A95E1F7ED52FB4F68
S1130E008770907021E030E002C0220F331F8A9572
S1130E10E2F78081822B80834FBF08958FB7F894C7
S1130E20992722B132E0232722B98FBF08958FB7C3
S1130E30F894992722B134E0232722B98FBF08956B
S1130E40DF92EF92FF920F931F938FB7F894282F9E
S1130E503327D22E9091B3008091B20047B39817F4
S1130E6011F041FF02C02FBF71C080917503882328
S1130E70E1F10E94BE03E0909802F0909902009183
S1130E809A0210919B0220912805309129054091E6
S1130E902A0550912B056E197F09800B910B62175F
S1130EA073078407950720F01092750371E01EC044
S1130EB02E0D3F1D401F511F8091A1029091A2024F
S1130EC0A091A302B091A402281B390B4A0B5B0B1F
S1130ED0273E31054105510540F4822F223010F0A0
S1130EE070E005C070E082E002C070E086EE682F1A
S1130EF061508091B60083FDFCCF8091B2006817E9
S1130F0009F46F5F2091A1023091A2024091A302E3
S1130F105091A402DA01C9010196A11DB11D860FE9
S1130F20911DA11DB11D82179307A407B50710F4E5
S1130F30622F60958091B60083FDFCCF6093B3006F
S1130F40DFBE772319F080E00E9413021F910F91F6
S1130F50FF90EF90DF900895AFB7F894BB27E1E0DE
S1130F60E0937503609398027093990280939A02B8
S1130F7090939B02209328053093290540932A05DA
S1130F8050932B05AFBF0E94200708951F920F9224
S1130F900FB60F9211248F938091B0008093B0000C
S1130FA08091B60081FDFCCF8F910F900FBE0F9002
S1130FB01F9018951F920F920FB60F9211240F9342
S1130FC01F932F933F934F935F936F937F938F93CD
S1130FD09F93AF93BF93CF93DF93EF93FF932EB57C
S1130FE0E091CD04F091CE04309739F080912B0438
S1130FF090912C04E80FF91F208380912B04909189
S11310002C04019690932C0480932B0480E00E947E
S1131010ED05C0912B04D0912C0420915402309101
S11310205502C217D30708F042C00091F805109189
S1131030F9054091CD045091CE04CE010A962817AB
S1131040390708F4C901DA01AC0FBD1FF801EC0F30
S1131050FD1F9C012150304015C00115110531F0D0
S113106080818EBD0DB407FEFDCF04C01EBC0DB43F
S113107007FEFDCF8EB54115510509F08C932196DD
S113108011963196C217D30740F381E00E94ED0513
S11310900115110531F00C0F1D1FF80180818EBD63
S11310A001C01EBCD0932C04C0932B0411C0109219
S11310B0CE041092CD041092F9051092F805109206
S11310C055021092540210922C0410922B048EB5E7
S11310D0FF91EF91DF91CF91BF91AF919F918F914C
S11310E07F916F915F914F913F912F911F910F913C
S11310F00F900FBE0F901F90189578941F920F9227
S11311000FB60F9211240F900FBE0F901F901895D9
S113111078941F920F920FB60F9211240F900FBE66
S11311200F901F90189578941F920F920FB60F92FC
S113113011242F933F938F939F93AF93BF932FB714
S1131140F894332780916C0490916D04A0916E04FF
S1131150B0916F040196A11DB11D80936C0490930E
S11311606D04A0936E04B0936F042FBFBF91AF9131
S11311709F918F913F912F910F900FBE0F901F90D1
S113118018951F920F920FB60F9211242F933F932D
S11311904F935F936F937F938F939F93AF93BF937B
S11311A0EF93FF93409178005091790078948FB732
S11311B0F89499272091FD02322F369531702170D1
S11311C08FBF222329F580917A00877F80937A004C
S11311D08091C503813021F0823009F043C00AC0F8
S11311E0332351F05093DC044093DB0489E10E94E3
S11311F0130238C0332349F48DE790E00197019638
S11312000197E1F70E943F022DC01092C5032AC046
S11312108FB7F89499278FBF2FB7F894332780910D
S11312207A00582F5770482F4072987D942B952B35
S11312308074977B982B90619F77892F992780934F
S11312407A00887D842B852B87738061992780930E
S11312507A00887D842B852B877B806999278093EE
S11312607A002FBFFF91EF91BF91AF919F918F9122
S11312707F916F915F914F913F912F910F900FBE8E
S11312800F901F901895EF92FF920F931F93CF9397
S1131290DF93EA017B010AC08C010F5F1F4F0E949C
S11312A07A39F70181937F012197C8012097A1F72B
S11312B080E090E0DF91CF911F910F91FF90EF902C
S11312C00895CF92DF92EF92FF920F931F93CF93E3
S11312D0DF93CDB7DEB728970FB6F894DEBF0FBE05
S11312E0CDBF7B018C018FB7F89448E050E06E01CC
S11312F00894C11CD11CB60180EF9FE00E944309F1
S1131300EB82FC820D831E838FEF8F83188680917E
S11313100002909101029A838983760180EF9FE015
S1131320F70161917F018C010F5F1F4F0E94823989
S1131330FFE0083F1F0711F0C801F2CFF999FECF73
S113134088E190E029E00FB6F894A89580936000B6
S11313500FBE20936000FFCF1F920F920FB60F9223
S113136011242F933F934F935F936F937F938F93A6
S11313709F93AF93BF93EF93FF938091B0008093BB
S1131380B0008091B60081FDFCCF8091B300992715
S11313900196AA27BB272091A1023091A202409175
S11313A0A3025091A402280F391F4A1F5B1F2093E8
S11313B0A1023093A2024093A3025093A402789412
S11313C00E942007FF91EF91BF91AF919F918F9160
S11313D07F916F915F914F913F912F910F900FBE2D
S11313E00F901F901895BF92CF92DF92EF92FF92C9
S11313F00F931F93B82ED70180913B02882319F0D5
S113140085E090E03CC0EB2DFF27E131F105B8F415
S1131410EA59FF4FEE0FFF1F0590F491E02D099458
S113142085E00E9451039927282F882349F481E0FD
S113143080933B02B0922F0680E090E020C021E030
S1131440822F99271CC0680179018D019A01AB0193
S113145063E0E6CF680179018D019A01AB0161E097
S1131460DFCF680179018D019A01AB0162E0D8CF29
S1131470680179018D019A01AB0160E0D1CF1F9120
S11314800F91FF90EF90DF90CF90BF900895BF929F
S1131490CF92DF92EF92FF920F931F93B82E6701C2
S11314A0780180913B02882319F085E090E034C0F4
S11314B0EB2DFF27E131F105B8F4E958FF4FEE0FAA
S11314C0FF1F0590F491E02D099484E00E945103DC
S11314D09927282F882349F481E080933B02B09216
S11314E02F0680E090E018C021E0822F992714C0D5
S11314F089019A01AB0163E0E8CF89019A01AB014C
S113150061E0E3CF89019A01AB0162E0DECF89019A
S11315109A01AB0160E0D9CF1F910F91FF90EF903A
S1131520DF90CF90BF900895EF92FF920F931F9397
S1131530813051F0813030F0823041F0833041F01D
S113154081E009C086E005C089E003C087E001C0EE
S113155088E00E94470A99271F910F91FF90EF900E
S11315600895BF92CF92DF92EF92FF920F931F9351
S1131570B82E6701780180913B02882319F085E039
S113158090E034C0EB2DFF27E131F105B8F4E857C2
S1131590FF4FEE0FFF1F0590F491E02D099481E0B9
S11315A00E9451039927282F882349F481E08093CE
S11315B03B02B0922F0680E090E018C021E0822F19
S11315C0992714C089019A01AB0163E0E8CF89012E
S11315D09A01AB0161E0E3CF89019A01AB0162E0BA
S11315E0DECF89019A01AB0160E0D9CF1F910F9141
S11315F0FF90EF90DF90CF90BF900895AF92BF928D
S1131600CF92DF92EF92FF920F931F938091740316
S113161099272CE130E0829FA001839F500D929F77
S1131620500D1124FA01EC53FA4F8081A82EBB24EB
S1131630CC24DD24FAE0AA0CBB1CCC1CDD1CFA95DE
S1131640D1F7FA01EB53FA4F808126E1829FC00162
S11316501124AA27BB27A80EB91ECA1EDB1E9A0195
S11316602A533A4F80913702823079F08330B1F0B7
S1131670813011F081E01CC0E6E1EE2EF12C012D49
S1131680112DB601A50185E011C076E1E72EF12CFC
S1131690012D112DB601A50183E008C066E1E62EF7
S11316A0F12C012D112DB601A50184E00E94B10A8F
S11316B0882311F01092C0021F910F91FF90EF90B8
S11316C0DF90CF90BF90AF900895CF92DF92EF92CA
S11316D0FF920F931F93CF93DF931092C503C09093
S11316E0DB04D090DC0480912005882309F062C0DB
S11316F08FB7F894E82E80914602833009F040C0F9
S113170080912C028823E1F580917704882309F0E5
S11317104BC03FC0EF2DE695E695E695FF274F2D8C
S11317205527E958FB4F9A012770307081E090E00B
S113173002C0880F991F2A95E2F7809520812823FB
S11317402083C093450211C02196C130D10511F404
S1131750C0E0D0E0FC2E8C2F0E94FF018823D1F63C
S1131760C017D10789F74FEF50E0409378038FEF0C
S113177080932C0281E08093460288E10E94130248
S1131780EFBED0923102C092300282E00E94130276
S113179011C081E080932C021092460280917A005D
S11317A08F7780937A00ECCF80914502082F112720
S11317B0E801CACFDF91CF911F910F91FF90EF9075
S11317C0DF90CF9008950F931F93CF93DF93182F3B
S11317D00FB7F89480913A02882311F40E94F60519
S11317E0802F99278FBF8FB7F894C82FDD272C2F10
S11317F080913A02882361F481E080933A02109345
S113180092038EE00E941302CFBF80E090E021C0DB
S1131810E12FFF27E157FC4F80818F3F89F4E0914E
S11318202302E11789F40CC01093220204C0FF279D
S1131830E157FC4F10831093230280E090E002C034
S113184085E090E02FBF05C0809122028F3F79F799
S1131850EBCFDF91CF911F910F9108958FB7F8943B
S1131860282F3327922F80912402882331F48091EA
S11318703A02823011F42FBF13C09FBF8FB7F89480
S1131880282F332780913A02882369F482E08093D9
S11318903A02109224022FBF0E94F605209A289A39
S11318A081E090E008952FBF80E00E94E30B80E088
S11318B090E008951F93982F8FB7F894182F809174
S11318C03D028330B1F580912802891791F580910A
S11318D0260220E030E08F3F11F421E030E0232B9A
S11318E0F9F48F3F19F42FEF30E00EC0282F33277F
S11318F0F901ED5DFA4F8081809326028F3F11F448
S1131900809327028FEF80832093FA048FEF8093D4
S1131910280281E080933D0283E10E94130205C006
S113192084E08093280210923D021FBF80E090E083
S113193003C01FBF81E090E01F9108951F93982F6B
S11319401FB7F89480913902823099F580911B0277
S1131950891779F58091190220E030E08F3F11F466
S113196021E030E0232BF1F49FEF90931B028F3F93
S113197019F42FEF30E00DC0282F3327F901E75A6F
S1131980FC4F8081809319028F3F11F490931A02C7
S113199090832093550381E08093390286E00E946E
S11319A0130205C08FEF80931B021092390221E0CD
S11319B001C020E0812F99278FBF90E0213009F4E6
S11319C091E081E09827892F99271F910895EF923C
S11319D00F931F93AE2D99E0899FF0011124E858CD
S11319E0FB4F40835183628373830483158326836F
S11319F03783A17080858E7F8A2B8260808781E007
S1131A000E9413021F910F91EF9008951F93CF939B
S1131A10DF938FB7F894282F3327122F8091460233
S1131A20882379F581E080934602109278032FBFD2
S1131A302FB7F894332780917A00806880937A00D6
S1131A402FBF8FB7F894C82FDD279C2F80912C02CD
S1131A508130A9F480914602813021F488E10E940A
S1131A60130209C0823059F48091780380932C02C8
S1131A7083E080934602CFBF80E090E018C09FBF10
S1131A80FBCF80917803882311F42FBFF5CF80E03A
S1131A900E94FF01882319F085E090E007C080913F
S1131AA0770481608093770480E090E01FBFDF912A
S1131AB0CF911F910895CF93DF93982F8FB7F89408
S1131AC0C82FDD272C2F80913E02882361F481E00A
S1131AD080933E029093FA0584E10E941302CFBFE3
S1131AE080E090E021C0E92FFF27E35AFC4F80817A
S1131AF08F3F89F4E0912A02E91789F40CC090938E
S1131B00290204C0FF27E35AFC4F908390932A02D2
S1131B1080E090E002C085E090E02FBF05C0809196
S1131B2029028F3F79F7EBCFDF91CF9108958FB7DB
S1131B30F894282F3327922F80912B02813149F476
S1131B4080913E02823029F42FBF87E10E94130264
S1131B5008959FBF81E10E945B0D08951F93182F84
S1131B60809144028823E1F4623041F0633041F013
S1131B70613011F081E007C080E103C08EE001C054
S1131B808FE00E945B0D90E0882309F491E090932C
S1131B904402992329F010930C0580E090E002C0E0
S1131BA081E090E01F910895CF92DF92EF92FF922F
S1131BB00F931F9380933C0260930F05C901880F14
S1131BC0892F881F990B919580931005220F812FDF
S1131BD09927282B2093110500931205D092D00445
S1131BE0C092CF04F0929103E092900340938E034D
S1131BF082E10E9413021F910F91FF90EF90DF90FA
S1131C00CF900895AF92BF92CF92DF92EF920F934D
S1131C101F93882389F00E94E7035B016C018FEF17
S1131C2090E0A0E0B0E0A822B922CA22DB2280E141
S1131C3090E0A0E0B0E010C00E94E7035B016C01FB
S1131C408FE790E0A0E0B0E0A822B922CA22DB220C
S1131C5080E890E0A0E0B0E0A80EB91ECA1EDB1E2A
S1131C600E94BE03AB01BC0111E0E12E9601850187
S1131C7081E00E94E70C1F910F91EF90DF90CF90CD
S1131C80BF90AF90089580932C05882311F484E0CD
S1131C9001C081E08093720389E00E9413020895D9
S1131CA0AF92BF92CF92DF92EF92FF920F931F9366
S1131CB0282F33278BE090E0289FF001299FF00D17
S1131CC0389FF00D1124E85BFD4F82819381A4813C
S1131CD0B5810097A105B10569F080819181880FD4
S1131CE0991F918380838150944020F080E094E098
S1131CF0918380838BE090E0289F5001299FB00C52
S1131D00389FB00C112488E492E0A80EB91EF501A6
S1131D1086819781A085B18582839383A483B583CB
S1131D20C080D180EE24FF2469E0CC0CDD1CEE1CC5
S1131D30FF1C6A95D1F70E94E703DC01CB01F50192
S1131D4000811181B801762F6627770F0E940C3924
S1131D50AA27BB278C0D9D1DAE1DBF1D222733272F
S1131D604AE0000F111F221F331F4A95D1F7081BA9
S1131D70190B2A0B3B0B068317832087318722819B
S1131D80338144815581280F391F4A1F5B1F2283E9
S1131D903383448355831F910F91FF90EF90DF901D
S1131DA0CF90BF90AF900895843021F0853051F0EA
S1131DB0833079F480910A02813059F483E00E94DF
S1131DC01302089580910A02813019F483E00E947D
S1131DD013020895BF92CF92DF92EF92FF920F9376
S1131DE01F93B82E80918A02882339F085E080936E
S1131DF03C0282E10E9413021DC08B2D9927FC0135
S1131E00EE0FFF1FE80FF91FEF53FD4F20813181C3
S1131E10BB2011F461E601C060E6E1E0CE2ED12CD6
S1131E20EE24FF2400E010E040E08AE00E94D40D9C
S1131E30B09272041F910F91FF90EF90DF90CF90BA
S1131E40BF900895CF92DF92EF92FF920F931F936A
S1131E5080918A02882339F085E080933C0282E1F4
S1131E600E94130229C040917404842F9927FC0115
S1131E70EE0FFF1FE80FF91FDF01AF53BD4F2D9188
S1131E803C91ED53FD4F808182FF06C0442311F045
S1131E9068E807C069E805C0442311F063E801C09D
S1131EA066E8B1E0CB2ED12CEE24FF2400E010E054
S1131EB040E089E00E94D40D1F910F91FF90EF90B4
S1131EC0DF90CF900895CF92DF92EF92FF920F931D
S1131ED01F93982F80913B02882319F085E090E0AE
S1131EE04AC0E92FFF27E131F105A8F4E756FF4F77
S1131EF0EE0FFF1F0590F491E02D099483E00E94FA
S1131F0051039927282F882339F481E080933B02D9
S1131F1080E090E030C021E0822F99272CC0CC24AF
S1131F20DD24760100E010E020E030E040E050E005
S1131F3063E0E4CFCC24DD24760100E010E020E06F
S1131F4030E040E050E061E0D9CFCC24DD247601DC
S1131F5000E010E020E030E040E050E062E0CECF6E
S1131F60CC24DD24760100E010E020E030E040E005
S1131F7050E060E0C3CF1F910F91FF90EF90DF908E
S1131F80CF900895BF92CF92DF92EF92FF920F937A
S1131F901F93B82E80913B02882319F085E090E0CE
S1131FA04CC0EB2DFF27E131F105B8F4E655FF4FA6
S1131FB0EE0FFF1F0590F491E02D099482E00E943A
S1131FC051039927282F882349F481E080933B0209
S1131FD0B0922F0680E090E030C021E0822F992754
S1131FE02CC0CC24DD24760100E010E020E030E0B9
S1131FF040E050E063E0E2CFCC24DD24760100E051
S113200010E020E030E040E050E061E0D7CFCC24A5
S1132010DD24760100E010E020E030E040E050E014
S113202062E0CCCFCC24DD24760100E010E020E097
S113203030E040E050E060E0C1CF1F910F91FF908D
S1132040EF90DF90CF90BF900895EF92FF920F939F
S11320501F9380912A04843090F41092910204E535
S1132060E02EF12C012D112D2FEF32E040E050E055
S113207060E070E0809183030E94940A0FC0809115
S11320809602843041F0882331F484E080939602F0
S113209087E00E94130283E0809391021F910F91C5
S11320A0FF90EF900895EF92FF920F931F9380910A
S11320B09102823009F04EC080919F029927982F97
S11320C088272091A0023327822B932BE816F90648
S11320D0A9F080918303813049F0813028F0823067
S11320E049F08330B9F508C08AE001C08DE00E9450
S11320F0C20F30C08BE0FBCF8CE0F9CF4091580386
S11321004F5F40935803809107034817B0F481E070
S1132110809391025527440F551F40585F4F6627FF
S1132120772782E0E82EF12C012D112D2FE932E0E2
S1132130809183030E94940A0DC0E0912A04EF5F0A
S1132140E0932A04FF27EE5FFD4F80818093830391
S11321500E9425101F910F91FF90EF900895CF9248
S1132160EF92FF920F931F93873061F0883018F439
S1132170863079F405C0883039F0893051F406C0CE
S113218080E005C082E003C083E001C081E00E94DA
S113219053101F910F91FF90EF90CF90089580916D
S11321A09102823019F0833071F4FBCFE0912A045C
S11321B0EF5FE0932A04FF27EE5FFD4F8081809359
S11321C083030E94251008959F92AF92BF92CF92ED
S11321D0DF92EF92FF920F931F93982EF901809153
S11321E09102813009F4D5C0813008F478C084307C
S11321F009F00FC183E08093910280910D0588233B
S113220009F007C1A280BB24CC24DD24DC2CCB2C18
S1132210BA2CAA242081332744275527522F442738
S11322203327222781819927AA27BB27DC019927F5
S11322308827282B392B4A2B5B2B83819927AA27A4
S1132240BB27282B392B4A2B5B2BA22AB32AC42A5F
S1132250D52AE0907C03FF2400271127102F0F2D8F
S1132260FE2CEE2420917A03332744275527522F3E
S113227044273327222780917B039927AA27BB274A
S1132280DC0199278827282B392B4A2B5B2B80913B
S11322907D039927AA27BB27282B392B4A2B5B2B95
S11322A0E22AF32A042B152BAE14BF04C006D10670
S11322B081F480917903843051F440E050E060E08F
S11322C070E0892D0E9404050E946109A2C081E08A
S11322D001C082E0809343020E94970D9AC0CC20F3
S11322E009F097C0E0900103FF2400271127102F65
S11322F00F2DFE2CEE242091FF023327442755276F
S1132300522F442733272227809100039927AA2795
S1132310BB27DC0199278827282B392B4A2B5B2BD9
S1132320809102039927AA27BB27282B392B4A2BF4
S11323305B2BE22AF32A042B152B8FEFE8168FEF81
S1132340F8068FEF08078FEF1807A9F010925803CB
S113235081E08093910232E0E32EF12C012D112DC6
S11323602FE932E040E850E060E070E080918303C0
S11323700E94940A4EC0E0912A04EF5FE0932A047D
S1132380FF27EE5FFD4F8081809383030E94251019
S113239040C082E080939102609158037727882798
S11323A0992720E534E040E050E00E94ED38AB018D
S11323B0BC0140585E4F6F4F7F4F80918303813043
S11323C079F0813028F0823099F0833011F518C00B
S11323D0EE24FF2400E514E020E030E086E017C09E
S11323E0EE24FF2400E514E020E030E089E00FC093
S11323F0EE24FF2400E514E020E030E087E007C08D
S1132400EE24FF2400E514E020E030E088E00E94A0
S1132410F3091F910F91FF90EF90DF90CF90BF9041
S1132420AF909F9008950F931F93CF93DF938C01E8
S11324308FE3F8018287809147028F5F8093470280
S1132440E80121968A83809196028D3011F08731BC
S113245041F4809192048D7F8093920487E00E94DE
S11324601302809196028A3021F0863111F087316F
S113247011F48EE112C08B3011F48FE10EC08C3058
S113248021F0843111F08D3011F480E206C08531E1
S113249019F085E090E01FC08DE18093960240E042
S11324A08E819927982F88272D813327822B932B70
S11324B08F5F9F4F09F041E0442321F061E0C801A0
S11324C00E947B041093FD050093FC0581E080933A
S11324D0870280E090E0DF91CF911F910F910895E2
S11324E0FF920F931F93CF93DF93F82E8B01EA0192
S11324F0622F2D3118F086E090E092C0FA013196F7
S11325008181298170E09927582F44273327422B52
S1132510532BCA0187749C7C8154984809F471E058
S1132520772349F4CA018073907081649868898321
S1132530892F99278183635F68832FB7F8943327A2
S113254080911602909117022FBF8887892F9927AF
S113255089872FB7F8943327809118022FBF9927C2
S11325608C831D82CE010E947904FC01F0820E83CB
S1132570812F99278F838FB7F894282F3327809141
S11325803902882371F482E08093390210921B028D
S11325902FBFCE010E9413129927182F882399F078
S11325A00FC02FBFD0935703C09356038FB7F8942F
S11325B0C82FDD272C2F80913902882399F406C077
S11325C080E00E949E0C812F99272AC081E080938D
S11325D039021092550386E00E941302CFBF80E0B7
S11325E090E01EC0809159038F3F89F4E0911A0254
S11325F0EE2369F010C01092190204C0FF27E75AB5
S1132600FC4F108210921A0280E090E002C085E034
S113261090E02FBF05C0809119028F3F79F7EBCF6F
S1132620DF91CF911F910F91FF900895EF92FF9248
S11326300F931F93CF93DF938091150299270196EF
S113264066E070E00E942039682F8093150200E054
S1132650462F5527FA01EE0FFF1FE05AFB4FC081AA
S1132660D181209799F0E62FE695E695E695FF2728
S1132670E95DFA4F808199279A012770307002C072
S1132680959587952A95E2F780FF0DC0CA010196BA
S113269066E070E00E942039682F0F5F0630C1F6B3
S11326A0009315021FC0609315026630D8F4E880C9
S11326B083EFE80EFF240F811127102F00278E814E
S11326C09927082B192BCE010E947904FC012E2D89
S11326D0AE01B80180810E947012882319F085E050
S11326E00E941302DF91CF911F910F91FF90EF9001
S11326F00895EF92FF920F931F93CF93DF93E82EE9
S11327008B01F42E85E08E1518F481E090E03BC037
S1132710CE2DDD27CC0FDD1FC05ADB4F8881998178
S1132720892B19F085E090E02EC079836883EDE071
S1132730FE0EFB01F082F3EFFF0E8091150286304E
S113274018F480E090E01FC0CB010E947904FC01E2
S11327508081F80167817727762F662726813327C2
S1132760622B732BE09215022F2DA8010E94701288
S11327709927282F882329F086E08093150219824F
S11327801882822F9927DF91CF911F910F91FF908B
S1132790EF900895CF92DF92EF92FF920F931F93E1
S11327A0CF93DF936C0180919702882309F48EC044
S11327B080916F03882309F089C066E086E592E082
S11327C00E94B202EC01892B09F480C081E080935D
S11327D06F03C9828D2D9927888380E0C8168EEDFA
S11327E0D80629F020E030E040E050E008C0209115
S11327F03F02309140024091410250914202FE0159
S113280032962383BB27A52F942F832F8283CA015B
S1132810AA27BB278183252F3327442755272A83BB
S1132820E280FF2400271127102F0F2DFE2CEE2409
S1132830522F4427332722279927AA27BB27DC01B5
S113284099278827282B392B4A2B5B2B838199279F
S1132850AA27BB27282B392B4A2B5B2BE22AF32AE6
S1132860042B152BE114F1040105110511F410E0FA
S113287012C080E0C8168EEDD80621F41AE060EF8D
S113288074E003C010E060E070E0412F5527CE01F2
S113289006960E946A3960911E0270911F0286E5B5
S11328A092E00E9470048FEF80935C0280935D023B
S11328B086E592E00E947904FC0180E680831A5F39
S11328C0412F66E572E083E00E947913DF91CF9196
S11328D01F910F91FF90EF90DF90CF900895823079
S11328E0910510F480E090E090931D0280931C0207
S11328F0909196029D3011F0973159F48091920491
S11329008D7F8093920491509093960287E00E9469
S1132910130208954F925F926F927F928F929F92CB
S1132920AF92BF92CF92DF92EF92FF920F931F93D9
S1132930CF93DF932C0180915302882309F085C142
S11329408091FB05853009F080C10E942E0C8823FC
S113295009F47BC180910105882309F076C16EE2F8
S1132960862E912C840C951CF20186A582FD02C052
S113297090E003C0F20190A99F708091C60398175C
S113298081F09093C603289885EC8EBD0DB407FEA4
S1132990FDCF8EB590689EBD0DB407FEFDCF8EB5FC
S11329A0289AE20121968981F201218140E0992748
S11329B0982F88273327822B932B87749C7C8154F0
S11329C0984809F441E0442301F1289886E88EBD33
S11329D00DB407FEFDCF8EB51EBC0DB407FEFDCFB2
S11329E08EB5289A99278F71907020918903409110
S11329F05A03240F312D311D43E0359527954A950F
S1132A00E1F7281739070CF420C1289882EC8EBD11
S1132A100DB407FEFDCF8EB589E08EBD0DB407FE63
S1132A20FDCF8EB5289A0E941B067B018C01D40130
S1132A308C9184FD03C0E0E0F0E005C0F2018081E8
S1132A408550E80FF11D289881E88EBD0DB407FE6E
S1132A50FDCF8EB51EBC0DB407FEFDCF8EB5289AF2
S1132A608F71893079F0289882EC8EBD0DB407FE01
S1132A70FDCF8EB586E08EBD0DB407FEFDCF8EB5BD
S1132A80289AE3C08FB7F89499272F9A209184004D
S1132A90309185008FBF2F98289880E68EBDD20193
S1132AA09C910DB407FEFDCF8EB59EBD792F72505B
S1132AB0773010F4672F01C067E0DE01962F4D9147
S1132AC00DB407FEFDCF8EB54EBD9150C1F76150D8
S1132AD0C60FD11D6F5F21962E193F092E553F4F0A
S1132AE03901882477FC8094982C6E0C7F1C801EFE
S1132AF0911E309719F4972F961B42C02081E180D4
S1132B008281A3809927AA27BB27BA2FA92F982FA0
S1132B108827332744275527522F44273327222732
S1132B20FF24002711278701FF24EE242E293F29A3
S1132B30402B512BBB24CC24DD242A293B294C29AE
S1132B405D29822B932BA42BB52B86199709A809F1
S1132B50B9098383292F3A2F4B2F552722839D01AF
S1132B604427552721838B2F9927AA27BB278083A6
S1132B70C2CF28810DB407FEFDCF21968EB52EBDA0
S1132B809150B8F70DB407FEFDCF8EB5289A28985A
S1132B9082EC8EBD0DB407FEFDCF8EB586E08EBDF2
S1132BA00DB407FEFDCF8EB5289A3097D1F1208160
S1132BB0E1808281A3809927AA27BB27BA2FA92F56
S1132BC0982F8827332744275527522F4427332704
S1132BD02227FF24002711278701FF24EE242E2912
S1132BE03F29402B512BBB24CC24DD242A293B290B
S1132BF04C295D29822B932BA42BB52B860D971D75
S1132C00A81DB91D8383292F3A2F4B2F55272283C3
S1132C109D014427552721838B2F9927AA27BB275A
S1132C208083C2010E944006C2010E944506FC0145
S1132C30608271828282938286E08093FB0584E0C5
S1132C408093530280E090E002C085E090E0DF9141
S1132C50CF911F910F91FF90EF90DF90CF90BF9095
S1132C60AF909F908F907F906F905F904F9008955A
S1132C70AF92BF92CF92DF92EF92FF920F931F9386
S1132C80CF93DF9380910105882309F4FEC00E944D
S1132C902E0C882309F4F9C08FB7F8949927C091B2
S1132CA08C03D0918D038FBF1092010528988FE873
S1132CB08EBD0DB407FEFDCF8EB51EBC0DB407FE50
S1132CC0FDCF8EB5289A982F80915302833011F04E
S1132CD0873031F485E08093FB0588E080935302CC
S1132CE0A92EBB24A2FE5FC080915302863019F442
S1132CF01092530203C0882309F055C0943009F0A0
S1132D0041C0289886E88EBD0DB407FEFDCF8EB570
S1132D101EBC0DB407FEFDCF2EB5289A2F718091ED
S1132D205A03982F96959695322F391B830F8093CB
S1132D305A03E0919C02F0919D0286A58B7F8860E6
S1132D4086A720AB0E941B066B017C0100919C02AC
S1132D5010919D02C8010E944006C8010E944506C8
S1132D60FC01CC19DD092797CE01AA2797FDA09570
S1132D70BA2F8C0D9D1DAE1DBF1D80839183A28330
S1132D80B3830EC0E0919C02F0919D0286A5877FDB
S1132D9086A7E0919C02F0919D0286A58D7F86A76F
S1132DA085E080935302A3FE70C080915302843067
S1132DB009F04EC085E08093FB0510925302809188
S1132DC09E02833019F410929E025FC0C0913606B1
S1132DD0D0913706CE010E944706882389F18A8163
S1132DE029819927982F88273327822B932B87743F
S1132DF09C7C8154984821F58F812E819927982FA6
S1132E0088273327822B932B8F5F9F4FC9F090E045
S1132E108091D104882309F491E0992389F012E088
S1132E201093930381E08093D10480918400909166
S1132E30850069E973E00E94580610939E0225C03C
S1132E4010929E021092730380E00E94430E1DC0F4
S1132E508530D9F420918903289886E88EBD0DB475
S1132E6007FEFDCF8EB51EBC0DB407FEFDCF8EB59B
S1132E70289A8F71922F96959695891B280F2093E7
S1132E80890389E08093530208C0909153029923E7
S1132E9009F4E4C2993009F011C2289880E28EBD89
S1132EA00DB407FEFDCF8EB51EBC0DB407FEFDCFDD
S1132EB08EB5482F5527433008F495C3842F99279E
S1132EC08A970CF090C31EBCE0919C02F0919D0285
S1132ED04083542F5250573010F4452F01C047E01F
S1132EE0DF011196242FFD0160E070E00DB407FEB0
S1132EF0FDCF8EB51EBC992781936827062E629557
S1132F00607F6025072E762F62956F700626669582
S1132F1076276727660F660F660F6025215031F705
S1132F204150A40FB11D4F5F1196E0919C02F091A6
S1132F309D02818190E08770823009F491E09923A9
S1132F4049F020E030E080919E02823081F421E05B
S1132F5030E00DC08FB7F894282F332790E080918C
S1132F60FB04833008F491E02FBF292F3327232B50
S1132F7009F45CC0952F941B18C00DB407FEFDCF57
S1132F808EB51EBC8C938D916827062E6295607F4A
S1132F906025072E762F62956F7006266695762734
S1132FA06727660F660F660F6025915030F70DB4E2
S1132FB007FEFDCF8EB51EBC9B012827022E22954D
S1132FC0207F2025032E322F22952F70022626954E
S1132FD032272327220F220F220F20250DB407FEAC
S1132FE0FDCF8EB51EBC2827022E2295207F2025DA
S1132FF0032E322F22952F7002262695322723275F
S1133000220F220F220F20250DB407FEFDCF8EB50F
S1133010E0919C02F0919D0287A7289A15E01093F5
S1133020FB0510925302232B31F014C20DB407FE9A
S1133030FDCF8EB5D8C2E0909C02F0909D0267014E
S11330400894C11CD11CF701818190E0282F3327FB
S1133050277030702230310509F491E080919E028E
S1133060992319F1823009F024C1F7019381E09189
S11330703606F09137068381981709F01AC1223079
S1133080310509F016C180916F008D7F80936F0028
S11330901092D10486A5816086A710929E02109298
S11330A0730380E00E94430E04C18823C9F4C7015E
S11330B00E9482068823A1F01093C70382E08093C4
S11330C0C8031092C903F70183818093CA0387EC74
S11330D093E00E948A14882319F483E080939E026B
S11330E00091840010918500C7010E948206882304
S11330F011F0045E1C4F10935F0400935E048091F2
S11331008400909185009801281B390B1216130630
S1133110A4F480917303882369F490E08091D1042E
S1133120882309F491E0992341F0C9010E94B5066E
S113313080E801C0806880937303F601808527814D
S11331409927582F44273327422B532B8091A502CC
S1133150282F3327F901EE0FFF1FEE5FFA4F80810E
S113316091817091D2048417950769F4F901E05DA7
S1133170F94F8081871709F467C0872F8F5F809389
S1133180D20480831DC000E010E080E090E0C2E043
S1133190D5E0E0E3F6E0DF01682F9C0188819981A6
S11331A08417950779F42093A5029091D2048C9109
S11331B0891709F449C0892F8F5F8093D2048C93B7
S11331C000E829C08081972F981B091710F4092F54
S11331D0122F6F5FC90101961196229631968530A0
S11331E09105D1F66530B9F41093A502A12FBB2740
S11331F0FD01EE0FFF1FEE5FFA4F51834083809174
S1133200D2048F5F8093D204FD01E05DF94F808387
S1133210A85CB94F1C929091D204892F8F778F3775
S113322079F40F3768F0E0E3F6E0292F2078808105
S11332308F6789132083319636E0E533F307B9F7B6
S11332408091A502282F3327F6019281A22FBB2754
S1133250FD01E85CF94F808180FF07C0FD01E45067
S1133260FB4F8081981729F102C081608083A450AC
S1133270BB4F9C93DFB6F8948091FB048330B0F489
S1133280E0911F05E80FE33008F0E350FF27EE0F4D
S1133290FF1FE557FD4F00811181F182E0828F5FAE
S11332A08093FB048AE00E94130278018D2D9927F4
S11332B08FBFF0929D02E0929C02C3C0892F81507F
S11332C0833008F09CC081508230E0F43091FB05DB
S11332D03130C1F420E08091D104882309F421E045
S11332E0222381F02F9883E0809393033093D104B9
S11332F080918400909185006BE273E00E945806EF
S113330082E068C0933009F042C08091FB058330AD
S113331009F097C00E942E0C8823C9F128988FE8E1
S11333208EBD0DB407FEFDCF8EB51EBC0DB407FED9
S1133330FDCF8EB5289A80918100806480938100AE
S113334080E286BB80916F00806280936F009091D1
S11333505403289888EC8EBD0DB407FEFDCF8EB5BE
S113336090669EBD0DB407FEFDCF8EB5289A2898B1
S113337082EC8EBD0DB407FEFDCF8EB586E08EBD0A
S11333800DB407FEFDCF8EB5289A84E023C080914A
S113339053028150823000F58091FB058530E1F4C1
S11333A00E942E0C8823C1F0289882EC8EBD0DB4A7
S11333B007FEFDCF8EB583E08EBD0DB407FEFDCFB5
S11333C08EB5289A80916F008F7D80936F00109244
S11333D0010583E08093FB0590915302913041F401
S11333E08091FB058330B1F52F9A9093FB0525C09E
S11333F0923039F58091FB05833061F51EC097301A
S113340001F50E942E0C8823E1F090915403289832
S113341088EC8EBD0DB407FEFDCF8EB590669EBDC3
S11334200DB407FEFDCF8EB5289A8091FB0585303B
S113343021F484E08093FB0504C088E08093530268
S113344004C080915302883029F41092530288E01A
S11334500E94130280915302882309F58091FB0591
S11334608530D1F4809101058823B1F480919E02C6
S1133470882391F480917303882371F490E0809100
S1133480D104882309F491E0992331F00E94C30602
S113349080915302882319F48CE00E9413028091D6
S11334A0D104823009F092C01092D104C0909303E9
S11334B0F2E0CF1609F466C023E0C21609F46AC02C
S11334C031E0C31609F082C020915E0430915F049C
S11334D0809184009091850040917303403829F4D1
S11334E0109273030E94C30671C08901081B190B53
S11334F047FF03C010161106ECF0C0915B03D09196
S11335005C0380919E028823A9F4CE010E948A1450
S11335109927882351F48EA58E7F8EA7C0929E0290
S1133520D0933706C093360629C09927F82E8823EE
S113353029F102C075E0F72E20917303822F992799
S11335408F77019759F4207822602093730385E8DC
S11335509BE00E94CE060E94B50638C027FF0AC031
S1133560101611063CF480E880937303C8010E948E
S1133570B50602C0109273038F2D09C083E08093B7
S1133580730324C010929E021092730380E00E9481
S1133590430E1CC08091FB05823019F4C092FB05D8
S11335A013C080915302863079F410925302289804
S11335B081E88EBD0DB407FEFDCF8EB51EBC0DB4E3
S11335C007FEFDCF8EB5289A0E941C1B8FB7F89476
S11335D0282F332780915303813061F081E0809359
S11335E053032FBF4FCB289A85E08093FB0510929D
S11335F0530230CF109253032FBFDF91CF911F910D
S11336000F91FF90EF90DF90CF90BF90AF9008950F
S11336108FB7F894282F33278091530381508093D8
S11336205303803811F02FBF089581E08093530332
S11336302FBF0E94381608958FB7F894282F332788
S113364080915303882329F08068809353032FBF0C
S1133650089581E0809353032FBF0E943816089584
S113366078941F920F920FB60F9211242F933F93C9
S11336704F935F936F937F938F939F93AF93BF9376
S1133680EF93FF93E6E8F0E080819181208131811E
S11336908FB7F894992730938D0320938C0321E0FE
S11336A0209301058FBF0E941C1BFF91EF91BF91D6
S11336B0AF919F918F917F916F915F914F913F91C6
S11336C02F910F900FBE0F901F90189578941F9212
S11336D00F920FB60F9211242F933F934F935F9342
S11336E06F937F938F939F93AF93BF93EF93FF93C6
S11336F080916F008D7F80936F0078949FB7F894CA
S11337008091D104813019F482E08093D104892F0F
S113371099278FBF0E941C1BFF91EF91BF91AF911E
S11337209F918F917F916F915F914F913F912F91D5
S11337300F900FBE0F901F9018951F93382F8FB7BF
S1133740F8949927209153032F5F209353038FBF3D
S113375080917203882311F015E01BC080915302FD
S11337608823A1F4932F9F7180915403891719F42E
S113377089E090E00DC09093540317E01093530236
S11337800E941C1B1093720310E003C085E090E0BC
S1133790182F0E94081B812F99271F910895AF921B
S11337A0BF92CF92DF92EF92FF920F931F930E94EA
S11337B0BE037B018C0160919C0470919D048091F7
S11337C09E0490919F04A0904A02B0904B02C09036
S11337D04C02D0904D02A114B104C104D10409F4E7
S11337E04EC0EFB7F8942091D30420FD36C0A80151
S11337F09701261B370B480B590B2A153B054C0523
S11338005D05C8F4A21AB30AC40AD50A80914A0213
S113381090914B02A0914C02B0914D02821B930BEC
S1133820A40BB50B80934A0290934B02A0934C02D5
S1133830B0934D0215C081E090E0A0E0B0E0809329
S11338404A0290934B02A0934C02B0934D02F1E0D4
S1133850AF2EB12CC12CD12C03C02E7F2093D304C6
S11338608E2F99278FBF0E94BE03AB01BC01E1E0FC
S1133870EE2E9601850184E00E94E70C05C080913C
S1133880A4048D7F8093A4041F910F91FF90EF9067
S1133890DF90CF90BF90AF900895FF920F931F9346
S11338A0CF93DF93F82E282F33278BE090E0289FC7
S11338B0E001299FD00D389FD00D1124C85BDD4F46
S11338C081E090E0998388831A868A819B81AC8108
S11338D0BD810097A105B105A1F00FB7F894112798
S11338E0C9010E94F5060FBF1A821B821C821D8229
S11338F01E821F82188619868F2D0E94500E0E94E8
S1133900CF1BDF91CF911F910F91FF9008950F93DB
S11339101F9380914A0290914B02A0914C02B09166
S11339204D020097A105B10531F510924A0210929B
S11339304B0210924C0210924D0210924E021092C1
S11339404F0210925002109251021092520280E0E3
S11339500E94500E0FB7F894112780E090E00E9467
S1133960F5060FBF0E94CF1B80E00E944D1C81E032
S11339708093890203C080E00E944D1C81E0809303
S1133980970280E090E01F910F9108958091890241
S1133990882391F01092890210924A0210924B02ED
S11339A010924C0210924D0280E094E090934902F0
S11339B0809348020E94CF1B1092970280E090E00F
S11339C00895EF920F931F932091E504332721501C
S11339D0304081E090E0A0E0B0E004C0880F991F7F
S11339E0AA1FBB1F2A95D2F78093E1049093E204A7
S11339F0A093E304B093E4040E94E7032091E1045C
S1133A003091E2044091E3045091E404882799271B
S1133A102150304040405040622373238423952337
S1133A202F5F3F4F4F4F5F4F260F371F481F591FC0
S1133A302093E1043093E2044093E3045093E404BC
S1133A408091E6048E7F8093E60480919B048D7FB1
S1133A5080939B040E94BE03AB01BC01A1E0EA2E4B
S1133A6008EE13E020E030E083E00E94E70C1F91B1
S1133A700F91EF9008958091E504893029F089E051
S1133A808093E5040E94E11C0895AF92BF92CF9207
S1133A90DF92EF920F931F935B016C010E94BE03B0
S1133AA0AB01BC01B1E0EB2E9601850187E00E94D9
S1133AB0E70C1F910F91EF90DF90CF90BF90AF90E4
S1133AC00895EF920F931F93FB01823019F1833015
S1133AD030F4882371F0813009F09FC00DC0843028
S1133AE009F451C0843008F44EC0853009F095C003
S1133AF04DC01092350291C080913602853009F094
S1133B008CC08091840381508093840380E00E9460
S1133B10020E83C06CE18DE294E00E94B202FC01CB
S1133B20892B09F47AC025813327E22FE695E6959F
S1133B30E695FF27EB52FB4F2770307081E090E051
S1133B4002C0880F991F2A95E2F7809520812823C7
S1133B5020830E94BE03AB01BC0101E0E02E02E021
S1133B6010E020E030E081E00E94E70C2FB7F894E9
S1133B70332782B191E0892782B92FBF0E940E07B3
S1133B800E9417074AC010926F0347C01092320276
S1133B9086A580FD2AC08091330281508093330230
S1133BA0882371F00E94BE03AB01BC0111E0E12E39
S1133BB00AEF10E020E030E088E00E94E70C2DC01E
S1133BC080910602813049F510921F0210921E0264
S1133BD080E090E00E946F1480912E020E949D1B51
S1133BE060E27FEB82E090E014C0809106028130B5
S1133BF0A1F410921F0210921E0280E090E00E9435
S1133C006F1480912E020E949D1B60EE73E984E084
S1133C1090E00E94451D0E94871C1F910F91EF9018
S1133C200895EF92FF920F931F93E82E8B01F42EC9
S1133C30E82FFF27EE0FFF1FE05AFB4F118210827F
S1133C400E9416134F2DB8018E2D0E94611D1F91E5
S1133C500F91FF90EF9008950F931F93CF93DF93ED
S1133C60062F109115021630A0F4E12FFF27EE0F56
S1133C70FF1FE05AFB4FC081D181C817D90749F40F
S1133C80118210820E941613402FBE01812F0E94C0
S1133C90611DDF91CF911F910F910895AF92BF9253
S1133CA0CF92DF92EF920F931F935B016C010E94FE
S1133CB0BE03AB01BC0131E0E32E9601850182E035
S1133CC00E94E70C1F910F91EF90DF90CF90BF906F
S1133CD0AF900895DF92EF92FF920F931F93CF93CB
S1133CE0DF93CDB7DEB722970FB6F894DEBF0FBED1
S1133CF0CDBFD09036028D2D8250823008F0CBC0DB
S1133D00E090E904FF2400271127102F0F2DFE2C2B
S1133D10EE242091E704332744275527522F4427C4
S1133D20332722278091E8049927AA27BB27DC019F
S1133D3099278827282B392B4A2B5B2B8091EA045F
S1133D409927AA27BB27282B392B4A2B5B2BE22A3E
S1133D50F32A042B152B80910B0290910C02A09155
S1133D600D02B0910E028E159F05A007B10729F42C
S1133D708091E60481608093E6046CE18DE294E036
S1133D800E94B2028C0182E0D81639F58091380283
S1133D90882309F080C081E08093380283E00E9488
S1133DA0591F80910B0290910C02A0910D02B091C9
S1133DB00E02F8018383292F3A2F4B2F5527228394
S1133DC09D014427552721838B2F9927AA27BB2799
S1133DD0808380910F0284831582F801658177279F
S1133DE02FE230E045ED54E0CE0101960E94B90285
S1133DF0882321F081E00E94591F4DC08981F80178
S1133E00858380910F02482F5527662777278AE0FC
S1133E10440F551F661F771F8A95D1F7898126E1C4
S1133E20829FC0011124AA27BB27480F591F6A1F6C
S1133E307B1F98012A5F3F4FE0913702E23069F01F
S1133E40E33091F0E13011F081E016C0B6E1EB2EE1
S1133E50F12C012D112D82E00DC0A6E1EA2EF12CEA
S1133E60012D112D80E006C0F6E1EF2EF12C012D7D
S1133E70112D81E00E94470A882369F00E94BE0345
S1133E80AB01BC01E1E0EE2E00E110E020E030E007
S1133E9081E00E94E70C22960FB6F894DEBF0FBEB5
S1133EA0CDBFDF91CF911F910F91FF90EF90DF90E5
S1133EB00895823040F490913602933011F0953099
S1133EC011F4109238028093360208950F931F93D1
S1133ED08B019C0190913602892F8250823030F5FB
S1133EE080910B0290910C02A0910D02B0910E02F0
S1133EF0081719072A073B074CF0081719072A0760
S1133F003B0781F580910F02481760F581E00E941C
S1133F10591F1092D5041092D6041092D70410920F
S1133F20D8041092D9041092DA041CC09450923030
S1133F30C8F48091100290911102A0911202B091E4
S1133F401302081719072A073B074CF0081719072B
S1133F502A073B0739F480911402841718F081E092
S1133F6080930E051F910F910895CF92EF920F93B6
S1133F701F9389016CE18DE294E00E94B2020696DF
S1133F8008171907C1F5809136028330A1F5CC20BA
S1133F9021F081E00E94591F2EC0009175041091F8
S1133FA0760460911E0270911F028DE294E00E94DB
S1133FB0700400933304012F1127009334048DE21D
S1133FC094E00E947904FC0182E580834CE16DE277
S1133FD074E082E00E947913882369F00E94BE0392
S1133FE0AB01BC01F1E0EF2E00E110E020E030E095
S1133FF081E00E94E70C1F910F91EF90CF900895FC
S1134000CF92EF92FF920F931F938630C1F08730C7
S113401038F4813071F0813050F08230C9F40DC031
S1134020883089F0883068F0893091F40EC082E0DD
S113403001C083E00E94B51F0BC081E0FBCF80E08C
S113404005C082E003C083E001C081E00E94E41067
S11340501F910F91FF90EF90CF900895DF92EF9210
S1134060FF920F931F937B018C01D42E8091360213
S1134070882319F481E00E94591FE0921002F09203
S113408011020093120210931302D09214028FEFC4
S11340908093F8038093F9038093FA038093FB03DE
S11340A08093FC038093FD0380E090E01F910F91C7
S11340B0FF90EF90DF9008950F931F93CF93DF93BA
S11340C06FE08DE294E00E94B202EC01892B09F4C6
S11340D08CC0809136028430B9F5809138028823EF
S11340E009F083C081E08093380285E00E94591F63
S11340F080917504909176048983892F9927888308
S113410080910002909101028B83892F99278A83E1
S11341102091100230911102409112025091130229
S1134120FE0134962383BB27A52F942F832F8283EC
S1134130CA01AA27BB278183252F33274427552764
S11341402C8380911402888780913602853009F08F
S11341504CC080910E05882331F080E00E94020E4D
S113416010920E0542C080918403882321F481E0DB
S11341700E94591F3AC08091F80389878091F903FE
S11341808A878091FA038B878091FB038C878091C7
S1134190FC038D878091FD038E8708811127102FE2
S11341A0002789819927082B192B60911E02709191
S11341B01F028DE294E00E94700400933304012FE7
S11341C01127009334048DE294E00E947904FC01E9
S11341D081E580834FE06DE274E081E00E94791311
S11341E0882319F080E00E94020EDF91CF911F9185
S11341F00F91089580919B048D7F80939B048091FF
S113420089048D7F8093890480E00E94591F8FEF79
S113421090E0A0E0B0E08093100290931102A0938C
S11342201202B09313029FEF909314021092F803BA
S11342301092F9031092FA031092FB031092FC03FC
S11342401092FD031092D5041092D6041092D70454
S11342501092D8041092D9041092DA0485E0809365
S11342600A029093EA041092E9041092E80410926E
S1134270E7049093EB049093EE041092E50480E03D
S113428090E00895EF92FF920F931F938091EE04B4
S1134290E82FFF278091EB04E817A0F56091E9046B
S11342A0772788279927982F872F762F6627E090DE
S11342B0E704FF24002711271E2D0027FF24EE24E6
S11342C02091E804332744275527A90133272227BF
S11342D0E22AF32A042B152B2091EA0433274427DE
S11342E05527E22AF32A042B152B6E297F29802BCC
S11342F0912B4E2F0E942E2084E08093E6040E948E
S11343003B1D1BC04FEF6FEF70E080E090E00E9418
S11343102E200E94FA2081E080930A028091880274
S1134320823031F0833031F0813039F485E003C0DC
S113433083E001C084E00E94630F1F910F91FF90FE
S1134340EF90089583E080930A0280919202909105
S11343509302A0919402B09195028093EA04292FCC
S11343603A2F4B2F55272093E9049D0144275527C5
S11343702093E8048B2F9927AA27BB278093E7046F
S11343808091C9049091CA04A091CB04B091CC044B
S11343900197A109B1093AE0B695A7959795879534
S11343A03A95D1F78F5F8093EB041092EE0445E0C9
S11343B067EE74E080E090E00E94AB048093ED042B
S11343C0892F99278093EC0480910A02833011F499
S11343D00E943B1D84E080930A02809188028093AE
S11343E037020E94422108958B3029F18C3060F409
S11343F08430C1F0853018F4833071F513C08530F2
S113440089F08A3049F515C08E30E9F08F3028F4F0
S11344108C3099F08D3001F512C08F30B1F08031BD
S1134420D9F417C080910A028823B1F40E94A22112
S1134430089580E005C082E003C083E001C081E00C
S11344400E94CF10089582E001C083E00E942D05F0
S1134450089581E00E942D050895CF92EF92FF9276
S11344600F931F93CF93DF93CDB7DEB722970FB689
S1134470F894DEBF0FBECDBF80917403482F55273B
S11344808CE190E0489FF001499FF00D589FF00D9A
S11344901124CF018A539A4F2817390709F0F1C024
S11344A0CC2071F08FEF8093F8038093F90380930D
S11344B0FA038093FB038093FC038093FD03D8C02D
S11344C0EB53FA4F20813327E22FE695E695E695E4
S11344D0FF27E850FC4F2770307081E090E002C065
S11344E0880F991F2A95E2F780952081282320833D
S11344F0CA01019662E070E00E942039809374033F
S11345008091C00281508093C0022FE230E048EFD6
S113451053E060E070E0CE0101960E94B902882366
S113452009F4A9C0119A60911402E090E904FF24EF
S113453000271127102F0F2DFE2CEE242091E704C5
S1134540332744275527522F442733272227809186
S1134550E8049927AA27BB27DC0199278827282B59
S1134560392B4A2B5B2B8091EA049927AA27BB2776
S1134570282B392B4A2B5B2BE22AF32A042B152BED
S11345808091100290911102A0911202B091130235
S11345908E159F05A007B10709F067C08091EE044E
S11345A0681709F062C06F5F6093EE0445E067EE40
S11345B074E080E090E00E94AB048093ED04892FC6
S11345C099278093EC048091EE04E82FFF278091D3
S11345D0EB04E81718F40E94422147C06091E904F3
S11345E0772788279927982F872F762F6627E0909B
S11345F0E704FF24002711271E2D0027FF24EE24A3
S11346002091E804332744275527A901332722277B
S1134610E22AF32A042B152B2091EA04332744279A
S11346205527E22AF32A042B152B6E297F29802B88
S1134630912B4E2F0E942E2081E080930A028091BC
S11346408802823041F0833041F0813011F081E002
S113465007C085E003C083E001C084E00E94630FCB
S1134660882319F083E00E94130281E00E94591FFD
S11346701092C00206C08091C002882311F00E94EB
S1134680FE0A22960FB6F894DEBF0FBECDBFDF91AF
S1134690CF911F910F91FF90EF90CF900895CF92FB
S11346A0EF92FF920F931F93843031F0853031F0F5
S11346B0833039F482E003C083E001C081E00E94CA
S11346C02D221F910F91FF90EF90CF900895CF92DC
S11346D0DF92EF92FF920F931F93CF93DF93C82E35
S11346E07B01D0902502CD2DDD278BE090E0C89F83
S11346F0F001C99FF00DD89FF00D1124E250FC4F3A
S113470010818FEF80932502108281E0D81659F032
S1134710D81638F082E0D81641F083E0D81651F468
S113472006C080E005C081E003C082E001C083E0F0
S11347300E945A0C133009F4A3C0143030F4113021
S1134740B1F1123009F0AEC05EC0143021F0153062
S113475009F0A8C06CC0E090F802F090F902009152
S1134760FA021091FB028BE090E0C89FF001C99F10
S1134770F00DD89FF00D1124E250FC4F4381548179
S1134780658176812181328181E0D81649F0D8167D
S113479038F082E0D81621F083E0D81609F082C000
S11347A010923B0280912F060E9400207BC0E09073
S11347B0F802F090F9020091FA021091FB028BE0EA
S11347C090E0C89FF001C99FF00DD89FF00D11240F
S11347D0E250FC4F4381548165817681218132818D
S11347E081E0D81649F0D81638F082E0D81621F0C6
S11347F083E0D81609F056C010923B0280912F0630
S11348000E944F234FC081E0D81649F0D81638F0E3
S113481082E0D81621F083E0D81609F043C0109244
S11348203B026C2D80912F060E94F4213BC0009125
S1134830F8021091F9022091FA023091FB028BE008
S113484090E0C89FF001C99FF00DD89FF00D11248E
S1134850E250FC4F438154816581768181E0D81612
S113486041F0D81630F082E0D81619F083E0D8165B
S1134870C9F410923B0280912F060E94AF1012C01F
S113488081E0D81641F0D81630F082E0D81619F03D
S113489083E0D81639F410923B026C2D80912F06D8
S11348A00E94D40EDF91CF911F910F91FF90EF9052
S11348B0DF90CF900895282F809170034093700368
S11348C08330A9F0843028F4813089F0823069F58E
S11348D006C0843009F18650823038F513C08091C7
S11348E025028F3F11F1222389F4CB0108C0809166
S11348F025028F3FD1F0222349F480E090E00E940A
S113490036260895809125028F3F79F060E070E0AB
S1134910822F0E9467230895809125028F3F29F0FA
S113492060E070E0822F0E9467230895CF92DF92A7
S1134930EF92FF920F931F932091760330917703A8
S113494060917404462F5527FA01EE0FFF1FE40F00
S1134950F51FDF01AF53BD4F8D919C91119728171F
S1134960390709F0D3C090917003953009F44DC014
S1134970963080F4923009F493C0933020F491304F
S113498009F0F7C072C0933009F4A5C0943009F05F
S1134990F0C007C0983008F447C09A3008F0E9C066
S11349A04EC0809121059091220581309105E1F05E
S11349B08130910520F0029709F0DBC010C080918E
S11349C08A02882309F0BBC001E0C02ED12CEE245A
S11349D0FF2400E010E040E061E88BE0C8C0ED5344
S11349E0FD4F808184608083FA01EE0FFF1FE40F86
S11349F0F51FED53FD4F80818260808340E060E0CD
S1134A0070E080E00E945B24B4C0ED53FD4F8081D0
S1134A1081FF9CC080912105909122058D939C93E8
S1134A2080818D7F808319C0ED53FD4F808181FF8C
S1134A308DC0869586958695837059F08AC0FA0153
S1134A40EE0FFF1FE40FF51FED53FD4F808181FF33
S1134A507DC0983011F0963011F48FE074C010923C
S1134A607003892F0E94C02584C0ED53FD4F8081BF
S1134A7080FD65C0C0907004D0907104E0908A03FA
S1134A80F0908B030091210510912205662311F00B
S1134A9064ED01C066ED20E030E042E082E067C0F2
S1134AA0ED53FD4F808180FD4AC0E0908A03F09071
S1134AB08B03C0907004D090710400912105109173
S1134AC02205662311F064ED01C066ED20E030E0BC
S1134AD042E083E04CC0ED53FD4F808180FD2FC048
S1134AE0C0907004D0907104E0908A03F0908B031E
S1134AF00091210510912205662311F064E801C09C
S1134B0067E820E030E040E084E031C0ED53FD4F41
S1134B10808181FF1BC08695869586958370C9F434
S1134B2080917003843019F42D933C930DCF8091C0
S1134B308A02882321F4662381F063E50FC085E0AF
S1134B4080933C0282E10E94130213C00E94220F50
S1134B5010C0862F0E94EA0E0CC065E5A1E0CA2EA3
S1134B60D12CEE24FF2400E010E040E088E00E9415
S1134B70D40D1F910F91FF90EF90DF90CF90089587
S1134B80809370038091C30281FD03C0109274046A
S1134B900CC08091C60281FD04C081E0809374043E
S1134BA004C08FE00E941302089580917404992731
S1134BB0FC01EE0FFF1FE80FF91FED53FD4F80813D
S1134BC0877E80830E94962408950F931F93E82F75
S1134BD080937003109371040093700430938B03DB
S1134BE020938A037093770360937603509322058E
S1134BF0409321058091C1029091C2026817790700
S1134C0019F41092740413C08091C4029091C502E7
S1134C106817790721F481E08093740408C090E058
S1134C2080917404882309F491E090937404605093
S1134C30784098F481E00930180778F4E53051F0B1
S1134C4081E04830580748F4400F511F4950514003
S1134C5020F407C04050584020F080E10E94130225
S1134C6002C00E9496241F910F9108952F923F92A3
S1134C704F925F926F927F928F929F92AF92BF9268
S1134C80CF92DF92EF92FF920F931F93CF93DF9314
S1134C901C0140912502242F33276090F802709064
S1134CA0F9028090FA029090FB028BE090E0289F3A
S1134CB0E001299FD00D389FD00D1124C250DC4F44
S1134CC0AF80B884C984DA84A618B708C808D9089C
S1134CD049805A80A114B104C104D10429F4B1015A
S1134CE080E00E9467234FC0EB80FC800D811E8111
S1134CF0E60CF71C081D191D9927812F702F6F2DA5
S1134D00842F0E943F05BC01A7015070E12C31E0C3
S1134D10F32EE41AF50AC701AA27BB27A816B90679
S1134D20CA06DB0608F475012881243051F02530C9
S1134D3071F0213089F4460C571C8701920183E0FD
S1134D4009C0460C571C8701920181E003C087010A
S1134D50910182E00E94E52597014427552780911F
S1134D60F8029091F902A091FA02B091FB02820F2D
S1134D70931FA41FB51F8093F8029093F902A09388
S1134D80FA02B093FB02DF91CF911F910F91FF9034
S1134D90EF90DF90CF90BF90AF909F908F907F90D7
S1134DA06F905F904F903F902F9008950F931F93B3
S1134DB0482F80932502282F33278BE090E0289FEB
S1134DC0F001299FF00D389FF00D1124E250FC4FA3
S1134DD08081823019F08330A9F410C060E070E063
S1134DE0842F0E943F0500E010E020E030E040E026
S1134DF050E0BC0184E00E94E52510C087E00E94D9
S1134E00C0250CC0818192811092F8021092F9029F
S1134E101092FA021092FB020E9436261F910F9103
S1134E20089581E10E94BB0480914302823031F4F1
S1134E3060917E03772780E00E94AE0D0E94FA20E5
S1134E401092430208950E94C61C0E94112780E01C
S1134E5094E090931F0280931E020E946F148AE1D3
S1134E600E949D1B129A119A109A8091BF0481FF8F
S1134E7003C08D7F8093BF0408958F929F92AF9259
S1134E80BF92DF92EF92FF920F931F934B015C014D
S1134E9060E070E0E8E7F4E0D084D1FE01C1208155
S1134EA0318142815381E480F58006811781D501E7
S1134EB0C401821B930BA40BB50B8E159F05A00791
S1134EC0B10708F4EDC0D0FE04C08DEFD822D0861F
S1134ED008C02E0D3F1D401F511F20833183428384
S1134EE053836330A1F1643028F46130B1F062304F
S1134EF0C8F410C0663009F4C5C0673020F46430CB
S1134F0009F0D5C08AC0673009F4C3C0683009F01D
S1134F10CEC0C2C00E941707CAC00E945C200E9473
S1134F206A1EC5C0809196028D3011F484E10BC0D5
S1134F30873111F48AE007C0823211F483E203C09E
S1134F40813219F484E28093960287E0A6C08091AE
S1134F50E60480FD3EC06EE087EC92E00E94B2025F
S1134F60FC01892BB1F180913502882391F5809160
S1134F700002909101028183892F9927808382E026
S1134F80828313823496A7EEB4E089E00D900192F7
S1134F908150E1F760911E0270911F0287EC92E04C
S1134FA00E9470048FEF8093CD028093CE0287EC31
S1134FB092E00E947904FC0180E580834EE067EC76
S1134FC072E080E00E947913882319F481E08093D1
S1134FD0350290E080913602823008F091E08091B1
S1134FE0E604992319F08170846007C0982F969580
S1134FF031F09150990F8170892B8093E604809150
S1135000E6048E7F39F48091E504863118F48F5FCD
S11350108093E5040E94E11C4AC02091A0043091D1
S1135020A1044091A2045091A30480914A0290915A
S11350304B02A0914C02B0914D020097A105B1051D
S1135040F1F082179307A407B507C9F480915202BF
S1135050882361F42FB7F894332780917304816017
S1135060809373042FBF86E10E94130280E090E0D6
S11350700E94F50680E00E94500E109252020E9497
S1135080CF1B15C080912F028A3089F40E94C61C60
S11350900EC00E9423270BC082E00E94130207C0A7
S11350A06F5F7F4F39966930710509F0F5CE81E065
S11350B00E9413021F910F91FF90EF90DF90BF9019
S11350C0AF909F908F900895AF92BF92CF92DF924E
S11350D0EF92FF920F931F930E94BE035B016C013A
S11350E08FB7F8949927109275038FBF7FEFE72E3F
S11350F07FEFF72E7FEF072F7FE7172F60E0E8E7BA
S1135100F4E0808581FF1CC080819181A281B381FC
S1135110A6019501281B390B4A0B5B0BDA01C90167
S11351202481358146815781281B390B4A0B5B0B3F
S11351302E153F05400751071CF479018A0161E0EF
S1135140399634E0E93CF307E1F66623D9F01E14FE
S11351501F04100611062CF0C601B5010E943D275C
S113516011C0E0921805F092190500931A051093E6
S11351701B0581E08093FC02A8019701C601B501DB
S11351800E94AC071F910F91FF90EF90DF90CF909A
S1135190BF90AF900895AF92BF92CF92DF92EF92FB
S11351A0FF920F931F938091F0049927813041F06F
S11351B0813008F4C9C08350823008F0C5C003C0F0
S11351C00E941127C1C080914302823009F064C05B
S11351D0A090F304BB24CC24DD24DC2CCB2CBA2CEF
S11351E0AA242091F104332744275527522F44271A
S11351F0332722278091F2049927AA27BB27DC01B1
S113520099278827282B392B4A2B5B2B8091F40470
S11352109927AA27BB27282B392B4A2B5B2BA22A99
S1135220B32AC42AD52AE0907C03FF24002711273F
S1135230102F0F2DFE2CEE2420917A0333274427C0
S11352405527522F44273327222780917B03992700
S1135250AA27BB27DC0199278827282B392B4A2B1F
S11352605B2B80917D039927AA27BB27282B392BF9
S11352704A2B5B2BE22AF32A042B152BAE14BF0412
S1135280C006D10639F49091F50480917E039817F5
S113529009F45AC00E941127E090F304FF24002768
S11352A01127102F0F2DFE2CEE242091F10433270B
S11352B044275527522F4427332722278091F2046D
S11352C09927AA27BB27DC0199278827282B392B64
S11352D04A2B5B2B8091F4049927AA27BB27282B00
S11352E0392B4A2B5B2BE22AF32A042B152B8DEA4C
S11352F0E81689E1F80682E308078AED1807F9F051
S11353009091F504809191028330F1F410920D058F
S1135310E4E5EE2EF12C012D112D2FEF32E040E0CB
S113532050E060E070E0892F0E94940A882311F411
S113533084E002C0809191028093910205C081E0D3
S1135340809343020E94970DA9E7B3E0E0EFF4E0F5
S11353508AE001900D928150E1F71F910F91FF9027
S1135360EF90DF90CF90BF90AF900895EF92FF92AF
S11353700F931F9379018A016A3018F04AE050E0D4
S113538002C0462F5527BC0180EF94E00E946A3981
S1135390E0923F02F09240020093410210934202D5
S11353A00E94CB281F910F91FF90EF9008957F9258
S11353B08F929F92AF92BF92CF92DF92EF92FF9221
S11353C00F931F9380914302813021F0823009F0C2
S11353D04CC1CAC080907E03A0908103BB24CC241E
S11353E0DD24DC2CCB2CBA2CAA2420917F03332778
S11353F044275527522F442733272227809180039F
S11354009927AA27BB27DC0199278827282B392B22
S11354104A2B5B2B809182039927AA27BB27282B31
S1135420392B4A2B5B2BA22AB32AC42AD52AE09013
S11354307C03FF2400271127102F0F2DFE2CEE24B0
S113544020917A03332744275527522F44273327A3
S1135450222780917B039927AA27BB27DC01992760
S11354608827282B392B4A2B5B2B80917D03992786
S1135470AA27BB27282B392B4A2B5B2BE22AF32A9A
S1135480042B152B0E94FA2082E080930A02E092FA
S1135490EA04BB27A12F902F8F2D8093E904C80124
S11354A0AA27BB278093E804E12EFF2400271127B5
S11354B0E092E7040894A108B108C108D108BAE051
S11354C0D694C794B794A794BA95D1F7A394A0920D
S11354D0EB04A092EE0445E067EE74E080E090E017
S11354E00E94AB048093ED04892F99278093EC04E8
S11354F080910A02823011F40E943B1D84E0809363
S11355000A02809237024091EB0455276091E90426
S1135510772788279927982F872F762F6627C0907B
S1135520E704DD24EE24FF24FC2CEE24DD24CC242B
S11355300091E80411272227332798011127002717
S1135540C02AD12AE22AF32A0091EA041127222749
S11355503327C02AD12AE22AF32A6C297D298E29ED
S11355609F290E942E2081C080907E039924A090C0
S11355708103BB24CC24DD24DC2CCB2CBA2CAA2420
S113558020917F03332744275527522F442733275D
S11355902227809180039927AA27BB27DC0199271A
S11355A08827282B392B4A2B5B2B80918203992740
S11355B0AA27BB27282B392B4A2B5B2BA22AB32AD9
S11355C0C42AD52AE0907C03FF2400271127102F3A
S11355D00F2DFE2CEE2420917A03332744275527E0
S11355E0522F44273327222780917B039927AA2708
S11355F0BB27DC0199278827282B392B4A2B5B2BC7
S113560080917D039927AA27BB27282B392B4A2B66
S11356105B2BE22AF32A042B152B0E94FA20E0923A
S11356209202F09293020093940210939502A09236
S1135630C904B092CA04C092CB04D092CC04809224
S1135640880282E0881641F083E0881639F081E010
S1135650881639F485E003C083E001C084E00E9429
S1135660C20F882311F410920A021F910F91FF9028
S1135670EF90DF90CF90BF90AF909F908F907F90EE
S113568008958FB7F89499272091FA0520932B0257
S113569022E020933E028FBF80912B028F3061F075
S11356A0803118F48E3081F405C0803139F08131B5
S11356B059F408C08EE003C08FE001C080E10E946D
S11356C0C20F08950E94D72908954F925F926F9256
S11356D07F928F929F92AF92BF92CF92DF92EF927E
S11356E0FF920F931F93CF93DF93E82FFF27EA31A5
S11356F0F10510F00C94FE34E554FF4FEE0FFF1F3C
S11357000590F491E02D099480912705882309F0F0
S1135710BCC00C94FE348FB7F8942091730420FF1E
S113572002C00C94D03420E00C94D4348091FC0258
S1135730882361F5209118053091190540911A05C7
S113574050911B05EFB7F894FF2760919802709170
S1135750990280919A0290919B02E0902805F09022
S1135760290500912A0510912B056E0D7F1D801FC0
S1135770911FEFBF209318053093190540931A0524
S113578050931B051092FC020E94AC070E94BE03BA
S11357900E943D270C94FE340E9464280C94FE342D
S11357A067E08EEF95E00E94B202DC018091060270
S11357B0FD0181932FB7F8943327809116029091BD
S11357C017022FBF8183892F9927FD01818381EAE5
S11357D08383148280913002909131028683892FD1
S11357E09927858361E08EEF95E00E947B04009108
S11357F007021091080260911E0270911F028EEF41
S113580095E00E94700400930406012F1127009371
S113581005068EEF95E00E947904FC0188E98083F7
S113582047E06EEF75E085E00E947913882311F05C
S11358300C94FE3481E0809332020C94FE348FB7D2
S1135840F8949927129A119810988FBF10924302D6
S1135850809179039927833029F0843011F00C94D6
S1135860FE3407C081E0809343020E94970D0C949C
S1135870FE3440E050E060E070E080917E030E94DE
S113588004050E9461090C94FE3461E0F62E00E0E8
S113589010E0C0E6D4E0909127058F2D892369F0AC
S11358A068817981198218828F2D8095982390932D
S11358B0270543E0802F0E94611D0F5F1F4F229632
S11358C00830110511F40C94FE34FF0CE4CF8091E0
S11358D01502E82FFF27EE0FFF1FE05AFB4F6081F0
S11358E0718141E00E94111E0C94FE342FB7F8948C
S11358F033278091550380931B0282E08093390201
S11359002FBF80911B02882311F00C94FE348091E8
S11359105603909157030E941312082F1127002356
S113592011F40C94FE3480E00E949E0C602F809150
S1135930560390915703FAC0809196028A3011F071
S11359408E3149F58FB7F8949927209153032F5F2F
S1135950209353038FBF80917203882309F045C0BD
S113596080915302882309F040C08091FB05813067
S113597049F490E08091D104882309F491E09923BB
S1135980A1F102C0853089F183E0809353020E9423
S11359901C1B85E01FC0843111F0813049F58FB79D
S11359A0F8949927209153032F5F209353038FBFBB
S11359B0809172038823C9F4809153028823A9F447
S11359C08091FB05813089F081E0809353020E942D
S11359D01C1B86E0809372030E94081B8091960230
S11359E08F5F809396020C94FE340E94081B38C08B
S11359F0843049F48AE0809396020E943A020E941D
S1135A00871C0C94FE34833021F4109296020C947B
S1135A10FE348C3081F48DE08093960280911C02D8
S1135A2090911D02892B11F40C94FE3465E070E012
S1135A3080E090E00EC08631B9F460911C02709150
S1135A401D026115710549F087E18093960288274C
S1135A5099270E944E1E0C94FE348AE0809396028D
S1135A600E943A020C94FE34803289F48091FC0541
S1135A709091FD050E94F106009709F4CFC00A96A3
S1135A809C01B901882799270E944E1EC7C0813204
S1135A9049F54091FC055091FD058FB7F89499277D
S1135AA0209153032F5F209353038FBF8091720380
S1135AB0882391F45093DE044093DD0481E08093C5
S1135AC072031092D40489E00E9413020E94081BFE
S1135AD01092870282E285CF0E94081B85E08093A2
S1135AE087029AC0843211F00C94FE348DE08093C6
S1135AF0960280911C0290911D02892B41F06091C5
S1135B00200270912102882799270E944E1E10912D
S1135B108702C091FC05D091FD058A858F3309F079
S1135B206DC780E00E949E0C612FCE010E942C1E46
S1135B3065C78091720310927203853011F086302C
S1135B4021F4809196028F5F89CF873009F456C77C
S1135B508093720353C72FB7F8943327809153036C
S1135B608F5F809353032FBF40917203413081F5BF
S1135B708091D4048F5F8093D404863048F52091BB
S1135B80DD043091DE04809173038823C1F490E036
S1135B908091D104882309F491E0992381F0309312
S1135BA05C0320935B034093730382EC95E00E94B3
S1135BB0CE060E94B50610922C0583E004C085E051
S1135BC080932C0582E0809372030E94081B16C701
S1135BD0109272030E94081B80912C05C091DD0471
S1135BE0D091DE0480938702882389F4CE010E9439
S1135BF0F106892B61F080919602833241F0CE0147
S1135C000E944706882351F08EA580FF07C080912B
S1135C1092048D7F8093920484E220CF81E21ECF90
S1135C208FB7F894282F33278091FB04882309F435
S1135C30E4C6E0911F05FF27EE0FFF1FE557FD4F58
S1135C40C081D1812FBF80919602843121F48DE0EF
S1135C508093960202C08D3071F480911C02909161
S1135C601D02892B41F06091200270912102882746
S1135C7099270E944E1E8A851F810E818F3309F059
S1135C8025C4CE010E947904FC01E081DE016D91FE
S1135C903D01812F9927582F4427802F9927482B7E
S1135CA0592B8FB7F8949927209116023091170237
S1135CB08FBF4217530721F04F5F5F4F09F020C495
S1135CC02CE0422E512C4C0E5D1E6D50FF27E23508
S1135CD009F46AC1E33530F4E03571F0E13509F0D7
S1135CE00FC4C7C0E13609F490C2E93909F4B0C25F
